{
	"KaseiCoinCrowdsale.sol": {
		"KaseiCoinCrowdsaleDeployer": {
			"abi": [
				{
					"inputs": [
						{
							"internalType": "string",
							"name": "name",
							"type": "string"
						},
						{
							"internalType": "string",
							"name": "symbol",
							"type": "string"
						},
						{
							"internalType": "address payable",
							"name": "wallet",
							"type": "address"
						}
					],
					"payable": false,
					"stateMutability": "nonpayable",
					"type": "constructor"
				},
				{
					"constant": true,
					"inputs": [],
					"name": "kasei_crowdsale_address",
					"outputs": [
						{
							"internalType": "address",
							"name": "",
							"type": "address"
						}
					],
					"payable": false,
					"stateMutability": "view",
					"type": "function"
				},
				{
					"constant": true,
					"inputs": [],
					"name": "kasei_token_address",
					"outputs": [
						{
							"internalType": "address",
							"name": "",
							"type": "address"
						}
					],
					"payable": false,
					"stateMutability": "view",
					"type": "function"
				}
			],
			"devdoc": {
				"methods": {}
			},
			"evm": {
				"assembly": "    /* \"KaseiCoinCrowdsale.sol\":872:2261  contract KaseiCoinCrowdsaleDeployer {... */\n  mstore(0x40, 0x80)\n    /* \"KaseiCoinCrowdsale.sol\":1204:2259  constructor(... */\n  callvalue\n    /* \"--CODEGEN--\":8:17   */\n  dup1\n    /* \"--CODEGEN--\":5:7   */\n  iszero\n  tag_1\n  jumpi\n    /* \"--CODEGEN--\":30:31   */\n  0x00\n    /* \"--CODEGEN--\":27:28   */\n  dup1\n    /* \"--CODEGEN--\":20:32   */\n  revert\n    /* \"--CODEGEN--\":5:7   */\ntag_1:\n    /* \"KaseiCoinCrowdsale.sol\":1204:2259  constructor(... */\n  pop\n  mload(0x40)\n  sub(codesize, bytecodeSize)\n  dup1\n  bytecodeSize\n  dup4\n  codecopy\n  dup2\n  dup2\n  add\n  0x40\n  mstore\n    /* \"--CODEGEN--\":13:15   */\n  0x60\n    /* \"--CODEGEN--\":8:11   */\n  dup2\n    /* \"--CODEGEN--\":5:16   */\n  lt\n    /* \"--CODEGEN--\":2:4   */\n  iszero\n  tag_2\n  jumpi\n    /* \"--CODEGEN--\":29:30   */\n  0x00\n    /* \"--CODEGEN--\":26:27   */\n  dup1\n    /* \"--CODEGEN--\":19:31   */\n  revert\n    /* \"--CODEGEN--\":2:4   */\ntag_2:\n    /* \"KaseiCoinCrowdsale.sol\":1204:2259  constructor(... */\n  dup2\n  add\n  swap1\n  dup1\n  dup1\n  mload\n  mload(0x40)\n  swap4\n  swap3\n  swap2\n  swap1\n  dup5\n    /* \"--CODEGEN--\":19:30   */\n  0x0100000000\n    /* \"--CODEGEN--\":14:17   */\n  dup3\n    /* \"--CODEGEN--\":11:31   */\n  gt\n    /* \"--CODEGEN--\":8:10   */\n  iszero\n  tag_3\n  jumpi\n    /* \"--CODEGEN--\":44:45   */\n  0x00\n    /* \"--CODEGEN--\":41:42   */\n  dup1\n    /* \"--CODEGEN--\":34:46   */\n  revert\n    /* \"--CODEGEN--\":8:10   */\ntag_3:\n    /* \"--CODEGEN--\":71:82   */\n  dup4\n    /* \"--CODEGEN--\":66:69   */\n  dup3\n    /* \"--CODEGEN--\":62:83   */\n  add\n    /* \"--CODEGEN--\":55:83   */\n  swap2\n  pop\n    /* \"--CODEGEN--\":123:127   */\n  0x20\n    /* \"--CODEGEN--\":118:121   */\n  dup3\n    /* \"--CODEGEN--\":114:128   */\n  add\n    /* \"--CODEGEN--\":159:168   */\n  dup6\n    /* \"--CODEGEN--\":141:157   */\n  dup2\n    /* \"--CODEGEN--\":138:169   */\n  gt\n    /* \"--CODEGEN--\":135:137   */\n  iszero\n  tag_4\n  jumpi\n    /* \"--CODEGEN--\":182:183   */\n  0x00\n    /* \"--CODEGEN--\":179:180   */\n  dup1\n    /* \"--CODEGEN--\":172:184   */\n  revert\n    /* \"--CODEGEN--\":135:137   */\ntag_4:\n    /* \"--CODEGEN--\":219:222   */\n  dup3\n    /* \"--CODEGEN--\":213:223   */\n  mload\n    /* \"--CODEGEN--\":330:339   */\n  dup7\n    /* \"--CODEGEN--\":325:326   */\n  0x01\n    /* \"--CODEGEN--\":311:323   */\n  dup3\n    /* \"--CODEGEN--\":307:327   */\n  mul\n    /* \"--CODEGEN--\":289:305   */\n  dup4\n    /* \"--CODEGEN--\":285:328   */\n  add\n    /* \"--CODEGEN--\":282:340   */\n  gt\n    /* \"--CODEGEN--\":261:272   */\n  0x0100000000\n    /* \"--CODEGEN--\":247:259   */\n  dup3\n    /* \"--CODEGEN--\":244:273   */\n  gt\n    /* \"--CODEGEN--\":233:348   */\n  or\n    /* \"--CODEGEN--\":230:232   */\n  iszero\n  tag_5\n  jumpi\n    /* \"--CODEGEN--\":361:362   */\n  0x00\n    /* \"--CODEGEN--\":358:359   */\n  dup1\n    /* \"--CODEGEN--\":351:363   */\n  revert\n    /* \"--CODEGEN--\":230:232   */\ntag_5:\n    /* \"--CODEGEN--\":384:396   */\n  dup1\n    /* \"--CODEGEN--\":379:382   */\n  dup4\n    /* \"--CODEGEN--\":372:397   */\n  mstore\n    /* \"--CODEGEN--\":420:424   */\n  0x20\n    /* \"--CODEGEN--\":415:418   */\n  dup4\n    /* \"--CODEGEN--\":411:425   */\n  add\n    /* \"--CODEGEN--\":404:425   */\n  swap3\n  pop\n    /* \"--CODEGEN--\":0:432   */\n  pop\n  pop\n    /* \"KaseiCoinCrowdsale.sol\":1204:2259  constructor(... */\n  swap1\n  dup1\n  mload\n  swap1\n  0x20\n  add\n  swap1\n  dup1\n  dup4\n  dup4\n    /* \"--CODEGEN--\":23:24   */\n  0x00\n    /* \"--CODEGEN--\":8:108   */\ntag_6:\n    /* \"--CODEGEN--\":33:36   */\n  dup4\n    /* \"--CODEGEN--\":30:31   */\n  dup2\n    /* \"--CODEGEN--\":27:37   */\n  lt\n    /* \"--CODEGEN--\":8:108   */\n  iszero\n  tag_8\n  jumpi\n    /* \"--CODEGEN--\":99:100   */\n  dup1\n    /* \"--CODEGEN--\":94:97   */\n  dup3\n    /* \"--CODEGEN--\":90:101   */\n  add\n    /* \"--CODEGEN--\":84:102   */\n  mload\n    /* \"--CODEGEN--\":80:81   */\n  dup2\n    /* \"--CODEGEN--\":75:78   */\n  dup5\n    /* \"--CODEGEN--\":71:82   */\n  add\n    /* \"--CODEGEN--\":64:103   */\n  mstore\n    /* \"--CODEGEN--\":52:54   */\n  0x20\n    /* \"--CODEGEN--\":49:50   */\n  dup2\n    /* \"--CODEGEN--\":45:55   */\n  add\n    /* \"--CODEGEN--\":40:55   */\n  swap1\n  pop\n    /* \"--CODEGEN--\":8:108   */\n  jump(tag_6)\ntag_8:\n    /* \"--CODEGEN--\":12:26   */\n  pop\n    /* \"KaseiCoinCrowdsale.sol\":1204:2259  constructor(... */\n  pop\n  pop\n  pop\n  swap1\n  pop\n  swap1\n  dup2\n  add\n  swap1\n  0x1f\n  and\n  dup1\n  iszero\n  tag_9\n  jumpi\n  dup1\n  dup3\n  sub\n  dup1\n  mload\n  0x01\n  dup4\n  0x20\n  sub\n  0x0100\n  exp\n  sub\n  not\n  and\n  dup2\n  mstore\n  0x20\n  add\n  swap2\n  pop\ntag_9:\n  pop\n  0x40\n  mstore\n  0x20\n  add\n  dup1\n  mload\n  mload(0x40)\n  swap4\n  swap3\n  swap2\n  swap1\n  dup5\n    /* \"--CODEGEN--\":19:30   */\n  0x0100000000\n    /* \"--CODEGEN--\":14:17   */\n  dup3\n    /* \"--CODEGEN--\":11:31   */\n  gt\n    /* \"--CODEGEN--\":8:10   */\n  iszero\n  tag_10\n  jumpi\n    /* \"--CODEGEN--\":44:45   */\n  0x00\n    /* \"--CODEGEN--\":41:42   */\n  dup1\n    /* \"--CODEGEN--\":34:46   */\n  revert\n    /* \"--CODEGEN--\":8:10   */\ntag_10:\n    /* \"--CODEGEN--\":71:82   */\n  dup4\n    /* \"--CODEGEN--\":66:69   */\n  dup3\n    /* \"--CODEGEN--\":62:83   */\n  add\n    /* \"--CODEGEN--\":55:83   */\n  swap2\n  pop\n    /* \"--CODEGEN--\":123:127   */\n  0x20\n    /* \"--CODEGEN--\":118:121   */\n  dup3\n    /* \"--CODEGEN--\":114:128   */\n  add\n    /* \"--CODEGEN--\":159:168   */\n  dup6\n    /* \"--CODEGEN--\":141:157   */\n  dup2\n    /* \"--CODEGEN--\":138:169   */\n  gt\n    /* \"--CODEGEN--\":135:137   */\n  iszero\n  tag_11\n  jumpi\n    /* \"--CODEGEN--\":182:183   */\n  0x00\n    /* \"--CODEGEN--\":179:180   */\n  dup1\n    /* \"--CODEGEN--\":172:184   */\n  revert\n    /* \"--CODEGEN--\":135:137   */\ntag_11:\n    /* \"--CODEGEN--\":219:222   */\n  dup3\n    /* \"--CODEGEN--\":213:223   */\n  mload\n    /* \"--CODEGEN--\":330:339   */\n  dup7\n    /* \"--CODEGEN--\":325:326   */\n  0x01\n    /* \"--CODEGEN--\":311:323   */\n  dup3\n    /* \"--CODEGEN--\":307:327   */\n  mul\n    /* \"--CODEGEN--\":289:305   */\n  dup4\n    /* \"--CODEGEN--\":285:328   */\n  add\n    /* \"--CODEGEN--\":282:340   */\n  gt\n    /* \"--CODEGEN--\":261:272   */\n  0x0100000000\n    /* \"--CODEGEN--\":247:259   */\n  dup3\n    /* \"--CODEGEN--\":244:273   */\n  gt\n    /* \"--CODEGEN--\":233:348   */\n  or\n    /* \"--CODEGEN--\":230:232   */\n  iszero\n  tag_12\n  jumpi\n    /* \"--CODEGEN--\":361:362   */\n  0x00\n    /* \"--CODEGEN--\":358:359   */\n  dup1\n    /* \"--CODEGEN--\":351:363   */\n  revert\n    /* \"--CODEGEN--\":230:232   */\ntag_12:\n    /* \"--CODEGEN--\":384:396   */\n  dup1\n    /* \"--CODEGEN--\":379:382   */\n  dup4\n    /* \"--CODEGEN--\":372:397   */\n  mstore\n    /* \"--CODEGEN--\":420:424   */\n  0x20\n    /* \"--CODEGEN--\":415:418   */\n  dup4\n    /* \"--CODEGEN--\":411:425   */\n  add\n    /* \"--CODEGEN--\":404:425   */\n  swap3\n  pop\n    /* \"--CODEGEN--\":0:432   */\n  pop\n  pop\n    /* \"KaseiCoinCrowdsale.sol\":1204:2259  constructor(... */\n  swap1\n  dup1\n  mload\n  swap1\n  0x20\n  add\n  swap1\n  dup1\n  dup4\n  dup4\n    /* \"--CODEGEN--\":23:24   */\n  0x00\n    /* \"--CODEGEN--\":8:108   */\ntag_13:\n    /* \"--CODEGEN--\":33:36   */\n  dup4\n    /* \"--CODEGEN--\":30:31   */\n  dup2\n    /* \"--CODEGEN--\":27:37   */\n  lt\n    /* \"--CODEGEN--\":8:108   */\n  iszero\n  tag_15\n  jumpi\n    /* \"--CODEGEN--\":99:100   */\n  dup1\n    /* \"--CODEGEN--\":94:97   */\n  dup3\n    /* \"--CODEGEN--\":90:101   */\n  add\n    /* \"--CODEGEN--\":84:102   */\n  mload\n    /* \"--CODEGEN--\":80:81   */\n  dup2\n    /* \"--CODEGEN--\":75:78   */\n  dup5\n    /* \"--CODEGEN--\":71:82   */\n  add\n    /* \"--CODEGEN--\":64:103   */\n  mstore\n    /* \"--CODEGEN--\":52:54   */\n  0x20\n    /* \"--CODEGEN--\":49:50   */\n  dup2\n    /* \"--CODEGEN--\":45:55   */\n  add\n    /* \"--CODEGEN--\":40:55   */\n  swap1\n  pop\n    /* \"--CODEGEN--\":8:108   */\n  jump(tag_13)\ntag_15:\n    /* \"--CODEGEN--\":12:26   */\n  pop\n    /* \"KaseiCoinCrowdsale.sol\":1204:2259  constructor(... */\n  pop\n  pop\n  pop\n  swap1\n  pop\n  swap1\n  dup2\n  add\n  swap1\n  0x1f\n  and\n  dup1\n  iszero\n  tag_16\n  jumpi\n  dup1\n  dup3\n  sub\n  dup1\n  mload\n  0x01\n  dup4\n  0x20\n  sub\n  0x0100\n  exp\n  sub\n  not\n  and\n  dup2\n  mstore\n  0x20\n  add\n  swap2\n  pop\ntag_16:\n  pop\n  0x40\n  mstore\n  0x20\n  add\n  dup1\n  mload\n  swap1\n  0x20\n  add\n  swap1\n  swap3\n  swap2\n  swap1\n  pop\n  pop\n  pop\n    /* \"KaseiCoinCrowdsale.sol\":1441:1456  KaseiCoin token */\n  0x00\n    /* \"KaseiCoinCrowdsale.sol\":1473:1477  name */\n  dup4\n    /* \"KaseiCoinCrowdsale.sol\":1479:1485  symbol */\n  dup4\n    /* \"KaseiCoinCrowdsale.sol\":1487:1488  0 */\n  0x00\n    /* \"KaseiCoinCrowdsale.sol\":1459:1489  new KaseiCoin(name, symbol, 0) */\n  mload(0x40)\n  tag_19\n  swap1\n  tag_20\n  jump\t// in\ntag_19:\n  dup1\n  dup1\n  0x20\n  add\n  dup1\n  0x20\n  add\n  dup5\n  dup2\n  mstore\n  0x20\n  add\n  dup4\n  dup2\n  sub\n  dup4\n  mstore\n  dup7\n  dup2\n  dup2\n  mload\n  dup2\n  mstore\n  0x20\n  add\n  swap2\n  pop\n  dup1\n  mload\n  swap1\n  0x20\n  add\n  swap1\n  dup1\n  dup4\n  dup4\n    /* \"--CODEGEN--\":23:24   */\n  0x00\n    /* \"--CODEGEN--\":8:108   */\ntag_21:\n    /* \"--CODEGEN--\":33:36   */\n  dup4\n    /* \"--CODEGEN--\":30:31   */\n  dup2\n    /* \"--CODEGEN--\":27:37   */\n  lt\n    /* \"--CODEGEN--\":8:108   */\n  iszero\n  tag_23\n  jumpi\n    /* \"--CODEGEN--\":99:100   */\n  dup1\n    /* \"--CODEGEN--\":94:97   */\n  dup3\n    /* \"--CODEGEN--\":90:101   */\n  add\n    /* \"--CODEGEN--\":84:102   */\n  mload\n    /* \"--CODEGEN--\":80:81   */\n  dup2\n    /* \"--CODEGEN--\":75:78   */\n  dup5\n    /* \"--CODEGEN--\":71:82   */\n  add\n    /* \"--CODEGEN--\":64:103   */\n  mstore\n    /* \"--CODEGEN--\":52:54   */\n  0x20\n    /* \"--CODEGEN--\":49:50   */\n  dup2\n    /* \"--CODEGEN--\":45:55   */\n  add\n    /* \"--CODEGEN--\":40:55   */\n  swap1\n  pop\n    /* \"--CODEGEN--\":8:108   */\n  jump(tag_21)\ntag_23:\n    /* \"--CODEGEN--\":12:26   */\n  pop\n    /* \"KaseiCoinCrowdsale.sol\":1459:1489  new KaseiCoin(name, symbol, 0) */\n  pop\n  pop\n  pop\n  swap1\n  pop\n  swap1\n  dup2\n  add\n  swap1\n  0x1f\n  and\n  dup1\n  iszero\n  tag_24\n  jumpi\n  dup1\n  dup3\n  sub\n  dup1\n  mload\n  0x01\n  dup4\n  0x20\n  sub\n  0x0100\n  exp\n  sub\n  not\n  and\n  dup2\n  mstore\n  0x20\n  add\n  swap2\n  pop\ntag_24:\n  pop\n  dup4\n  dup2\n  sub\n  dup3\n  mstore\n  dup6\n  dup2\n  dup2\n  mload\n  dup2\n  mstore\n  0x20\n  add\n  swap2\n  pop\n  dup1\n  mload\n  swap1\n  0x20\n  add\n  swap1\n  dup1\n  dup4\n  dup4\n    /* \"--CODEGEN--\":23:24   */\n  0x00\n    /* \"--CODEGEN--\":8:108   */\ntag_25:\n    /* \"--CODEGEN--\":33:36   */\n  dup4\n    /* \"--CODEGEN--\":30:31   */\n  dup2\n    /* \"--CODEGEN--\":27:37   */\n  lt\n    /* \"--CODEGEN--\":8:108   */\n  iszero\n  tag_27\n  jumpi\n    /* \"--CODEGEN--\":99:100   */\n  dup1\n    /* \"--CODEGEN--\":94:97   */\n  dup3\n    /* \"--CODEGEN--\":90:101   */\n  add\n    /* \"--CODEGEN--\":84:102   */\n  mload\n    /* \"--CODEGEN--\":80:81   */\n  dup2\n    /* \"--CODEGEN--\":75:78   */\n  dup5\n    /* \"--CODEGEN--\":71:82   */\n  add\n    /* \"--CODEGEN--\":64:103   */\n  mstore\n    /* \"--CODEGEN--\":52:54   */\n  0x20\n    /* \"--CODEGEN--\":49:50   */\n  dup2\n    /* \"--CODEGEN--\":45:55   */\n  add\n    /* \"--CODEGEN--\":40:55   */\n  swap1\n  pop\n    /* \"--CODEGEN--\":8:108   */\n  jump(tag_25)\ntag_27:\n    /* \"--CODEGEN--\":12:26   */\n  pop\n    /* \"KaseiCoinCrowdsale.sol\":1459:1489  new KaseiCoin(name, symbol, 0) */\n  pop\n  pop\n  pop\n  swap1\n  pop\n  swap1\n  dup2\n  add\n  swap1\n  0x1f\n  and\n  dup1\n  iszero\n  tag_28\n  jumpi\n  dup1\n  dup3\n  sub\n  dup1\n  mload\n  0x01\n  dup4\n  0x20\n  sub\n  0x0100\n  exp\n  sub\n  not\n  and\n  dup2\n  mstore\n  0x20\n  add\n  swap2\n  pop\ntag_28:\n  pop\n  swap6\n  pop\n  pop\n  pop\n  pop\n  pop\n  pop\n  mload(0x40)\n  dup1\n  swap2\n  sub\n  swap1\n  0x00\n  create\n  dup1\n  iszero\n    /* \"--CODEGEN--\":8:17   */\n  dup1\n    /* \"--CODEGEN--\":5:7   */\n  iszero\n  tag_29\n  jumpi\n    /* \"--CODEGEN--\":45:61   */\n  returndatasize\n    /* \"--CODEGEN--\":42:43   */\n  0x00\n    /* \"--CODEGEN--\":39:40   */\n  dup1\n    /* \"--CODEGEN--\":24:62   */\n  returndatacopy\n    /* \"--CODEGEN--\":77:93   */\n  returndatasize\n    /* \"--CODEGEN--\":74:75   */\n  0x00\n    /* \"--CODEGEN--\":67:94   */\n  revert\n    /* \"--CODEGEN--\":5:7   */\ntag_29:\n    /* \"KaseiCoinCrowdsale.sol\":1459:1489  new KaseiCoin(name, symbol, 0) */\n  pop\n    /* \"KaseiCoinCrowdsale.sol\":1441:1489  KaseiCoin token = new KaseiCoin(name, symbol, 0) */\n  swap1\n  pop\n    /* \"KaseiCoinCrowdsale.sol\":1653:1658  token */\n  dup1\n    /* \"KaseiCoinCrowdsale.sol\":1623:1642  kasei_token_address */\n  0x00\n  dup1\n    /* \"KaseiCoinCrowdsale.sol\":1623:1659  kasei_token_address = address(token) */\n  0x0100\n  exp\n  dup2\n  sload\n  dup2\n  0xffffffffffffffffffffffffffffffffffffffff\n  mul\n  not\n  and\n  swap1\n  dup4\n  0xffffffffffffffffffffffffffffffffffffffff\n  and\n  mul\n  or\n  swap1\n  sstore\n  pop\n    /* \"KaseiCoinCrowdsale.sol\":1767:1801  KaseiCoinCrowdsale kasei_crowdsale */\n  0x00\n    /* \"KaseiCoinCrowdsale.sol\":1827:1828  1 */\n  0x01\n    /* \"KaseiCoinCrowdsale.sol\":1830:1836  wallet */\n  dup4\n    /* \"KaseiCoinCrowdsale.sol\":1838:1843  token */\n  dup4\n    /* \"KaseiCoinCrowdsale.sol\":1804:1844  new KaseiCoinCrowdsale(1, wallet, token) */\n  mload(0x40)\n  tag_30\n  swap1\n  tag_31\n  jump\t// in\ntag_30:\n  dup1\n  dup5\n  dup2\n  mstore\n  0x20\n  add\n  dup4\n  0xffffffffffffffffffffffffffffffffffffffff\n  and\n  0xffffffffffffffffffffffffffffffffffffffff\n  and\n  dup2\n  mstore\n  0x20\n  add\n  dup3\n  0xffffffffffffffffffffffffffffffffffffffff\n  and\n  0xffffffffffffffffffffffffffffffffffffffff\n  and\n  dup2\n  mstore\n  0x20\n  add\n  swap4\n  pop\n  pop\n  pop\n  pop\n  mload(0x40)\n  dup1\n  swap2\n  sub\n  swap1\n  0x00\n  create\n  dup1\n  iszero\n    /* \"--CODEGEN--\":8:17   */\n  dup1\n    /* \"--CODEGEN--\":5:7   */\n  iszero\n  tag_32\n  jumpi\n    /* \"--CODEGEN--\":45:61   */\n  returndatasize\n    /* \"--CODEGEN--\":42:43   */\n  0x00\n    /* \"--CODEGEN--\":39:40   */\n  dup1\n    /* \"--CODEGEN--\":24:62   */\n  returndatacopy\n    /* \"--CODEGEN--\":77:93   */\n  returndatasize\n    /* \"--CODEGEN--\":74:75   */\n  0x00\n    /* \"--CODEGEN--\":67:94   */\n  revert\n    /* \"--CODEGEN--\":5:7   */\ntag_32:\n    /* \"KaseiCoinCrowdsale.sol\":1804:1844  new KaseiCoinCrowdsale(1, wallet, token) */\n  pop\n    /* \"KaseiCoinCrowdsale.sol\":1767:1844  KaseiCoinCrowdsale kasei_crowdsale = new KaseiCoinCrowdsale(1, wallet, token) */\n  swap1\n  pop\n    /* \"KaseiCoinCrowdsale.sol\":2036:2051  kasei_crowdsale */\n  dup1\n    /* \"KaseiCoinCrowdsale.sol\":2002:2025  kasei_crowdsale_address */\n  0x01\n  0x00\n    /* \"KaseiCoinCrowdsale.sol\":2002:2052  kasei_crowdsale_address = address(kasei_crowdsale) */\n  0x0100\n  exp\n  dup2\n  sload\n  dup2\n  0xffffffffffffffffffffffffffffffffffffffff\n  mul\n  not\n  and\n  swap1\n  dup4\n  0xffffffffffffffffffffffffffffffffffffffff\n  and\n  mul\n  or\n  swap1\n  sstore\n  pop\n    /* \"KaseiCoinCrowdsale.sol\":1204:2259  constructor(... */\n  pop\n  pop\n  pop\n  pop\n  pop\n    /* \"KaseiCoinCrowdsale.sol\":872:2261  contract KaseiCoinCrowdsaleDeployer {... */\n  jump(tag_33)\ntag_20:\n  dataSize(sub_1)\n  dup1\n  dataOffset(sub_1)\n  dup4\n  codecopy\n  add\n  swap1\n  jump\t// out\ntag_31:\n  dataSize(sub_2)\n  dup1\n  dataOffset(sub_2)\n  dup4\n  codecopy\n  add\n  swap1\n  jump\t// out\ntag_33:\n  dataSize(sub_0)\n  dup1\n  dataOffset(sub_0)\n  0x00\n  codecopy\n  0x00\n  return\nstop\n\nsub_0: assembly {\n        /* \"KaseiCoinCrowdsale.sol\":872:2261  contract KaseiCoinCrowdsaleDeployer {... */\n      mstore(0x40, 0x80)\n      callvalue\n        /* \"--CODEGEN--\":8:17   */\n      dup1\n        /* \"--CODEGEN--\":5:7   */\n      iszero\n      tag_1\n      jumpi\n        /* \"--CODEGEN--\":30:31   */\n      0x00\n        /* \"--CODEGEN--\":27:28   */\n      dup1\n        /* \"--CODEGEN--\":20:32   */\n      revert\n        /* \"--CODEGEN--\":5:7   */\n    tag_1:\n        /* \"KaseiCoinCrowdsale.sol\":872:2261  contract KaseiCoinCrowdsaleDeployer {... */\n      pop\n      jumpi(tag_2, lt(calldatasize, 0x04))\n      shr(0xe0, calldataload(0x00))\n      dup1\n      0x0f0b4619\n      eq\n      tag_3\n      jumpi\n      dup1\n      0x2ab6a2a1\n      eq\n      tag_4\n      jumpi\n    tag_2:\n      0x00\n      dup1\n      revert\n        /* \"KaseiCoinCrowdsale.sol\":1107:1145  address public kasei_crowdsale_address */\n    tag_3:\n      tag_5\n      tag_6\n      jump\t// in\n    tag_5:\n      mload(0x40)\n      dup1\n      dup3\n      0xffffffffffffffffffffffffffffffffffffffff\n      and\n      0xffffffffffffffffffffffffffffffffffffffff\n      and\n      dup2\n      mstore\n      0x20\n      add\n      swap2\n      pop\n      pop\n      mload(0x40)\n      dup1\n      swap2\n      sub\n      swap1\n      return\n        /* \"KaseiCoinCrowdsale.sol\":990:1024  address public kasei_token_address */\n    tag_4:\n      tag_7\n      tag_8\n      jump\t// in\n    tag_7:\n      mload(0x40)\n      dup1\n      dup3\n      0xffffffffffffffffffffffffffffffffffffffff\n      and\n      0xffffffffffffffffffffffffffffffffffffffff\n      and\n      dup2\n      mstore\n      0x20\n      add\n      swap2\n      pop\n      pop\n      mload(0x40)\n      dup1\n      swap2\n      sub\n      swap1\n      return\n        /* \"KaseiCoinCrowdsale.sol\":1107:1145  address public kasei_crowdsale_address */\n    tag_6:\n      0x01\n      0x00\n      swap1\n      sload\n      swap1\n      0x0100\n      exp\n      swap1\n      div\n      0xffffffffffffffffffffffffffffffffffffffff\n      and\n      dup2\n      jump\t// out\n        /* \"KaseiCoinCrowdsale.sol\":990:1024  address public kasei_token_address */\n    tag_8:\n      0x00\n      dup1\n      swap1\n      sload\n      swap1\n      0x0100\n      exp\n      swap1\n      div\n      0xffffffffffffffffffffffffffffffffffffffff\n      and\n      dup2\n      jump\t// out\n\n    auxdata: 0xa265627a7a72315820f4d0dd843c6126d142b76423c1a66ddfdbf1a6922ab742eb42035b1e6c20526864736f6c63430005110032\n}\n\nsub_1: assembly {\n        /* \"KaseiCoin.sol\":658:937  contract KaseiCoin is ERC20, ERC20Detailed, ERC20Mintable {... */\n      mstore(0x40, 0x80)\n        /* \"KaseiCoin.sol\":722:935  constructor(... */\n      callvalue\n        /* \"--CODEGEN--\":8:17   */\n      dup1\n        /* \"--CODEGEN--\":5:7   */\n      iszero\n      tag_1\n      jumpi\n        /* \"--CODEGEN--\":30:31   */\n      0x00\n        /* \"--CODEGEN--\":27:28   */\n      dup1\n        /* \"--CODEGEN--\":20:32   */\n      revert\n        /* \"--CODEGEN--\":5:7   */\n    tag_1:\n        /* \"KaseiCoin.sol\":722:935  constructor(... */\n      pop\n      mload(0x40)\n      sub(codesize, bytecodeSize)\n      dup1\n      bytecodeSize\n      dup4\n      codecopy\n      dup2\n      dup2\n      add\n      0x40\n      mstore\n        /* \"--CODEGEN--\":13:15   */\n      0x60\n        /* \"--CODEGEN--\":8:11   */\n      dup2\n        /* \"--CODEGEN--\":5:16   */\n      lt\n        /* \"--CODEGEN--\":2:4   */\n      iszero\n      tag_2\n      jumpi\n        /* \"--CODEGEN--\":29:30   */\n      0x00\n        /* \"--CODEGEN--\":26:27   */\n      dup1\n        /* \"--CODEGEN--\":19:31   */\n      revert\n        /* \"--CODEGEN--\":2:4   */\n    tag_2:\n        /* \"KaseiCoin.sol\":722:935  constructor(... */\n      dup2\n      add\n      swap1\n      dup1\n      dup1\n      mload\n      mload(0x40)\n      swap4\n      swap3\n      swap2\n      swap1\n      dup5\n        /* \"--CODEGEN--\":19:30   */\n      0x0100000000\n        /* \"--CODEGEN--\":14:17   */\n      dup3\n        /* \"--CODEGEN--\":11:31   */\n      gt\n        /* \"--CODEGEN--\":8:10   */\n      iszero\n      tag_3\n      jumpi\n        /* \"--CODEGEN--\":44:45   */\n      0x00\n        /* \"--CODEGEN--\":41:42   */\n      dup1\n        /* \"--CODEGEN--\":34:46   */\n      revert\n        /* \"--CODEGEN--\":8:10   */\n    tag_3:\n        /* \"--CODEGEN--\":71:82   */\n      dup4\n        /* \"--CODEGEN--\":66:69   */\n      dup3\n        /* \"--CODEGEN--\":62:83   */\n      add\n        /* \"--CODEGEN--\":55:83   */\n      swap2\n      pop\n        /* \"--CODEGEN--\":123:127   */\n      0x20\n        /* \"--CODEGEN--\":118:121   */\n      dup3\n        /* \"--CODEGEN--\":114:128   */\n      add\n        /* \"--CODEGEN--\":159:168   */\n      dup6\n        /* \"--CODEGEN--\":141:157   */\n      dup2\n        /* \"--CODEGEN--\":138:169   */\n      gt\n        /* \"--CODEGEN--\":135:137   */\n      iszero\n      tag_4\n      jumpi\n        /* \"--CODEGEN--\":182:183   */\n      0x00\n        /* \"--CODEGEN--\":179:180   */\n      dup1\n        /* \"--CODEGEN--\":172:184   */\n      revert\n        /* \"--CODEGEN--\":135:137   */\n    tag_4:\n        /* \"--CODEGEN--\":219:222   */\n      dup3\n        /* \"--CODEGEN--\":213:223   */\n      mload\n        /* \"--CODEGEN--\":330:339   */\n      dup7\n        /* \"--CODEGEN--\":325:326   */\n      0x01\n        /* \"--CODEGEN--\":311:323   */\n      dup3\n        /* \"--CODEGEN--\":307:327   */\n      mul\n        /* \"--CODEGEN--\":289:305   */\n      dup4\n        /* \"--CODEGEN--\":285:328   */\n      add\n        /* \"--CODEGEN--\":282:340   */\n      gt\n        /* \"--CODEGEN--\":261:272   */\n      0x0100000000\n        /* \"--CODEGEN--\":247:259   */\n      dup3\n        /* \"--CODEGEN--\":244:273   */\n      gt\n        /* \"--CODEGEN--\":233:348   */\n      or\n        /* \"--CODEGEN--\":230:232   */\n      iszero\n      tag_5\n      jumpi\n        /* \"--CODEGEN--\":361:362   */\n      0x00\n        /* \"--CODEGEN--\":358:359   */\n      dup1\n        /* \"--CODEGEN--\":351:363   */\n      revert\n        /* \"--CODEGEN--\":230:232   */\n    tag_5:\n        /* \"--CODEGEN--\":384:396   */\n      dup1\n        /* \"--CODEGEN--\":379:382   */\n      dup4\n        /* \"--CODEGEN--\":372:397   */\n      mstore\n        /* \"--CODEGEN--\":420:424   */\n      0x20\n        /* \"--CODEGEN--\":415:418   */\n      dup4\n        /* \"--CODEGEN--\":411:425   */\n      add\n        /* \"--CODEGEN--\":404:425   */\n      swap3\n      pop\n        /* \"--CODEGEN--\":0:432   */\n      pop\n      pop\n        /* \"KaseiCoin.sol\":722:935  constructor(... */\n      swap1\n      dup1\n      mload\n      swap1\n      0x20\n      add\n      swap1\n      dup1\n      dup4\n      dup4\n        /* \"--CODEGEN--\":23:24   */\n      0x00\n        /* \"--CODEGEN--\":8:108   */\n    tag_6:\n        /* \"--CODEGEN--\":33:36   */\n      dup4\n        /* \"--CODEGEN--\":30:31   */\n      dup2\n        /* \"--CODEGEN--\":27:37   */\n      lt\n        /* \"--CODEGEN--\":8:108   */\n      iszero\n      tag_8\n      jumpi\n        /* \"--CODEGEN--\":99:100   */\n      dup1\n        /* \"--CODEGEN--\":94:97   */\n      dup3\n        /* \"--CODEGEN--\":90:101   */\n      add\n        /* \"--CODEGEN--\":84:102   */\n      mload\n        /* \"--CODEGEN--\":80:81   */\n      dup2\n        /* \"--CODEGEN--\":75:78   */\n      dup5\n        /* \"--CODEGEN--\":71:82   */\n      add\n        /* \"--CODEGEN--\":64:103   */\n      mstore\n        /* \"--CODEGEN--\":52:54   */\n      0x20\n        /* \"--CODEGEN--\":49:50   */\n      dup2\n        /* \"--CODEGEN--\":45:55   */\n      add\n        /* \"--CODEGEN--\":40:55   */\n      swap1\n      pop\n        /* \"--CODEGEN--\":8:108   */\n      jump(tag_6)\n    tag_8:\n        /* \"--CODEGEN--\":12:26   */\n      pop\n        /* \"KaseiCoin.sol\":722:935  constructor(... */\n      pop\n      pop\n      pop\n      swap1\n      pop\n      swap1\n      dup2\n      add\n      swap1\n      0x1f\n      and\n      dup1\n      iszero\n      tag_9\n      jumpi\n      dup1\n      dup3\n      sub\n      dup1\n      mload\n      0x01\n      dup4\n      0x20\n      sub\n      0x0100\n      exp\n      sub\n      not\n      and\n      dup2\n      mstore\n      0x20\n      add\n      swap2\n      pop\n    tag_9:\n      pop\n      0x40\n      mstore\n      0x20\n      add\n      dup1\n      mload\n      mload(0x40)\n      swap4\n      swap3\n      swap2\n      swap1\n      dup5\n        /* \"--CODEGEN--\":19:30   */\n      0x0100000000\n        /* \"--CODEGEN--\":14:17   */\n      dup3\n        /* \"--CODEGEN--\":11:31   */\n      gt\n        /* \"--CODEGEN--\":8:10   */\n      iszero\n      tag_10\n      jumpi\n        /* \"--CODEGEN--\":44:45   */\n      0x00\n        /* \"--CODEGEN--\":41:42   */\n      dup1\n        /* \"--CODEGEN--\":34:46   */\n      revert\n        /* \"--CODEGEN--\":8:10   */\n    tag_10:\n        /* \"--CODEGEN--\":71:82   */\n      dup4\n        /* \"--CODEGEN--\":66:69   */\n      dup3\n        /* \"--CODEGEN--\":62:83   */\n      add\n        /* \"--CODEGEN--\":55:83   */\n      swap2\n      pop\n        /* \"--CODEGEN--\":123:127   */\n      0x20\n        /* \"--CODEGEN--\":118:121   */\n      dup3\n        /* \"--CODEGEN--\":114:128   */\n      add\n        /* \"--CODEGEN--\":159:168   */\n      dup6\n        /* \"--CODEGEN--\":141:157   */\n      dup2\n        /* \"--CODEGEN--\":138:169   */\n      gt\n        /* \"--CODEGEN--\":135:137   */\n      iszero\n      tag_11\n      jumpi\n        /* \"--CODEGEN--\":182:183   */\n      0x00\n        /* \"--CODEGEN--\":179:180   */\n      dup1\n        /* \"--CODEGEN--\":172:184   */\n      revert\n        /* \"--CODEGEN--\":135:137   */\n    tag_11:\n        /* \"--CODEGEN--\":219:222   */\n      dup3\n        /* \"--CODEGEN--\":213:223   */\n      mload\n        /* \"--CODEGEN--\":330:339   */\n      dup7\n        /* \"--CODEGEN--\":325:326   */\n      0x01\n        /* \"--CODEGEN--\":311:323   */\n      dup3\n        /* \"--CODEGEN--\":307:327   */\n      mul\n        /* \"--CODEGEN--\":289:305   */\n      dup4\n        /* \"--CODEGEN--\":285:328   */\n      add\n        /* \"--CODEGEN--\":282:340   */\n      gt\n        /* \"--CODEGEN--\":261:272   */\n      0x0100000000\n        /* \"--CODEGEN--\":247:259   */\n      dup3\n        /* \"--CODEGEN--\":244:273   */\n      gt\n        /* \"--CODEGEN--\":233:348   */\n      or\n        /* \"--CODEGEN--\":230:232   */\n      iszero\n      tag_12\n      jumpi\n        /* \"--CODEGEN--\":361:362   */\n      0x00\n        /* \"--CODEGEN--\":358:359   */\n      dup1\n        /* \"--CODEGEN--\":351:363   */\n      revert\n        /* \"--CODEGEN--\":230:232   */\n    tag_12:\n        /* \"--CODEGEN--\":384:396   */\n      dup1\n        /* \"--CODEGEN--\":379:382   */\n      dup4\n        /* \"--CODEGEN--\":372:397   */\n      mstore\n        /* \"--CODEGEN--\":420:424   */\n      0x20\n        /* \"--CODEGEN--\":415:418   */\n      dup4\n        /* \"--CODEGEN--\":411:425   */\n      add\n        /* \"--CODEGEN--\":404:425   */\n      swap3\n      pop\n        /* \"--CODEGEN--\":0:432   */\n      pop\n      pop\n        /* \"KaseiCoin.sol\":722:935  constructor(... */\n      swap1\n      dup1\n      mload\n      swap1\n      0x20\n      add\n      swap1\n      dup1\n      dup4\n      dup4\n        /* \"--CODEGEN--\":23:24   */\n      0x00\n        /* \"--CODEGEN--\":8:108   */\n    tag_13:\n        /* \"--CODEGEN--\":33:36   */\n      dup4\n        /* \"--CODEGEN--\":30:31   */\n      dup2\n        /* \"--CODEGEN--\":27:37   */\n      lt\n        /* \"--CODEGEN--\":8:108   */\n      iszero\n      tag_15\n      jumpi\n        /* \"--CODEGEN--\":99:100   */\n      dup1\n        /* \"--CODEGEN--\":94:97   */\n      dup3\n        /* \"--CODEGEN--\":90:101   */\n      add\n        /* \"--CODEGEN--\":84:102   */\n      mload\n        /* \"--CODEGEN--\":80:81   */\n      dup2\n        /* \"--CODEGEN--\":75:78   */\n      dup5\n        /* \"--CODEGEN--\":71:82   */\n      add\n        /* \"--CODEGEN--\":64:103   */\n      mstore\n        /* \"--CODEGEN--\":52:54   */\n      0x20\n        /* \"--CODEGEN--\":49:50   */\n      dup2\n        /* \"--CODEGEN--\":45:55   */\n      add\n        /* \"--CODEGEN--\":40:55   */\n      swap1\n      pop\n        /* \"--CODEGEN--\":8:108   */\n      jump(tag_13)\n    tag_15:\n        /* \"--CODEGEN--\":12:26   */\n      pop\n        /* \"KaseiCoin.sol\":722:935  constructor(... */\n      pop\n      pop\n      pop\n      swap1\n      pop\n      swap1\n      dup2\n      add\n      swap1\n      0x1f\n      and\n      dup1\n      iszero\n      tag_16\n      jumpi\n      dup1\n      dup3\n      sub\n      dup1\n      mload\n      0x01\n      dup4\n      0x20\n      sub\n      0x0100\n      exp\n      sub\n      not\n      and\n      dup2\n      mstore\n      0x20\n      add\n      swap2\n      pop\n    tag_16:\n      pop\n      0x40\n      mstore\n      0x20\n      add\n      dup1\n      mload\n      swap1\n      0x20\n      add\n      swap1\n      swap3\n      swap2\n      swap1\n      pop\n      pop\n      pop\n        /* \"KaseiCoin.sol\":849:853  name */\n      dup3\n        /* \"KaseiCoin.sol\":855:861  symbol */\n      dup3\n        /* \"KaseiCoin.sol\":863:865  18 */\n      0x12\n        /* \"https://github.com/OpenZeppelin/openzeppelin-contracts/blob/release-v2.5.0/contracts/token/ERC20/ERC20Detailed.sol\":512:516  name */\n      dup3\n        /* \"https://github.com/OpenZeppelin/openzeppelin-contracts/blob/release-v2.5.0/contracts/token/ERC20/ERC20Detailed.sol\":504:509  _name */\n      0x03\n        /* \"https://github.com/OpenZeppelin/openzeppelin-contracts/blob/release-v2.5.0/contracts/token/ERC20/ERC20Detailed.sol\":504:516  _name = name */\n      swap1\n      dup1\n      mload\n      swap1\n      0x20\n      add\n      swap1\n      tag_23\n      swap3\n      swap2\n      swap1\n      tag_24\n      jump\t// in\n    tag_23:\n      pop\n        /* \"https://github.com/OpenZeppelin/openzeppelin-contracts/blob/release-v2.5.0/contracts/token/ERC20/ERC20Detailed.sol\":536:542  symbol */\n      dup2\n        /* \"https://github.com/OpenZeppelin/openzeppelin-contracts/blob/release-v2.5.0/contracts/token/ERC20/ERC20Detailed.sol\":526:533  _symbol */\n      0x04\n        /* \"https://github.com/OpenZeppelin/openzeppelin-contracts/blob/release-v2.5.0/contracts/token/ERC20/ERC20Detailed.sol\":526:542  _symbol = symbol */\n      swap1\n      dup1\n      mload\n      swap1\n      0x20\n      add\n      swap1\n      tag_25\n      swap3\n      swap2\n      swap1\n      tag_24\n      jump\t// in\n    tag_25:\n      pop\n        /* \"https://github.com/OpenZeppelin/openzeppelin-contracts/blob/release-v2.5.0/contracts/token/ERC20/ERC20Detailed.sol\":564:572  decimals */\n      dup1\n        /* \"https://github.com/OpenZeppelin/openzeppelin-contracts/blob/release-v2.5.0/contracts/token/ERC20/ERC20Detailed.sol\":552:561  _decimals */\n      0x05\n      0x00\n        /* \"https://github.com/OpenZeppelin/openzeppelin-contracts/blob/release-v2.5.0/contracts/token/ERC20/ERC20Detailed.sol\":552:572  _decimals = decimals */\n      0x0100\n      exp\n      dup2\n      sload\n      dup2\n      0xff\n      mul\n      not\n      and\n      swap1\n      dup4\n      0xff\n      and\n      mul\n      or\n      swap1\n      sstore\n      pop\n        /* \"https://github.com/OpenZeppelin/openzeppelin-contracts/blob/release-v2.5.0/contracts/token/ERC20/ERC20Detailed.sol\":416:579  constructor (string memory name, string memory symbol, uint8 decimals) public {... */\n      pop\n      pop\n      pop\n        /* \"https://github.com/OpenZeppelin/openzeppelin-contracts/blob/release-v2.5.0/contracts/access/roles/MinterRole.sol\":318:342  _addMinter(_msgSender()) */\n      tag_27\n        /* \"https://github.com/OpenZeppelin/openzeppelin-contracts/blob/release-v2.5.0/contracts/access/roles/MinterRole.sol\":329:341  _msgSender() */\n      tag_28\n        /* \"https://github.com/OpenZeppelin/openzeppelin-contracts/blob/release-v2.5.0/contracts/access/roles/MinterRole.sol\":329:339  _msgSender */\n      shl(0x20, tag_29)\n        /* \"https://github.com/OpenZeppelin/openzeppelin-contracts/blob/release-v2.5.0/contracts/access/roles/MinterRole.sol\":329:341  _msgSender() */\n      0x20\n      shr\n      jump\t// in\n    tag_28:\n        /* \"https://github.com/OpenZeppelin/openzeppelin-contracts/blob/release-v2.5.0/contracts/access/roles/MinterRole.sol\":318:328  _addMinter */\n      shl(0x20, tag_30)\n        /* \"https://github.com/OpenZeppelin/openzeppelin-contracts/blob/release-v2.5.0/contracts/access/roles/MinterRole.sol\":318:342  _addMinter(_msgSender()) */\n      0x20\n      shr\n      jump\t// in\n    tag_27:\n        /* \"KaseiCoin.sol\":896:928  mint(msg.sender, initial_supply) */\n      tag_32\n        /* \"KaseiCoin.sol\":901:911  msg.sender */\n      caller\n        /* \"KaseiCoin.sol\":913:927  initial_supply */\n      dup3\n        /* \"KaseiCoin.sol\":896:900  mint */\n      shl(0x20, tag_33)\n        /* \"KaseiCoin.sol\":896:928  mint(msg.sender, initial_supply) */\n      0x20\n      shr\n      jump\t// in\n    tag_32:\n      pop\n        /* \"KaseiCoin.sol\":722:935  constructor(... */\n      pop\n      pop\n      pop\n        /* \"KaseiCoin.sol\":658:937  contract KaseiCoin is ERC20, ERC20Detailed, ERC20Mintable {... */\n      jump(tag_34)\n        /* \"https://github.com/OpenZeppelin/openzeppelin-contracts/blob/release-v2.5.0/contracts/GSN/Context.sol\":788:884  function _msgSender() internal view returns (address payable) {... */\n    tag_29:\n        /* \"https://github.com/OpenZeppelin/openzeppelin-contracts/blob/release-v2.5.0/contracts/GSN/Context.sol\":833:848  address payable */\n      0x00\n        /* \"https://github.com/OpenZeppelin/openzeppelin-contracts/blob/release-v2.5.0/contracts/GSN/Context.sol\":867:877  msg.sender */\n      caller\n        /* \"https://github.com/OpenZeppelin/openzeppelin-contracts/blob/release-v2.5.0/contracts/GSN/Context.sol\":860:877  return msg.sender */\n      swap1\n      pop\n        /* \"https://github.com/OpenZeppelin/openzeppelin-contracts/blob/release-v2.5.0/contracts/GSN/Context.sol\":788:884  function _msgSender() internal view returns (address payable) {... */\n      swap1\n      jump\t// out\n        /* \"https://github.com/OpenZeppelin/openzeppelin-contracts/blob/release-v2.5.0/contracts/access/roles/MinterRole.sol\":786:905  function _addMinter(address account) internal {... */\n    tag_30:\n        /* \"https://github.com/OpenZeppelin/openzeppelin-contracts/blob/release-v2.5.0/contracts/access/roles/MinterRole.sol\":842:863  _minters.add(account) */\n      tag_37\n        /* \"https://github.com/OpenZeppelin/openzeppelin-contracts/blob/release-v2.5.0/contracts/access/roles/MinterRole.sol\":855:862  account */\n      dup2\n        /* \"https://github.com/OpenZeppelin/openzeppelin-contracts/blob/release-v2.5.0/contracts/access/roles/MinterRole.sol\":842:850  _minters */\n      0x06\n        /* \"https://github.com/OpenZeppelin/openzeppelin-contracts/blob/release-v2.5.0/contracts/access/roles/MinterRole.sol\":842:854  _minters.add */\n      or(tag_0_152, shl(0x20, tag_38))\n      swap1\n        /* \"https://github.com/OpenZeppelin/openzeppelin-contracts/blob/release-v2.5.0/contracts/access/roles/MinterRole.sol\":842:863  _minters.add(account) */\n      swap2\n      swap1\n      0x20\n      shr\n      jump\t// in\n    tag_37:\n        /* \"https://github.com/OpenZeppelin/openzeppelin-contracts/blob/release-v2.5.0/contracts/access/roles/MinterRole.sol\":890:897  account */\n      dup1\n        /* \"https://github.com/OpenZeppelin/openzeppelin-contracts/blob/release-v2.5.0/contracts/access/roles/MinterRole.sol\":878:898  MinterAdded(account) */\n      0xffffffffffffffffffffffffffffffffffffffff\n      and\n      0x6ae172837ea30b801fbfcdd4108aa1d5bf8ff775444fd70256b44e6bf3dfc3f6\n      mload(0x40)\n      mload(0x40)\n      dup1\n      swap2\n      sub\n      swap1\n      log2\n        /* \"https://github.com/OpenZeppelin/openzeppelin-contracts/blob/release-v2.5.0/contracts/access/roles/MinterRole.sol\":786:905  function _addMinter(address account) internal {... */\n      pop\n      jump\t// out\n        /* \"https://github.com/OpenZeppelin/openzeppelin-contracts/blob/release-v2.5.0/contracts/token/ERC20/ERC20Mintable.sol\":502:642  function mint(address account, uint256 amount) public onlyMinter returns (bool) {... */\n    tag_33:\n        /* \"https://github.com/OpenZeppelin/openzeppelin-contracts/blob/release-v2.5.0/contracts/token/ERC20/ERC20Mintable.sol\":576:580  bool */\n      0x00\n        /* \"https://github.com/OpenZeppelin/openzeppelin-contracts/blob/release-v2.5.0/contracts/access/roles/MinterRole.sol\":395:417  isMinter(_msgSender()) */\n      tag_40\n        /* \"https://github.com/OpenZeppelin/openzeppelin-contracts/blob/release-v2.5.0/contracts/access/roles/MinterRole.sol\":404:416  _msgSender() */\n      tag_41\n        /* \"https://github.com/OpenZeppelin/openzeppelin-contracts/blob/release-v2.5.0/contracts/access/roles/MinterRole.sol\":404:414  _msgSender */\n      shl(0x20, tag_29)\n        /* \"https://github.com/OpenZeppelin/openzeppelin-contracts/blob/release-v2.5.0/contracts/access/roles/MinterRole.sol\":404:416  _msgSender() */\n      0x20\n      shr\n      jump\t// in\n    tag_41:\n        /* \"https://github.com/OpenZeppelin/openzeppelin-contracts/blob/release-v2.5.0/contracts/access/roles/MinterRole.sol\":395:403  isMinter */\n      shl(0x20, tag_42)\n        /* \"https://github.com/OpenZeppelin/openzeppelin-contracts/blob/release-v2.5.0/contracts/access/roles/MinterRole.sol\":395:417  isMinter(_msgSender()) */\n      0x20\n      shr\n      jump\t// in\n    tag_40:\n        /* \"https://github.com/OpenZeppelin/openzeppelin-contracts/blob/release-v2.5.0/contracts/access/roles/MinterRole.sol\":387:470  require(isMinter(_msgSender()), \"MinterRole: caller does not have the Minter role\") */\n      tag_43\n      jumpi\n      mload(0x40)\n      0x08c379a000000000000000000000000000000000000000000000000000000000\n      dup2\n      mstore\n      0x04\n      add\n      dup1\n      dup1\n      0x20\n      add\n      dup3\n      dup2\n      sub\n      dup3\n      mstore\n      0x30\n      dup2\n      mstore\n      0x20\n      add\n      dup1\n      data_79ecb50133735b20228dea9d08fe36a462bbc1350f591a146908848db91104cd\n      0x30\n      swap2\n      codecopy\n      0x40\n      add\n      swap2\n      pop\n      pop\n      mload(0x40)\n      dup1\n      swap2\n      sub\n      swap1\n      revert\n    tag_43:\n        /* \"https://github.com/OpenZeppelin/openzeppelin-contracts/blob/release-v2.5.0/contracts/token/ERC20/ERC20Mintable.sol\":592:614  _mint(account, amount) */\n      tag_45\n        /* \"https://github.com/OpenZeppelin/openzeppelin-contracts/blob/release-v2.5.0/contracts/token/ERC20/ERC20Mintable.sol\":598:605  account */\n      dup4\n        /* \"https://github.com/OpenZeppelin/openzeppelin-contracts/blob/release-v2.5.0/contracts/token/ERC20/ERC20Mintable.sol\":607:613  amount */\n      dup4\n        /* \"https://github.com/OpenZeppelin/openzeppelin-contracts/blob/release-v2.5.0/contracts/token/ERC20/ERC20Mintable.sol\":592:597  _mint */\n      shl(0x20, tag_46)\n        /* \"https://github.com/OpenZeppelin/openzeppelin-contracts/blob/release-v2.5.0/contracts/token/ERC20/ERC20Mintable.sol\":592:614  _mint(account, amount) */\n      0x20\n      shr\n      jump\t// in\n    tag_45:\n        /* \"https://github.com/OpenZeppelin/openzeppelin-contracts/blob/release-v2.5.0/contracts/token/ERC20/ERC20Mintable.sol\":631:635  true */\n      0x01\n        /* \"https://github.com/OpenZeppelin/openzeppelin-contracts/blob/release-v2.5.0/contracts/token/ERC20/ERC20Mintable.sol\":624:635  return true */\n      swap1\n      pop\n        /* \"https://github.com/OpenZeppelin/openzeppelin-contracts/blob/release-v2.5.0/contracts/token/ERC20/ERC20Mintable.sol\":502:642  function mint(address account, uint256 amount) public onlyMinter returns (bool) {... */\n      swap3\n      swap2\n      pop\n      pop\n      jump\t// out\n        /* \"https://github.com/OpenZeppelin/openzeppelin-contracts/blob/release-v2.5.0/contracts/access/Roles.sol\":260:435  function add(Role storage role, address account) internal {... */\n    tag_38:\n        /* \"https://github.com/OpenZeppelin/openzeppelin-contracts/blob/release-v2.5.0/contracts/access/Roles.sol\":337:355  has(role, account) */\n      tag_48\n        /* \"https://github.com/OpenZeppelin/openzeppelin-contracts/blob/release-v2.5.0/contracts/access/Roles.sol\":341:345  role */\n      dup3\n        /* \"https://github.com/OpenZeppelin/openzeppelin-contracts/blob/release-v2.5.0/contracts/access/Roles.sol\":347:354  account */\n      dup3\n        /* \"https://github.com/OpenZeppelin/openzeppelin-contracts/blob/release-v2.5.0/contracts/access/Roles.sol\":337:340  has */\n      shl(0x20, tag_49)\n        /* \"https://github.com/OpenZeppelin/openzeppelin-contracts/blob/release-v2.5.0/contracts/access/Roles.sol\":337:355  has(role, account) */\n      0x20\n      shr\n      jump\t// in\n    tag_48:\n        /* \"https://github.com/OpenZeppelin/openzeppelin-contracts/blob/release-v2.5.0/contracts/access/Roles.sol\":336:355  !has(role, account) */\n      iszero\n        /* \"https://github.com/OpenZeppelin/openzeppelin-contracts/blob/release-v2.5.0/contracts/access/Roles.sol\":328:391  require(!has(role, account), \"Roles: account already has role\") */\n      tag_50\n      jumpi\n      mload(0x40)\n      0x08c379a000000000000000000000000000000000000000000000000000000000\n      dup2\n      mstore\n      0x04\n      add\n      dup1\n      dup1\n      0x20\n      add\n      dup3\n      dup2\n      sub\n      dup3\n      mstore\n      0x1f\n      dup2\n      mstore\n      0x20\n      add\n      dup1\n      0x526f6c65733a206163636f756e7420616c72656164792068617320726f6c6500\n      dup2\n      mstore\n      pop\n      0x20\n      add\n      swap2\n      pop\n      pop\n      mload(0x40)\n      dup1\n      swap2\n      sub\n      swap1\n      revert\n    tag_50:\n        /* \"https://github.com/OpenZeppelin/openzeppelin-contracts/blob/release-v2.5.0/contracts/access/Roles.sol\":424:428  true */\n      0x01\n        /* \"https://github.com/OpenZeppelin/openzeppelin-contracts/blob/release-v2.5.0/contracts/access/Roles.sol\":401:405  role */\n      dup3\n        /* \"https://github.com/OpenZeppelin/openzeppelin-contracts/blob/release-v2.5.0/contracts/access/Roles.sol\":401:412  role.bearer */\n      0x00\n      add\n        /* \"https://github.com/OpenZeppelin/openzeppelin-contracts/blob/release-v2.5.0/contracts/access/Roles.sol\":401:421  role.bearer[account] */\n      0x00\n        /* \"https://github.com/OpenZeppelin/openzeppelin-contracts/blob/release-v2.5.0/contracts/access/Roles.sol\":413:420  account */\n      dup4\n        /* \"https://github.com/OpenZeppelin/openzeppelin-contracts/blob/release-v2.5.0/contracts/access/Roles.sol\":401:421  role.bearer[account] */\n      0xffffffffffffffffffffffffffffffffffffffff\n      and\n      0xffffffffffffffffffffffffffffffffffffffff\n      and\n      dup2\n      mstore\n      0x20\n      add\n      swap1\n      dup2\n      mstore\n      0x20\n      add\n      0x00\n      keccak256\n      0x00\n        /* \"https://github.com/OpenZeppelin/openzeppelin-contracts/blob/release-v2.5.0/contracts/access/Roles.sol\":401:428  role.bearer[account] = true */\n      0x0100\n      exp\n      dup2\n      sload\n      dup2\n      0xff\n      mul\n      not\n      and\n      swap1\n      dup4\n      iszero\n      iszero\n      mul\n      or\n      swap1\n      sstore\n      pop\n        /* \"https://github.com/OpenZeppelin/openzeppelin-contracts/blob/release-v2.5.0/contracts/access/Roles.sol\":260:435  function add(Role storage role, address account) internal {... */\n      pop\n      pop\n      jump\t// out\n        /* \"https://github.com/OpenZeppelin/openzeppelin-contracts/blob/release-v2.5.0/contracts/access/roles/MinterRole.sol\":494:601  function isMinter(address account) public view returns (bool) {... */\n    tag_42:\n        /* \"https://github.com/OpenZeppelin/openzeppelin-contracts/blob/release-v2.5.0/contracts/access/roles/MinterRole.sol\":550:554  bool */\n      0x00\n        /* \"https://github.com/OpenZeppelin/openzeppelin-contracts/blob/release-v2.5.0/contracts/access/roles/MinterRole.sol\":573:594  _minters.has(account) */\n      tag_52\n        /* \"https://github.com/OpenZeppelin/openzeppelin-contracts/blob/release-v2.5.0/contracts/access/roles/MinterRole.sol\":586:593  account */\n      dup3\n        /* \"https://github.com/OpenZeppelin/openzeppelin-contracts/blob/release-v2.5.0/contracts/access/roles/MinterRole.sol\":573:581  _minters */\n      0x06\n        /* \"https://github.com/OpenZeppelin/openzeppelin-contracts/blob/release-v2.5.0/contracts/access/roles/MinterRole.sol\":573:585  _minters.has */\n      or(tag_0_127, shl(0x20, tag_49))\n      swap1\n        /* \"https://github.com/OpenZeppelin/openzeppelin-contracts/blob/release-v2.5.0/contracts/access/roles/MinterRole.sol\":573:594  _minters.has(account) */\n      swap2\n      swap1\n      0x20\n      shr\n      jump\t// in\n    tag_52:\n        /* \"https://github.com/OpenZeppelin/openzeppelin-contracts/blob/release-v2.5.0/contracts/access/roles/MinterRole.sol\":566:594  return _minters.has(account) */\n      swap1\n      pop\n        /* \"https://github.com/OpenZeppelin/openzeppelin-contracts/blob/release-v2.5.0/contracts/access/roles/MinterRole.sol\":494:601  function isMinter(address account) public view returns (bool) {... */\n      swap2\n      swap1\n      pop\n      jump\t// out\n        /* \"https://github.com/OpenZeppelin/openzeppelin-contracts/blob/release-v2.5.0/contracts/token/ERC20/ERC20.sol\":5962:6264  function _mint(address account, uint256 amount) internal {... */\n    tag_46:\n        /* \"https://github.com/OpenZeppelin/openzeppelin-contracts/blob/release-v2.5.0/contracts/token/ERC20/ERC20.sol\":6056:6057  0 */\n      0x00\n        /* \"https://github.com/OpenZeppelin/openzeppelin-contracts/blob/release-v2.5.0/contracts/token/ERC20/ERC20.sol\":6037:6058  account != address(0) */\n      0xffffffffffffffffffffffffffffffffffffffff\n      and\n        /* \"https://github.com/OpenZeppelin/openzeppelin-contracts/blob/release-v2.5.0/contracts/token/ERC20/ERC20.sol\":6037:6044  account */\n      dup3\n        /* \"https://github.com/OpenZeppelin/openzeppelin-contracts/blob/release-v2.5.0/contracts/token/ERC20/ERC20.sol\":6037:6058  account != address(0) */\n      0xffffffffffffffffffffffffffffffffffffffff\n      and\n      eq\n      iszero\n        /* \"https://github.com/OpenZeppelin/openzeppelin-contracts/blob/release-v2.5.0/contracts/token/ERC20/ERC20.sol\":6029:6094  require(account != address(0), \"ERC20: mint to the zero address\") */\n      tag_54\n      jumpi\n      mload(0x40)\n      0x08c379a000000000000000000000000000000000000000000000000000000000\n      dup2\n      mstore\n      0x04\n      add\n      dup1\n      dup1\n      0x20\n      add\n      dup3\n      dup2\n      sub\n      dup3\n      mstore\n      0x1f\n      dup2\n      mstore\n      0x20\n      add\n      dup1\n      0x45524332303a206d696e7420746f20746865207a65726f206164647265737300\n      dup2\n      mstore\n      pop\n      0x20\n      add\n      swap2\n      pop\n      pop\n      mload(0x40)\n      dup1\n      swap2\n      sub\n      swap1\n      revert\n    tag_54:\n        /* \"https://github.com/OpenZeppelin/openzeppelin-contracts/blob/release-v2.5.0/contracts/token/ERC20/ERC20.sol\":6120:6144  _totalSupply.add(amount) */\n      tag_55\n        /* \"https://github.com/OpenZeppelin/openzeppelin-contracts/blob/release-v2.5.0/contracts/token/ERC20/ERC20.sol\":6137:6143  amount */\n      dup2\n        /* \"https://github.com/OpenZeppelin/openzeppelin-contracts/blob/release-v2.5.0/contracts/token/ERC20/ERC20.sol\":6120:6132  _totalSupply */\n      sload(0x02)\n        /* \"https://github.com/OpenZeppelin/openzeppelin-contracts/blob/release-v2.5.0/contracts/token/ERC20/ERC20.sol\":6120:6136  _totalSupply.add */\n      or(tag_0_93, shl(0x20, tag_56))\n      swap1\n        /* \"https://github.com/OpenZeppelin/openzeppelin-contracts/blob/release-v2.5.0/contracts/token/ERC20/ERC20.sol\":6120:6144  _totalSupply.add(amount) */\n      swap2\n      swap1\n      0x20\n      shr\n      jump\t// in\n    tag_55:\n        /* \"https://github.com/OpenZeppelin/openzeppelin-contracts/blob/release-v2.5.0/contracts/token/ERC20/ERC20.sol\":6105:6117  _totalSupply */\n      0x02\n        /* \"https://github.com/OpenZeppelin/openzeppelin-contracts/blob/release-v2.5.0/contracts/token/ERC20/ERC20.sol\":6105:6144  _totalSupply = _totalSupply.add(amount) */\n      dup2\n      swap1\n      sstore\n      pop\n        /* \"https://github.com/OpenZeppelin/openzeppelin-contracts/blob/release-v2.5.0/contracts/token/ERC20/ERC20.sol\":6175:6205  _balances[account].add(amount) */\n      tag_57\n        /* \"https://github.com/OpenZeppelin/openzeppelin-contracts/blob/release-v2.5.0/contracts/token/ERC20/ERC20.sol\":6198:6204  amount */\n      dup2\n        /* \"https://github.com/OpenZeppelin/openzeppelin-contracts/blob/release-v2.5.0/contracts/token/ERC20/ERC20.sol\":6175:6184  _balances */\n      0x00\n        /* \"https://github.com/OpenZeppelin/openzeppelin-contracts/blob/release-v2.5.0/contracts/token/ERC20/ERC20.sol\":6175:6193  _balances[account] */\n      dup1\n        /* \"https://github.com/OpenZeppelin/openzeppelin-contracts/blob/release-v2.5.0/contracts/token/ERC20/ERC20.sol\":6185:6192  account */\n      dup6\n        /* \"https://github.com/OpenZeppelin/openzeppelin-contracts/blob/release-v2.5.0/contracts/token/ERC20/ERC20.sol\":6175:6193  _balances[account] */\n      0xffffffffffffffffffffffffffffffffffffffff\n      and\n      0xffffffffffffffffffffffffffffffffffffffff\n      and\n      dup2\n      mstore\n      0x20\n      add\n      swap1\n      dup2\n      mstore\n      0x20\n      add\n      0x00\n      keccak256\n      sload\n        /* \"https://github.com/OpenZeppelin/openzeppelin-contracts/blob/release-v2.5.0/contracts/token/ERC20/ERC20.sol\":6175:6197  _balances[account].add */\n      or(tag_0_93, shl(0x20, tag_56))\n      swap1\n        /* \"https://github.com/OpenZeppelin/openzeppelin-contracts/blob/release-v2.5.0/contracts/token/ERC20/ERC20.sol\":6175:6205  _balances[account].add(amount) */\n      swap2\n      swap1\n      0x20\n      shr\n      jump\t// in\n    tag_57:\n        /* \"https://github.com/OpenZeppelin/openzeppelin-contracts/blob/release-v2.5.0/contracts/token/ERC20/ERC20.sol\":6154:6163  _balances */\n      0x00\n        /* \"https://github.com/OpenZeppelin/openzeppelin-contracts/blob/release-v2.5.0/contracts/token/ERC20/ERC20.sol\":6154:6172  _balances[account] */\n      dup1\n        /* \"https://github.com/OpenZeppelin/openzeppelin-contracts/blob/release-v2.5.0/contracts/token/ERC20/ERC20.sol\":6164:6171  account */\n      dup5\n        /* \"https://github.com/OpenZeppelin/openzeppelin-contracts/blob/release-v2.5.0/contracts/token/ERC20/ERC20.sol\":6154:6172  _balances[account] */\n      0xffffffffffffffffffffffffffffffffffffffff\n      and\n      0xffffffffffffffffffffffffffffffffffffffff\n      and\n      dup2\n      mstore\n      0x20\n      add\n      swap1\n      dup2\n      mstore\n      0x20\n      add\n      0x00\n      keccak256\n        /* \"https://github.com/OpenZeppelin/openzeppelin-contracts/blob/release-v2.5.0/contracts/token/ERC20/ERC20.sol\":6154:6205  _balances[account] = _balances[account].add(amount) */\n      dup2\n      swap1\n      sstore\n      pop\n        /* \"https://github.com/OpenZeppelin/openzeppelin-contracts/blob/release-v2.5.0/contracts/token/ERC20/ERC20.sol\":6241:6248  account */\n      dup2\n        /* \"https://github.com/OpenZeppelin/openzeppelin-contracts/blob/release-v2.5.0/contracts/token/ERC20/ERC20.sol\":6220:6257  Transfer(address(0), account, amount) */\n      0xffffffffffffffffffffffffffffffffffffffff\n      and\n        /* \"https://github.com/OpenZeppelin/openzeppelin-contracts/blob/release-v2.5.0/contracts/token/ERC20/ERC20.sol\":6237:6238  0 */\n      0x00\n        /* \"https://github.com/OpenZeppelin/openzeppelin-contracts/blob/release-v2.5.0/contracts/token/ERC20/ERC20.sol\":6220:6257  Transfer(address(0), account, amount) */\n      0xffffffffffffffffffffffffffffffffffffffff\n      and\n      0xddf252ad1be2c89b69c2b068fc378daa952ba7f163c4a11628f55a4df523b3ef\n        /* \"https://github.com/OpenZeppelin/openzeppelin-contracts/blob/release-v2.5.0/contracts/token/ERC20/ERC20.sol\":6250:6256  amount */\n      dup4\n        /* \"https://github.com/OpenZeppelin/openzeppelin-contracts/blob/release-v2.5.0/contracts/token/ERC20/ERC20.sol\":6220:6257  Transfer(address(0), account, amount) */\n      mload(0x40)\n      dup1\n      dup3\n      dup2\n      mstore\n      0x20\n      add\n      swap2\n      pop\n      pop\n      mload(0x40)\n      dup1\n      swap2\n      sub\n      swap1\n      log3\n        /* \"https://github.com/OpenZeppelin/openzeppelin-contracts/blob/release-v2.5.0/contracts/token/ERC20/ERC20.sol\":5962:6264  function _mint(address account, uint256 amount) internal {... */\n      pop\n      pop\n      jump\t// out\n        /* \"https://github.com/OpenZeppelin/openzeppelin-contracts/blob/release-v2.5.0/contracts/access/Roles.sol\":779:979  function has(Role storage role, address account) internal view returns (bool) {... */\n    tag_49:\n        /* \"https://github.com/OpenZeppelin/openzeppelin-contracts/blob/release-v2.5.0/contracts/access/Roles.sol\":851:855  bool */\n      0x00\n        /* \"https://github.com/OpenZeppelin/openzeppelin-contracts/blob/release-v2.5.0/contracts/access/Roles.sol\":894:895  0 */\n      dup1\n        /* \"https://github.com/OpenZeppelin/openzeppelin-contracts/blob/release-v2.5.0/contracts/access/Roles.sol\":875:896  account != address(0) */\n      0xffffffffffffffffffffffffffffffffffffffff\n      and\n        /* \"https://github.com/OpenZeppelin/openzeppelin-contracts/blob/release-v2.5.0/contracts/access/Roles.sol\":875:882  account */\n      dup3\n        /* \"https://github.com/OpenZeppelin/openzeppelin-contracts/blob/release-v2.5.0/contracts/access/Roles.sol\":875:896  account != address(0) */\n      0xffffffffffffffffffffffffffffffffffffffff\n      and\n      eq\n      iszero\n        /* \"https://github.com/OpenZeppelin/openzeppelin-contracts/blob/release-v2.5.0/contracts/access/Roles.sol\":867:935  require(account != address(0), \"Roles: account is the zero address\") */\n      tag_59\n      jumpi\n      mload(0x40)\n      0x08c379a000000000000000000000000000000000000000000000000000000000\n      dup2\n      mstore\n      0x04\n      add\n      dup1\n      dup1\n      0x20\n      add\n      dup3\n      dup2\n      sub\n      dup3\n      mstore\n      0x22\n      dup2\n      mstore\n      0x20\n      add\n      dup1\n      data_9d214fa89563f4e6456a3929327e54500ea1cde2c0ba9fb2035ec106190d682f\n      0x22\n      swap2\n      codecopy\n      0x40\n      add\n      swap2\n      pop\n      pop\n      mload(0x40)\n      dup1\n      swap2\n      sub\n      swap1\n      revert\n    tag_59:\n        /* \"https://github.com/OpenZeppelin/openzeppelin-contracts/blob/release-v2.5.0/contracts/access/Roles.sol\":952:956  role */\n      dup3\n        /* \"https://github.com/OpenZeppelin/openzeppelin-contracts/blob/release-v2.5.0/contracts/access/Roles.sol\":952:963  role.bearer */\n      0x00\n      add\n        /* \"https://github.com/OpenZeppelin/openzeppelin-contracts/blob/release-v2.5.0/contracts/access/Roles.sol\":952:972  role.bearer[account] */\n      0x00\n        /* \"https://github.com/OpenZeppelin/openzeppelin-contracts/blob/release-v2.5.0/contracts/access/Roles.sol\":964:971  account */\n      dup4\n        /* \"https://github.com/OpenZeppelin/openzeppelin-contracts/blob/release-v2.5.0/contracts/access/Roles.sol\":952:972  role.bearer[account] */\n      0xffffffffffffffffffffffffffffffffffffffff\n      and\n      0xffffffffffffffffffffffffffffffffffffffff\n      and\n      dup2\n      mstore\n      0x20\n      add\n      swap1\n      dup2\n      mstore\n      0x20\n      add\n      0x00\n      keccak256\n      0x00\n      swap1\n      sload\n      swap1\n      0x0100\n      exp\n      swap1\n      div\n      0xff\n      and\n        /* \"https://github.com/OpenZeppelin/openzeppelin-contracts/blob/release-v2.5.0/contracts/access/Roles.sol\":945:972  return role.bearer[account] */\n      swap1\n      pop\n        /* \"https://github.com/OpenZeppelin/openzeppelin-contracts/blob/release-v2.5.0/contracts/access/Roles.sol\":779:979  function has(Role storage role, address account) internal view returns (bool) {... */\n      swap3\n      swap2\n      pop\n      pop\n      jump\t// out\n        /* \"https://github.com/OpenZeppelin/openzeppelin-contracts/blob/release-v2.5.0/contracts/math/SafeMath.sol\":834:1010  function add(uint256 a, uint256 b) internal pure returns (uint256) {... */\n    tag_56:\n        /* \"https://github.com/OpenZeppelin/openzeppelin-contracts/blob/release-v2.5.0/contracts/math/SafeMath.sol\":892:899  uint256 */\n      0x00\n        /* \"https://github.com/OpenZeppelin/openzeppelin-contracts/blob/release-v2.5.0/contracts/math/SafeMath.sol\":911:920  uint256 c */\n      dup1\n        /* \"https://github.com/OpenZeppelin/openzeppelin-contracts/blob/release-v2.5.0/contracts/math/SafeMath.sol\":927:928  b */\n      dup3\n        /* \"https://github.com/OpenZeppelin/openzeppelin-contracts/blob/release-v2.5.0/contracts/math/SafeMath.sol\":923:924  a */\n      dup5\n        /* \"https://github.com/OpenZeppelin/openzeppelin-contracts/blob/release-v2.5.0/contracts/math/SafeMath.sol\":923:928  a + b */\n      add\n        /* \"https://github.com/OpenZeppelin/openzeppelin-contracts/blob/release-v2.5.0/contracts/math/SafeMath.sol\":911:928  uint256 c = a + b */\n      swap1\n      pop\n        /* \"https://github.com/OpenZeppelin/openzeppelin-contracts/blob/release-v2.5.0/contracts/math/SafeMath.sol\":951:952  a */\n      dup4\n        /* \"https://github.com/OpenZeppelin/openzeppelin-contracts/blob/release-v2.5.0/contracts/math/SafeMath.sol\":946:947  c */\n      dup2\n        /* \"https://github.com/OpenZeppelin/openzeppelin-contracts/blob/release-v2.5.0/contracts/math/SafeMath.sol\":946:952  c >= a */\n      lt\n      iszero\n        /* \"https://github.com/OpenZeppelin/openzeppelin-contracts/blob/release-v2.5.0/contracts/math/SafeMath.sol\":938:984  require(c >= a, \"SafeMath: addition overflow\") */\n      tag_61\n      jumpi\n      mload(0x40)\n      0x08c379a000000000000000000000000000000000000000000000000000000000\n      dup2\n      mstore\n      0x04\n      add\n      dup1\n      dup1\n      0x20\n      add\n      dup3\n      dup2\n      sub\n      dup3\n      mstore\n      0x1b\n      dup2\n      mstore\n      0x20\n      add\n      dup1\n      0x536166654d6174683a206164646974696f6e206f766572666c6f770000000000\n      dup2\n      mstore\n      pop\n      0x20\n      add\n      swap2\n      pop\n      pop\n      mload(0x40)\n      dup1\n      swap2\n      sub\n      swap1\n      revert\n    tag_61:\n        /* \"https://github.com/OpenZeppelin/openzeppelin-contracts/blob/release-v2.5.0/contracts/math/SafeMath.sol\":1002:1003  c */\n      dup1\n        /* \"https://github.com/OpenZeppelin/openzeppelin-contracts/blob/release-v2.5.0/contracts/math/SafeMath.sol\":995:1003  return c */\n      swap2\n      pop\n      pop\n        /* \"https://github.com/OpenZeppelin/openzeppelin-contracts/blob/release-v2.5.0/contracts/math/SafeMath.sol\":834:1010  function add(uint256 a, uint256 b) internal pure returns (uint256) {... */\n      swap3\n      swap2\n      pop\n      pop\n      jump\t// out\n        /* \"KaseiCoin.sol\":658:937  contract KaseiCoin is ERC20, ERC20Detailed, ERC20Mintable {... */\n    tag_24:\n      dup3\n      dup1\n      sload\n      0x01\n      dup2\n      0x01\n      and\n      iszero\n      0x0100\n      mul\n      sub\n      and\n      0x02\n      swap1\n      div\n      swap1\n      0x00\n      mstore\n      keccak256(0x00, 0x20)\n      swap1\n      0x1f\n      add\n      0x20\n      swap1\n      div\n      dup2\n      add\n      swap3\n      dup3\n      0x1f\n      lt\n      tag_63\n      jumpi\n      dup1\n      mload\n      not(0xff)\n      and\n      dup4\n      dup1\n      add\n      or\n      dup6\n      sstore\n      jump(tag_62)\n    tag_63:\n      dup3\n      dup1\n      add\n      0x01\n      add\n      dup6\n      sstore\n      dup3\n      iszero\n      tag_62\n      jumpi\n      swap2\n      dup3\n      add\n    tag_64:\n      dup3\n      dup2\n      gt\n      iszero\n      tag_65\n      jumpi\n      dup3\n      mload\n      dup3\n      sstore\n      swap2\n      0x20\n      add\n      swap2\n      swap1\n      0x01\n      add\n      swap1\n      jump(tag_64)\n    tag_65:\n    tag_62:\n      pop\n      swap1\n      pop\n      tag_66\n      swap2\n      swap1\n      tag_67\n      jump\t// in\n    tag_66:\n      pop\n      swap1\n      jump\t// out\n    tag_67:\n      tag_68\n      swap2\n      swap1\n    tag_69:\n      dup1\n      dup3\n      gt\n      iszero\n      tag_70\n      jumpi\n      0x00\n      dup2\n      0x00\n      swap1\n      sstore\n      pop\n      0x01\n      add\n      jump(tag_69)\n    tag_70:\n      pop\n      swap1\n      jump\n    tag_68:\n      swap1\n      jump\t// out\n    tag_34:\n      dataSize(sub_0)\n      dup1\n      dataOffset(sub_0)\n      0x00\n      codecopy\n      0x00\n      return\n    stop\n    data_79ecb50133735b20228dea9d08fe36a462bbc1350f591a146908848db91104cd 4d696e746572526f6c653a2063616c6c657220646f6573206e6f74206861766520746865204d696e74657220726f6c65\n    data_9d214fa89563f4e6456a3929327e54500ea1cde2c0ba9fb2035ec106190d682f 526f6c65733a206163636f756e7420697320746865207a65726f2061646472657373\n\n    sub_0: assembly {\n            /* \"KaseiCoin.sol\":658:937  contract KaseiCoin is ERC20, ERC20Detailed, ERC20Mintable {... */\n          mstore(0x40, 0x80)\n          callvalue\n            /* \"--CODEGEN--\":8:17   */\n          dup1\n            /* \"--CODEGEN--\":5:7   */\n          iszero\n          tag_1\n          jumpi\n            /* \"--CODEGEN--\":30:31   */\n          0x00\n            /* \"--CODEGEN--\":27:28   */\n          dup1\n            /* \"--CODEGEN--\":20:32   */\n          revert\n            /* \"--CODEGEN--\":5:7   */\n        tag_1:\n            /* \"KaseiCoin.sol\":658:937  contract KaseiCoin is ERC20, ERC20Detailed, ERC20Mintable {... */\n          pop\n          jumpi(tag_2, lt(calldatasize, 0x04))\n          shr(0xe0, calldataload(0x00))\n          dup1\n          0x70a08231\n          gt\n          tag_18\n          jumpi\n          dup1\n          0xa457c2d7\n          gt\n          tag_19\n          jumpi\n          dup1\n          0xa457c2d7\n          eq\n          tag_14\n          jumpi\n          dup1\n          0xa9059cbb\n          eq\n          tag_15\n          jumpi\n          dup1\n          0xaa271e1a\n          eq\n          tag_16\n          jumpi\n          dup1\n          0xdd62ed3e\n          eq\n          tag_17\n          jumpi\n          jump(tag_2)\n        tag_19:\n          dup1\n          0x70a08231\n          eq\n          tag_10\n          jumpi\n          dup1\n          0x95d89b41\n          eq\n          tag_11\n          jumpi\n          dup1\n          0x983b2d56\n          eq\n          tag_12\n          jumpi\n          dup1\n          0x98650275\n          eq\n          tag_13\n          jumpi\n          jump(tag_2)\n        tag_18:\n          dup1\n          0x23b872dd\n          gt\n          tag_20\n          jumpi\n          dup1\n          0x23b872dd\n          eq\n          tag_6\n          jumpi\n          dup1\n          0x313ce567\n          eq\n          tag_7\n          jumpi\n          dup1\n          0x39509351\n          eq\n          tag_8\n          jumpi\n          dup1\n          0x40c10f19\n          eq\n          tag_9\n          jumpi\n          jump(tag_2)\n        tag_20:\n          dup1\n          0x06fdde03\n          eq\n          tag_3\n          jumpi\n          dup1\n          0x095ea7b3\n          eq\n          tag_4\n          jumpi\n          dup1\n          0x18160ddd\n          eq\n          tag_5\n          jumpi\n        tag_2:\n          0x00\n          dup1\n          revert\n            /* \"https://github.com/OpenZeppelin/openzeppelin-contracts/blob/release-v2.5.0/contracts/token/ERC20/ERC20Detailed.sol\":644:725  function name() public view returns (string memory) {... */\n        tag_3:\n          tag_21\n          tag_22\n          jump\t// in\n        tag_21:\n          mload(0x40)\n          dup1\n          dup1\n          0x20\n          add\n          dup3\n          dup2\n          sub\n          dup3\n          mstore\n          dup4\n          dup2\n          dup2\n          mload\n          dup2\n          mstore\n          0x20\n          add\n          swap2\n          pop\n          dup1\n          mload\n          swap1\n          0x20\n          add\n          swap1\n          dup1\n          dup4\n          dup4\n            /* \"--CODEGEN--\":23:24   */\n          0x00\n            /* \"--CODEGEN--\":8:108   */\n        tag_23:\n            /* \"--CODEGEN--\":33:36   */\n          dup4\n            /* \"--CODEGEN--\":30:31   */\n          dup2\n            /* \"--CODEGEN--\":27:37   */\n          lt\n            /* \"--CODEGEN--\":8:108   */\n          iszero\n          tag_25\n          jumpi\n            /* \"--CODEGEN--\":99:100   */\n          dup1\n            /* \"--CODEGEN--\":94:97   */\n          dup3\n            /* \"--CODEGEN--\":90:101   */\n          add\n            /* \"--CODEGEN--\":84:102   */\n          mload\n            /* \"--CODEGEN--\":80:81   */\n          dup2\n            /* \"--CODEGEN--\":75:78   */\n          dup5\n            /* \"--CODEGEN--\":71:82   */\n          add\n            /* \"--CODEGEN--\":64:103   */\n          mstore\n            /* \"--CODEGEN--\":52:54   */\n          0x20\n            /* \"--CODEGEN--\":49:50   */\n          dup2\n            /* \"--CODEGEN--\":45:55   */\n          add\n            /* \"--CODEGEN--\":40:55   */\n          swap1\n          pop\n            /* \"--CODEGEN--\":8:108   */\n          jump(tag_23)\n        tag_25:\n            /* \"--CODEGEN--\":12:26   */\n          pop\n            /* \"https://github.com/OpenZeppelin/openzeppelin-contracts/blob/release-v2.5.0/contracts/token/ERC20/ERC20Detailed.sol\":644:725  function name() public view returns (string memory) {... */\n          pop\n          pop\n          pop\n          swap1\n          pop\n          swap1\n          dup2\n          add\n          swap1\n          0x1f\n          and\n          dup1\n          iszero\n          tag_26\n          jumpi\n          dup1\n          dup3\n          sub\n          dup1\n          mload\n          0x01\n          dup4\n          0x20\n          sub\n          0x0100\n          exp\n          sub\n          not\n          and\n          dup2\n          mstore\n          0x20\n          add\n          swap2\n          pop\n        tag_26:\n          pop\n          swap3\n          pop\n          pop\n          pop\n          mload(0x40)\n          dup1\n          swap2\n          sub\n          swap1\n          return\n            /* \"https://github.com/OpenZeppelin/openzeppelin-contracts/blob/release-v2.5.0/contracts/token/ERC20/ERC20.sol\":2500:2649  function approve(address spender, uint256 amount) public returns (bool) {... */\n        tag_4:\n          tag_27\n          0x04\n          dup1\n          calldatasize\n          sub\n            /* \"--CODEGEN--\":13:15   */\n          0x40\n            /* \"--CODEGEN--\":8:11   */\n          dup2\n            /* \"--CODEGEN--\":5:16   */\n          lt\n            /* \"--CODEGEN--\":2:4   */\n          iszero\n          tag_28\n          jumpi\n            /* \"--CODEGEN--\":29:30   */\n          0x00\n            /* \"--CODEGEN--\":26:27   */\n          dup1\n            /* \"--CODEGEN--\":19:31   */\n          revert\n            /* \"--CODEGEN--\":2:4   */\n        tag_28:\n            /* \"https://github.com/OpenZeppelin/openzeppelin-contracts/blob/release-v2.5.0/contracts/token/ERC20/ERC20.sol\":2500:2649  function approve(address spender, uint256 amount) public returns (bool) {... */\n          dup2\n          add\n          swap1\n          dup1\n          dup1\n          calldataload\n          0xffffffffffffffffffffffffffffffffffffffff\n          and\n          swap1\n          0x20\n          add\n          swap1\n          swap3\n          swap2\n          swap1\n          dup1\n          calldataload\n          swap1\n          0x20\n          add\n          swap1\n          swap3\n          swap2\n          swap1\n          pop\n          pop\n          pop\n          tag_29\n          jump\t// in\n        tag_27:\n          mload(0x40)\n          dup1\n          dup3\n          iszero\n          iszero\n          iszero\n          iszero\n          dup2\n          mstore\n          0x20\n          add\n          swap2\n          pop\n          pop\n          mload(0x40)\n          dup1\n          swap2\n          sub\n          swap1\n          return\n            /* \"https://github.com/OpenZeppelin/openzeppelin-contracts/blob/release-v2.5.0/contracts/token/ERC20/ERC20.sol\":1559:1648  function totalSupply() public view returns (uint256) {... */\n        tag_5:\n          tag_30\n          tag_31\n          jump\t// in\n        tag_30:\n          mload(0x40)\n          dup1\n          dup3\n          dup2\n          mstore\n          0x20\n          add\n          swap2\n          pop\n          pop\n          mload(0x40)\n          dup1\n          swap2\n          sub\n          swap1\n          return\n            /* \"https://github.com/OpenZeppelin/openzeppelin-contracts/blob/release-v2.5.0/contracts/token/ERC20/ERC20.sol\":3107:3407  function transferFrom(address sender, address recipient, uint256 amount) public returns (bool) {... */\n        tag_6:\n          tag_32\n          0x04\n          dup1\n          calldatasize\n          sub\n            /* \"--CODEGEN--\":13:15   */\n          0x60\n            /* \"--CODEGEN--\":8:11   */\n          dup2\n            /* \"--CODEGEN--\":5:16   */\n          lt\n            /* \"--CODEGEN--\":2:4   */\n          iszero\n          tag_33\n          jumpi\n            /* \"--CODEGEN--\":29:30   */\n          0x00\n            /* \"--CODEGEN--\":26:27   */\n          dup1\n            /* \"--CODEGEN--\":19:31   */\n          revert\n            /* \"--CODEGEN--\":2:4   */\n        tag_33:\n            /* \"https://github.com/OpenZeppelin/openzeppelin-contracts/blob/release-v2.5.0/contracts/token/ERC20/ERC20.sol\":3107:3407  function transferFrom(address sender, address recipient, uint256 amount) public returns (bool) {... */\n          dup2\n          add\n          swap1\n          dup1\n          dup1\n          calldataload\n          0xffffffffffffffffffffffffffffffffffffffff\n          and\n          swap1\n          0x20\n          add\n          swap1\n          swap3\n          swap2\n          swap1\n          dup1\n          calldataload\n          0xffffffffffffffffffffffffffffffffffffffff\n          and\n          swap1\n          0x20\n          add\n          swap1\n          swap3\n          swap2\n          swap1\n          dup1\n          calldataload\n          swap1\n          0x20\n          add\n          swap1\n          swap3\n          swap2\n          swap1\n          pop\n          pop\n          pop\n          tag_34\n          jump\t// in\n        tag_32:\n          mload(0x40)\n          dup1\n          dup3\n          iszero\n          iszero\n          iszero\n          iszero\n          dup2\n          mstore\n          0x20\n          add\n          swap2\n          pop\n          pop\n          mload(0x40)\n          dup1\n          swap2\n          sub\n          swap1\n          return\n            /* \"https://github.com/OpenZeppelin/openzeppelin-contracts/blob/release-v2.5.0/contracts/token/ERC20/ERC20Detailed.sol\":1472:1553  function decimals() public view returns (uint8) {... */\n        tag_7:\n          tag_35\n          tag_36\n          jump\t// in\n        tag_35:\n          mload(0x40)\n          dup1\n          dup3\n          0xff\n          and\n          0xff\n          and\n          dup2\n          mstore\n          0x20\n          add\n          swap2\n          pop\n          pop\n          mload(0x40)\n          dup1\n          swap2\n          sub\n          swap1\n          return\n            /* \"https://github.com/OpenZeppelin/openzeppelin-contracts/blob/release-v2.5.0/contracts/token/ERC20/ERC20.sol\":3802:4009  function increaseAllowance(address spender, uint256 addedValue) public returns (bool) {... */\n        tag_8:\n          tag_37\n          0x04\n          dup1\n          calldatasize\n          sub\n            /* \"--CODEGEN--\":13:15   */\n          0x40\n            /* \"--CODEGEN--\":8:11   */\n          dup2\n            /* \"--CODEGEN--\":5:16   */\n          lt\n            /* \"--CODEGEN--\":2:4   */\n          iszero\n          tag_38\n          jumpi\n            /* \"--CODEGEN--\":29:30   */\n          0x00\n            /* \"--CODEGEN--\":26:27   */\n          dup1\n            /* \"--CODEGEN--\":19:31   */\n          revert\n            /* \"--CODEGEN--\":2:4   */\n        tag_38:\n            /* \"https://github.com/OpenZeppelin/openzeppelin-contracts/blob/release-v2.5.0/contracts/token/ERC20/ERC20.sol\":3802:4009  function increaseAllowance(address spender, uint256 addedValue) public returns (bool) {... */\n          dup2\n          add\n          swap1\n          dup1\n          dup1\n          calldataload\n          0xffffffffffffffffffffffffffffffffffffffff\n          and\n          swap1\n          0x20\n          add\n          swap1\n          swap3\n          swap2\n          swap1\n          dup1\n          calldataload\n          swap1\n          0x20\n          add\n          swap1\n          swap3\n          swap2\n          swap1\n          pop\n          pop\n          pop\n          tag_39\n          jump\t// in\n        tag_37:\n          mload(0x40)\n          dup1\n          dup3\n          iszero\n          iszero\n          iszero\n          iszero\n          dup2\n          mstore\n          0x20\n          add\n          swap2\n          pop\n          pop\n          mload(0x40)\n          dup1\n          swap2\n          sub\n          swap1\n          return\n            /* \"https://github.com/OpenZeppelin/openzeppelin-contracts/blob/release-v2.5.0/contracts/token/ERC20/ERC20Mintable.sol\":502:642  function mint(address account, uint256 amount) public onlyMinter returns (bool) {... */\n        tag_9:\n          tag_40\n          0x04\n          dup1\n          calldatasize\n          sub\n            /* \"--CODEGEN--\":13:15   */\n          0x40\n            /* \"--CODEGEN--\":8:11   */\n          dup2\n            /* \"--CODEGEN--\":5:16   */\n          lt\n            /* \"--CODEGEN--\":2:4   */\n          iszero\n          tag_41\n          jumpi\n            /* \"--CODEGEN--\":29:30   */\n          0x00\n            /* \"--CODEGEN--\":26:27   */\n          dup1\n            /* \"--CODEGEN--\":19:31   */\n          revert\n            /* \"--CODEGEN--\":2:4   */\n        tag_41:\n            /* \"https://github.com/OpenZeppelin/openzeppelin-contracts/blob/release-v2.5.0/contracts/token/ERC20/ERC20Mintable.sol\":502:642  function mint(address account, uint256 amount) public onlyMinter returns (bool) {... */\n          dup2\n          add\n          swap1\n          dup1\n          dup1\n          calldataload\n          0xffffffffffffffffffffffffffffffffffffffff\n          and\n          swap1\n          0x20\n          add\n          swap1\n          swap3\n          swap2\n          swap1\n          dup1\n          calldataload\n          swap1\n          0x20\n          add\n          swap1\n          swap3\n          swap2\n          swap1\n          pop\n          pop\n          pop\n          tag_42\n          jump\t// in\n        tag_40:\n          mload(0x40)\n          dup1\n          dup3\n          iszero\n          iszero\n          iszero\n          iszero\n          dup2\n          mstore\n          0x20\n          add\n          swap2\n          pop\n          pop\n          mload(0x40)\n          dup1\n          swap2\n          sub\n          swap1\n          return\n            /* \"https://github.com/OpenZeppelin/openzeppelin-contracts/blob/release-v2.5.0/contracts/token/ERC20/ERC20.sol\":1706:1814  function balanceOf(address account) public view returns (uint256) {... */\n        tag_10:\n          tag_43\n          0x04\n          dup1\n          calldatasize\n          sub\n            /* \"--CODEGEN--\":13:15   */\n          0x20\n            /* \"--CODEGEN--\":8:11   */\n          dup2\n            /* \"--CODEGEN--\":5:16   */\n          lt\n            /* \"--CODEGEN--\":2:4   */\n          iszero\n          tag_44\n          jumpi\n            /* \"--CODEGEN--\":29:30   */\n          0x00\n            /* \"--CODEGEN--\":26:27   */\n          dup1\n            /* \"--CODEGEN--\":19:31   */\n          revert\n            /* \"--CODEGEN--\":2:4   */\n        tag_44:\n            /* \"https://github.com/OpenZeppelin/openzeppelin-contracts/blob/release-v2.5.0/contracts/token/ERC20/ERC20.sol\":1706:1814  function balanceOf(address account) public view returns (uint256) {... */\n          dup2\n          add\n          swap1\n          dup1\n          dup1\n          calldataload\n          0xffffffffffffffffffffffffffffffffffffffff\n          and\n          swap1\n          0x20\n          add\n          swap1\n          swap3\n          swap2\n          swap1\n          pop\n          pop\n          pop\n          tag_45\n          jump\t// in\n        tag_43:\n          mload(0x40)\n          dup1\n          dup3\n          dup2\n          mstore\n          0x20\n          add\n          swap2\n          pop\n          pop\n          mload(0x40)\n          dup1\n          swap2\n          sub\n          swap1\n          return\n            /* \"https://github.com/OpenZeppelin/openzeppelin-contracts/blob/release-v2.5.0/contracts/token/ERC20/ERC20Detailed.sol\":838:923  function symbol() public view returns (string memory) {... */\n        tag_11:\n          tag_46\n          tag_47\n          jump\t// in\n        tag_46:\n          mload(0x40)\n          dup1\n          dup1\n          0x20\n          add\n          dup3\n          dup2\n          sub\n          dup3\n          mstore\n          dup4\n          dup2\n          dup2\n          mload\n          dup2\n          mstore\n          0x20\n          add\n          swap2\n          pop\n          dup1\n          mload\n          swap1\n          0x20\n          add\n          swap1\n          dup1\n          dup4\n          dup4\n            /* \"--CODEGEN--\":23:24   */\n          0x00\n            /* \"--CODEGEN--\":8:108   */\n        tag_48:\n            /* \"--CODEGEN--\":33:36   */\n          dup4\n            /* \"--CODEGEN--\":30:31   */\n          dup2\n            /* \"--CODEGEN--\":27:37   */\n          lt\n            /* \"--CODEGEN--\":8:108   */\n          iszero\n          tag_50\n          jumpi\n            /* \"--CODEGEN--\":99:100   */\n          dup1\n            /* \"--CODEGEN--\":94:97   */\n          dup3\n            /* \"--CODEGEN--\":90:101   */\n          add\n            /* \"--CODEGEN--\":84:102   */\n          mload\n            /* \"--CODEGEN--\":80:81   */\n          dup2\n            /* \"--CODEGEN--\":75:78   */\n          dup5\n            /* \"--CODEGEN--\":71:82   */\n          add\n            /* \"--CODEGEN--\":64:103   */\n          mstore\n            /* \"--CODEGEN--\":52:54   */\n          0x20\n            /* \"--CODEGEN--\":49:50   */\n          dup2\n            /* \"--CODEGEN--\":45:55   */\n          add\n            /* \"--CODEGEN--\":40:55   */\n          swap1\n          pop\n            /* \"--CODEGEN--\":8:108   */\n          jump(tag_48)\n        tag_50:\n            /* \"--CODEGEN--\":12:26   */\n          pop\n            /* \"https://github.com/OpenZeppelin/openzeppelin-contracts/blob/release-v2.5.0/contracts/token/ERC20/ERC20Detailed.sol\":838:923  function symbol() public view returns (string memory) {... */\n          pop\n          pop\n          pop\n          swap1\n          pop\n          swap1\n          dup2\n          add\n          swap1\n          0x1f\n          and\n          dup1\n          iszero\n          tag_51\n          jumpi\n          dup1\n          dup3\n          sub\n          dup1\n          mload\n          0x01\n          dup4\n          0x20\n          sub\n          0x0100\n          exp\n          sub\n          not\n          and\n          dup2\n          mstore\n          0x20\n          add\n          swap2\n          pop\n        tag_51:\n          pop\n          swap3\n          pop\n          pop\n          pop\n          mload(0x40)\n          dup1\n          swap2\n          sub\n          swap1\n          return\n            /* \"https://github.com/OpenZeppelin/openzeppelin-contracts/blob/release-v2.5.0/contracts/access/roles/MinterRole.sol\":607:697  function addMinter(address account) public onlyMinter {... */\n        tag_12:\n          tag_52\n          0x04\n          dup1\n          calldatasize\n          sub\n            /* \"--CODEGEN--\":13:15   */\n          0x20\n            /* \"--CODEGEN--\":8:11   */\n          dup2\n            /* \"--CODEGEN--\":5:16   */\n          lt\n            /* \"--CODEGEN--\":2:4   */\n          iszero\n          tag_53\n          jumpi\n            /* \"--CODEGEN--\":29:30   */\n          0x00\n            /* \"--CODEGEN--\":26:27   */\n          dup1\n            /* \"--CODEGEN--\":19:31   */\n          revert\n            /* \"--CODEGEN--\":2:4   */\n        tag_53:\n            /* \"https://github.com/OpenZeppelin/openzeppelin-contracts/blob/release-v2.5.0/contracts/access/roles/MinterRole.sol\":607:697  function addMinter(address account) public onlyMinter {... */\n          dup2\n          add\n          swap1\n          dup1\n          dup1\n          calldataload\n          0xffffffffffffffffffffffffffffffffffffffff\n          and\n          swap1\n          0x20\n          add\n          swap1\n          swap3\n          swap2\n          swap1\n          pop\n          pop\n          pop\n          tag_54\n          jump\t// in\n        tag_52:\n          stop\n            /* \"https://github.com/OpenZeppelin/openzeppelin-contracts/blob/release-v2.5.0/contracts/access/roles/MinterRole.sol\":703:780  function renounceMinter() public {... */\n        tag_13:\n          tag_55\n          tag_56\n          jump\t// in\n        tag_55:\n          stop\n            /* \"https://github.com/OpenZeppelin/openzeppelin-contracts/blob/release-v2.5.0/contracts/token/ERC20/ERC20.sol\":4496:4754  function decreaseAllowance(address spender, uint256 subtractedValue) public returns (bool) {... */\n        tag_14:\n          tag_57\n          0x04\n          dup1\n          calldatasize\n          sub\n            /* \"--CODEGEN--\":13:15   */\n          0x40\n            /* \"--CODEGEN--\":8:11   */\n          dup2\n            /* \"--CODEGEN--\":5:16   */\n          lt\n            /* \"--CODEGEN--\":2:4   */\n          iszero\n          tag_58\n          jumpi\n            /* \"--CODEGEN--\":29:30   */\n          0x00\n            /* \"--CODEGEN--\":26:27   */\n          dup1\n            /* \"--CODEGEN--\":19:31   */\n          revert\n            /* \"--CODEGEN--\":2:4   */\n        tag_58:\n            /* \"https://github.com/OpenZeppelin/openzeppelin-contracts/blob/release-v2.5.0/contracts/token/ERC20/ERC20.sol\":4496:4754  function decreaseAllowance(address spender, uint256 subtractedValue) public returns (bool) {... */\n          dup2\n          add\n          swap1\n          dup1\n          dup1\n          calldataload\n          0xffffffffffffffffffffffffffffffffffffffff\n          and\n          swap1\n          0x20\n          add\n          swap1\n          swap3\n          swap2\n          swap1\n          dup1\n          calldataload\n          swap1\n          0x20\n          add\n          swap1\n          swap3\n          swap2\n          swap1\n          pop\n          pop\n          pop\n          tag_59\n          jump\t// in\n        tag_57:\n          mload(0x40)\n          dup1\n          dup3\n          iszero\n          iszero\n          iszero\n          iszero\n          dup2\n          mstore\n          0x20\n          add\n          swap2\n          pop\n          pop\n          mload(0x40)\n          dup1\n          swap2\n          sub\n          swap1\n          return\n            /* \"https://github.com/OpenZeppelin/openzeppelin-contracts/blob/release-v2.5.0/contracts/token/ERC20/ERC20.sol\":2017:2172  function transfer(address recipient, uint256 amount) public returns (bool) {... */\n        tag_15:\n          tag_60\n          0x04\n          dup1\n          calldatasize\n          sub\n            /* \"--CODEGEN--\":13:15   */\n          0x40\n            /* \"--CODEGEN--\":8:11   */\n          dup2\n            /* \"--CODEGEN--\":5:16   */\n          lt\n            /* \"--CODEGEN--\":2:4   */\n          iszero\n          tag_61\n          jumpi\n            /* \"--CODEGEN--\":29:30   */\n          0x00\n            /* \"--CODEGEN--\":26:27   */\n          dup1\n            /* \"--CODEGEN--\":19:31   */\n          revert\n            /* \"--CODEGEN--\":2:4   */\n        tag_61:\n            /* \"https://github.com/OpenZeppelin/openzeppelin-contracts/blob/release-v2.5.0/contracts/token/ERC20/ERC20.sol\":2017:2172  function transfer(address recipient, uint256 amount) public returns (bool) {... */\n          dup2\n          add\n          swap1\n          dup1\n          dup1\n          calldataload\n          0xffffffffffffffffffffffffffffffffffffffff\n          and\n          swap1\n          0x20\n          add\n          swap1\n          swap3\n          swap2\n          swap1\n          dup1\n          calldataload\n          swap1\n          0x20\n          add\n          swap1\n          swap3\n          swap2\n          swap1\n          pop\n          pop\n          pop\n          tag_62\n          jump\t// in\n        tag_60:\n          mload(0x40)\n          dup1\n          dup3\n          iszero\n          iszero\n          iszero\n          iszero\n          dup2\n          mstore\n          0x20\n          add\n          swap2\n          pop\n          pop\n          mload(0x40)\n          dup1\n          swap2\n          sub\n          swap1\n          return\n            /* \"https://github.com/OpenZeppelin/openzeppelin-contracts/blob/release-v2.5.0/contracts/access/roles/MinterRole.sol\":494:601  function isMinter(address account) public view returns (bool) {... */\n        tag_16:\n          tag_63\n          0x04\n          dup1\n          calldatasize\n          sub\n            /* \"--CODEGEN--\":13:15   */\n          0x20\n            /* \"--CODEGEN--\":8:11   */\n          dup2\n            /* \"--CODEGEN--\":5:16   */\n          lt\n            /* \"--CODEGEN--\":2:4   */\n          iszero\n          tag_64\n          jumpi\n            /* \"--CODEGEN--\":29:30   */\n          0x00\n            /* \"--CODEGEN--\":26:27   */\n          dup1\n            /* \"--CODEGEN--\":19:31   */\n          revert\n            /* \"--CODEGEN--\":2:4   */\n        tag_64:\n            /* \"https://github.com/OpenZeppelin/openzeppelin-contracts/blob/release-v2.5.0/contracts/access/roles/MinterRole.sol\":494:601  function isMinter(address account) public view returns (bool) {... */\n          dup2\n          add\n          swap1\n          dup1\n          dup1\n          calldataload\n          0xffffffffffffffffffffffffffffffffffffffff\n          and\n          swap1\n          0x20\n          add\n          swap1\n          swap3\n          swap2\n          swap1\n          pop\n          pop\n          pop\n          tag_65\n          jump\t// in\n        tag_63:\n          mload(0x40)\n          dup1\n          dup3\n          iszero\n          iszero\n          iszero\n          iszero\n          dup2\n          mstore\n          0x20\n          add\n          swap2\n          pop\n          pop\n          mload(0x40)\n          dup1\n          swap2\n          sub\n          swap1\n          return\n            /* \"https://github.com/OpenZeppelin/openzeppelin-contracts/blob/release-v2.5.0/contracts/token/ERC20/ERC20.sol\":2230:2362  function allowance(address owner, address spender) public view returns (uint256) {... */\n        tag_17:\n          tag_66\n          0x04\n          dup1\n          calldatasize\n          sub\n            /* \"--CODEGEN--\":13:15   */\n          0x40\n            /* \"--CODEGEN--\":8:11   */\n          dup2\n            /* \"--CODEGEN--\":5:16   */\n          lt\n            /* \"--CODEGEN--\":2:4   */\n          iszero\n          tag_67\n          jumpi\n            /* \"--CODEGEN--\":29:30   */\n          0x00\n            /* \"--CODEGEN--\":26:27   */\n          dup1\n            /* \"--CODEGEN--\":19:31   */\n          revert\n            /* \"--CODEGEN--\":2:4   */\n        tag_67:\n            /* \"https://github.com/OpenZeppelin/openzeppelin-contracts/blob/release-v2.5.0/contracts/token/ERC20/ERC20.sol\":2230:2362  function allowance(address owner, address spender) public view returns (uint256) {... */\n          dup2\n          add\n          swap1\n          dup1\n          dup1\n          calldataload\n          0xffffffffffffffffffffffffffffffffffffffff\n          and\n          swap1\n          0x20\n          add\n          swap1\n          swap3\n          swap2\n          swap1\n          dup1\n          calldataload\n          0xffffffffffffffffffffffffffffffffffffffff\n          and\n          swap1\n          0x20\n          add\n          swap1\n          swap3\n          swap2\n          swap1\n          pop\n          pop\n          pop\n          tag_68\n          jump\t// in\n        tag_66:\n          mload(0x40)\n          dup1\n          dup3\n          dup2\n          mstore\n          0x20\n          add\n          swap2\n          pop\n          pop\n          mload(0x40)\n          dup1\n          swap2\n          sub\n          swap1\n          return\n            /* \"https://github.com/OpenZeppelin/openzeppelin-contracts/blob/release-v2.5.0/contracts/token/ERC20/ERC20Detailed.sol\":644:725  function name() public view returns (string memory) {... */\n        tag_22:\n            /* \"https://github.com/OpenZeppelin/openzeppelin-contracts/blob/release-v2.5.0/contracts/token/ERC20/ERC20Detailed.sol\":681:694  string memory */\n          0x60\n            /* \"https://github.com/OpenZeppelin/openzeppelin-contracts/blob/release-v2.5.0/contracts/token/ERC20/ERC20Detailed.sol\":713:718  _name */\n          0x03\n            /* \"https://github.com/OpenZeppelin/openzeppelin-contracts/blob/release-v2.5.0/contracts/token/ERC20/ERC20Detailed.sol\":706:718  return _name */\n          dup1\n          sload\n          0x01\n          dup2\n          0x01\n          and\n          iszero\n          0x0100\n          mul\n          sub\n          and\n          0x02\n          swap1\n          div\n          dup1\n          0x1f\n          add\n          0x20\n          dup1\n          swap2\n          div\n          mul\n          0x20\n          add\n          mload(0x40)\n          swap1\n          dup2\n          add\n          0x40\n          mstore\n          dup1\n          swap3\n          swap2\n          swap1\n          dup2\n          dup2\n          mstore\n          0x20\n          add\n          dup3\n          dup1\n          sload\n          0x01\n          dup2\n          0x01\n          and\n          iszero\n          0x0100\n          mul\n          sub\n          and\n          0x02\n          swap1\n          div\n          dup1\n          iszero\n          tag_70\n          jumpi\n          dup1\n          0x1f\n          lt\n          tag_71\n          jumpi\n          0x0100\n          dup1\n          dup4\n          sload\n          div\n          mul\n          dup4\n          mstore\n          swap2\n          0x20\n          add\n          swap2\n          jump(tag_70)\n        tag_71:\n          dup3\n          add\n          swap2\n          swap1\n          0x00\n          mstore\n          keccak256(0x00, 0x20)\n          swap1\n        tag_72:\n          dup2\n          sload\n          dup2\n          mstore\n          swap1\n          0x01\n          add\n          swap1\n          0x20\n          add\n          dup1\n          dup4\n          gt\n          tag_72\n          jumpi\n          dup3\n          swap1\n          sub\n          0x1f\n          and\n          dup3\n          add\n          swap2\n        tag_70:\n          pop\n          pop\n          pop\n          pop\n          pop\n          swap1\n          pop\n            /* \"https://github.com/OpenZeppelin/openzeppelin-contracts/blob/release-v2.5.0/contracts/token/ERC20/ERC20Detailed.sol\":644:725  function name() public view returns (string memory) {... */\n          swap1\n          jump\t// out\n            /* \"https://github.com/OpenZeppelin/openzeppelin-contracts/blob/release-v2.5.0/contracts/token/ERC20/ERC20.sol\":2500:2649  function approve(address spender, uint256 amount) public returns (bool) {... */\n        tag_29:\n            /* \"https://github.com/OpenZeppelin/openzeppelin-contracts/blob/release-v2.5.0/contracts/token/ERC20/ERC20.sol\":2566:2570  bool */\n          0x00\n            /* \"https://github.com/OpenZeppelin/openzeppelin-contracts/blob/release-v2.5.0/contracts/token/ERC20/ERC20.sol\":2582:2621  _approve(_msgSender(), spender, amount) */\n          tag_74\n            /* \"https://github.com/OpenZeppelin/openzeppelin-contracts/blob/release-v2.5.0/contracts/token/ERC20/ERC20.sol\":2591:2603  _msgSender() */\n          tag_75\n            /* \"https://github.com/OpenZeppelin/openzeppelin-contracts/blob/release-v2.5.0/contracts/token/ERC20/ERC20.sol\":2591:2601  _msgSender */\n          tag_76\n            /* \"https://github.com/OpenZeppelin/openzeppelin-contracts/blob/release-v2.5.0/contracts/token/ERC20/ERC20.sol\":2591:2603  _msgSender() */\n          jump\t// in\n        tag_75:\n            /* \"https://github.com/OpenZeppelin/openzeppelin-contracts/blob/release-v2.5.0/contracts/token/ERC20/ERC20.sol\":2605:2612  spender */\n          dup5\n            /* \"https://github.com/OpenZeppelin/openzeppelin-contracts/blob/release-v2.5.0/contracts/token/ERC20/ERC20.sol\":2614:2620  amount */\n          dup5\n            /* \"https://github.com/OpenZeppelin/openzeppelin-contracts/blob/release-v2.5.0/contracts/token/ERC20/ERC20.sol\":2582:2590  _approve */\n          tag_77\n            /* \"https://github.com/OpenZeppelin/openzeppelin-contracts/blob/release-v2.5.0/contracts/token/ERC20/ERC20.sol\":2582:2621  _approve(_msgSender(), spender, amount) */\n          jump\t// in\n        tag_74:\n            /* \"https://github.com/OpenZeppelin/openzeppelin-contracts/blob/release-v2.5.0/contracts/token/ERC20/ERC20.sol\":2638:2642  true */\n          0x01\n            /* \"https://github.com/OpenZeppelin/openzeppelin-contracts/blob/release-v2.5.0/contracts/token/ERC20/ERC20.sol\":2631:2642  return true */\n          swap1\n          pop\n            /* \"https://github.com/OpenZeppelin/openzeppelin-contracts/blob/release-v2.5.0/contracts/token/ERC20/ERC20.sol\":2500:2649  function approve(address spender, uint256 amount) public returns (bool) {... */\n          swap3\n          swap2\n          pop\n          pop\n          jump\t// out\n            /* \"https://github.com/OpenZeppelin/openzeppelin-contracts/blob/release-v2.5.0/contracts/token/ERC20/ERC20.sol\":1559:1648  function totalSupply() public view returns (uint256) {... */\n        tag_31:\n            /* \"https://github.com/OpenZeppelin/openzeppelin-contracts/blob/release-v2.5.0/contracts/token/ERC20/ERC20.sol\":1603:1610  uint256 */\n          0x00\n            /* \"https://github.com/OpenZeppelin/openzeppelin-contracts/blob/release-v2.5.0/contracts/token/ERC20/ERC20.sol\":1629:1641  _totalSupply */\n          sload(0x02)\n            /* \"https://github.com/OpenZeppelin/openzeppelin-contracts/blob/release-v2.5.0/contracts/token/ERC20/ERC20.sol\":1622:1641  return _totalSupply */\n          swap1\n          pop\n            /* \"https://github.com/OpenZeppelin/openzeppelin-contracts/blob/release-v2.5.0/contracts/token/ERC20/ERC20.sol\":1559:1648  function totalSupply() public view returns (uint256) {... */\n          swap1\n          jump\t// out\n            /* \"https://github.com/OpenZeppelin/openzeppelin-contracts/blob/release-v2.5.0/contracts/token/ERC20/ERC20.sol\":3107:3407  function transferFrom(address sender, address recipient, uint256 amount) public returns (bool) {... */\n        tag_34:\n            /* \"https://github.com/OpenZeppelin/openzeppelin-contracts/blob/release-v2.5.0/contracts/token/ERC20/ERC20.sol\":3196:3200  bool */\n          0x00\n            /* \"https://github.com/OpenZeppelin/openzeppelin-contracts/blob/release-v2.5.0/contracts/token/ERC20/ERC20.sol\":3212:3248  _transfer(sender, recipient, amount) */\n          tag_80\n            /* \"https://github.com/OpenZeppelin/openzeppelin-contracts/blob/release-v2.5.0/contracts/token/ERC20/ERC20.sol\":3222:3228  sender */\n          dup5\n            /* \"https://github.com/OpenZeppelin/openzeppelin-contracts/blob/release-v2.5.0/contracts/token/ERC20/ERC20.sol\":3230:3239  recipient */\n          dup5\n            /* \"https://github.com/OpenZeppelin/openzeppelin-contracts/blob/release-v2.5.0/contracts/token/ERC20/ERC20.sol\":3241:3247  amount */\n          dup5\n            /* \"https://github.com/OpenZeppelin/openzeppelin-contracts/blob/release-v2.5.0/contracts/token/ERC20/ERC20.sol\":3212:3221  _transfer */\n          tag_81\n            /* \"https://github.com/OpenZeppelin/openzeppelin-contracts/blob/release-v2.5.0/contracts/token/ERC20/ERC20.sol\":3212:3248  _transfer(sender, recipient, amount) */\n          jump\t// in\n        tag_80:\n            /* \"https://github.com/OpenZeppelin/openzeppelin-contracts/blob/release-v2.5.0/contracts/token/ERC20/ERC20.sol\":3258:3379  _approve(sender, _msgSender(), _allowances[sender][_msgSender()].sub(amount, \"ERC20: transfer amount exceeds allowance\")) */\n          tag_82\n            /* \"https://github.com/OpenZeppelin/openzeppelin-contracts/blob/release-v2.5.0/contracts/token/ERC20/ERC20.sol\":3267:3273  sender */\n          dup5\n            /* \"https://github.com/OpenZeppelin/openzeppelin-contracts/blob/release-v2.5.0/contracts/token/ERC20/ERC20.sol\":3275:3287  _msgSender() */\n          tag_83\n            /* \"https://github.com/OpenZeppelin/openzeppelin-contracts/blob/release-v2.5.0/contracts/token/ERC20/ERC20.sol\":3275:3285  _msgSender */\n          tag_76\n            /* \"https://github.com/OpenZeppelin/openzeppelin-contracts/blob/release-v2.5.0/contracts/token/ERC20/ERC20.sol\":3275:3287  _msgSender() */\n          jump\t// in\n        tag_83:\n            /* \"https://github.com/OpenZeppelin/openzeppelin-contracts/blob/release-v2.5.0/contracts/token/ERC20/ERC20.sol\":3289:3378  _allowances[sender][_msgSender()].sub(amount, \"ERC20: transfer amount exceeds allowance\") */\n          tag_84\n            /* \"https://github.com/OpenZeppelin/openzeppelin-contracts/blob/release-v2.5.0/contracts/token/ERC20/ERC20.sol\":3327:3333  amount */\n          dup6\n            /* \"https://github.com/OpenZeppelin/openzeppelin-contracts/blob/release-v2.5.0/contracts/token/ERC20/ERC20.sol\":3289:3378  _allowances[sender][_msgSender()].sub(amount, \"ERC20: transfer amount exceeds allowance\") */\n          mload(0x40)\n          dup1\n          0x60\n          add\n          0x40\n          mstore\n          dup1\n          0x28\n          dup2\n          mstore\n          0x20\n          add\n          data_974d1b4421da69cc60b481194f0dad36a5bb4e23da810da7a7fb30cdba178330\n          0x28\n          swap2\n          codecopy\n            /* \"https://github.com/OpenZeppelin/openzeppelin-contracts/blob/release-v2.5.0/contracts/token/ERC20/ERC20.sol\":3289:3300  _allowances */\n          0x01\n            /* \"https://github.com/OpenZeppelin/openzeppelin-contracts/blob/release-v2.5.0/contracts/token/ERC20/ERC20.sol\":3289:3308  _allowances[sender] */\n          0x00\n            /* \"https://github.com/OpenZeppelin/openzeppelin-contracts/blob/release-v2.5.0/contracts/token/ERC20/ERC20.sol\":3301:3307  sender */\n          dup12\n            /* \"https://github.com/OpenZeppelin/openzeppelin-contracts/blob/release-v2.5.0/contracts/token/ERC20/ERC20.sol\":3289:3308  _allowances[sender] */\n          0xffffffffffffffffffffffffffffffffffffffff\n          and\n          0xffffffffffffffffffffffffffffffffffffffff\n          and\n          dup2\n          mstore\n          0x20\n          add\n          swap1\n          dup2\n          mstore\n          0x20\n          add\n          0x00\n          keccak256\n            /* \"https://github.com/OpenZeppelin/openzeppelin-contracts/blob/release-v2.5.0/contracts/token/ERC20/ERC20.sol\":3289:3322  _allowances[sender][_msgSender()] */\n          0x00\n            /* \"https://github.com/OpenZeppelin/openzeppelin-contracts/blob/release-v2.5.0/contracts/token/ERC20/ERC20.sol\":3309:3321  _msgSender() */\n          tag_85\n            /* \"https://github.com/OpenZeppelin/openzeppelin-contracts/blob/release-v2.5.0/contracts/token/ERC20/ERC20.sol\":3309:3319  _msgSender */\n          tag_76\n            /* \"https://github.com/OpenZeppelin/openzeppelin-contracts/blob/release-v2.5.0/contracts/token/ERC20/ERC20.sol\":3309:3321  _msgSender() */\n          jump\t// in\n        tag_85:\n            /* \"https://github.com/OpenZeppelin/openzeppelin-contracts/blob/release-v2.5.0/contracts/token/ERC20/ERC20.sol\":3289:3322  _allowances[sender][_msgSender()] */\n          0xffffffffffffffffffffffffffffffffffffffff\n          and\n          0xffffffffffffffffffffffffffffffffffffffff\n          and\n          dup2\n          mstore\n          0x20\n          add\n          swap1\n          dup2\n          mstore\n          0x20\n          add\n          0x00\n          keccak256\n          sload\n            /* \"https://github.com/OpenZeppelin/openzeppelin-contracts/blob/release-v2.5.0/contracts/token/ERC20/ERC20.sol\":3289:3326  _allowances[sender][_msgSender()].sub */\n          tag_86\n          swap1\n            /* \"https://github.com/OpenZeppelin/openzeppelin-contracts/blob/release-v2.5.0/contracts/token/ERC20/ERC20.sol\":3289:3378  _allowances[sender][_msgSender()].sub(amount, \"ERC20: transfer amount exceeds allowance\") */\n          swap3\n          swap2\n          swap1\n          0xffffffff\n          and\n          jump\t// in\n        tag_84:\n            /* \"https://github.com/OpenZeppelin/openzeppelin-contracts/blob/release-v2.5.0/contracts/token/ERC20/ERC20.sol\":3258:3266  _approve */\n          tag_77\n            /* \"https://github.com/OpenZeppelin/openzeppelin-contracts/blob/release-v2.5.0/contracts/token/ERC20/ERC20.sol\":3258:3379  _approve(sender, _msgSender(), _allowances[sender][_msgSender()].sub(amount, \"ERC20: transfer amount exceeds allowance\")) */\n          jump\t// in\n        tag_82:\n            /* \"https://github.com/OpenZeppelin/openzeppelin-contracts/blob/release-v2.5.0/contracts/token/ERC20/ERC20.sol\":3396:3400  true */\n          0x01\n            /* \"https://github.com/OpenZeppelin/openzeppelin-contracts/blob/release-v2.5.0/contracts/token/ERC20/ERC20.sol\":3389:3400  return true */\n          swap1\n          pop\n            /* \"https://github.com/OpenZeppelin/openzeppelin-contracts/blob/release-v2.5.0/contracts/token/ERC20/ERC20.sol\":3107:3407  function transferFrom(address sender, address recipient, uint256 amount) public returns (bool) {... */\n          swap4\n          swap3\n          pop\n          pop\n          pop\n          jump\t// out\n            /* \"https://github.com/OpenZeppelin/openzeppelin-contracts/blob/release-v2.5.0/contracts/token/ERC20/ERC20Detailed.sol\":1472:1553  function decimals() public view returns (uint8) {... */\n        tag_36:\n            /* \"https://github.com/OpenZeppelin/openzeppelin-contracts/blob/release-v2.5.0/contracts/token/ERC20/ERC20Detailed.sol\":1513:1518  uint8 */\n          0x00\n            /* \"https://github.com/OpenZeppelin/openzeppelin-contracts/blob/release-v2.5.0/contracts/token/ERC20/ERC20Detailed.sol\":1537:1546  _decimals */\n          0x05\n          0x00\n          swap1\n          sload\n          swap1\n          0x0100\n          exp\n          swap1\n          div\n          0xff\n          and\n            /* \"https://github.com/OpenZeppelin/openzeppelin-contracts/blob/release-v2.5.0/contracts/token/ERC20/ERC20Detailed.sol\":1530:1546  return _decimals */\n          swap1\n          pop\n            /* \"https://github.com/OpenZeppelin/openzeppelin-contracts/blob/release-v2.5.0/contracts/token/ERC20/ERC20Detailed.sol\":1472:1553  function decimals() public view returns (uint8) {... */\n          swap1\n          jump\t// out\n            /* \"https://github.com/OpenZeppelin/openzeppelin-contracts/blob/release-v2.5.0/contracts/token/ERC20/ERC20.sol\":3802:4009  function increaseAllowance(address spender, uint256 addedValue) public returns (bool) {... */\n        tag_39:\n            /* \"https://github.com/OpenZeppelin/openzeppelin-contracts/blob/release-v2.5.0/contracts/token/ERC20/ERC20.sol\":3882:3886  bool */\n          0x00\n            /* \"https://github.com/OpenZeppelin/openzeppelin-contracts/blob/release-v2.5.0/contracts/token/ERC20/ERC20.sol\":3898:3981  _approve(_msgSender(), spender, _allowances[_msgSender()][spender].add(addedValue)) */\n          tag_89\n            /* \"https://github.com/OpenZeppelin/openzeppelin-contracts/blob/release-v2.5.0/contracts/token/ERC20/ERC20.sol\":3907:3919  _msgSender() */\n          tag_90\n            /* \"https://github.com/OpenZeppelin/openzeppelin-contracts/blob/release-v2.5.0/contracts/token/ERC20/ERC20.sol\":3907:3917  _msgSender */\n          tag_76\n            /* \"https://github.com/OpenZeppelin/openzeppelin-contracts/blob/release-v2.5.0/contracts/token/ERC20/ERC20.sol\":3907:3919  _msgSender() */\n          jump\t// in\n        tag_90:\n            /* \"https://github.com/OpenZeppelin/openzeppelin-contracts/blob/release-v2.5.0/contracts/token/ERC20/ERC20.sol\":3921:3928  spender */\n          dup5\n            /* \"https://github.com/OpenZeppelin/openzeppelin-contracts/blob/release-v2.5.0/contracts/token/ERC20/ERC20.sol\":3930:3980  _allowances[_msgSender()][spender].add(addedValue) */\n          tag_91\n            /* \"https://github.com/OpenZeppelin/openzeppelin-contracts/blob/release-v2.5.0/contracts/token/ERC20/ERC20.sol\":3969:3979  addedValue */\n          dup6\n            /* \"https://github.com/OpenZeppelin/openzeppelin-contracts/blob/release-v2.5.0/contracts/token/ERC20/ERC20.sol\":3930:3941  _allowances */\n          0x01\n            /* \"https://github.com/OpenZeppelin/openzeppelin-contracts/blob/release-v2.5.0/contracts/token/ERC20/ERC20.sol\":3930:3955  _allowances[_msgSender()] */\n          0x00\n            /* \"https://github.com/OpenZeppelin/openzeppelin-contracts/blob/release-v2.5.0/contracts/token/ERC20/ERC20.sol\":3942:3954  _msgSender() */\n          tag_92\n            /* \"https://github.com/OpenZeppelin/openzeppelin-contracts/blob/release-v2.5.0/contracts/token/ERC20/ERC20.sol\":3942:3952  _msgSender */\n          tag_76\n            /* \"https://github.com/OpenZeppelin/openzeppelin-contracts/blob/release-v2.5.0/contracts/token/ERC20/ERC20.sol\":3942:3954  _msgSender() */\n          jump\t// in\n        tag_92:\n            /* \"https://github.com/OpenZeppelin/openzeppelin-contracts/blob/release-v2.5.0/contracts/token/ERC20/ERC20.sol\":3930:3955  _allowances[_msgSender()] */\n          0xffffffffffffffffffffffffffffffffffffffff\n          and\n          0xffffffffffffffffffffffffffffffffffffffff\n          and\n          dup2\n          mstore\n          0x20\n          add\n          swap1\n          dup2\n          mstore\n          0x20\n          add\n          0x00\n          keccak256\n            /* \"https://github.com/OpenZeppelin/openzeppelin-contracts/blob/release-v2.5.0/contracts/token/ERC20/ERC20.sol\":3930:3964  _allowances[_msgSender()][spender] */\n          0x00\n            /* \"https://github.com/OpenZeppelin/openzeppelin-contracts/blob/release-v2.5.0/contracts/token/ERC20/ERC20.sol\":3956:3963  spender */\n          dup10\n            /* \"https://github.com/OpenZeppelin/openzeppelin-contracts/blob/release-v2.5.0/contracts/token/ERC20/ERC20.sol\":3930:3964  _allowances[_msgSender()][spender] */\n          0xffffffffffffffffffffffffffffffffffffffff\n          and\n          0xffffffffffffffffffffffffffffffffffffffff\n          and\n          dup2\n          mstore\n          0x20\n          add\n          swap1\n          dup2\n          mstore\n          0x20\n          add\n          0x00\n          keccak256\n          sload\n            /* \"https://github.com/OpenZeppelin/openzeppelin-contracts/blob/release-v2.5.0/contracts/token/ERC20/ERC20.sol\":3930:3968  _allowances[_msgSender()][spender].add */\n          tag_93\n          swap1\n            /* \"https://github.com/OpenZeppelin/openzeppelin-contracts/blob/release-v2.5.0/contracts/token/ERC20/ERC20.sol\":3930:3980  _allowances[_msgSender()][spender].add(addedValue) */\n          swap2\n          swap1\n          0xffffffff\n          and\n          jump\t// in\n        tag_91:\n            /* \"https://github.com/OpenZeppelin/openzeppelin-contracts/blob/release-v2.5.0/contracts/token/ERC20/ERC20.sol\":3898:3906  _approve */\n          tag_77\n            /* \"https://github.com/OpenZeppelin/openzeppelin-contracts/blob/release-v2.5.0/contracts/token/ERC20/ERC20.sol\":3898:3981  _approve(_msgSender(), spender, _allowances[_msgSender()][spender].add(addedValue)) */\n          jump\t// in\n        tag_89:\n            /* \"https://github.com/OpenZeppelin/openzeppelin-contracts/blob/release-v2.5.0/contracts/token/ERC20/ERC20.sol\":3998:4002  true */\n          0x01\n            /* \"https://github.com/OpenZeppelin/openzeppelin-contracts/blob/release-v2.5.0/contracts/token/ERC20/ERC20.sol\":3991:4002  return true */\n          swap1\n          pop\n            /* \"https://github.com/OpenZeppelin/openzeppelin-contracts/blob/release-v2.5.0/contracts/token/ERC20/ERC20.sol\":3802:4009  function increaseAllowance(address spender, uint256 addedValue) public returns (bool) {... */\n          swap3\n          swap2\n          pop\n          pop\n          jump\t// out\n            /* \"https://github.com/OpenZeppelin/openzeppelin-contracts/blob/release-v2.5.0/contracts/token/ERC20/ERC20Mintable.sol\":502:642  function mint(address account, uint256 amount) public onlyMinter returns (bool) {... */\n        tag_42:\n            /* \"https://github.com/OpenZeppelin/openzeppelin-contracts/blob/release-v2.5.0/contracts/token/ERC20/ERC20Mintable.sol\":576:580  bool */\n          0x00\n            /* \"https://github.com/OpenZeppelin/openzeppelin-contracts/blob/release-v2.5.0/contracts/access/roles/MinterRole.sol\":395:417  isMinter(_msgSender()) */\n          tag_95\n            /* \"https://github.com/OpenZeppelin/openzeppelin-contracts/blob/release-v2.5.0/contracts/access/roles/MinterRole.sol\":404:416  _msgSender() */\n          tag_96\n            /* \"https://github.com/OpenZeppelin/openzeppelin-contracts/blob/release-v2.5.0/contracts/access/roles/MinterRole.sol\":404:414  _msgSender */\n          tag_76\n            /* \"https://github.com/OpenZeppelin/openzeppelin-contracts/blob/release-v2.5.0/contracts/access/roles/MinterRole.sol\":404:416  _msgSender() */\n          jump\t// in\n        tag_96:\n            /* \"https://github.com/OpenZeppelin/openzeppelin-contracts/blob/release-v2.5.0/contracts/access/roles/MinterRole.sol\":395:403  isMinter */\n          tag_65\n            /* \"https://github.com/OpenZeppelin/openzeppelin-contracts/blob/release-v2.5.0/contracts/access/roles/MinterRole.sol\":395:417  isMinter(_msgSender()) */\n          jump\t// in\n        tag_95:\n            /* \"https://github.com/OpenZeppelin/openzeppelin-contracts/blob/release-v2.5.0/contracts/access/roles/MinterRole.sol\":387:470  require(isMinter(_msgSender()), \"MinterRole: caller does not have the Minter role\") */\n          tag_97\n          jumpi\n          mload(0x40)\n          0x08c379a000000000000000000000000000000000000000000000000000000000\n          dup2\n          mstore\n          0x04\n          add\n          dup1\n          dup1\n          0x20\n          add\n          dup3\n          dup2\n          sub\n          dup3\n          mstore\n          0x30\n          dup2\n          mstore\n          0x20\n          add\n          dup1\n          data_79ecb50133735b20228dea9d08fe36a462bbc1350f591a146908848db91104cd\n          0x30\n          swap2\n          codecopy\n          0x40\n          add\n          swap2\n          pop\n          pop\n          mload(0x40)\n          dup1\n          swap2\n          sub\n          swap1\n          revert\n        tag_97:\n            /* \"https://github.com/OpenZeppelin/openzeppelin-contracts/blob/release-v2.5.0/contracts/token/ERC20/ERC20Mintable.sol\":592:614  _mint(account, amount) */\n          tag_99\n            /* \"https://github.com/OpenZeppelin/openzeppelin-contracts/blob/release-v2.5.0/contracts/token/ERC20/ERC20Mintable.sol\":598:605  account */\n          dup4\n            /* \"https://github.com/OpenZeppelin/openzeppelin-contracts/blob/release-v2.5.0/contracts/token/ERC20/ERC20Mintable.sol\":607:613  amount */\n          dup4\n            /* \"https://github.com/OpenZeppelin/openzeppelin-contracts/blob/release-v2.5.0/contracts/token/ERC20/ERC20Mintable.sol\":592:597  _mint */\n          tag_100\n            /* \"https://github.com/OpenZeppelin/openzeppelin-contracts/blob/release-v2.5.0/contracts/token/ERC20/ERC20Mintable.sol\":592:614  _mint(account, amount) */\n          jump\t// in\n        tag_99:\n            /* \"https://github.com/OpenZeppelin/openzeppelin-contracts/blob/release-v2.5.0/contracts/token/ERC20/ERC20Mintable.sol\":631:635  true */\n          0x01\n            /* \"https://github.com/OpenZeppelin/openzeppelin-contracts/blob/release-v2.5.0/contracts/token/ERC20/ERC20Mintable.sol\":624:635  return true */\n          swap1\n          pop\n            /* \"https://github.com/OpenZeppelin/openzeppelin-contracts/blob/release-v2.5.0/contracts/token/ERC20/ERC20Mintable.sol\":502:642  function mint(address account, uint256 amount) public onlyMinter returns (bool) {... */\n          swap3\n          swap2\n          pop\n          pop\n          jump\t// out\n            /* \"https://github.com/OpenZeppelin/openzeppelin-contracts/blob/release-v2.5.0/contracts/token/ERC20/ERC20.sol\":1706:1814  function balanceOf(address account) public view returns (uint256) {... */\n        tag_45:\n            /* \"https://github.com/OpenZeppelin/openzeppelin-contracts/blob/release-v2.5.0/contracts/token/ERC20/ERC20.sol\":1763:1770  uint256 */\n          0x00\n            /* \"https://github.com/OpenZeppelin/openzeppelin-contracts/blob/release-v2.5.0/contracts/token/ERC20/ERC20.sol\":1789:1798  _balances */\n          dup1\n            /* \"https://github.com/OpenZeppelin/openzeppelin-contracts/blob/release-v2.5.0/contracts/token/ERC20/ERC20.sol\":1789:1807  _balances[account] */\n          0x00\n            /* \"https://github.com/OpenZeppelin/openzeppelin-contracts/blob/release-v2.5.0/contracts/token/ERC20/ERC20.sol\":1799:1806  account */\n          dup4\n            /* \"https://github.com/OpenZeppelin/openzeppelin-contracts/blob/release-v2.5.0/contracts/token/ERC20/ERC20.sol\":1789:1807  _balances[account] */\n          0xffffffffffffffffffffffffffffffffffffffff\n          and\n          0xffffffffffffffffffffffffffffffffffffffff\n          and\n          dup2\n          mstore\n          0x20\n          add\n          swap1\n          dup2\n          mstore\n          0x20\n          add\n          0x00\n          keccak256\n          sload\n            /* \"https://github.com/OpenZeppelin/openzeppelin-contracts/blob/release-v2.5.0/contracts/token/ERC20/ERC20.sol\":1782:1807  return _balances[account] */\n          swap1\n          pop\n            /* \"https://github.com/OpenZeppelin/openzeppelin-contracts/blob/release-v2.5.0/contracts/token/ERC20/ERC20.sol\":1706:1814  function balanceOf(address account) public view returns (uint256) {... */\n          swap2\n          swap1\n          pop\n          jump\t// out\n            /* \"https://github.com/OpenZeppelin/openzeppelin-contracts/blob/release-v2.5.0/contracts/token/ERC20/ERC20Detailed.sol\":838:923  function symbol() public view returns (string memory) {... */\n        tag_47:\n            /* \"https://github.com/OpenZeppelin/openzeppelin-contracts/blob/release-v2.5.0/contracts/token/ERC20/ERC20Detailed.sol\":877:890  string memory */\n          0x60\n            /* \"https://github.com/OpenZeppelin/openzeppelin-contracts/blob/release-v2.5.0/contracts/token/ERC20/ERC20Detailed.sol\":909:916  _symbol */\n          0x04\n            /* \"https://github.com/OpenZeppelin/openzeppelin-contracts/blob/release-v2.5.0/contracts/token/ERC20/ERC20Detailed.sol\":902:916  return _symbol */\n          dup1\n          sload\n          0x01\n          dup2\n          0x01\n          and\n          iszero\n          0x0100\n          mul\n          sub\n          and\n          0x02\n          swap1\n          div\n          dup1\n          0x1f\n          add\n          0x20\n          dup1\n          swap2\n          div\n          mul\n          0x20\n          add\n          mload(0x40)\n          swap1\n          dup2\n          add\n          0x40\n          mstore\n          dup1\n          swap3\n          swap2\n          swap1\n          dup2\n          dup2\n          mstore\n          0x20\n          add\n          dup3\n          dup1\n          sload\n          0x01\n          dup2\n          0x01\n          and\n          iszero\n          0x0100\n          mul\n          sub\n          and\n          0x02\n          swap1\n          div\n          dup1\n          iszero\n          tag_103\n          jumpi\n          dup1\n          0x1f\n          lt\n          tag_104\n          jumpi\n          0x0100\n          dup1\n          dup4\n          sload\n          div\n          mul\n          dup4\n          mstore\n          swap2\n          0x20\n          add\n          swap2\n          jump(tag_103)\n        tag_104:\n          dup3\n          add\n          swap2\n          swap1\n          0x00\n          mstore\n          keccak256(0x00, 0x20)\n          swap1\n        tag_105:\n          dup2\n          sload\n          dup2\n          mstore\n          swap1\n          0x01\n          add\n          swap1\n          0x20\n          add\n          dup1\n          dup4\n          gt\n          tag_105\n          jumpi\n          dup3\n          swap1\n          sub\n          0x1f\n          and\n          dup3\n          add\n          swap2\n        tag_103:\n          pop\n          pop\n          pop\n          pop\n          pop\n          swap1\n          pop\n            /* \"https://github.com/OpenZeppelin/openzeppelin-contracts/blob/release-v2.5.0/contracts/token/ERC20/ERC20Detailed.sol\":838:923  function symbol() public view returns (string memory) {... */\n          swap1\n          jump\t// out\n            /* \"https://github.com/OpenZeppelin/openzeppelin-contracts/blob/release-v2.5.0/contracts/access/roles/MinterRole.sol\":607:697  function addMinter(address account) public onlyMinter {... */\n        tag_54:\n            /* \"https://github.com/OpenZeppelin/openzeppelin-contracts/blob/release-v2.5.0/contracts/access/roles/MinterRole.sol\":395:417  isMinter(_msgSender()) */\n          tag_107\n            /* \"https://github.com/OpenZeppelin/openzeppelin-contracts/blob/release-v2.5.0/contracts/access/roles/MinterRole.sol\":404:416  _msgSender() */\n          tag_108\n            /* \"https://github.com/OpenZeppelin/openzeppelin-contracts/blob/release-v2.5.0/contracts/access/roles/MinterRole.sol\":404:414  _msgSender */\n          tag_76\n            /* \"https://github.com/OpenZeppelin/openzeppelin-contracts/blob/release-v2.5.0/contracts/access/roles/MinterRole.sol\":404:416  _msgSender() */\n          jump\t// in\n        tag_108:\n            /* \"https://github.com/OpenZeppelin/openzeppelin-contracts/blob/release-v2.5.0/contracts/access/roles/MinterRole.sol\":395:403  isMinter */\n          tag_65\n            /* \"https://github.com/OpenZeppelin/openzeppelin-contracts/blob/release-v2.5.0/contracts/access/roles/MinterRole.sol\":395:417  isMinter(_msgSender()) */\n          jump\t// in\n        tag_107:\n            /* \"https://github.com/OpenZeppelin/openzeppelin-contracts/blob/release-v2.5.0/contracts/access/roles/MinterRole.sol\":387:470  require(isMinter(_msgSender()), \"MinterRole: caller does not have the Minter role\") */\n          tag_109\n          jumpi\n          mload(0x40)\n          0x08c379a000000000000000000000000000000000000000000000000000000000\n          dup2\n          mstore\n          0x04\n          add\n          dup1\n          dup1\n          0x20\n          add\n          dup3\n          dup2\n          sub\n          dup3\n          mstore\n          0x30\n          dup2\n          mstore\n          0x20\n          add\n          dup1\n          data_79ecb50133735b20228dea9d08fe36a462bbc1350f591a146908848db91104cd\n          0x30\n          swap2\n          codecopy\n          0x40\n          add\n          swap2\n          pop\n          pop\n          mload(0x40)\n          dup1\n          swap2\n          sub\n          swap1\n          revert\n        tag_109:\n            /* \"https://github.com/OpenZeppelin/openzeppelin-contracts/blob/release-v2.5.0/contracts/access/roles/MinterRole.sol\":671:690  _addMinter(account) */\n          tag_111\n            /* \"https://github.com/OpenZeppelin/openzeppelin-contracts/blob/release-v2.5.0/contracts/access/roles/MinterRole.sol\":682:689  account */\n          dup2\n            /* \"https://github.com/OpenZeppelin/openzeppelin-contracts/blob/release-v2.5.0/contracts/access/roles/MinterRole.sol\":671:681  _addMinter */\n          tag_112\n            /* \"https://github.com/OpenZeppelin/openzeppelin-contracts/blob/release-v2.5.0/contracts/access/roles/MinterRole.sol\":671:690  _addMinter(account) */\n          jump\t// in\n        tag_111:\n            /* \"https://github.com/OpenZeppelin/openzeppelin-contracts/blob/release-v2.5.0/contracts/access/roles/MinterRole.sol\":607:697  function addMinter(address account) public onlyMinter {... */\n          pop\n          jump\t// out\n            /* \"https://github.com/OpenZeppelin/openzeppelin-contracts/blob/release-v2.5.0/contracts/access/roles/MinterRole.sol\":703:780  function renounceMinter() public {... */\n        tag_56:\n            /* \"https://github.com/OpenZeppelin/openzeppelin-contracts/blob/release-v2.5.0/contracts/access/roles/MinterRole.sol\":746:773  _removeMinter(_msgSender()) */\n          tag_114\n            /* \"https://github.com/OpenZeppelin/openzeppelin-contracts/blob/release-v2.5.0/contracts/access/roles/MinterRole.sol\":760:772  _msgSender() */\n          tag_115\n            /* \"https://github.com/OpenZeppelin/openzeppelin-contracts/blob/release-v2.5.0/contracts/access/roles/MinterRole.sol\":760:770  _msgSender */\n          tag_76\n            /* \"https://github.com/OpenZeppelin/openzeppelin-contracts/blob/release-v2.5.0/contracts/access/roles/MinterRole.sol\":760:772  _msgSender() */\n          jump\t// in\n        tag_115:\n            /* \"https://github.com/OpenZeppelin/openzeppelin-contracts/blob/release-v2.5.0/contracts/access/roles/MinterRole.sol\":746:759  _removeMinter */\n          tag_116\n            /* \"https://github.com/OpenZeppelin/openzeppelin-contracts/blob/release-v2.5.0/contracts/access/roles/MinterRole.sol\":746:773  _removeMinter(_msgSender()) */\n          jump\t// in\n        tag_114:\n            /* \"https://github.com/OpenZeppelin/openzeppelin-contracts/blob/release-v2.5.0/contracts/access/roles/MinterRole.sol\":703:780  function renounceMinter() public {... */\n          jump\t// out\n            /* \"https://github.com/OpenZeppelin/openzeppelin-contracts/blob/release-v2.5.0/contracts/token/ERC20/ERC20.sol\":4496:4754  function decreaseAllowance(address spender, uint256 subtractedValue) public returns (bool) {... */\n        tag_59:\n            /* \"https://github.com/OpenZeppelin/openzeppelin-contracts/blob/release-v2.5.0/contracts/token/ERC20/ERC20.sol\":4581:4585  bool */\n          0x00\n            /* \"https://github.com/OpenZeppelin/openzeppelin-contracts/blob/release-v2.5.0/contracts/token/ERC20/ERC20.sol\":4597:4726  _approve(_msgSender(), spender, _allowances[_msgSender()][spender].sub(subtractedValue, \"ERC20: decreased allowance below zero\")) */\n          tag_118\n            /* \"https://github.com/OpenZeppelin/openzeppelin-contracts/blob/release-v2.5.0/contracts/token/ERC20/ERC20.sol\":4606:4618  _msgSender() */\n          tag_119\n            /* \"https://github.com/OpenZeppelin/openzeppelin-contracts/blob/release-v2.5.0/contracts/token/ERC20/ERC20.sol\":4606:4616  _msgSender */\n          tag_76\n            /* \"https://github.com/OpenZeppelin/openzeppelin-contracts/blob/release-v2.5.0/contracts/token/ERC20/ERC20.sol\":4606:4618  _msgSender() */\n          jump\t// in\n        tag_119:\n            /* \"https://github.com/OpenZeppelin/openzeppelin-contracts/blob/release-v2.5.0/contracts/token/ERC20/ERC20.sol\":4620:4627  spender */\n          dup5\n            /* \"https://github.com/OpenZeppelin/openzeppelin-contracts/blob/release-v2.5.0/contracts/token/ERC20/ERC20.sol\":4629:4725  _allowances[_msgSender()][spender].sub(subtractedValue, \"ERC20: decreased allowance below zero\") */\n          tag_120\n            /* \"https://github.com/OpenZeppelin/openzeppelin-contracts/blob/release-v2.5.0/contracts/token/ERC20/ERC20.sol\":4668:4683  subtractedValue */\n          dup6\n            /* \"https://github.com/OpenZeppelin/openzeppelin-contracts/blob/release-v2.5.0/contracts/token/ERC20/ERC20.sol\":4629:4725  _allowances[_msgSender()][spender].sub(subtractedValue, \"ERC20: decreased allowance below zero\") */\n          mload(0x40)\n          dup1\n          0x60\n          add\n          0x40\n          mstore\n          dup1\n          0x25\n          dup2\n          mstore\n          0x20\n          add\n          data_f8b476f7d28209d77d4a4ac1fe36b9f8259aa1bb6bddfa6e89de7e51615cf8a8\n          0x25\n          swap2\n          codecopy\n            /* \"https://github.com/OpenZeppelin/openzeppelin-contracts/blob/release-v2.5.0/contracts/token/ERC20/ERC20.sol\":4629:4640  _allowances */\n          0x01\n            /* \"https://github.com/OpenZeppelin/openzeppelin-contracts/blob/release-v2.5.0/contracts/token/ERC20/ERC20.sol\":4629:4654  _allowances[_msgSender()] */\n          0x00\n            /* \"https://github.com/OpenZeppelin/openzeppelin-contracts/blob/release-v2.5.0/contracts/token/ERC20/ERC20.sol\":4641:4653  _msgSender() */\n          tag_121\n            /* \"https://github.com/OpenZeppelin/openzeppelin-contracts/blob/release-v2.5.0/contracts/token/ERC20/ERC20.sol\":4641:4651  _msgSender */\n          tag_76\n            /* \"https://github.com/OpenZeppelin/openzeppelin-contracts/blob/release-v2.5.0/contracts/token/ERC20/ERC20.sol\":4641:4653  _msgSender() */\n          jump\t// in\n        tag_121:\n            /* \"https://github.com/OpenZeppelin/openzeppelin-contracts/blob/release-v2.5.0/contracts/token/ERC20/ERC20.sol\":4629:4654  _allowances[_msgSender()] */\n          0xffffffffffffffffffffffffffffffffffffffff\n          and\n          0xffffffffffffffffffffffffffffffffffffffff\n          and\n          dup2\n          mstore\n          0x20\n          add\n          swap1\n          dup2\n          mstore\n          0x20\n          add\n          0x00\n          keccak256\n            /* \"https://github.com/OpenZeppelin/openzeppelin-contracts/blob/release-v2.5.0/contracts/token/ERC20/ERC20.sol\":4629:4663  _allowances[_msgSender()][spender] */\n          0x00\n            /* \"https://github.com/OpenZeppelin/openzeppelin-contracts/blob/release-v2.5.0/contracts/token/ERC20/ERC20.sol\":4655:4662  spender */\n          dup11\n            /* \"https://github.com/OpenZeppelin/openzeppelin-contracts/blob/release-v2.5.0/contracts/token/ERC20/ERC20.sol\":4629:4663  _allowances[_msgSender()][spender] */\n          0xffffffffffffffffffffffffffffffffffffffff\n          and\n          0xffffffffffffffffffffffffffffffffffffffff\n          and\n          dup2\n          mstore\n          0x20\n          add\n          swap1\n          dup2\n          mstore\n          0x20\n          add\n          0x00\n          keccak256\n          sload\n            /* \"https://github.com/OpenZeppelin/openzeppelin-contracts/blob/release-v2.5.0/contracts/token/ERC20/ERC20.sol\":4629:4667  _allowances[_msgSender()][spender].sub */\n          tag_86\n          swap1\n            /* \"https://github.com/OpenZeppelin/openzeppelin-contracts/blob/release-v2.5.0/contracts/token/ERC20/ERC20.sol\":4629:4725  _allowances[_msgSender()][spender].sub(subtractedValue, \"ERC20: decreased allowance below zero\") */\n          swap3\n          swap2\n          swap1\n          0xffffffff\n          and\n          jump\t// in\n        tag_120:\n            /* \"https://github.com/OpenZeppelin/openzeppelin-contracts/blob/release-v2.5.0/contracts/token/ERC20/ERC20.sol\":4597:4605  _approve */\n          tag_77\n            /* \"https://github.com/OpenZeppelin/openzeppelin-contracts/blob/release-v2.5.0/contracts/token/ERC20/ERC20.sol\":4597:4726  _approve(_msgSender(), spender, _allowances[_msgSender()][spender].sub(subtractedValue, \"ERC20: decreased allowance below zero\")) */\n          jump\t// in\n        tag_118:\n            /* \"https://github.com/OpenZeppelin/openzeppelin-contracts/blob/release-v2.5.0/contracts/token/ERC20/ERC20.sol\":4743:4747  true */\n          0x01\n            /* \"https://github.com/OpenZeppelin/openzeppelin-contracts/blob/release-v2.5.0/contracts/token/ERC20/ERC20.sol\":4736:4747  return true */\n          swap1\n          pop\n            /* \"https://github.com/OpenZeppelin/openzeppelin-contracts/blob/release-v2.5.0/contracts/token/ERC20/ERC20.sol\":4496:4754  function decreaseAllowance(address spender, uint256 subtractedValue) public returns (bool) {... */\n          swap3\n          swap2\n          pop\n          pop\n          jump\t// out\n            /* \"https://github.com/OpenZeppelin/openzeppelin-contracts/blob/release-v2.5.0/contracts/token/ERC20/ERC20.sol\":2017:2172  function transfer(address recipient, uint256 amount) public returns (bool) {... */\n        tag_62:\n            /* \"https://github.com/OpenZeppelin/openzeppelin-contracts/blob/release-v2.5.0/contracts/token/ERC20/ERC20.sol\":2086:2090  bool */\n          0x00\n            /* \"https://github.com/OpenZeppelin/openzeppelin-contracts/blob/release-v2.5.0/contracts/token/ERC20/ERC20.sol\":2102:2144  _transfer(_msgSender(), recipient, amount) */\n          tag_123\n            /* \"https://github.com/OpenZeppelin/openzeppelin-contracts/blob/release-v2.5.0/contracts/token/ERC20/ERC20.sol\":2112:2124  _msgSender() */\n          tag_124\n            /* \"https://github.com/OpenZeppelin/openzeppelin-contracts/blob/release-v2.5.0/contracts/token/ERC20/ERC20.sol\":2112:2122  _msgSender */\n          tag_76\n            /* \"https://github.com/OpenZeppelin/openzeppelin-contracts/blob/release-v2.5.0/contracts/token/ERC20/ERC20.sol\":2112:2124  _msgSender() */\n          jump\t// in\n        tag_124:\n            /* \"https://github.com/OpenZeppelin/openzeppelin-contracts/blob/release-v2.5.0/contracts/token/ERC20/ERC20.sol\":2126:2135  recipient */\n          dup5\n            /* \"https://github.com/OpenZeppelin/openzeppelin-contracts/blob/release-v2.5.0/contracts/token/ERC20/ERC20.sol\":2137:2143  amount */\n          dup5\n            /* \"https://github.com/OpenZeppelin/openzeppelin-contracts/blob/release-v2.5.0/contracts/token/ERC20/ERC20.sol\":2102:2111  _transfer */\n          tag_81\n            /* \"https://github.com/OpenZeppelin/openzeppelin-contracts/blob/release-v2.5.0/contracts/token/ERC20/ERC20.sol\":2102:2144  _transfer(_msgSender(), recipient, amount) */\n          jump\t// in\n        tag_123:\n            /* \"https://github.com/OpenZeppelin/openzeppelin-contracts/blob/release-v2.5.0/contracts/token/ERC20/ERC20.sol\":2161:2165  true */\n          0x01\n            /* \"https://github.com/OpenZeppelin/openzeppelin-contracts/blob/release-v2.5.0/contracts/token/ERC20/ERC20.sol\":2154:2165  return true */\n          swap1\n          pop\n            /* \"https://github.com/OpenZeppelin/openzeppelin-contracts/blob/release-v2.5.0/contracts/token/ERC20/ERC20.sol\":2017:2172  function transfer(address recipient, uint256 amount) public returns (bool) {... */\n          swap3\n          swap2\n          pop\n          pop\n          jump\t// out\n            /* \"https://github.com/OpenZeppelin/openzeppelin-contracts/blob/release-v2.5.0/contracts/access/roles/MinterRole.sol\":494:601  function isMinter(address account) public view returns (bool) {... */\n        tag_65:\n            /* \"https://github.com/OpenZeppelin/openzeppelin-contracts/blob/release-v2.5.0/contracts/access/roles/MinterRole.sol\":550:554  bool */\n          0x00\n            /* \"https://github.com/OpenZeppelin/openzeppelin-contracts/blob/release-v2.5.0/contracts/access/roles/MinterRole.sol\":573:594  _minters.has(account) */\n          tag_126\n            /* \"https://github.com/OpenZeppelin/openzeppelin-contracts/blob/release-v2.5.0/contracts/access/roles/MinterRole.sol\":586:593  account */\n          dup3\n            /* \"https://github.com/OpenZeppelin/openzeppelin-contracts/blob/release-v2.5.0/contracts/access/roles/MinterRole.sol\":573:581  _minters */\n          0x06\n            /* \"https://github.com/OpenZeppelin/openzeppelin-contracts/blob/release-v2.5.0/contracts/access/roles/MinterRole.sol\":573:585  _minters.has */\n          tag_127\n          swap1\n            /* \"https://github.com/OpenZeppelin/openzeppelin-contracts/blob/release-v2.5.0/contracts/access/roles/MinterRole.sol\":573:594  _minters.has(account) */\n          swap2\n          swap1\n          0xffffffff\n          and\n          jump\t// in\n        tag_126:\n            /* \"https://github.com/OpenZeppelin/openzeppelin-contracts/blob/release-v2.5.0/contracts/access/roles/MinterRole.sol\":566:594  return _minters.has(account) */\n          swap1\n          pop\n            /* \"https://github.com/OpenZeppelin/openzeppelin-contracts/blob/release-v2.5.0/contracts/access/roles/MinterRole.sol\":494:601  function isMinter(address account) public view returns (bool) {... */\n          swap2\n          swap1\n          pop\n          jump\t// out\n            /* \"https://github.com/OpenZeppelin/openzeppelin-contracts/blob/release-v2.5.0/contracts/token/ERC20/ERC20.sol\":2230:2362  function allowance(address owner, address spender) public view returns (uint256) {... */\n        tag_68:\n            /* \"https://github.com/OpenZeppelin/openzeppelin-contracts/blob/release-v2.5.0/contracts/token/ERC20/ERC20.sol\":2302:2309  uint256 */\n          0x00\n            /* \"https://github.com/OpenZeppelin/openzeppelin-contracts/blob/release-v2.5.0/contracts/token/ERC20/ERC20.sol\":2328:2339  _allowances */\n          0x01\n            /* \"https://github.com/OpenZeppelin/openzeppelin-contracts/blob/release-v2.5.0/contracts/token/ERC20/ERC20.sol\":2328:2346  _allowances[owner] */\n          0x00\n            /* \"https://github.com/OpenZeppelin/openzeppelin-contracts/blob/release-v2.5.0/contracts/token/ERC20/ERC20.sol\":2340:2345  owner */\n          dup5\n            /* \"https://github.com/OpenZeppelin/openzeppelin-contracts/blob/release-v2.5.0/contracts/token/ERC20/ERC20.sol\":2328:2346  _allowances[owner] */\n          0xffffffffffffffffffffffffffffffffffffffff\n          and\n          0xffffffffffffffffffffffffffffffffffffffff\n          and\n          dup2\n          mstore\n          0x20\n          add\n          swap1\n          dup2\n          mstore\n          0x20\n          add\n          0x00\n          keccak256\n            /* \"https://github.com/OpenZeppelin/openzeppelin-contracts/blob/release-v2.5.0/contracts/token/ERC20/ERC20.sol\":2328:2355  _allowances[owner][spender] */\n          0x00\n            /* \"https://github.com/OpenZeppelin/openzeppelin-contracts/blob/release-v2.5.0/contracts/token/ERC20/ERC20.sol\":2347:2354  spender */\n          dup4\n            /* \"https://github.com/OpenZeppelin/openzeppelin-contracts/blob/release-v2.5.0/contracts/token/ERC20/ERC20.sol\":2328:2355  _allowances[owner][spender] */\n          0xffffffffffffffffffffffffffffffffffffffff\n          and\n          0xffffffffffffffffffffffffffffffffffffffff\n          and\n          dup2\n          mstore\n          0x20\n          add\n          swap1\n          dup2\n          mstore\n          0x20\n          add\n          0x00\n          keccak256\n          sload\n            /* \"https://github.com/OpenZeppelin/openzeppelin-contracts/blob/release-v2.5.0/contracts/token/ERC20/ERC20.sol\":2321:2355  return _allowances[owner][spender] */\n          swap1\n          pop\n            /* \"https://github.com/OpenZeppelin/openzeppelin-contracts/blob/release-v2.5.0/contracts/token/ERC20/ERC20.sol\":2230:2362  function allowance(address owner, address spender) public view returns (uint256) {... */\n          swap3\n          swap2\n          pop\n          pop\n          jump\t// out\n            /* \"https://github.com/OpenZeppelin/openzeppelin-contracts/blob/release-v2.5.0/contracts/GSN/Context.sol\":788:884  function _msgSender() internal view returns (address payable) {... */\n        tag_76:\n            /* \"https://github.com/OpenZeppelin/openzeppelin-contracts/blob/release-v2.5.0/contracts/GSN/Context.sol\":833:848  address payable */\n          0x00\n            /* \"https://github.com/OpenZeppelin/openzeppelin-contracts/blob/release-v2.5.0/contracts/GSN/Context.sol\":867:877  msg.sender */\n          caller\n            /* \"https://github.com/OpenZeppelin/openzeppelin-contracts/blob/release-v2.5.0/contracts/GSN/Context.sol\":860:877  return msg.sender */\n          swap1\n          pop\n            /* \"https://github.com/OpenZeppelin/openzeppelin-contracts/blob/release-v2.5.0/contracts/GSN/Context.sol\":788:884  function _msgSender() internal view returns (address payable) {... */\n          swap1\n          jump\t// out\n            /* \"https://github.com/OpenZeppelin/openzeppelin-contracts/blob/release-v2.5.0/contracts/token/ERC20/ERC20.sol\":7350:7682  function _approve(address owner, address spender, uint256 amount) internal {... */\n        tag_77:\n            /* \"https://github.com/OpenZeppelin/openzeppelin-contracts/blob/release-v2.5.0/contracts/token/ERC20/ERC20.sol\":7460:7461  0 */\n          0x00\n            /* \"https://github.com/OpenZeppelin/openzeppelin-contracts/blob/release-v2.5.0/contracts/token/ERC20/ERC20.sol\":7443:7462  owner != address(0) */\n          0xffffffffffffffffffffffffffffffffffffffff\n          and\n            /* \"https://github.com/OpenZeppelin/openzeppelin-contracts/blob/release-v2.5.0/contracts/token/ERC20/ERC20.sol\":7443:7448  owner */\n          dup4\n            /* \"https://github.com/OpenZeppelin/openzeppelin-contracts/blob/release-v2.5.0/contracts/token/ERC20/ERC20.sol\":7443:7462  owner != address(0) */\n          0xffffffffffffffffffffffffffffffffffffffff\n          and\n          eq\n          iszero\n            /* \"https://github.com/OpenZeppelin/openzeppelin-contracts/blob/release-v2.5.0/contracts/token/ERC20/ERC20.sol\":7435:7503  require(owner != address(0), \"ERC20: approve from the zero address\") */\n          tag_131\n          jumpi\n          mload(0x40)\n          0x08c379a000000000000000000000000000000000000000000000000000000000\n          dup2\n          mstore\n          0x04\n          add\n          dup1\n          dup1\n          0x20\n          add\n          dup3\n          dup2\n          sub\n          dup3\n          mstore\n          0x24\n          dup2\n          mstore\n          0x20\n          add\n          dup1\n          data_c953f4879035ed60e766b34720f656aab5c697b141d924c283124ecedb91c208\n          0x24\n          swap2\n          codecopy\n          0x40\n          add\n          swap2\n          pop\n          pop\n          mload(0x40)\n          dup1\n          swap2\n          sub\n          swap1\n          revert\n        tag_131:\n            /* \"https://github.com/OpenZeppelin/openzeppelin-contracts/blob/release-v2.5.0/contracts/token/ERC20/ERC20.sol\":7540:7541  0 */\n          0x00\n            /* \"https://github.com/OpenZeppelin/openzeppelin-contracts/blob/release-v2.5.0/contracts/token/ERC20/ERC20.sol\":7521:7542  spender != address(0) */\n          0xffffffffffffffffffffffffffffffffffffffff\n          and\n            /* \"https://github.com/OpenZeppelin/openzeppelin-contracts/blob/release-v2.5.0/contracts/token/ERC20/ERC20.sol\":7521:7528  spender */\n          dup3\n            /* \"https://github.com/OpenZeppelin/openzeppelin-contracts/blob/release-v2.5.0/contracts/token/ERC20/ERC20.sol\":7521:7542  spender != address(0) */\n          0xffffffffffffffffffffffffffffffffffffffff\n          and\n          eq\n          iszero\n            /* \"https://github.com/OpenZeppelin/openzeppelin-contracts/blob/release-v2.5.0/contracts/token/ERC20/ERC20.sol\":7513:7581  require(spender != address(0), \"ERC20: approve to the zero address\") */\n          tag_132\n          jumpi\n          mload(0x40)\n          0x08c379a000000000000000000000000000000000000000000000000000000000\n          dup2\n          mstore\n          0x04\n          add\n          dup1\n          dup1\n          0x20\n          add\n          dup3\n          dup2\n          sub\n          dup3\n          mstore\n          0x22\n          dup2\n          mstore\n          0x20\n          add\n          dup1\n          data_24883cc5fe64ace9d0df1893501ecb93c77180f0ff69cca79affb3c316dc8029\n          0x22\n          swap2\n          codecopy\n          0x40\n          add\n          swap2\n          pop\n          pop\n          mload(0x40)\n          dup1\n          swap2\n          sub\n          swap1\n          revert\n        tag_132:\n            /* \"https://github.com/OpenZeppelin/openzeppelin-contracts/blob/release-v2.5.0/contracts/token/ERC20/ERC20.sol\":7622:7628  amount */\n          dup1\n            /* \"https://github.com/OpenZeppelin/openzeppelin-contracts/blob/release-v2.5.0/contracts/token/ERC20/ERC20.sol\":7592:7603  _allowances */\n          0x01\n            /* \"https://github.com/OpenZeppelin/openzeppelin-contracts/blob/release-v2.5.0/contracts/token/ERC20/ERC20.sol\":7592:7610  _allowances[owner] */\n          0x00\n            /* \"https://github.com/OpenZeppelin/openzeppelin-contracts/blob/release-v2.5.0/contracts/token/ERC20/ERC20.sol\":7604:7609  owner */\n          dup6\n            /* \"https://github.com/OpenZeppelin/openzeppelin-contracts/blob/release-v2.5.0/contracts/token/ERC20/ERC20.sol\":7592:7610  _allowances[owner] */\n          0xffffffffffffffffffffffffffffffffffffffff\n          and\n          0xffffffffffffffffffffffffffffffffffffffff\n          and\n          dup2\n          mstore\n          0x20\n          add\n          swap1\n          dup2\n          mstore\n          0x20\n          add\n          0x00\n          keccak256\n            /* \"https://github.com/OpenZeppelin/openzeppelin-contracts/blob/release-v2.5.0/contracts/token/ERC20/ERC20.sol\":7592:7619  _allowances[owner][spender] */\n          0x00\n            /* \"https://github.com/OpenZeppelin/openzeppelin-contracts/blob/release-v2.5.0/contracts/token/ERC20/ERC20.sol\":7611:7618  spender */\n          dup5\n            /* \"https://github.com/OpenZeppelin/openzeppelin-contracts/blob/release-v2.5.0/contracts/token/ERC20/ERC20.sol\":7592:7619  _allowances[owner][spender] */\n          0xffffffffffffffffffffffffffffffffffffffff\n          and\n          0xffffffffffffffffffffffffffffffffffffffff\n          and\n          dup2\n          mstore\n          0x20\n          add\n          swap1\n          dup2\n          mstore\n          0x20\n          add\n          0x00\n          keccak256\n            /* \"https://github.com/OpenZeppelin/openzeppelin-contracts/blob/release-v2.5.0/contracts/token/ERC20/ERC20.sol\":7592:7628  _allowances[owner][spender] = amount */\n          dup2\n          swap1\n          sstore\n          pop\n            /* \"https://github.com/OpenZeppelin/openzeppelin-contracts/blob/release-v2.5.0/contracts/token/ERC20/ERC20.sol\":7659:7666  spender */\n          dup2\n            /* \"https://github.com/OpenZeppelin/openzeppelin-contracts/blob/release-v2.5.0/contracts/token/ERC20/ERC20.sol\":7643:7675  Approval(owner, spender, amount) */\n          0xffffffffffffffffffffffffffffffffffffffff\n          and\n            /* \"https://github.com/OpenZeppelin/openzeppelin-contracts/blob/release-v2.5.0/contracts/token/ERC20/ERC20.sol\":7652:7657  owner */\n          dup4\n            /* \"https://github.com/OpenZeppelin/openzeppelin-contracts/blob/release-v2.5.0/contracts/token/ERC20/ERC20.sol\":7643:7675  Approval(owner, spender, amount) */\n          0xffffffffffffffffffffffffffffffffffffffff\n          and\n          0x8c5be1e5ebec7d5bd14f71427d1e84f3dd0314c0f7b2291e5b200ac8c7c3b925\n            /* \"https://github.com/OpenZeppelin/openzeppelin-contracts/blob/release-v2.5.0/contracts/token/ERC20/ERC20.sol\":7668:7674  amount */\n          dup4\n            /* \"https://github.com/OpenZeppelin/openzeppelin-contracts/blob/release-v2.5.0/contracts/token/ERC20/ERC20.sol\":7643:7675  Approval(owner, spender, amount) */\n          mload(0x40)\n          dup1\n          dup3\n          dup2\n          mstore\n          0x20\n          add\n          swap2\n          pop\n          pop\n          mload(0x40)\n          dup1\n          swap2\n          sub\n          swap1\n          log3\n            /* \"https://github.com/OpenZeppelin/openzeppelin-contracts/blob/release-v2.5.0/contracts/token/ERC20/ERC20.sol\":7350:7682  function _approve(address owner, address spender, uint256 amount) internal {... */\n          pop\n          pop\n          pop\n          jump\t// out\n            /* \"https://github.com/OpenZeppelin/openzeppelin-contracts/blob/release-v2.5.0/contracts/token/ERC20/ERC20.sol\":5228:5692  function _transfer(address sender, address recipient, uint256 amount) internal {... */\n        tag_81:\n            /* \"https://github.com/OpenZeppelin/openzeppelin-contracts/blob/release-v2.5.0/contracts/token/ERC20/ERC20.sol\":5343:5344  0 */\n          0x00\n            /* \"https://github.com/OpenZeppelin/openzeppelin-contracts/blob/release-v2.5.0/contracts/token/ERC20/ERC20.sol\":5325:5345  sender != address(0) */\n          0xffffffffffffffffffffffffffffffffffffffff\n          and\n            /* \"https://github.com/OpenZeppelin/openzeppelin-contracts/blob/release-v2.5.0/contracts/token/ERC20/ERC20.sol\":5325:5331  sender */\n          dup4\n            /* \"https://github.com/OpenZeppelin/openzeppelin-contracts/blob/release-v2.5.0/contracts/token/ERC20/ERC20.sol\":5325:5345  sender != address(0) */\n          0xffffffffffffffffffffffffffffffffffffffff\n          and\n          eq\n          iszero\n            /* \"https://github.com/OpenZeppelin/openzeppelin-contracts/blob/release-v2.5.0/contracts/token/ERC20/ERC20.sol\":5317:5387  require(sender != address(0), \"ERC20: transfer from the zero address\") */\n          tag_134\n          jumpi\n          mload(0x40)\n          0x08c379a000000000000000000000000000000000000000000000000000000000\n          dup2\n          mstore\n          0x04\n          add\n          dup1\n          dup1\n          0x20\n          add\n          dup3\n          dup2\n          sub\n          dup3\n          mstore\n          0x25\n          dup2\n          mstore\n          0x20\n          add\n          dup1\n          data_baecc556b46f4ed0f2b4cb599d60785ac8563dd2dc0a5bf12edea1c39e5e1fea\n          0x25\n          swap2\n          codecopy\n          0x40\n          add\n          swap2\n          pop\n          pop\n          mload(0x40)\n          dup1\n          swap2\n          sub\n          swap1\n          revert\n        tag_134:\n            /* \"https://github.com/OpenZeppelin/openzeppelin-contracts/blob/release-v2.5.0/contracts/token/ERC20/ERC20.sol\":5426:5427  0 */\n          0x00\n            /* \"https://github.com/OpenZeppelin/openzeppelin-contracts/blob/release-v2.5.0/contracts/token/ERC20/ERC20.sol\":5405:5428  recipient != address(0) */\n          0xffffffffffffffffffffffffffffffffffffffff\n          and\n            /* \"https://github.com/OpenZeppelin/openzeppelin-contracts/blob/release-v2.5.0/contracts/token/ERC20/ERC20.sol\":5405:5414  recipient */\n          dup3\n            /* \"https://github.com/OpenZeppelin/openzeppelin-contracts/blob/release-v2.5.0/contracts/token/ERC20/ERC20.sol\":5405:5428  recipient != address(0) */\n          0xffffffffffffffffffffffffffffffffffffffff\n          and\n          eq\n          iszero\n            /* \"https://github.com/OpenZeppelin/openzeppelin-contracts/blob/release-v2.5.0/contracts/token/ERC20/ERC20.sol\":5397:5468  require(recipient != address(0), \"ERC20: transfer to the zero address\") */\n          tag_135\n          jumpi\n          mload(0x40)\n          0x08c379a000000000000000000000000000000000000000000000000000000000\n          dup2\n          mstore\n          0x04\n          add\n          dup1\n          dup1\n          0x20\n          add\n          dup3\n          dup2\n          sub\n          dup3\n          mstore\n          0x23\n          dup2\n          mstore\n          0x20\n          add\n          dup1\n          data_0557e210f7a69a685100a7e4e3d0a7024c546085cee28910fd17d0b081d9516f\n          0x23\n          swap2\n          codecopy\n          0x40\n          add\n          swap2\n          pop\n          pop\n          mload(0x40)\n          dup1\n          swap2\n          sub\n          swap1\n          revert\n        tag_135:\n            /* \"https://github.com/OpenZeppelin/openzeppelin-contracts/blob/release-v2.5.0/contracts/token/ERC20/ERC20.sol\":5499:5570  _balances[sender].sub(amount, \"ERC20: transfer amount exceeds balance\") */\n          tag_136\n            /* \"https://github.com/OpenZeppelin/openzeppelin-contracts/blob/release-v2.5.0/contracts/token/ERC20/ERC20.sol\":5521:5527  amount */\n          dup2\n            /* \"https://github.com/OpenZeppelin/openzeppelin-contracts/blob/release-v2.5.0/contracts/token/ERC20/ERC20.sol\":5499:5570  _balances[sender].sub(amount, \"ERC20: transfer amount exceeds balance\") */\n          mload(0x40)\n          dup1\n          0x60\n          add\n          0x40\n          mstore\n          dup1\n          0x26\n          dup2\n          mstore\n          0x20\n          add\n          data_4107e8a8b9e94bf8ff83080ddec1c0bffe897ebc2241b89d44f66b3d274088b6\n          0x26\n          swap2\n          codecopy\n            /* \"https://github.com/OpenZeppelin/openzeppelin-contracts/blob/release-v2.5.0/contracts/token/ERC20/ERC20.sol\":5499:5508  _balances */\n          0x00\n            /* \"https://github.com/OpenZeppelin/openzeppelin-contracts/blob/release-v2.5.0/contracts/token/ERC20/ERC20.sol\":5499:5516  _balances[sender] */\n          dup1\n            /* \"https://github.com/OpenZeppelin/openzeppelin-contracts/blob/release-v2.5.0/contracts/token/ERC20/ERC20.sol\":5509:5515  sender */\n          dup8\n            /* \"https://github.com/OpenZeppelin/openzeppelin-contracts/blob/release-v2.5.0/contracts/token/ERC20/ERC20.sol\":5499:5516  _balances[sender] */\n          0xffffffffffffffffffffffffffffffffffffffff\n          and\n          0xffffffffffffffffffffffffffffffffffffffff\n          and\n          dup2\n          mstore\n          0x20\n          add\n          swap1\n          dup2\n          mstore\n          0x20\n          add\n          0x00\n          keccak256\n          sload\n            /* \"https://github.com/OpenZeppelin/openzeppelin-contracts/blob/release-v2.5.0/contracts/token/ERC20/ERC20.sol\":5499:5520  _balances[sender].sub */\n          tag_86\n          swap1\n            /* \"https://github.com/OpenZeppelin/openzeppelin-contracts/blob/release-v2.5.0/contracts/token/ERC20/ERC20.sol\":5499:5570  _balances[sender].sub(amount, \"ERC20: transfer amount exceeds balance\") */\n          swap3\n          swap2\n          swap1\n          0xffffffff\n          and\n          jump\t// in\n        tag_136:\n            /* \"https://github.com/OpenZeppelin/openzeppelin-contracts/blob/release-v2.5.0/contracts/token/ERC20/ERC20.sol\":5479:5488  _balances */\n          0x00\n            /* \"https://github.com/OpenZeppelin/openzeppelin-contracts/blob/release-v2.5.0/contracts/token/ERC20/ERC20.sol\":5479:5496  _balances[sender] */\n          dup1\n            /* \"https://github.com/OpenZeppelin/openzeppelin-contracts/blob/release-v2.5.0/contracts/token/ERC20/ERC20.sol\":5489:5495  sender */\n          dup6\n            /* \"https://github.com/OpenZeppelin/openzeppelin-contracts/blob/release-v2.5.0/contracts/token/ERC20/ERC20.sol\":5479:5496  _balances[sender] */\n          0xffffffffffffffffffffffffffffffffffffffff\n          and\n          0xffffffffffffffffffffffffffffffffffffffff\n          and\n          dup2\n          mstore\n          0x20\n          add\n          swap1\n          dup2\n          mstore\n          0x20\n          add\n          0x00\n          keccak256\n            /* \"https://github.com/OpenZeppelin/openzeppelin-contracts/blob/release-v2.5.0/contracts/token/ERC20/ERC20.sol\":5479:5570  _balances[sender] = _balances[sender].sub(amount, \"ERC20: transfer amount exceeds balance\") */\n          dup2\n          swap1\n          sstore\n          pop\n            /* \"https://github.com/OpenZeppelin/openzeppelin-contracts/blob/release-v2.5.0/contracts/token/ERC20/ERC20.sol\":5603:5635  _balances[recipient].add(amount) */\n          tag_137\n            /* \"https://github.com/OpenZeppelin/openzeppelin-contracts/blob/release-v2.5.0/contracts/token/ERC20/ERC20.sol\":5628:5634  amount */\n          dup2\n            /* \"https://github.com/OpenZeppelin/openzeppelin-contracts/blob/release-v2.5.0/contracts/token/ERC20/ERC20.sol\":5603:5612  _balances */\n          0x00\n            /* \"https://github.com/OpenZeppelin/openzeppelin-contracts/blob/release-v2.5.0/contracts/token/ERC20/ERC20.sol\":5603:5623  _balances[recipient] */\n          dup1\n            /* \"https://github.com/OpenZeppelin/openzeppelin-contracts/blob/release-v2.5.0/contracts/token/ERC20/ERC20.sol\":5613:5622  recipient */\n          dup6\n            /* \"https://github.com/OpenZeppelin/openzeppelin-contracts/blob/release-v2.5.0/contracts/token/ERC20/ERC20.sol\":5603:5623  _balances[recipient] */\n          0xffffffffffffffffffffffffffffffffffffffff\n          and\n          0xffffffffffffffffffffffffffffffffffffffff\n          and\n          dup2\n          mstore\n          0x20\n          add\n          swap1\n          dup2\n          mstore\n          0x20\n          add\n          0x00\n          keccak256\n          sload\n            /* \"https://github.com/OpenZeppelin/openzeppelin-contracts/blob/release-v2.5.0/contracts/token/ERC20/ERC20.sol\":5603:5627  _balances[recipient].add */\n          tag_93\n          swap1\n            /* \"https://github.com/OpenZeppelin/openzeppelin-contracts/blob/release-v2.5.0/contracts/token/ERC20/ERC20.sol\":5603:5635  _balances[recipient].add(amount) */\n          swap2\n          swap1\n          0xffffffff\n          and\n          jump\t// in\n        tag_137:\n            /* \"https://github.com/OpenZeppelin/openzeppelin-contracts/blob/release-v2.5.0/contracts/token/ERC20/ERC20.sol\":5580:5589  _balances */\n          0x00\n            /* \"https://github.com/OpenZeppelin/openzeppelin-contracts/blob/release-v2.5.0/contracts/token/ERC20/ERC20.sol\":5580:5600  _balances[recipient] */\n          dup1\n            /* \"https://github.com/OpenZeppelin/openzeppelin-contracts/blob/release-v2.5.0/contracts/token/ERC20/ERC20.sol\":5590:5599  recipient */\n          dup5\n            /* \"https://github.com/OpenZeppelin/openzeppelin-contracts/blob/release-v2.5.0/contracts/token/ERC20/ERC20.sol\":5580:5600  _balances[recipient] */\n          0xffffffffffffffffffffffffffffffffffffffff\n          and\n          0xffffffffffffffffffffffffffffffffffffffff\n          and\n          dup2\n          mstore\n          0x20\n          add\n          swap1\n          dup2\n          mstore\n          0x20\n          add\n          0x00\n          keccak256\n            /* \"https://github.com/OpenZeppelin/openzeppelin-contracts/blob/release-v2.5.0/contracts/token/ERC20/ERC20.sol\":5580:5635  _balances[recipient] = _balances[recipient].add(amount) */\n          dup2\n          swap1\n          sstore\n          pop\n            /* \"https://github.com/OpenZeppelin/openzeppelin-contracts/blob/release-v2.5.0/contracts/token/ERC20/ERC20.sol\":5667:5676  recipient */\n          dup2\n            /* \"https://github.com/OpenZeppelin/openzeppelin-contracts/blob/release-v2.5.0/contracts/token/ERC20/ERC20.sol\":5650:5685  Transfer(sender, recipient, amount) */\n          0xffffffffffffffffffffffffffffffffffffffff\n          and\n            /* \"https://github.com/OpenZeppelin/openzeppelin-contracts/blob/release-v2.5.0/contracts/token/ERC20/ERC20.sol\":5659:5665  sender */\n          dup4\n            /* \"https://github.com/OpenZeppelin/openzeppelin-contracts/blob/release-v2.5.0/contracts/token/ERC20/ERC20.sol\":5650:5685  Transfer(sender, recipient, amount) */\n          0xffffffffffffffffffffffffffffffffffffffff\n          and\n          0xddf252ad1be2c89b69c2b068fc378daa952ba7f163c4a11628f55a4df523b3ef\n            /* \"https://github.com/OpenZeppelin/openzeppelin-contracts/blob/release-v2.5.0/contracts/token/ERC20/ERC20.sol\":5678:5684  amount */\n          dup4\n            /* \"https://github.com/OpenZeppelin/openzeppelin-contracts/blob/release-v2.5.0/contracts/token/ERC20/ERC20.sol\":5650:5685  Transfer(sender, recipient, amount) */\n          mload(0x40)\n          dup1\n          dup3\n          dup2\n          mstore\n          0x20\n          add\n          swap2\n          pop\n          pop\n          mload(0x40)\n          dup1\n          swap2\n          sub\n          swap1\n          log3\n            /* \"https://github.com/OpenZeppelin/openzeppelin-contracts/blob/release-v2.5.0/contracts/token/ERC20/ERC20.sol\":5228:5692  function _transfer(address sender, address recipient, uint256 amount) internal {... */\n          pop\n          pop\n          pop\n          jump\t// out\n            /* \"https://github.com/OpenZeppelin/openzeppelin-contracts/blob/release-v2.5.0/contracts/math/SafeMath.sol\":1732:1919  function sub(uint256 a, uint256 b, string memory errorMessage) internal pure returns (uint256) {... */\n        tag_86:\n            /* \"https://github.com/OpenZeppelin/openzeppelin-contracts/blob/release-v2.5.0/contracts/math/SafeMath.sol\":1818:1825  uint256 */\n          0x00\n            /* \"https://github.com/OpenZeppelin/openzeppelin-contracts/blob/release-v2.5.0/contracts/math/SafeMath.sol\":1850:1851  a */\n          dup4\n            /* \"https://github.com/OpenZeppelin/openzeppelin-contracts/blob/release-v2.5.0/contracts/math/SafeMath.sol\":1845:1846  b */\n          dup4\n            /* \"https://github.com/OpenZeppelin/openzeppelin-contracts/blob/release-v2.5.0/contracts/math/SafeMath.sol\":1845:1851  b <= a */\n          gt\n          iszero\n            /* \"https://github.com/OpenZeppelin/openzeppelin-contracts/blob/release-v2.5.0/contracts/math/SafeMath.sol\":1853:1865  errorMessage */\n          dup3\n            /* \"https://github.com/OpenZeppelin/openzeppelin-contracts/blob/release-v2.5.0/contracts/math/SafeMath.sol\":1837:1866  require(b <= a, errorMessage) */\n          swap1\n          tag_139\n          jumpi\n          mload(0x40)\n          0x08c379a000000000000000000000000000000000000000000000000000000000\n          dup2\n          mstore\n          0x04\n          add\n          dup1\n          dup1\n          0x20\n          add\n          dup3\n          dup2\n          sub\n          dup3\n          mstore\n          dup4\n          dup2\n          dup2\n          mload\n          dup2\n          mstore\n          0x20\n          add\n          swap2\n          pop\n          dup1\n          mload\n          swap1\n          0x20\n          add\n          swap1\n          dup1\n          dup4\n          dup4\n            /* \"--CODEGEN--\":23:24   */\n          0x00\n            /* \"--CODEGEN--\":8:108   */\n        tag_140:\n            /* \"--CODEGEN--\":33:36   */\n          dup4\n            /* \"--CODEGEN--\":30:31   */\n          dup2\n            /* \"--CODEGEN--\":27:37   */\n          lt\n            /* \"--CODEGEN--\":8:108   */\n          iszero\n          tag_142\n          jumpi\n            /* \"--CODEGEN--\":99:100   */\n          dup1\n            /* \"--CODEGEN--\":94:97   */\n          dup3\n            /* \"--CODEGEN--\":90:101   */\n          add\n            /* \"--CODEGEN--\":84:102   */\n          mload\n            /* \"--CODEGEN--\":80:81   */\n          dup2\n            /* \"--CODEGEN--\":75:78   */\n          dup5\n            /* \"--CODEGEN--\":71:82   */\n          add\n            /* \"--CODEGEN--\":64:103   */\n          mstore\n            /* \"--CODEGEN--\":52:54   */\n          0x20\n            /* \"--CODEGEN--\":49:50   */\n          dup2\n            /* \"--CODEGEN--\":45:55   */\n          add\n            /* \"--CODEGEN--\":40:55   */\n          swap1\n          pop\n            /* \"--CODEGEN--\":8:108   */\n          jump(tag_140)\n        tag_142:\n            /* \"--CODEGEN--\":12:26   */\n          pop\n            /* \"https://github.com/OpenZeppelin/openzeppelin-contracts/blob/release-v2.5.0/contracts/math/SafeMath.sol\":1837:1866  require(b <= a, errorMessage) */\n          pop\n          pop\n          pop\n          swap1\n          pop\n          swap1\n          dup2\n          add\n          swap1\n          0x1f\n          and\n          dup1\n          iszero\n          tag_143\n          jumpi\n          dup1\n          dup3\n          sub\n          dup1\n          mload\n          0x01\n          dup4\n          0x20\n          sub\n          0x0100\n          exp\n          sub\n          not\n          and\n          dup2\n          mstore\n          0x20\n          add\n          swap2\n          pop\n        tag_143:\n          pop\n          swap3\n          pop\n          pop\n          pop\n          mload(0x40)\n          dup1\n          swap2\n          sub\n          swap1\n          revert\n        tag_139:\n          pop\n            /* \"https://github.com/OpenZeppelin/openzeppelin-contracts/blob/release-v2.5.0/contracts/math/SafeMath.sol\":1876:1885  uint256 c */\n          0x00\n            /* \"https://github.com/OpenZeppelin/openzeppelin-contracts/blob/release-v2.5.0/contracts/math/SafeMath.sol\":1892:1893  b */\n          dup4\n            /* \"https://github.com/OpenZeppelin/openzeppelin-contracts/blob/release-v2.5.0/contracts/math/SafeMath.sol\":1888:1889  a */\n          dup6\n            /* \"https://github.com/OpenZeppelin/openzeppelin-contracts/blob/release-v2.5.0/contracts/math/SafeMath.sol\":1888:1893  a - b */\n          sub\n            /* \"https://github.com/OpenZeppelin/openzeppelin-contracts/blob/release-v2.5.0/contracts/math/SafeMath.sol\":1876:1893  uint256 c = a - b */\n          swap1\n          pop\n            /* \"https://github.com/OpenZeppelin/openzeppelin-contracts/blob/release-v2.5.0/contracts/math/SafeMath.sol\":1911:1912  c */\n          dup1\n            /* \"https://github.com/OpenZeppelin/openzeppelin-contracts/blob/release-v2.5.0/contracts/math/SafeMath.sol\":1904:1912  return c */\n          swap2\n          pop\n          pop\n            /* \"https://github.com/OpenZeppelin/openzeppelin-contracts/blob/release-v2.5.0/contracts/math/SafeMath.sol\":1732:1919  function sub(uint256 a, uint256 b, string memory errorMessage) internal pure returns (uint256) {... */\n          swap4\n          swap3\n          pop\n          pop\n          pop\n          jump\t// out\n            /* \"https://github.com/OpenZeppelin/openzeppelin-contracts/blob/release-v2.5.0/contracts/math/SafeMath.sol\":834:1010  function add(uint256 a, uint256 b) internal pure returns (uint256) {... */\n        tag_93:\n            /* \"https://github.com/OpenZeppelin/openzeppelin-contracts/blob/release-v2.5.0/contracts/math/SafeMath.sol\":892:899  uint256 */\n          0x00\n            /* \"https://github.com/OpenZeppelin/openzeppelin-contracts/blob/release-v2.5.0/contracts/math/SafeMath.sol\":911:920  uint256 c */\n          dup1\n            /* \"https://github.com/OpenZeppelin/openzeppelin-contracts/blob/release-v2.5.0/contracts/math/SafeMath.sol\":927:928  b */\n          dup3\n            /* \"https://github.com/OpenZeppelin/openzeppelin-contracts/blob/release-v2.5.0/contracts/math/SafeMath.sol\":923:924  a */\n          dup5\n            /* \"https://github.com/OpenZeppelin/openzeppelin-contracts/blob/release-v2.5.0/contracts/math/SafeMath.sol\":923:928  a + b */\n          add\n            /* \"https://github.com/OpenZeppelin/openzeppelin-contracts/blob/release-v2.5.0/contracts/math/SafeMath.sol\":911:928  uint256 c = a + b */\n          swap1\n          pop\n            /* \"https://github.com/OpenZeppelin/openzeppelin-contracts/blob/release-v2.5.0/contracts/math/SafeMath.sol\":951:952  a */\n          dup4\n            /* \"https://github.com/OpenZeppelin/openzeppelin-contracts/blob/release-v2.5.0/contracts/math/SafeMath.sol\":946:947  c */\n          dup2\n            /* \"https://github.com/OpenZeppelin/openzeppelin-contracts/blob/release-v2.5.0/contracts/math/SafeMath.sol\":946:952  c >= a */\n          lt\n          iszero\n            /* \"https://github.com/OpenZeppelin/openzeppelin-contracts/blob/release-v2.5.0/contracts/math/SafeMath.sol\":938:984  require(c >= a, \"SafeMath: addition overflow\") */\n          tag_145\n          jumpi\n          mload(0x40)\n          0x08c379a000000000000000000000000000000000000000000000000000000000\n          dup2\n          mstore\n          0x04\n          add\n          dup1\n          dup1\n          0x20\n          add\n          dup3\n          dup2\n          sub\n          dup3\n          mstore\n          0x1b\n          dup2\n          mstore\n          0x20\n          add\n          dup1\n          0x536166654d6174683a206164646974696f6e206f766572666c6f770000000000\n          dup2\n          mstore\n          pop\n          0x20\n          add\n          swap2\n          pop\n          pop\n          mload(0x40)\n          dup1\n          swap2\n          sub\n          swap1\n          revert\n        tag_145:\n            /* \"https://github.com/OpenZeppelin/openzeppelin-contracts/blob/release-v2.5.0/contracts/math/SafeMath.sol\":1002:1003  c */\n          dup1\n            /* \"https://github.com/OpenZeppelin/openzeppelin-contracts/blob/release-v2.5.0/contracts/math/SafeMath.sol\":995:1003  return c */\n          swap2\n          pop\n          pop\n            /* \"https://github.com/OpenZeppelin/openzeppelin-contracts/blob/release-v2.5.0/contracts/math/SafeMath.sol\":834:1010  function add(uint256 a, uint256 b) internal pure returns (uint256) {... */\n          swap3\n          swap2\n          pop\n          pop\n          jump\t// out\n            /* \"https://github.com/OpenZeppelin/openzeppelin-contracts/blob/release-v2.5.0/contracts/token/ERC20/ERC20.sol\":5962:6264  function _mint(address account, uint256 amount) internal {... */\n        tag_100:\n            /* \"https://github.com/OpenZeppelin/openzeppelin-contracts/blob/release-v2.5.0/contracts/token/ERC20/ERC20.sol\":6056:6057  0 */\n          0x00\n            /* \"https://github.com/OpenZeppelin/openzeppelin-contracts/blob/release-v2.5.0/contracts/token/ERC20/ERC20.sol\":6037:6058  account != address(0) */\n          0xffffffffffffffffffffffffffffffffffffffff\n          and\n            /* \"https://github.com/OpenZeppelin/openzeppelin-contracts/blob/release-v2.5.0/contracts/token/ERC20/ERC20.sol\":6037:6044  account */\n          dup3\n            /* \"https://github.com/OpenZeppelin/openzeppelin-contracts/blob/release-v2.5.0/contracts/token/ERC20/ERC20.sol\":6037:6058  account != address(0) */\n          0xffffffffffffffffffffffffffffffffffffffff\n          and\n          eq\n          iszero\n            /* \"https://github.com/OpenZeppelin/openzeppelin-contracts/blob/release-v2.5.0/contracts/token/ERC20/ERC20.sol\":6029:6094  require(account != address(0), \"ERC20: mint to the zero address\") */\n          tag_147\n          jumpi\n          mload(0x40)\n          0x08c379a000000000000000000000000000000000000000000000000000000000\n          dup2\n          mstore\n          0x04\n          add\n          dup1\n          dup1\n          0x20\n          add\n          dup3\n          dup2\n          sub\n          dup3\n          mstore\n          0x1f\n          dup2\n          mstore\n          0x20\n          add\n          dup1\n          0x45524332303a206d696e7420746f20746865207a65726f206164647265737300\n          dup2\n          mstore\n          pop\n          0x20\n          add\n          swap2\n          pop\n          pop\n          mload(0x40)\n          dup1\n          swap2\n          sub\n          swap1\n          revert\n        tag_147:\n            /* \"https://github.com/OpenZeppelin/openzeppelin-contracts/blob/release-v2.5.0/contracts/token/ERC20/ERC20.sol\":6120:6144  _totalSupply.add(amount) */\n          tag_148\n            /* \"https://github.com/OpenZeppelin/openzeppelin-contracts/blob/release-v2.5.0/contracts/token/ERC20/ERC20.sol\":6137:6143  amount */\n          dup2\n            /* \"https://github.com/OpenZeppelin/openzeppelin-contracts/blob/release-v2.5.0/contracts/token/ERC20/ERC20.sol\":6120:6132  _totalSupply */\n          sload(0x02)\n            /* \"https://github.com/OpenZeppelin/openzeppelin-contracts/blob/release-v2.5.0/contracts/token/ERC20/ERC20.sol\":6120:6136  _totalSupply.add */\n          tag_93\n          swap1\n            /* \"https://github.com/OpenZeppelin/openzeppelin-contracts/blob/release-v2.5.0/contracts/token/ERC20/ERC20.sol\":6120:6144  _totalSupply.add(amount) */\n          swap2\n          swap1\n          0xffffffff\n          and\n          jump\t// in\n        tag_148:\n            /* \"https://github.com/OpenZeppelin/openzeppelin-contracts/blob/release-v2.5.0/contracts/token/ERC20/ERC20.sol\":6105:6117  _totalSupply */\n          0x02\n            /* \"https://github.com/OpenZeppelin/openzeppelin-contracts/blob/release-v2.5.0/contracts/token/ERC20/ERC20.sol\":6105:6144  _totalSupply = _totalSupply.add(amount) */\n          dup2\n          swap1\n          sstore\n          pop\n            /* \"https://github.com/OpenZeppelin/openzeppelin-contracts/blob/release-v2.5.0/contracts/token/ERC20/ERC20.sol\":6175:6205  _balances[account].add(amount) */\n          tag_149\n            /* \"https://github.com/OpenZeppelin/openzeppelin-contracts/blob/release-v2.5.0/contracts/token/ERC20/ERC20.sol\":6198:6204  amount */\n          dup2\n            /* \"https://github.com/OpenZeppelin/openzeppelin-contracts/blob/release-v2.5.0/contracts/token/ERC20/ERC20.sol\":6175:6184  _balances */\n          0x00\n            /* \"https://github.com/OpenZeppelin/openzeppelin-contracts/blob/release-v2.5.0/contracts/token/ERC20/ERC20.sol\":6175:6193  _balances[account] */\n          dup1\n            /* \"https://github.com/OpenZeppelin/openzeppelin-contracts/blob/release-v2.5.0/contracts/token/ERC20/ERC20.sol\":6185:6192  account */\n          dup6\n            /* \"https://github.com/OpenZeppelin/openzeppelin-contracts/blob/release-v2.5.0/contracts/token/ERC20/ERC20.sol\":6175:6193  _balances[account] */\n          0xffffffffffffffffffffffffffffffffffffffff\n          and\n          0xffffffffffffffffffffffffffffffffffffffff\n          and\n          dup2\n          mstore\n          0x20\n          add\n          swap1\n          dup2\n          mstore\n          0x20\n          add\n          0x00\n          keccak256\n          sload\n            /* \"https://github.com/OpenZeppelin/openzeppelin-contracts/blob/release-v2.5.0/contracts/token/ERC20/ERC20.sol\":6175:6197  _balances[account].add */\n          tag_93\n          swap1\n            /* \"https://github.com/OpenZeppelin/openzeppelin-contracts/blob/release-v2.5.0/contracts/token/ERC20/ERC20.sol\":6175:6205  _balances[account].add(amount) */\n          swap2\n          swap1\n          0xffffffff\n          and\n          jump\t// in\n        tag_149:\n            /* \"https://github.com/OpenZeppelin/openzeppelin-contracts/blob/release-v2.5.0/contracts/token/ERC20/ERC20.sol\":6154:6163  _balances */\n          0x00\n            /* \"https://github.com/OpenZeppelin/openzeppelin-contracts/blob/release-v2.5.0/contracts/token/ERC20/ERC20.sol\":6154:6172  _balances[account] */\n          dup1\n            /* \"https://github.com/OpenZeppelin/openzeppelin-contracts/blob/release-v2.5.0/contracts/token/ERC20/ERC20.sol\":6164:6171  account */\n          dup5\n            /* \"https://github.com/OpenZeppelin/openzeppelin-contracts/blob/release-v2.5.0/contracts/token/ERC20/ERC20.sol\":6154:6172  _balances[account] */\n          0xffffffffffffffffffffffffffffffffffffffff\n          and\n          0xffffffffffffffffffffffffffffffffffffffff\n          and\n          dup2\n          mstore\n          0x20\n          add\n          swap1\n          dup2\n          mstore\n          0x20\n          add\n          0x00\n          keccak256\n            /* \"https://github.com/OpenZeppelin/openzeppelin-contracts/blob/release-v2.5.0/contracts/token/ERC20/ERC20.sol\":6154:6205  _balances[account] = _balances[account].add(amount) */\n          dup2\n          swap1\n          sstore\n          pop\n            /* \"https://github.com/OpenZeppelin/openzeppelin-contracts/blob/release-v2.5.0/contracts/token/ERC20/ERC20.sol\":6241:6248  account */\n          dup2\n            /* \"https://github.com/OpenZeppelin/openzeppelin-contracts/blob/release-v2.5.0/contracts/token/ERC20/ERC20.sol\":6220:6257  Transfer(address(0), account, amount) */\n          0xffffffffffffffffffffffffffffffffffffffff\n          and\n            /* \"https://github.com/OpenZeppelin/openzeppelin-contracts/blob/release-v2.5.0/contracts/token/ERC20/ERC20.sol\":6237:6238  0 */\n          0x00\n            /* \"https://github.com/OpenZeppelin/openzeppelin-contracts/blob/release-v2.5.0/contracts/token/ERC20/ERC20.sol\":6220:6257  Transfer(address(0), account, amount) */\n          0xffffffffffffffffffffffffffffffffffffffff\n          and\n          0xddf252ad1be2c89b69c2b068fc378daa952ba7f163c4a11628f55a4df523b3ef\n            /* \"https://github.com/OpenZeppelin/openzeppelin-contracts/blob/release-v2.5.0/contracts/token/ERC20/ERC20.sol\":6250:6256  amount */\n          dup4\n            /* \"https://github.com/OpenZeppelin/openzeppelin-contracts/blob/release-v2.5.0/contracts/token/ERC20/ERC20.sol\":6220:6257  Transfer(address(0), account, amount) */\n          mload(0x40)\n          dup1\n          dup3\n          dup2\n          mstore\n          0x20\n          add\n          swap2\n          pop\n          pop\n          mload(0x40)\n          dup1\n          swap2\n          sub\n          swap1\n          log3\n            /* \"https://github.com/OpenZeppelin/openzeppelin-contracts/blob/release-v2.5.0/contracts/token/ERC20/ERC20.sol\":5962:6264  function _mint(address account, uint256 amount) internal {... */\n          pop\n          pop\n          jump\t// out\n            /* \"https://github.com/OpenZeppelin/openzeppelin-contracts/blob/release-v2.5.0/contracts/access/roles/MinterRole.sol\":786:905  function _addMinter(address account) internal {... */\n        tag_112:\n            /* \"https://github.com/OpenZeppelin/openzeppelin-contracts/blob/release-v2.5.0/contracts/access/roles/MinterRole.sol\":842:863  _minters.add(account) */\n          tag_151\n            /* \"https://github.com/OpenZeppelin/openzeppelin-contracts/blob/release-v2.5.0/contracts/access/roles/MinterRole.sol\":855:862  account */\n          dup2\n            /* \"https://github.com/OpenZeppelin/openzeppelin-contracts/blob/release-v2.5.0/contracts/access/roles/MinterRole.sol\":842:850  _minters */\n          0x06\n            /* \"https://github.com/OpenZeppelin/openzeppelin-contracts/blob/release-v2.5.0/contracts/access/roles/MinterRole.sol\":842:854  _minters.add */\n          tag_152\n          swap1\n            /* \"https://github.com/OpenZeppelin/openzeppelin-contracts/blob/release-v2.5.0/contracts/access/roles/MinterRole.sol\":842:863  _minters.add(account) */\n          swap2\n          swap1\n          0xffffffff\n          and\n          jump\t// in\n        tag_151:\n            /* \"https://github.com/OpenZeppelin/openzeppelin-contracts/blob/release-v2.5.0/contracts/access/roles/MinterRole.sol\":890:897  account */\n          dup1\n            /* \"https://github.com/OpenZeppelin/openzeppelin-contracts/blob/release-v2.5.0/contracts/access/roles/MinterRole.sol\":878:898  MinterAdded(account) */\n          0xffffffffffffffffffffffffffffffffffffffff\n          and\n          0x6ae172837ea30b801fbfcdd4108aa1d5bf8ff775444fd70256b44e6bf3dfc3f6\n          mload(0x40)\n          mload(0x40)\n          dup1\n          swap2\n          sub\n          swap1\n          log2\n            /* \"https://github.com/OpenZeppelin/openzeppelin-contracts/blob/release-v2.5.0/contracts/access/roles/MinterRole.sol\":786:905  function _addMinter(address account) internal {... */\n          pop\n          jump\t// out\n            /* \"https://github.com/OpenZeppelin/openzeppelin-contracts/blob/release-v2.5.0/contracts/access/roles/MinterRole.sol\":911:1038  function _removeMinter(address account) internal {... */\n        tag_116:\n            /* \"https://github.com/OpenZeppelin/openzeppelin-contracts/blob/release-v2.5.0/contracts/access/roles/MinterRole.sol\":970:994  _minters.remove(account) */\n          tag_154\n            /* \"https://github.com/OpenZeppelin/openzeppelin-contracts/blob/release-v2.5.0/contracts/access/roles/MinterRole.sol\":986:993  account */\n          dup2\n            /* \"https://github.com/OpenZeppelin/openzeppelin-contracts/blob/release-v2.5.0/contracts/access/roles/MinterRole.sol\":970:978  _minters */\n          0x06\n            /* \"https://github.com/OpenZeppelin/openzeppelin-contracts/blob/release-v2.5.0/contracts/access/roles/MinterRole.sol\":970:985  _minters.remove */\n          tag_155\n          swap1\n            /* \"https://github.com/OpenZeppelin/openzeppelin-contracts/blob/release-v2.5.0/contracts/access/roles/MinterRole.sol\":970:994  _minters.remove(account) */\n          swap2\n          swap1\n          0xffffffff\n          and\n          jump\t// in\n        tag_154:\n            /* \"https://github.com/OpenZeppelin/openzeppelin-contracts/blob/release-v2.5.0/contracts/access/roles/MinterRole.sol\":1023:1030  account */\n          dup1\n            /* \"https://github.com/OpenZeppelin/openzeppelin-contracts/blob/release-v2.5.0/contracts/access/roles/MinterRole.sol\":1009:1031  MinterRemoved(account) */\n          0xffffffffffffffffffffffffffffffffffffffff\n          and\n          0xe94479a9f7e1952cc78f2d6baab678adc1b772d936c6583def489e524cb66692\n          mload(0x40)\n          mload(0x40)\n          dup1\n          swap2\n          sub\n          swap1\n          log2\n            /* \"https://github.com/OpenZeppelin/openzeppelin-contracts/blob/release-v2.5.0/contracts/access/roles/MinterRole.sol\":911:1038  function _removeMinter(address account) internal {... */\n          pop\n          jump\t// out\n            /* \"https://github.com/OpenZeppelin/openzeppelin-contracts/blob/release-v2.5.0/contracts/access/Roles.sol\":779:979  function has(Role storage role, address account) internal view returns (bool) {... */\n        tag_127:\n            /* \"https://github.com/OpenZeppelin/openzeppelin-contracts/blob/release-v2.5.0/contracts/access/Roles.sol\":851:855  bool */\n          0x00\n            /* \"https://github.com/OpenZeppelin/openzeppelin-contracts/blob/release-v2.5.0/contracts/access/Roles.sol\":894:895  0 */\n          dup1\n            /* \"https://github.com/OpenZeppelin/openzeppelin-contracts/blob/release-v2.5.0/contracts/access/Roles.sol\":875:896  account != address(0) */\n          0xffffffffffffffffffffffffffffffffffffffff\n          and\n            /* \"https://github.com/OpenZeppelin/openzeppelin-contracts/blob/release-v2.5.0/contracts/access/Roles.sol\":875:882  account */\n          dup3\n            /* \"https://github.com/OpenZeppelin/openzeppelin-contracts/blob/release-v2.5.0/contracts/access/Roles.sol\":875:896  account != address(0) */\n          0xffffffffffffffffffffffffffffffffffffffff\n          and\n          eq\n          iszero\n            /* \"https://github.com/OpenZeppelin/openzeppelin-contracts/blob/release-v2.5.0/contracts/access/Roles.sol\":867:935  require(account != address(0), \"Roles: account is the zero address\") */\n          tag_157\n          jumpi\n          mload(0x40)\n          0x08c379a000000000000000000000000000000000000000000000000000000000\n          dup2\n          mstore\n          0x04\n          add\n          dup1\n          dup1\n          0x20\n          add\n          dup3\n          dup2\n          sub\n          dup3\n          mstore\n          0x22\n          dup2\n          mstore\n          0x20\n          add\n          dup1\n          data_9d214fa89563f4e6456a3929327e54500ea1cde2c0ba9fb2035ec106190d682f\n          0x22\n          swap2\n          codecopy\n          0x40\n          add\n          swap2\n          pop\n          pop\n          mload(0x40)\n          dup1\n          swap2\n          sub\n          swap1\n          revert\n        tag_157:\n            /* \"https://github.com/OpenZeppelin/openzeppelin-contracts/blob/release-v2.5.0/contracts/access/Roles.sol\":952:956  role */\n          dup3\n            /* \"https://github.com/OpenZeppelin/openzeppelin-contracts/blob/release-v2.5.0/contracts/access/Roles.sol\":952:963  role.bearer */\n          0x00\n          add\n            /* \"https://github.com/OpenZeppelin/openzeppelin-contracts/blob/release-v2.5.0/contracts/access/Roles.sol\":952:972  role.bearer[account] */\n          0x00\n            /* \"https://github.com/OpenZeppelin/openzeppelin-contracts/blob/release-v2.5.0/contracts/access/Roles.sol\":964:971  account */\n          dup4\n            /* \"https://github.com/OpenZeppelin/openzeppelin-contracts/blob/release-v2.5.0/contracts/access/Roles.sol\":952:972  role.bearer[account] */\n          0xffffffffffffffffffffffffffffffffffffffff\n          and\n          0xffffffffffffffffffffffffffffffffffffffff\n          and\n          dup2\n          mstore\n          0x20\n          add\n          swap1\n          dup2\n          mstore\n          0x20\n          add\n          0x00\n          keccak256\n          0x00\n          swap1\n          sload\n          swap1\n          0x0100\n          exp\n          swap1\n          div\n          0xff\n          and\n            /* \"https://github.com/OpenZeppelin/openzeppelin-contracts/blob/release-v2.5.0/contracts/access/Roles.sol\":945:972  return role.bearer[account] */\n          swap1\n          pop\n            /* \"https://github.com/OpenZeppelin/openzeppelin-contracts/blob/release-v2.5.0/contracts/access/Roles.sol\":779:979  function has(Role storage role, address account) internal view returns (bool) {... */\n          swap3\n          swap2\n          pop\n          pop\n          jump\t// out\n            /* \"https://github.com/OpenZeppelin/openzeppelin-contracts/blob/release-v2.5.0/contracts/access/Roles.sol\":260:435  function add(Role storage role, address account) internal {... */\n        tag_152:\n            /* \"https://github.com/OpenZeppelin/openzeppelin-contracts/blob/release-v2.5.0/contracts/access/Roles.sol\":337:355  has(role, account) */\n          tag_159\n            /* \"https://github.com/OpenZeppelin/openzeppelin-contracts/blob/release-v2.5.0/contracts/access/Roles.sol\":341:345  role */\n          dup3\n            /* \"https://github.com/OpenZeppelin/openzeppelin-contracts/blob/release-v2.5.0/contracts/access/Roles.sol\":347:354  account */\n          dup3\n            /* \"https://github.com/OpenZeppelin/openzeppelin-contracts/blob/release-v2.5.0/contracts/access/Roles.sol\":337:340  has */\n          tag_127\n            /* \"https://github.com/OpenZeppelin/openzeppelin-contracts/blob/release-v2.5.0/contracts/access/Roles.sol\":337:355  has(role, account) */\n          jump\t// in\n        tag_159:\n            /* \"https://github.com/OpenZeppelin/openzeppelin-contracts/blob/release-v2.5.0/contracts/access/Roles.sol\":336:355  !has(role, account) */\n          iszero\n            /* \"https://github.com/OpenZeppelin/openzeppelin-contracts/blob/release-v2.5.0/contracts/access/Roles.sol\":328:391  require(!has(role, account), \"Roles: account already has role\") */\n          tag_160\n          jumpi\n          mload(0x40)\n          0x08c379a000000000000000000000000000000000000000000000000000000000\n          dup2\n          mstore\n          0x04\n          add\n          dup1\n          dup1\n          0x20\n          add\n          dup3\n          dup2\n          sub\n          dup3\n          mstore\n          0x1f\n          dup2\n          mstore\n          0x20\n          add\n          dup1\n          0x526f6c65733a206163636f756e7420616c72656164792068617320726f6c6500\n          dup2\n          mstore\n          pop\n          0x20\n          add\n          swap2\n          pop\n          pop\n          mload(0x40)\n          dup1\n          swap2\n          sub\n          swap1\n          revert\n        tag_160:\n            /* \"https://github.com/OpenZeppelin/openzeppelin-contracts/blob/release-v2.5.0/contracts/access/Roles.sol\":424:428  true */\n          0x01\n            /* \"https://github.com/OpenZeppelin/openzeppelin-contracts/blob/release-v2.5.0/contracts/access/Roles.sol\":401:405  role */\n          dup3\n            /* \"https://github.com/OpenZeppelin/openzeppelin-contracts/blob/release-v2.5.0/contracts/access/Roles.sol\":401:412  role.bearer */\n          0x00\n          add\n            /* \"https://github.com/OpenZeppelin/openzeppelin-contracts/blob/release-v2.5.0/contracts/access/Roles.sol\":401:421  role.bearer[account] */\n          0x00\n            /* \"https://github.com/OpenZeppelin/openzeppelin-contracts/blob/release-v2.5.0/contracts/access/Roles.sol\":413:420  account */\n          dup4\n            /* \"https://github.com/OpenZeppelin/openzeppelin-contracts/blob/release-v2.5.0/contracts/access/Roles.sol\":401:421  role.bearer[account] */\n          0xffffffffffffffffffffffffffffffffffffffff\n          and\n          0xffffffffffffffffffffffffffffffffffffffff\n          and\n          dup2\n          mstore\n          0x20\n          add\n          swap1\n          dup2\n          mstore\n          0x20\n          add\n          0x00\n          keccak256\n          0x00\n            /* \"https://github.com/OpenZeppelin/openzeppelin-contracts/blob/release-v2.5.0/contracts/access/Roles.sol\":401:428  role.bearer[account] = true */\n          0x0100\n          exp\n          dup2\n          sload\n          dup2\n          0xff\n          mul\n          not\n          and\n          swap1\n          dup4\n          iszero\n          iszero\n          mul\n          or\n          swap1\n          sstore\n          pop\n            /* \"https://github.com/OpenZeppelin/openzeppelin-contracts/blob/release-v2.5.0/contracts/access/Roles.sol\":260:435  function add(Role storage role, address account) internal {... */\n          pop\n          pop\n          jump\t// out\n            /* \"https://github.com/OpenZeppelin/openzeppelin-contracts/blob/release-v2.5.0/contracts/access/Roles.sol\":510:690  function remove(Role storage role, address account) internal {... */\n        tag_155:\n            /* \"https://github.com/OpenZeppelin/openzeppelin-contracts/blob/release-v2.5.0/contracts/access/Roles.sol\":589:607  has(role, account) */\n          tag_162\n            /* \"https://github.com/OpenZeppelin/openzeppelin-contracts/blob/release-v2.5.0/contracts/access/Roles.sol\":593:597  role */\n          dup3\n            /* \"https://github.com/OpenZeppelin/openzeppelin-contracts/blob/release-v2.5.0/contracts/access/Roles.sol\":599:606  account */\n          dup3\n            /* \"https://github.com/OpenZeppelin/openzeppelin-contracts/blob/release-v2.5.0/contracts/access/Roles.sol\":589:592  has */\n          tag_127\n            /* \"https://github.com/OpenZeppelin/openzeppelin-contracts/blob/release-v2.5.0/contracts/access/Roles.sol\":589:607  has(role, account) */\n          jump\t// in\n        tag_162:\n            /* \"https://github.com/OpenZeppelin/openzeppelin-contracts/blob/release-v2.5.0/contracts/access/Roles.sol\":581:645  require(has(role, account), \"Roles: account does not have role\") */\n          tag_163\n          jumpi\n          mload(0x40)\n          0x08c379a000000000000000000000000000000000000000000000000000000000\n          dup2\n          mstore\n          0x04\n          add\n          dup1\n          dup1\n          0x20\n          add\n          dup3\n          dup2\n          sub\n          dup3\n          mstore\n          0x21\n          dup2\n          mstore\n          0x20\n          add\n          dup1\n          data_7bd893145ac435f339bb7c288622d270324b7033b011f693aca172f5cbc3c257\n          0x21\n          swap2\n          codecopy\n          0x40\n          add\n          swap2\n          pop\n          pop\n          mload(0x40)\n          dup1\n          swap2\n          sub\n          swap1\n          revert\n        tag_163:\n            /* \"https://github.com/OpenZeppelin/openzeppelin-contracts/blob/release-v2.5.0/contracts/access/Roles.sol\":678:683  false */\n          0x00\n            /* \"https://github.com/OpenZeppelin/openzeppelin-contracts/blob/release-v2.5.0/contracts/access/Roles.sol\":655:659  role */\n          dup3\n            /* \"https://github.com/OpenZeppelin/openzeppelin-contracts/blob/release-v2.5.0/contracts/access/Roles.sol\":655:666  role.bearer */\n          0x00\n          add\n            /* \"https://github.com/OpenZeppelin/openzeppelin-contracts/blob/release-v2.5.0/contracts/access/Roles.sol\":655:675  role.bearer[account] */\n          0x00\n            /* \"https://github.com/OpenZeppelin/openzeppelin-contracts/blob/release-v2.5.0/contracts/access/Roles.sol\":667:674  account */\n          dup4\n            /* \"https://github.com/OpenZeppelin/openzeppelin-contracts/blob/release-v2.5.0/contracts/access/Roles.sol\":655:675  role.bearer[account] */\n          0xffffffffffffffffffffffffffffffffffffffff\n          and\n          0xffffffffffffffffffffffffffffffffffffffff\n          and\n          dup2\n          mstore\n          0x20\n          add\n          swap1\n          dup2\n          mstore\n          0x20\n          add\n          0x00\n          keccak256\n          0x00\n            /* \"https://github.com/OpenZeppelin/openzeppelin-contracts/blob/release-v2.5.0/contracts/access/Roles.sol\":655:683  role.bearer[account] = false */\n          0x0100\n          exp\n          dup2\n          sload\n          dup2\n          0xff\n          mul\n          not\n          and\n          swap1\n          dup4\n          iszero\n          iszero\n          mul\n          or\n          swap1\n          sstore\n          pop\n            /* \"https://github.com/OpenZeppelin/openzeppelin-contracts/blob/release-v2.5.0/contracts/access/Roles.sol\":510:690  function remove(Role storage role, address account) internal {... */\n          pop\n          pop\n          jump\t// out\n        stop\n        data_0557e210f7a69a685100a7e4e3d0a7024c546085cee28910fd17d0b081d9516f 45524332303a207472616e7366657220746f20746865207a65726f2061646472657373\n        data_24883cc5fe64ace9d0df1893501ecb93c77180f0ff69cca79affb3c316dc8029 45524332303a20617070726f766520746f20746865207a65726f2061646472657373\n        data_4107e8a8b9e94bf8ff83080ddec1c0bffe897ebc2241b89d44f66b3d274088b6 45524332303a207472616e7366657220616d6f756e7420657863656564732062616c616e6365\n        data_79ecb50133735b20228dea9d08fe36a462bbc1350f591a146908848db91104cd 4d696e746572526f6c653a2063616c6c657220646f6573206e6f74206861766520746865204d696e74657220726f6c65\n        data_7bd893145ac435f339bb7c288622d270324b7033b011f693aca172f5cbc3c257 526f6c65733a206163636f756e7420646f6573206e6f74206861766520726f6c65\n        data_974d1b4421da69cc60b481194f0dad36a5bb4e23da810da7a7fb30cdba178330 45524332303a207472616e7366657220616d6f756e74206578636565647320616c6c6f77616e6365\n        data_9d214fa89563f4e6456a3929327e54500ea1cde2c0ba9fb2035ec106190d682f 526f6c65733a206163636f756e7420697320746865207a65726f2061646472657373\n        data_baecc556b46f4ed0f2b4cb599d60785ac8563dd2dc0a5bf12edea1c39e5e1fea 45524332303a207472616e736665722066726f6d20746865207a65726f2061646472657373\n        data_c953f4879035ed60e766b34720f656aab5c697b141d924c283124ecedb91c208 45524332303a20617070726f76652066726f6d20746865207a65726f2061646472657373\n        data_f8b476f7d28209d77d4a4ac1fe36b9f8259aa1bb6bddfa6e89de7e51615cf8a8 45524332303a2064656372656173656420616c6c6f77616e63652062656c6f77207a65726f\n\n        auxdata: 0xa265627a7a72315820f7a47907e7d8268f90bbb5243dcd624e7dba3c6c00a0f7d3f04dc6695fb0572a64736f6c63430005110032\n    }\n}\n\nsub_2: assembly {\n        /* \"KaseiCoinCrowdsale.sol\":419:868  contract KaseiCoinCrowdsale is Crowdsale, MintedCrowdsale { // UPDATE THE CONTRACT SIGNATURE TO ADD INHERITANCE... */\n      mstore(0x40, 0x80)\n        /* \"KaseiCoinCrowdsale.sol\":669:866  constructor(... */\n      callvalue\n        /* \"--CODEGEN--\":8:17   */\n      dup1\n        /* \"--CODEGEN--\":5:7   */\n      iszero\n      tag_1\n      jumpi\n        /* \"--CODEGEN--\":30:31   */\n      0x00\n        /* \"--CODEGEN--\":27:28   */\n      dup1\n        /* \"--CODEGEN--\":20:32   */\n      revert\n        /* \"--CODEGEN--\":5:7   */\n    tag_1:\n        /* \"KaseiCoinCrowdsale.sol\":669:866  constructor(... */\n      pop\n      mload(0x40)\n      sub(codesize, bytecodeSize)\n      dup1\n      bytecodeSize\n      dup4\n      codecopy\n      dup2\n      dup2\n      add\n      0x40\n      mstore\n        /* \"--CODEGEN--\":13:15   */\n      0x60\n        /* \"--CODEGEN--\":8:11   */\n      dup2\n        /* \"--CODEGEN--\":5:16   */\n      lt\n        /* \"--CODEGEN--\":2:4   */\n      iszero\n      tag_2\n      jumpi\n        /* \"--CODEGEN--\":29:30   */\n      0x00\n        /* \"--CODEGEN--\":26:27   */\n      dup1\n        /* \"--CODEGEN--\":19:31   */\n      revert\n        /* \"--CODEGEN--\":2:4   */\n    tag_2:\n        /* \"KaseiCoinCrowdsale.sol\":669:866  constructor(... */\n      dup2\n      add\n      swap1\n      dup1\n      dup1\n      mload\n      swap1\n      0x20\n      add\n      swap1\n      swap3\n      swap2\n      swap1\n      dup1\n      mload\n      swap1\n      0x20\n      add\n      swap1\n      swap3\n      swap2\n      swap1\n      dup1\n      mload\n      swap1\n      0x20\n      add\n      swap1\n      swap3\n      swap2\n      swap1\n      pop\n      pop\n      pop\n        /* \"KaseiCoinCrowdsale.sol\":781:785  rate */\n      dup3\n        /* \"KaseiCoinCrowdsale.sol\":787:793  wallet */\n      dup3\n        /* \"KaseiCoinCrowdsale.sol\":795:800  token */\n      dup3\n        /* \"https://github.com/OpenZeppelin/openzeppelin-contracts/blob/release-v2.5.0/contracts/utils/ReentrancyGuard.sol\":1435:1439  true */\n      0x01\n        /* \"https://github.com/OpenZeppelin/openzeppelin-contracts/blob/release-v2.5.0/contracts/utils/ReentrancyGuard.sol\":1421:1432  _notEntered */\n      0x00\n      dup1\n        /* \"https://github.com/OpenZeppelin/openzeppelin-contracts/blob/release-v2.5.0/contracts/utils/ReentrancyGuard.sol\":1421:1439  _notEntered = true */\n      0x0100\n      exp\n      dup2\n      sload\n      dup2\n      0xff\n      mul\n      not\n      and\n      swap1\n      dup4\n      iszero\n      iszero\n      mul\n      or\n      swap1\n      sstore\n      pop\n        /* \"https://github.com/OpenZeppelin/openzeppelin-contracts/blob/release-v2.5.0/contracts/crowdsale/Crowdsale.sol\":2416:2417  0 */\n      0x00\n        /* \"https://github.com/OpenZeppelin/openzeppelin-contracts/blob/release-v2.5.0/contracts/crowdsale/Crowdsale.sol\":2409:2413  rate */\n      dup4\n        /* \"https://github.com/OpenZeppelin/openzeppelin-contracts/blob/release-v2.5.0/contracts/crowdsale/Crowdsale.sol\":2409:2417  rate > 0 */\n      gt\n        /* \"https://github.com/OpenZeppelin/openzeppelin-contracts/blob/release-v2.5.0/contracts/crowdsale/Crowdsale.sol\":2401:2442  require(rate > 0, \"Crowdsale: rate is 0\") */\n      tag_10\n      jumpi\n      mload(0x40)\n      0x08c379a000000000000000000000000000000000000000000000000000000000\n      dup2\n      mstore\n      0x04\n      add\n      dup1\n      dup1\n      0x20\n      add\n      dup3\n      dup2\n      sub\n      dup3\n      mstore\n      0x14\n      dup2\n      mstore\n      0x20\n      add\n      dup1\n      0x43726f776473616c653a20726174652069732030000000000000000000000000\n      dup2\n      mstore\n      pop\n      0x20\n      add\n      swap2\n      pop\n      pop\n      mload(0x40)\n      dup1\n      swap2\n      sub\n      swap1\n      revert\n    tag_10:\n        /* \"https://github.com/OpenZeppelin/openzeppelin-contracts/blob/release-v2.5.0/contracts/crowdsale/Crowdsale.sol\":2478:2479  0 */\n      0x00\n        /* \"https://github.com/OpenZeppelin/openzeppelin-contracts/blob/release-v2.5.0/contracts/crowdsale/Crowdsale.sol\":2460:2480  wallet != address(0) */\n      0xffffffffffffffffffffffffffffffffffffffff\n      and\n        /* \"https://github.com/OpenZeppelin/openzeppelin-contracts/blob/release-v2.5.0/contracts/crowdsale/Crowdsale.sol\":2460:2466  wallet */\n      dup3\n        /* \"https://github.com/OpenZeppelin/openzeppelin-contracts/blob/release-v2.5.0/contracts/crowdsale/Crowdsale.sol\":2460:2480  wallet != address(0) */\n      0xffffffffffffffffffffffffffffffffffffffff\n      and\n      eq\n      iszero\n        /* \"https://github.com/OpenZeppelin/openzeppelin-contracts/blob/release-v2.5.0/contracts/crowdsale/Crowdsale.sol\":2452:2522  require(wallet != address(0), \"Crowdsale: wallet is the zero address\") */\n      tag_11\n      jumpi\n      mload(0x40)\n      0x08c379a000000000000000000000000000000000000000000000000000000000\n      dup2\n      mstore\n      0x04\n      add\n      dup1\n      dup1\n      0x20\n      add\n      dup3\n      dup2\n      sub\n      dup3\n      mstore\n      0x25\n      dup2\n      mstore\n      0x20\n      add\n      dup1\n      data_e2b432b30cf592332baa824ba45b03380bf314917ec1eb0e2522d19fb933b9f6\n      0x25\n      swap2\n      codecopy\n      0x40\n      add\n      swap2\n      pop\n      pop\n      mload(0x40)\n      dup1\n      swap2\n      sub\n      swap1\n      revert\n    tag_11:\n        /* \"https://github.com/OpenZeppelin/openzeppelin-contracts/blob/release-v2.5.0/contracts/crowdsale/Crowdsale.sol\":2566:2567  0 */\n      0x00\n        /* \"https://github.com/OpenZeppelin/openzeppelin-contracts/blob/release-v2.5.0/contracts/crowdsale/Crowdsale.sol\":2540:2568  address(token) != address(0) */\n      0xffffffffffffffffffffffffffffffffffffffff\n      and\n        /* \"https://github.com/OpenZeppelin/openzeppelin-contracts/blob/release-v2.5.0/contracts/crowdsale/Crowdsale.sol\":2548:2553  token */\n      dup2\n        /* \"https://github.com/OpenZeppelin/openzeppelin-contracts/blob/release-v2.5.0/contracts/crowdsale/Crowdsale.sol\":2540:2568  address(token) != address(0) */\n      0xffffffffffffffffffffffffffffffffffffffff\n      and\n      eq\n      iszero\n        /* \"https://github.com/OpenZeppelin/openzeppelin-contracts/blob/release-v2.5.0/contracts/crowdsale/Crowdsale.sol\":2532:2609  require(address(token) != address(0), \"Crowdsale: token is the zero address\") */\n      tag_12\n      jumpi\n      mload(0x40)\n      0x08c379a000000000000000000000000000000000000000000000000000000000\n      dup2\n      mstore\n      0x04\n      add\n      dup1\n      dup1\n      0x20\n      add\n      dup3\n      dup2\n      sub\n      dup3\n      mstore\n      0x24\n      dup2\n      mstore\n      0x20\n      add\n      dup1\n      data_64ba396754921ac5cdc6388a09272386edd92a5c198850f31a7c165ba7c79b82\n      0x24\n      swap2\n      codecopy\n      0x40\n      add\n      swap2\n      pop\n      pop\n      mload(0x40)\n      dup1\n      swap2\n      sub\n      swap1\n      revert\n    tag_12:\n        /* \"https://github.com/OpenZeppelin/openzeppelin-contracts/blob/release-v2.5.0/contracts/crowdsale/Crowdsale.sol\":2628:2632  rate */\n      dup3\n        /* \"https://github.com/OpenZeppelin/openzeppelin-contracts/blob/release-v2.5.0/contracts/crowdsale/Crowdsale.sol\":2620:2625  _rate */\n      0x02\n        /* \"https://github.com/OpenZeppelin/openzeppelin-contracts/blob/release-v2.5.0/contracts/crowdsale/Crowdsale.sol\":2620:2632  _rate = rate */\n      dup2\n      swap1\n      sstore\n      pop\n        /* \"https://github.com/OpenZeppelin/openzeppelin-contracts/blob/release-v2.5.0/contracts/crowdsale/Crowdsale.sol\":2652:2658  wallet */\n      dup2\n        /* \"https://github.com/OpenZeppelin/openzeppelin-contracts/blob/release-v2.5.0/contracts/crowdsale/Crowdsale.sol\":2642:2649  _wallet */\n      0x01\n      0x00\n        /* \"https://github.com/OpenZeppelin/openzeppelin-contracts/blob/release-v2.5.0/contracts/crowdsale/Crowdsale.sol\":2642:2658  _wallet = wallet */\n      0x0100\n      exp\n      dup2\n      sload\n      dup2\n      0xffffffffffffffffffffffffffffffffffffffff\n      mul\n      not\n      and\n      swap1\n      dup4\n      0xffffffffffffffffffffffffffffffffffffffff\n      and\n      mul\n      or\n      swap1\n      sstore\n      pop\n        /* \"https://github.com/OpenZeppelin/openzeppelin-contracts/blob/release-v2.5.0/contracts/crowdsale/Crowdsale.sol\":2677:2682  token */\n      dup1\n        /* \"https://github.com/OpenZeppelin/openzeppelin-contracts/blob/release-v2.5.0/contracts/crowdsale/Crowdsale.sol\":2668:2674  _token */\n      0x00\n      0x01\n        /* \"https://github.com/OpenZeppelin/openzeppelin-contracts/blob/release-v2.5.0/contracts/crowdsale/Crowdsale.sol\":2668:2682  _token = token */\n      0x0100\n      exp\n      dup2\n      sload\n      dup2\n      0xffffffffffffffffffffffffffffffffffffffff\n      mul\n      not\n      and\n      swap1\n      dup4\n      0xffffffffffffffffffffffffffffffffffffffff\n      and\n      mul\n      or\n      swap1\n      sstore\n      pop\n        /* \"https://github.com/OpenZeppelin/openzeppelin-contracts/blob/release-v2.5.0/contracts/crowdsale/Crowdsale.sol\":2319:2689  constructor (uint256 rate, address payable wallet, IERC20 token) public {... */\n      pop\n      pop\n      pop\n        /* \"KaseiCoinCrowdsale.sol\":669:866  constructor(... */\n      pop\n      pop\n      pop\n        /* \"KaseiCoinCrowdsale.sol\":419:868  contract KaseiCoinCrowdsale is Crowdsale, MintedCrowdsale { // UPDATE THE CONTRACT SIGNATURE TO ADD INHERITANCE... */\n      dataSize(sub_0)\n      dup1\n      dataOffset(sub_0)\n      0x00\n      codecopy\n      0x00\n      return\n    stop\n    data_64ba396754921ac5cdc6388a09272386edd92a5c198850f31a7c165ba7c79b82 43726f776473616c653a20746f6b656e20697320746865207a65726f2061646472657373\n    data_e2b432b30cf592332baa824ba45b03380bf314917ec1eb0e2522d19fb933b9f6 43726f776473616c653a2077616c6c657420697320746865207a65726f2061646472657373\n\n    sub_0: assembly {\n            /* \"KaseiCoinCrowdsale.sol\":419:868  contract KaseiCoinCrowdsale is Crowdsale, MintedCrowdsale { // UPDATE THE CONTRACT SIGNATURE TO ADD INHERITANCE... */\n          mstore(0x40, 0x80)\n          jumpi(tag_1, lt(calldatasize, 0x04))\n          shr(0xe0, calldataload(0x00))\n          dup1\n          0x2c4e722e\n          eq\n          tag_2\n          jumpi\n          dup1\n          0x4042b66f\n          eq\n          tag_3\n          jumpi\n          dup1\n          0x521eb273\n          eq\n          tag_4\n          jumpi\n          dup1\n          0xec8ac4d8\n          eq\n          tag_5\n          jumpi\n          dup1\n          0xfc0c546a\n          eq\n          tag_6\n          jumpi\n        tag_1:\n            /* \"https://github.com/OpenZeppelin/openzeppelin-contracts/blob/release-v2.5.0/contracts/crowdsale/Crowdsale.sol\":3017:3040  buyTokens(_msgSender()) */\n          tag_9\n            /* \"https://github.com/OpenZeppelin/openzeppelin-contracts/blob/release-v2.5.0/contracts/crowdsale/Crowdsale.sol\":3027:3039  _msgSender() */\n          tag_10\n            /* \"https://github.com/OpenZeppelin/openzeppelin-contracts/blob/release-v2.5.0/contracts/crowdsale/Crowdsale.sol\":3027:3037  _msgSender */\n          tag_11\n            /* \"https://github.com/OpenZeppelin/openzeppelin-contracts/blob/release-v2.5.0/contracts/crowdsale/Crowdsale.sol\":3027:3039  _msgSender() */\n          jump\t// in\n        tag_10:\n            /* \"https://github.com/OpenZeppelin/openzeppelin-contracts/blob/release-v2.5.0/contracts/crowdsale/Crowdsale.sol\":3017:3026  buyTokens */\n          tag_12\n            /* \"https://github.com/OpenZeppelin/openzeppelin-contracts/blob/release-v2.5.0/contracts/crowdsale/Crowdsale.sol\":3017:3040  buyTokens(_msgSender()) */\n          jump\t// in\n        tag_9:\n            /* \"KaseiCoinCrowdsale.sol\":419:868  contract KaseiCoinCrowdsale is Crowdsale, MintedCrowdsale { // UPDATE THE CONTRACT SIGNATURE TO ADD INHERITANCE... */\n          stop\n            /* \"https://github.com/OpenZeppelin/openzeppelin-contracts/blob/release-v2.5.0/contracts/crowdsale/Crowdsale.sol\":3430:3505  function rate() public view returns (uint256) {... */\n        tag_2:\n          callvalue\n            /* \"--CODEGEN--\":8:17   */\n          dup1\n            /* \"--CODEGEN--\":5:7   */\n          iszero\n          tag_13\n          jumpi\n            /* \"--CODEGEN--\":30:31   */\n          0x00\n            /* \"--CODEGEN--\":27:28   */\n          dup1\n            /* \"--CODEGEN--\":20:32   */\n          revert\n            /* \"--CODEGEN--\":5:7   */\n        tag_13:\n            /* \"https://github.com/OpenZeppelin/openzeppelin-contracts/blob/release-v2.5.0/contracts/crowdsale/Crowdsale.sol\":3430:3505  function rate() public view returns (uint256) {... */\n          pop\n          tag_14\n          tag_15\n          jump\t// in\n        tag_14:\n          mload(0x40)\n          dup1\n          dup3\n          dup2\n          mstore\n          0x20\n          add\n          swap2\n          pop\n          pop\n          mload(0x40)\n          dup1\n          swap2\n          sub\n          swap1\n          return\n            /* \"https://github.com/OpenZeppelin/openzeppelin-contracts/blob/release-v2.5.0/contracts/crowdsale/Crowdsale.sol\":3568:3653  function weiRaised() public view returns (uint256) {... */\n        tag_3:\n          callvalue\n            /* \"--CODEGEN--\":8:17   */\n          dup1\n            /* \"--CODEGEN--\":5:7   */\n          iszero\n          tag_16\n          jumpi\n            /* \"--CODEGEN--\":30:31   */\n          0x00\n            /* \"--CODEGEN--\":27:28   */\n          dup1\n            /* \"--CODEGEN--\":20:32   */\n          revert\n            /* \"--CODEGEN--\":5:7   */\n        tag_16:\n            /* \"https://github.com/OpenZeppelin/openzeppelin-contracts/blob/release-v2.5.0/contracts/crowdsale/Crowdsale.sol\":3568:3653  function weiRaised() public view returns (uint256) {... */\n          pop\n          tag_17\n          tag_18\n          jump\t// in\n        tag_17:\n          mload(0x40)\n          dup1\n          dup3\n          dup2\n          mstore\n          0x20\n          add\n          swap2\n          pop\n          pop\n          mload(0x40)\n          dup1\n          swap2\n          sub\n          swap1\n          return\n            /* \"https://github.com/OpenZeppelin/openzeppelin-contracts/blob/release-v2.5.0/contracts/crowdsale/Crowdsale.sol\":3258:3345  function wallet() public view returns (address payable) {... */\n        tag_4:\n          callvalue\n            /* \"--CODEGEN--\":8:17   */\n          dup1\n            /* \"--CODEGEN--\":5:7   */\n          iszero\n          tag_19\n          jumpi\n            /* \"--CODEGEN--\":30:31   */\n          0x00\n            /* \"--CODEGEN--\":27:28   */\n          dup1\n            /* \"--CODEGEN--\":20:32   */\n          revert\n            /* \"--CODEGEN--\":5:7   */\n        tag_19:\n            /* \"https://github.com/OpenZeppelin/openzeppelin-contracts/blob/release-v2.5.0/contracts/crowdsale/Crowdsale.sol\":3258:3345  function wallet() public view returns (address payable) {... */\n          pop\n          tag_20\n          tag_21\n          jump\t// in\n        tag_20:\n          mload(0x40)\n          dup1\n          dup3\n          0xffffffffffffffffffffffffffffffffffffffff\n          and\n          0xffffffffffffffffffffffffffffffffffffffff\n          and\n          dup2\n          mstore\n          0x20\n          add\n          swap2\n          pop\n          pop\n          mload(0x40)\n          dup1\n          swap2\n          sub\n          swap1\n          return\n            /* \"https://github.com/OpenZeppelin/openzeppelin-contracts/blob/release-v2.5.0/contracts/crowdsale/Crowdsale.sol\":3910:4515  function buyTokens(address beneficiary) public nonReentrant payable {... */\n        tag_5:\n          tag_22\n          0x04\n          dup1\n          calldatasize\n          sub\n            /* \"--CODEGEN--\":13:15   */\n          0x20\n            /* \"--CODEGEN--\":8:11   */\n          dup2\n            /* \"--CODEGEN--\":5:16   */\n          lt\n            /* \"--CODEGEN--\":2:4   */\n          iszero\n          tag_23\n          jumpi\n            /* \"--CODEGEN--\":29:30   */\n          0x00\n            /* \"--CODEGEN--\":26:27   */\n          dup1\n            /* \"--CODEGEN--\":19:31   */\n          revert\n            /* \"--CODEGEN--\":2:4   */\n        tag_23:\n            /* \"https://github.com/OpenZeppelin/openzeppelin-contracts/blob/release-v2.5.0/contracts/crowdsale/Crowdsale.sol\":3910:4515  function buyTokens(address beneficiary) public nonReentrant payable {... */\n          dup2\n          add\n          swap1\n          dup1\n          dup1\n          calldataload\n          0xffffffffffffffffffffffffffffffffffffffff\n          and\n          swap1\n          0x20\n          add\n          swap1\n          swap3\n          swap2\n          swap1\n          pop\n          pop\n          pop\n          tag_12\n          jump\t// in\n        tag_22:\n          stop\n            /* \"https://github.com/OpenZeppelin/openzeppelin-contracts/blob/release-v2.5.0/contracts/crowdsale/Crowdsale.sol\":3106:3182  function token() public view returns (IERC20) {... */\n        tag_6:\n          callvalue\n            /* \"--CODEGEN--\":8:17   */\n          dup1\n            /* \"--CODEGEN--\":5:7   */\n          iszero\n          tag_24\n          jumpi\n            /* \"--CODEGEN--\":30:31   */\n          0x00\n            /* \"--CODEGEN--\":27:28   */\n          dup1\n            /* \"--CODEGEN--\":20:32   */\n          revert\n            /* \"--CODEGEN--\":5:7   */\n        tag_24:\n            /* \"https://github.com/OpenZeppelin/openzeppelin-contracts/blob/release-v2.5.0/contracts/crowdsale/Crowdsale.sol\":3106:3182  function token() public view returns (IERC20) {... */\n          pop\n          tag_25\n          tag_26\n          jump\t// in\n        tag_25:\n          mload(0x40)\n          dup1\n          dup3\n          0xffffffffffffffffffffffffffffffffffffffff\n          and\n          0xffffffffffffffffffffffffffffffffffffffff\n          and\n          dup2\n          mstore\n          0x20\n          add\n          swap2\n          pop\n          pop\n          mload(0x40)\n          dup1\n          swap2\n          sub\n          swap1\n          return\n            /* \"https://github.com/OpenZeppelin/openzeppelin-contracts/blob/release-v2.5.0/contracts/GSN/Context.sol\":788:884  function _msgSender() internal view returns (address payable) {... */\n        tag_11:\n            /* \"https://github.com/OpenZeppelin/openzeppelin-contracts/blob/release-v2.5.0/contracts/GSN/Context.sol\":833:848  address payable */\n          0x00\n            /* \"https://github.com/OpenZeppelin/openzeppelin-contracts/blob/release-v2.5.0/contracts/GSN/Context.sol\":867:877  msg.sender */\n          caller\n            /* \"https://github.com/OpenZeppelin/openzeppelin-contracts/blob/release-v2.5.0/contracts/GSN/Context.sol\":860:877  return msg.sender */\n          swap1\n          pop\n            /* \"https://github.com/OpenZeppelin/openzeppelin-contracts/blob/release-v2.5.0/contracts/GSN/Context.sol\":788:884  function _msgSender() internal view returns (address payable) {... */\n          swap1\n          jump\t// out\n            /* \"https://github.com/OpenZeppelin/openzeppelin-contracts/blob/release-v2.5.0/contracts/crowdsale/Crowdsale.sol\":3910:4515  function buyTokens(address beneficiary) public nonReentrant payable {... */\n        tag_12:\n            /* \"https://github.com/OpenZeppelin/openzeppelin-contracts/blob/release-v2.5.0/contracts/utils/ReentrancyGuard.sol\":1934:1945  _notEntered */\n          0x00\n          dup1\n          swap1\n          sload\n          swap1\n          0x0100\n          exp\n          swap1\n          div\n          0xff\n          and\n            /* \"https://github.com/OpenZeppelin/openzeppelin-contracts/blob/release-v2.5.0/contracts/utils/ReentrancyGuard.sol\":1926:1981  require(_notEntered, \"ReentrancyGuard: reentrant call\") */\n          tag_29\n          jumpi\n          mload(0x40)\n          0x08c379a000000000000000000000000000000000000000000000000000000000\n          dup2\n          mstore\n          0x04\n          add\n          dup1\n          dup1\n          0x20\n          add\n          dup3\n          dup2\n          sub\n          dup3\n          mstore\n          0x1f\n          dup2\n          mstore\n          0x20\n          add\n          dup1\n          0x5265656e7472616e637947756172643a207265656e7472616e742063616c6c00\n          dup2\n          mstore\n          pop\n          0x20\n          add\n          swap2\n          pop\n          pop\n          mload(0x40)\n          dup1\n          swap2\n          sub\n          swap1\n          revert\n        tag_29:\n            /* \"https://github.com/OpenZeppelin/openzeppelin-contracts/blob/release-v2.5.0/contracts/utils/ReentrancyGuard.sol\":2070:2075  false */\n          0x00\n            /* \"https://github.com/OpenZeppelin/openzeppelin-contracts/blob/release-v2.5.0/contracts/utils/ReentrancyGuard.sol\":2056:2067  _notEntered */\n          dup1\n          0x00\n            /* \"https://github.com/OpenZeppelin/openzeppelin-contracts/blob/release-v2.5.0/contracts/utils/ReentrancyGuard.sol\":2056:2075  _notEntered = false */\n          0x0100\n          exp\n          dup2\n          sload\n          dup2\n          0xff\n          mul\n          not\n          and\n          swap1\n          dup4\n          iszero\n          iszero\n          mul\n          or\n          swap1\n          sstore\n          pop\n            /* \"https://github.com/OpenZeppelin/openzeppelin-contracts/blob/release-v2.5.0/contracts/crowdsale/Crowdsale.sol\":3988:4005  uint256 weiAmount */\n          0x00\n            /* \"https://github.com/OpenZeppelin/openzeppelin-contracts/blob/release-v2.5.0/contracts/crowdsale/Crowdsale.sol\":4008:4017  msg.value */\n          callvalue\n            /* \"https://github.com/OpenZeppelin/openzeppelin-contracts/blob/release-v2.5.0/contracts/crowdsale/Crowdsale.sol\":3988:4017  uint256 weiAmount = msg.value */\n          swap1\n          pop\n            /* \"https://github.com/OpenZeppelin/openzeppelin-contracts/blob/release-v2.5.0/contracts/crowdsale/Crowdsale.sol\":4027:4071  _preValidatePurchase(beneficiary, weiAmount) */\n          tag_31\n            /* \"https://github.com/OpenZeppelin/openzeppelin-contracts/blob/release-v2.5.0/contracts/crowdsale/Crowdsale.sol\":4048:4059  beneficiary */\n          dup3\n            /* \"https://github.com/OpenZeppelin/openzeppelin-contracts/blob/release-v2.5.0/contracts/crowdsale/Crowdsale.sol\":4061:4070  weiAmount */\n          dup3\n            /* \"https://github.com/OpenZeppelin/openzeppelin-contracts/blob/release-v2.5.0/contracts/crowdsale/Crowdsale.sol\":4027:4047  _preValidatePurchase */\n          tag_32\n            /* \"https://github.com/OpenZeppelin/openzeppelin-contracts/blob/release-v2.5.0/contracts/crowdsale/Crowdsale.sol\":4027:4071  _preValidatePurchase(beneficiary, weiAmount) */\n          jump\t// in\n        tag_31:\n            /* \"https://github.com/OpenZeppelin/openzeppelin-contracts/blob/release-v2.5.0/contracts/crowdsale/Crowdsale.sol\":4130:4144  uint256 tokens */\n          0x00\n            /* \"https://github.com/OpenZeppelin/openzeppelin-contracts/blob/release-v2.5.0/contracts/crowdsale/Crowdsale.sol\":4147:4173  _getTokenAmount(weiAmount) */\n          tag_33\n            /* \"https://github.com/OpenZeppelin/openzeppelin-contracts/blob/release-v2.5.0/contracts/crowdsale/Crowdsale.sol\":4163:4172  weiAmount */\n          dup3\n            /* \"https://github.com/OpenZeppelin/openzeppelin-contracts/blob/release-v2.5.0/contracts/crowdsale/Crowdsale.sol\":4147:4162  _getTokenAmount */\n          tag_34\n            /* \"https://github.com/OpenZeppelin/openzeppelin-contracts/blob/release-v2.5.0/contracts/crowdsale/Crowdsale.sol\":4147:4173  _getTokenAmount(weiAmount) */\n          jump\t// in\n        tag_33:\n            /* \"https://github.com/OpenZeppelin/openzeppelin-contracts/blob/release-v2.5.0/contracts/crowdsale/Crowdsale.sol\":4130:4173  uint256 tokens = _getTokenAmount(weiAmount) */\n          swap1\n          pop\n            /* \"https://github.com/OpenZeppelin/openzeppelin-contracts/blob/release-v2.5.0/contracts/crowdsale/Crowdsale.sol\":4221:4246  _weiRaised.add(weiAmount) */\n          tag_35\n            /* \"https://github.com/OpenZeppelin/openzeppelin-contracts/blob/release-v2.5.0/contracts/crowdsale/Crowdsale.sol\":4236:4245  weiAmount */\n          dup3\n            /* \"https://github.com/OpenZeppelin/openzeppelin-contracts/blob/release-v2.5.0/contracts/crowdsale/Crowdsale.sol\":4221:4231  _weiRaised */\n          sload(0x03)\n            /* \"https://github.com/OpenZeppelin/openzeppelin-contracts/blob/release-v2.5.0/contracts/crowdsale/Crowdsale.sol\":4221:4235  _weiRaised.add */\n          tag_36\n          swap1\n            /* \"https://github.com/OpenZeppelin/openzeppelin-contracts/blob/release-v2.5.0/contracts/crowdsale/Crowdsale.sol\":4221:4246  _weiRaised.add(weiAmount) */\n          swap2\n          swap1\n          0xffffffff\n          and\n          jump\t// in\n        tag_35:\n            /* \"https://github.com/OpenZeppelin/openzeppelin-contracts/blob/release-v2.5.0/contracts/crowdsale/Crowdsale.sol\":4208:4218  _weiRaised */\n          0x03\n            /* \"https://github.com/OpenZeppelin/openzeppelin-contracts/blob/release-v2.5.0/contracts/crowdsale/Crowdsale.sol\":4208:4246  _weiRaised = _weiRaised.add(weiAmount) */\n          dup2\n          swap1\n          sstore\n          pop\n            /* \"https://github.com/OpenZeppelin/openzeppelin-contracts/blob/release-v2.5.0/contracts/crowdsale/Crowdsale.sol\":4257:4294  _processPurchase(beneficiary, tokens) */\n          tag_37\n            /* \"https://github.com/OpenZeppelin/openzeppelin-contracts/blob/release-v2.5.0/contracts/crowdsale/Crowdsale.sol\":4274:4285  beneficiary */\n          dup4\n            /* \"https://github.com/OpenZeppelin/openzeppelin-contracts/blob/release-v2.5.0/contracts/crowdsale/Crowdsale.sol\":4287:4293  tokens */\n          dup3\n            /* \"https://github.com/OpenZeppelin/openzeppelin-contracts/blob/release-v2.5.0/contracts/crowdsale/Crowdsale.sol\":4257:4273  _processPurchase */\n          tag_38\n            /* \"https://github.com/OpenZeppelin/openzeppelin-contracts/blob/release-v2.5.0/contracts/crowdsale/Crowdsale.sol\":4257:4294  _processPurchase(beneficiary, tokens) */\n          jump\t// in\n        tag_37:\n            /* \"https://github.com/OpenZeppelin/openzeppelin-contracts/blob/release-v2.5.0/contracts/crowdsale/Crowdsale.sol\":4339:4350  beneficiary */\n          dup3\n            /* \"https://github.com/OpenZeppelin/openzeppelin-contracts/blob/release-v2.5.0/contracts/crowdsale/Crowdsale.sol\":4309:4370  TokensPurchased(_msgSender(), beneficiary, weiAmount, tokens) */\n          0xffffffffffffffffffffffffffffffffffffffff\n          and\n            /* \"https://github.com/OpenZeppelin/openzeppelin-contracts/blob/release-v2.5.0/contracts/crowdsale/Crowdsale.sol\":4325:4337  _msgSender() */\n          tag_39\n            /* \"https://github.com/OpenZeppelin/openzeppelin-contracts/blob/release-v2.5.0/contracts/crowdsale/Crowdsale.sol\":4325:4335  _msgSender */\n          tag_11\n            /* \"https://github.com/OpenZeppelin/openzeppelin-contracts/blob/release-v2.5.0/contracts/crowdsale/Crowdsale.sol\":4325:4337  _msgSender() */\n          jump\t// in\n        tag_39:\n            /* \"https://github.com/OpenZeppelin/openzeppelin-contracts/blob/release-v2.5.0/contracts/crowdsale/Crowdsale.sol\":4309:4370  TokensPurchased(_msgSender(), beneficiary, weiAmount, tokens) */\n          0xffffffffffffffffffffffffffffffffffffffff\n          and\n          0x6faf93231a456e552dbc9961f58d9713ee4f2e69d15f1975b050ef0911053a7b\n            /* \"https://github.com/OpenZeppelin/openzeppelin-contracts/blob/release-v2.5.0/contracts/crowdsale/Crowdsale.sol\":4352:4361  weiAmount */\n          dup5\n            /* \"https://github.com/OpenZeppelin/openzeppelin-contracts/blob/release-v2.5.0/contracts/crowdsale/Crowdsale.sol\":4363:4369  tokens */\n          dup5\n            /* \"https://github.com/OpenZeppelin/openzeppelin-contracts/blob/release-v2.5.0/contracts/crowdsale/Crowdsale.sol\":4309:4370  TokensPurchased(_msgSender(), beneficiary, weiAmount, tokens) */\n          mload(0x40)\n          dup1\n          dup4\n          dup2\n          mstore\n          0x20\n          add\n          dup3\n          dup2\n          mstore\n          0x20\n          add\n          swap3\n          pop\n          pop\n          pop\n          mload(0x40)\n          dup1\n          swap2\n          sub\n          swap1\n          log3\n            /* \"https://github.com/OpenZeppelin/openzeppelin-contracts/blob/release-v2.5.0/contracts/crowdsale/Crowdsale.sol\":4381:4427  _updatePurchasingState(beneficiary, weiAmount) */\n          tag_40\n            /* \"https://github.com/OpenZeppelin/openzeppelin-contracts/blob/release-v2.5.0/contracts/crowdsale/Crowdsale.sol\":4404:4415  beneficiary */\n          dup4\n            /* \"https://github.com/OpenZeppelin/openzeppelin-contracts/blob/release-v2.5.0/contracts/crowdsale/Crowdsale.sol\":4417:4426  weiAmount */\n          dup4\n            /* \"https://github.com/OpenZeppelin/openzeppelin-contracts/blob/release-v2.5.0/contracts/crowdsale/Crowdsale.sol\":4381:4403  _updatePurchasingState */\n          tag_41\n            /* \"https://github.com/OpenZeppelin/openzeppelin-contracts/blob/release-v2.5.0/contracts/crowdsale/Crowdsale.sol\":4381:4427  _updatePurchasingState(beneficiary, weiAmount) */\n          jump\t// in\n        tag_40:\n            /* \"https://github.com/OpenZeppelin/openzeppelin-contracts/blob/release-v2.5.0/contracts/crowdsale/Crowdsale.sol\":4438:4453  _forwardFunds() */\n          tag_42\n            /* \"https://github.com/OpenZeppelin/openzeppelin-contracts/blob/release-v2.5.0/contracts/crowdsale/Crowdsale.sol\":4438:4451  _forwardFunds */\n          tag_43\n            /* \"https://github.com/OpenZeppelin/openzeppelin-contracts/blob/release-v2.5.0/contracts/crowdsale/Crowdsale.sol\":4438:4453  _forwardFunds() */\n          jump\t// in\n        tag_42:\n            /* \"https://github.com/OpenZeppelin/openzeppelin-contracts/blob/release-v2.5.0/contracts/crowdsale/Crowdsale.sol\":4463:4508  _postValidatePurchase(beneficiary, weiAmount) */\n          tag_44\n            /* \"https://github.com/OpenZeppelin/openzeppelin-contracts/blob/release-v2.5.0/contracts/crowdsale/Crowdsale.sol\":4485:4496  beneficiary */\n          dup4\n            /* \"https://github.com/OpenZeppelin/openzeppelin-contracts/blob/release-v2.5.0/contracts/crowdsale/Crowdsale.sol\":4498:4507  weiAmount */\n          dup4\n            /* \"https://github.com/OpenZeppelin/openzeppelin-contracts/blob/release-v2.5.0/contracts/crowdsale/Crowdsale.sol\":4463:4484  _postValidatePurchase */\n          tag_45\n            /* \"https://github.com/OpenZeppelin/openzeppelin-contracts/blob/release-v2.5.0/contracts/crowdsale/Crowdsale.sol\":4463:4508  _postValidatePurchase(beneficiary, weiAmount) */\n          jump\t// in\n        tag_44:\n            /* \"https://github.com/OpenZeppelin/openzeppelin-contracts/blob/release-v2.5.0/contracts/utils/ReentrancyGuard.sol\":2086:2087  _ */\n          pop\n          pop\n            /* \"https://github.com/OpenZeppelin/openzeppelin-contracts/blob/release-v2.5.0/contracts/utils/ReentrancyGuard.sol\":2244:2248  true */\n          0x01\n            /* \"https://github.com/OpenZeppelin/openzeppelin-contracts/blob/release-v2.5.0/contracts/utils/ReentrancyGuard.sol\":2230:2241  _notEntered */\n          0x00\n          dup1\n            /* \"https://github.com/OpenZeppelin/openzeppelin-contracts/blob/release-v2.5.0/contracts/utils/ReentrancyGuard.sol\":2230:2248  _notEntered = true */\n          0x0100\n          exp\n          dup2\n          sload\n          dup2\n          0xff\n          mul\n          not\n          and\n          swap1\n          dup4\n          iszero\n          iszero\n          mul\n          or\n          swap1\n          sstore\n          pop\n            /* \"https://github.com/OpenZeppelin/openzeppelin-contracts/blob/release-v2.5.0/contracts/crowdsale/Crowdsale.sol\":3910:4515  function buyTokens(address beneficiary) public nonReentrant payable {... */\n          pop\n          jump\t// out\n            /* \"https://github.com/OpenZeppelin/openzeppelin-contracts/blob/release-v2.5.0/contracts/crowdsale/Crowdsale.sol\":3430:3505  function rate() public view returns (uint256) {... */\n        tag_15:\n            /* \"https://github.com/OpenZeppelin/openzeppelin-contracts/blob/release-v2.5.0/contracts/crowdsale/Crowdsale.sol\":3467:3474  uint256 */\n          0x00\n            /* \"https://github.com/OpenZeppelin/openzeppelin-contracts/blob/release-v2.5.0/contracts/crowdsale/Crowdsale.sol\":3493:3498  _rate */\n          sload(0x02)\n            /* \"https://github.com/OpenZeppelin/openzeppelin-contracts/blob/release-v2.5.0/contracts/crowdsale/Crowdsale.sol\":3486:3498  return _rate */\n          swap1\n          pop\n            /* \"https://github.com/OpenZeppelin/openzeppelin-contracts/blob/release-v2.5.0/contracts/crowdsale/Crowdsale.sol\":3430:3505  function rate() public view returns (uint256) {... */\n          swap1\n          jump\t// out\n            /* \"https://github.com/OpenZeppelin/openzeppelin-contracts/blob/release-v2.5.0/contracts/crowdsale/Crowdsale.sol\":3568:3653  function weiRaised() public view returns (uint256) {... */\n        tag_18:\n            /* \"https://github.com/OpenZeppelin/openzeppelin-contracts/blob/release-v2.5.0/contracts/crowdsale/Crowdsale.sol\":3610:3617  uint256 */\n          0x00\n            /* \"https://github.com/OpenZeppelin/openzeppelin-contracts/blob/release-v2.5.0/contracts/crowdsale/Crowdsale.sol\":3636:3646  _weiRaised */\n          sload(0x03)\n            /* \"https://github.com/OpenZeppelin/openzeppelin-contracts/blob/release-v2.5.0/contracts/crowdsale/Crowdsale.sol\":3629:3646  return _weiRaised */\n          swap1\n          pop\n            /* \"https://github.com/OpenZeppelin/openzeppelin-contracts/blob/release-v2.5.0/contracts/crowdsale/Crowdsale.sol\":3568:3653  function weiRaised() public view returns (uint256) {... */\n          swap1\n          jump\t// out\n            /* \"https://github.com/OpenZeppelin/openzeppelin-contracts/blob/release-v2.5.0/contracts/crowdsale/Crowdsale.sol\":3258:3345  function wallet() public view returns (address payable) {... */\n        tag_21:\n            /* \"https://github.com/OpenZeppelin/openzeppelin-contracts/blob/release-v2.5.0/contracts/crowdsale/Crowdsale.sol\":3297:3312  address payable */\n          0x00\n            /* \"https://github.com/OpenZeppelin/openzeppelin-contracts/blob/release-v2.5.0/contracts/crowdsale/Crowdsale.sol\":3331:3338  _wallet */\n          0x01\n          0x00\n          swap1\n          sload\n          swap1\n          0x0100\n          exp\n          swap1\n          div\n          0xffffffffffffffffffffffffffffffffffffffff\n          and\n            /* \"https://github.com/OpenZeppelin/openzeppelin-contracts/blob/release-v2.5.0/contracts/crowdsale/Crowdsale.sol\":3324:3338  return _wallet */\n          swap1\n          pop\n            /* \"https://github.com/OpenZeppelin/openzeppelin-contracts/blob/release-v2.5.0/contracts/crowdsale/Crowdsale.sol\":3258:3345  function wallet() public view returns (address payable) {... */\n          swap1\n          jump\t// out\n            /* \"https://github.com/OpenZeppelin/openzeppelin-contracts/blob/release-v2.5.0/contracts/crowdsale/Crowdsale.sol\":3106:3182  function token() public view returns (IERC20) {... */\n        tag_26:\n            /* \"https://github.com/OpenZeppelin/openzeppelin-contracts/blob/release-v2.5.0/contracts/crowdsale/Crowdsale.sol\":3144:3150  IERC20 */\n          0x00\n            /* \"https://github.com/OpenZeppelin/openzeppelin-contracts/blob/release-v2.5.0/contracts/crowdsale/Crowdsale.sol\":3169:3175  _token */\n          dup1\n          0x01\n          swap1\n          sload\n          swap1\n          0x0100\n          exp\n          swap1\n          div\n          0xffffffffffffffffffffffffffffffffffffffff\n          and\n            /* \"https://github.com/OpenZeppelin/openzeppelin-contracts/blob/release-v2.5.0/contracts/crowdsale/Crowdsale.sol\":3162:3175  return _token */\n          swap1\n          pop\n            /* \"https://github.com/OpenZeppelin/openzeppelin-contracts/blob/release-v2.5.0/contracts/crowdsale/Crowdsale.sol\":3106:3182  function token() public view returns (IERC20) {... */\n          swap1\n          jump\t// out\n            /* \"https://github.com/OpenZeppelin/openzeppelin-contracts/blob/release-v2.5.0/contracts/crowdsale/Crowdsale.sol\":5057:5433  function _preValidatePurchase(address beneficiary, uint256 weiAmount) internal view {... */\n        tag_32:\n            /* \"https://github.com/OpenZeppelin/openzeppelin-contracts/blob/release-v2.5.0/contracts/crowdsale/Crowdsale.sol\":5182:5183  0 */\n          0x00\n            /* \"https://github.com/OpenZeppelin/openzeppelin-contracts/blob/release-v2.5.0/contracts/crowdsale/Crowdsale.sol\":5159:5184  beneficiary != address(0) */\n          0xffffffffffffffffffffffffffffffffffffffff\n          and\n            /* \"https://github.com/OpenZeppelin/openzeppelin-contracts/blob/release-v2.5.0/contracts/crowdsale/Crowdsale.sol\":5159:5170  beneficiary */\n          dup3\n            /* \"https://github.com/OpenZeppelin/openzeppelin-contracts/blob/release-v2.5.0/contracts/crowdsale/Crowdsale.sol\":5159:5184  beneficiary != address(0) */\n          0xffffffffffffffffffffffffffffffffffffffff\n          and\n          eq\n          iszero\n            /* \"https://github.com/OpenZeppelin/openzeppelin-contracts/blob/release-v2.5.0/contracts/crowdsale/Crowdsale.sol\":5151:5231  require(beneficiary != address(0), \"Crowdsale: beneficiary is the zero address\") */\n          tag_51\n          jumpi\n          mload(0x40)\n          0x08c379a000000000000000000000000000000000000000000000000000000000\n          dup2\n          mstore\n          0x04\n          add\n          dup1\n          dup1\n          0x20\n          add\n          dup3\n          dup2\n          sub\n          dup3\n          mstore\n          0x2a\n          dup2\n          mstore\n          0x20\n          add\n          dup1\n          data_b9d4bce01fb5c20cfa41c5b334ad79fcf3774809b1388b0603f3dcd505be7d6e\n          0x2a\n          swap2\n          codecopy\n          0x40\n          add\n          swap2\n          pop\n          pop\n          mload(0x40)\n          dup1\n          swap2\n          sub\n          swap1\n          revert\n        tag_51:\n            /* \"https://github.com/OpenZeppelin/openzeppelin-contracts/blob/release-v2.5.0/contracts/crowdsale/Crowdsale.sol\":5262:5263  0 */\n          0x00\n            /* \"https://github.com/OpenZeppelin/openzeppelin-contracts/blob/release-v2.5.0/contracts/crowdsale/Crowdsale.sol\":5249:5258  weiAmount */\n          dup2\n            /* \"https://github.com/OpenZeppelin/openzeppelin-contracts/blob/release-v2.5.0/contracts/crowdsale/Crowdsale.sol\":5249:5263  weiAmount != 0 */\n          eq\n          iszero\n            /* \"https://github.com/OpenZeppelin/openzeppelin-contracts/blob/release-v2.5.0/contracts/crowdsale/Crowdsale.sol\":5241:5293  require(weiAmount != 0, \"Crowdsale: weiAmount is 0\") */\n          tag_52\n          jumpi\n          mload(0x40)\n          0x08c379a000000000000000000000000000000000000000000000000000000000\n          dup2\n          mstore\n          0x04\n          add\n          dup1\n          dup1\n          0x20\n          add\n          dup3\n          dup2\n          sub\n          dup3\n          mstore\n          0x19\n          dup2\n          mstore\n          0x20\n          add\n          dup1\n          0x43726f776473616c653a20776569416d6f756e74206973203000000000000000\n          dup2\n          mstore\n          pop\n          0x20\n          add\n          swap2\n          pop\n          pop\n          mload(0x40)\n          dup1\n          swap2\n          sub\n          swap1\n          revert\n        tag_52:\n            /* \"https://github.com/OpenZeppelin/openzeppelin-contracts/blob/release-v2.5.0/contracts/crowdsale/Crowdsale.sol\":5057:5433  function _preValidatePurchase(address beneficiary, uint256 weiAmount) internal view {... */\n          pop\n          pop\n          jump\t// out\n            /* \"https://github.com/OpenZeppelin/openzeppelin-contracts/blob/release-v2.5.0/contracts/crowdsale/Crowdsale.sol\":7358:7478  function _getTokenAmount(uint256 weiAmount) internal view returns (uint256) {... */\n        tag_34:\n            /* \"https://github.com/OpenZeppelin/openzeppelin-contracts/blob/release-v2.5.0/contracts/crowdsale/Crowdsale.sol\":7425:7432  uint256 */\n          0x00\n            /* \"https://github.com/OpenZeppelin/openzeppelin-contracts/blob/release-v2.5.0/contracts/crowdsale/Crowdsale.sol\":7451:7471  weiAmount.mul(_rate) */\n          tag_54\n            /* \"https://github.com/OpenZeppelin/openzeppelin-contracts/blob/release-v2.5.0/contracts/crowdsale/Crowdsale.sol\":7465:7470  _rate */\n          sload(0x02)\n            /* \"https://github.com/OpenZeppelin/openzeppelin-contracts/blob/release-v2.5.0/contracts/crowdsale/Crowdsale.sol\":7451:7460  weiAmount */\n          dup4\n            /* \"https://github.com/OpenZeppelin/openzeppelin-contracts/blob/release-v2.5.0/contracts/crowdsale/Crowdsale.sol\":7451:7464  weiAmount.mul */\n          tag_55\n          swap1\n            /* \"https://github.com/OpenZeppelin/openzeppelin-contracts/blob/release-v2.5.0/contracts/crowdsale/Crowdsale.sol\":7451:7471  weiAmount.mul(_rate) */\n          swap2\n          swap1\n          0xffffffff\n          and\n          jump\t// in\n        tag_54:\n            /* \"https://github.com/OpenZeppelin/openzeppelin-contracts/blob/release-v2.5.0/contracts/crowdsale/Crowdsale.sol\":7444:7471  return weiAmount.mul(_rate) */\n          swap1\n          pop\n            /* \"https://github.com/OpenZeppelin/openzeppelin-contracts/blob/release-v2.5.0/contracts/crowdsale/Crowdsale.sol\":7358:7478  function _getTokenAmount(uint256 weiAmount) internal view returns (uint256) {... */\n          swap2\n          swap1\n          pop\n          jump\t// out\n            /* \"https://github.com/OpenZeppelin/openzeppelin-contracts/blob/release-v2.5.0/contracts/math/SafeMath.sol\":834:1010  function add(uint256 a, uint256 b) internal pure returns (uint256) {... */\n        tag_36:\n            /* \"https://github.com/OpenZeppelin/openzeppelin-contracts/blob/release-v2.5.0/contracts/math/SafeMath.sol\":892:899  uint256 */\n          0x00\n            /* \"https://github.com/OpenZeppelin/openzeppelin-contracts/blob/release-v2.5.0/contracts/math/SafeMath.sol\":911:920  uint256 c */\n          dup1\n            /* \"https://github.com/OpenZeppelin/openzeppelin-contracts/blob/release-v2.5.0/contracts/math/SafeMath.sol\":927:928  b */\n          dup3\n            /* \"https://github.com/OpenZeppelin/openzeppelin-contracts/blob/release-v2.5.0/contracts/math/SafeMath.sol\":923:924  a */\n          dup5\n            /* \"https://github.com/OpenZeppelin/openzeppelin-contracts/blob/release-v2.5.0/contracts/math/SafeMath.sol\":923:928  a + b */\n          add\n            /* \"https://github.com/OpenZeppelin/openzeppelin-contracts/blob/release-v2.5.0/contracts/math/SafeMath.sol\":911:928  uint256 c = a + b */\n          swap1\n          pop\n            /* \"https://github.com/OpenZeppelin/openzeppelin-contracts/blob/release-v2.5.0/contracts/math/SafeMath.sol\":951:952  a */\n          dup4\n            /* \"https://github.com/OpenZeppelin/openzeppelin-contracts/blob/release-v2.5.0/contracts/math/SafeMath.sol\":946:947  c */\n          dup2\n            /* \"https://github.com/OpenZeppelin/openzeppelin-contracts/blob/release-v2.5.0/contracts/math/SafeMath.sol\":946:952  c >= a */\n          lt\n          iszero\n            /* \"https://github.com/OpenZeppelin/openzeppelin-contracts/blob/release-v2.5.0/contracts/math/SafeMath.sol\":938:984  require(c >= a, \"SafeMath: addition overflow\") */\n          tag_57\n          jumpi\n          mload(0x40)\n          0x08c379a000000000000000000000000000000000000000000000000000000000\n          dup2\n          mstore\n          0x04\n          add\n          dup1\n          dup1\n          0x20\n          add\n          dup3\n          dup2\n          sub\n          dup3\n          mstore\n          0x1b\n          dup2\n          mstore\n          0x20\n          add\n          dup1\n          0x536166654d6174683a206164646974696f6e206f766572666c6f770000000000\n          dup2\n          mstore\n          pop\n          0x20\n          add\n          swap2\n          pop\n          pop\n          mload(0x40)\n          dup1\n          swap2\n          sub\n          swap1\n          revert\n        tag_57:\n            /* \"https://github.com/OpenZeppelin/openzeppelin-contracts/blob/release-v2.5.0/contracts/math/SafeMath.sol\":1002:1003  c */\n          dup1\n            /* \"https://github.com/OpenZeppelin/openzeppelin-contracts/blob/release-v2.5.0/contracts/math/SafeMath.sol\":995:1003  return c */\n          swap2\n          pop\n          pop\n            /* \"https://github.com/OpenZeppelin/openzeppelin-contracts/blob/release-v2.5.0/contracts/math/SafeMath.sol\":834:1010  function add(uint256 a, uint256 b) internal pure returns (uint256) {... */\n          swap3\n          swap2\n          pop\n          pop\n          jump\t// out\n            /* \"https://github.com/OpenZeppelin/openzeppelin-contracts/blob/release-v2.5.0/contracts/crowdsale/Crowdsale.sol\":6560:6694  function _processPurchase(address beneficiary, uint256 tokenAmount) internal {... */\n        tag_38:\n            /* \"https://github.com/OpenZeppelin/openzeppelin-contracts/blob/release-v2.5.0/contracts/crowdsale/Crowdsale.sol\":6647:6687  _deliverTokens(beneficiary, tokenAmount) */\n          tag_59\n            /* \"https://github.com/OpenZeppelin/openzeppelin-contracts/blob/release-v2.5.0/contracts/crowdsale/Crowdsale.sol\":6662:6673  beneficiary */\n          dup3\n            /* \"https://github.com/OpenZeppelin/openzeppelin-contracts/blob/release-v2.5.0/contracts/crowdsale/Crowdsale.sol\":6675:6686  tokenAmount */\n          dup3\n            /* \"https://github.com/OpenZeppelin/openzeppelin-contracts/blob/release-v2.5.0/contracts/crowdsale/Crowdsale.sol\":6647:6661  _deliverTokens */\n          tag_60\n            /* \"https://github.com/OpenZeppelin/openzeppelin-contracts/blob/release-v2.5.0/contracts/crowdsale/Crowdsale.sol\":6647:6687  _deliverTokens(beneficiary, tokenAmount) */\n          jump\t// in\n        tag_59:\n            /* \"https://github.com/OpenZeppelin/openzeppelin-contracts/blob/release-v2.5.0/contracts/crowdsale/Crowdsale.sol\":6560:6694  function _processPurchase(address beneficiary, uint256 tokenAmount) internal {... */\n          pop\n          pop\n          jump\t// out\n            /* \"https://github.com/OpenZeppelin/openzeppelin-contracts/blob/release-v2.5.0/contracts/crowdsale/Crowdsale.sol\":6964:7109  function _updatePurchasingState(address beneficiary, uint256 weiAmount) internal {... */\n        tag_41:\n          pop\n          pop\n          jump\t// out\n            /* \"https://github.com/OpenZeppelin/openzeppelin-contracts/blob/release-v2.5.0/contracts/crowdsale/Crowdsale.sol\":7565:7643  function _forwardFunds() internal {... */\n        tag_43:\n            /* \"https://github.com/OpenZeppelin/openzeppelin-contracts/blob/release-v2.5.0/contracts/crowdsale/Crowdsale.sol\":7609:7616  _wallet */\n          0x01\n          0x00\n          swap1\n          sload\n          swap1\n          0x0100\n          exp\n          swap1\n          div\n          0xffffffffffffffffffffffffffffffffffffffff\n          and\n            /* \"https://github.com/OpenZeppelin/openzeppelin-contracts/blob/release-v2.5.0/contracts/crowdsale/Crowdsale.sol\":7609:7625  _wallet.transfer */\n          0xffffffffffffffffffffffffffffffffffffffff\n          and\n            /* \"https://github.com/OpenZeppelin/openzeppelin-contracts/blob/release-v2.5.0/contracts/crowdsale/Crowdsale.sol\":7609:7636  _wallet.transfer(msg.value) */\n          0x08fc\n            /* \"https://github.com/OpenZeppelin/openzeppelin-contracts/blob/release-v2.5.0/contracts/crowdsale/Crowdsale.sol\":7626:7635  msg.value */\n          callvalue\n            /* \"https://github.com/OpenZeppelin/openzeppelin-contracts/blob/release-v2.5.0/contracts/crowdsale/Crowdsale.sol\":7609:7636  _wallet.transfer(msg.value) */\n          swap1\n          dup2\n          iszero\n          mul\n          swap1\n          mload(0x40)\n          0x00\n          mload(0x40)\n          dup1\n          dup4\n          sub\n          dup2\n          dup6\n          dup9\n          dup9\n          call\n          swap4\n          pop\n          pop\n          pop\n          pop\n          iszero\n            /* \"--CODEGEN--\":8:17   */\n          dup1\n            /* \"--CODEGEN--\":5:7   */\n          iszero\n          tag_63\n          jumpi\n            /* \"--CODEGEN--\":45:61   */\n          returndatasize\n            /* \"--CODEGEN--\":42:43   */\n          0x00\n            /* \"--CODEGEN--\":39:40   */\n          dup1\n            /* \"--CODEGEN--\":24:62   */\n          returndatacopy\n            /* \"--CODEGEN--\":77:93   */\n          returndatasize\n            /* \"--CODEGEN--\":74:75   */\n          0x00\n            /* \"--CODEGEN--\":67:94   */\n          revert\n            /* \"--CODEGEN--\":5:7   */\n        tag_63:\n            /* \"https://github.com/OpenZeppelin/openzeppelin-contracts/blob/release-v2.5.0/contracts/crowdsale/Crowdsale.sol\":7609:7636  _wallet.transfer(msg.value) */\n          pop\n            /* \"https://github.com/OpenZeppelin/openzeppelin-contracts/blob/release-v2.5.0/contracts/crowdsale/Crowdsale.sol\":7565:7643  function _forwardFunds() internal {... */\n          jump\t// out\n            /* \"https://github.com/OpenZeppelin/openzeppelin-contracts/blob/release-v2.5.0/contracts/crowdsale/Crowdsale.sol\":5728:5877  function _postValidatePurchase(address beneficiary, uint256 weiAmount) internal view {... */\n        tag_45:\n          pop\n          pop\n          jump\t// out\n            /* \"https://github.com/OpenZeppelin/openzeppelin-contracts/blob/release-v2.5.0/contracts/math/SafeMath.sol\":2159:2618  function mul(uint256 a, uint256 b) internal pure returns (uint256) {... */\n        tag_55:\n            /* \"https://github.com/OpenZeppelin/openzeppelin-contracts/blob/release-v2.5.0/contracts/math/SafeMath.sol\":2217:2224  uint256 */\n          0x00\n            /* \"https://github.com/OpenZeppelin/openzeppelin-contracts/blob/release-v2.5.0/contracts/math/SafeMath.sol\":2463:2464  0 */\n          dup1\n            /* \"https://github.com/OpenZeppelin/openzeppelin-contracts/blob/release-v2.5.0/contracts/math/SafeMath.sol\":2458:2459  a */\n          dup4\n            /* \"https://github.com/OpenZeppelin/openzeppelin-contracts/blob/release-v2.5.0/contracts/math/SafeMath.sol\":2458:2464  a == 0 */\n          eq\n            /* \"https://github.com/OpenZeppelin/openzeppelin-contracts/blob/release-v2.5.0/contracts/math/SafeMath.sol\":2454:2499  if (a == 0) {... */\n          iszero\n          tag_66\n          jumpi\n            /* \"https://github.com/OpenZeppelin/openzeppelin-contracts/blob/release-v2.5.0/contracts/math/SafeMath.sol\":2487:2488  0 */\n          0x00\n            /* \"https://github.com/OpenZeppelin/openzeppelin-contracts/blob/release-v2.5.0/contracts/math/SafeMath.sol\":2480:2488  return 0 */\n          swap1\n          pop\n          jump(tag_65)\n            /* \"https://github.com/OpenZeppelin/openzeppelin-contracts/blob/release-v2.5.0/contracts/math/SafeMath.sol\":2454:2499  if (a == 0) {... */\n        tag_66:\n            /* \"https://github.com/OpenZeppelin/openzeppelin-contracts/blob/release-v2.5.0/contracts/math/SafeMath.sol\":2509:2518  uint256 c */\n          0x00\n            /* \"https://github.com/OpenZeppelin/openzeppelin-contracts/blob/release-v2.5.0/contracts/math/SafeMath.sol\":2525:2526  b */\n          dup3\n            /* \"https://github.com/OpenZeppelin/openzeppelin-contracts/blob/release-v2.5.0/contracts/math/SafeMath.sol\":2521:2522  a */\n          dup5\n            /* \"https://github.com/OpenZeppelin/openzeppelin-contracts/blob/release-v2.5.0/contracts/math/SafeMath.sol\":2521:2526  a * b */\n          mul\n            /* \"https://github.com/OpenZeppelin/openzeppelin-contracts/blob/release-v2.5.0/contracts/math/SafeMath.sol\":2509:2526  uint256 c = a * b */\n          swap1\n          pop\n            /* \"https://github.com/OpenZeppelin/openzeppelin-contracts/blob/release-v2.5.0/contracts/math/SafeMath.sol\":2553:2554  b */\n          dup3\n            /* \"https://github.com/OpenZeppelin/openzeppelin-contracts/blob/release-v2.5.0/contracts/math/SafeMath.sol\":2548:2549  a */\n          dup5\n            /* \"https://github.com/OpenZeppelin/openzeppelin-contracts/blob/release-v2.5.0/contracts/math/SafeMath.sol\":2544:2545  c */\n          dup3\n            /* \"https://github.com/OpenZeppelin/openzeppelin-contracts/blob/release-v2.5.0/contracts/math/SafeMath.sol\":2544:2549  c / a */\n          dup2\n          tag_67\n          jumpi\n          invalid\n        tag_67:\n          div\n            /* \"https://github.com/OpenZeppelin/openzeppelin-contracts/blob/release-v2.5.0/contracts/math/SafeMath.sol\":2544:2554  c / a == b */\n          eq\n            /* \"https://github.com/OpenZeppelin/openzeppelin-contracts/blob/release-v2.5.0/contracts/math/SafeMath.sol\":2536:2592  require(c / a == b, \"SafeMath: multiplication overflow\") */\n          tag_68\n          jumpi\n          mload(0x40)\n          0x08c379a000000000000000000000000000000000000000000000000000000000\n          dup2\n          mstore\n          0x04\n          add\n          dup1\n          dup1\n          0x20\n          add\n          dup3\n          dup2\n          sub\n          dup3\n          mstore\n          0x21\n          dup2\n          mstore\n          0x20\n          add\n          dup1\n          data_9113bb53c2876a3805b2c9242029423fc540a728243ce887ab24c82cf119fba3\n          0x21\n          swap2\n          codecopy\n          0x40\n          add\n          swap2\n          pop\n          pop\n          mload(0x40)\n          dup1\n          swap2\n          sub\n          swap1\n          revert\n        tag_68:\n            /* \"https://github.com/OpenZeppelin/openzeppelin-contracts/blob/release-v2.5.0/contracts/math/SafeMath.sol\":2610:2611  c */\n          dup1\n            /* \"https://github.com/OpenZeppelin/openzeppelin-contracts/blob/release-v2.5.0/contracts/math/SafeMath.sol\":2603:2611  return c */\n          swap2\n          pop\n          pop\n            /* \"https://github.com/OpenZeppelin/openzeppelin-contracts/blob/release-v2.5.0/contracts/math/SafeMath.sol\":2159:2618  function mul(uint256 a, uint256 b) internal pure returns (uint256) {... */\n        tag_65:\n          swap3\n          swap2\n          pop\n          pop\n          jump\t// out\n            /* \"https://github.com/OpenZeppelin/openzeppelin-contracts/blob/release-v2.5.0/contracts/crowdsale/emission/MintedCrowdsale.sol\":510:819  function _deliverTokens(address beneficiary, uint256 tokenAmount) internal {... */\n        tag_60:\n            /* \"https://github.com/OpenZeppelin/openzeppelin-contracts/blob/release-v2.5.0/contracts/crowdsale/emission/MintedCrowdsale.sol\":711:718  token() */\n          tag_70\n            /* \"https://github.com/OpenZeppelin/openzeppelin-contracts/blob/release-v2.5.0/contracts/crowdsale/emission/MintedCrowdsale.sol\":711:716  token */\n          tag_26\n            /* \"https://github.com/OpenZeppelin/openzeppelin-contracts/blob/release-v2.5.0/contracts/crowdsale/emission/MintedCrowdsale.sol\":711:718  token() */\n          jump\t// in\n        tag_70:\n            /* \"https://github.com/OpenZeppelin/openzeppelin-contracts/blob/release-v2.5.0/contracts/crowdsale/emission/MintedCrowdsale.sol\":689:725  ERC20Mintable(address(token())).mint */\n          0xffffffffffffffffffffffffffffffffffffffff\n          and\n          0x40c10f19\n            /* \"https://github.com/OpenZeppelin/openzeppelin-contracts/blob/release-v2.5.0/contracts/crowdsale/emission/MintedCrowdsale.sol\":726:737  beneficiary */\n          dup4\n            /* \"https://github.com/OpenZeppelin/openzeppelin-contracts/blob/release-v2.5.0/contracts/crowdsale/emission/MintedCrowdsale.sol\":739:750  tokenAmount */\n          dup4\n            /* \"https://github.com/OpenZeppelin/openzeppelin-contracts/blob/release-v2.5.0/contracts/crowdsale/emission/MintedCrowdsale.sol\":689:751  ERC20Mintable(address(token())).mint(beneficiary, tokenAmount) */\n          mload(0x40)\n          dup4\n          0xffffffff\n          and\n          0xe0\n          shl\n          dup2\n          mstore\n          0x04\n          add\n          dup1\n          dup4\n          0xffffffffffffffffffffffffffffffffffffffff\n          and\n          0xffffffffffffffffffffffffffffffffffffffff\n          and\n          dup2\n          mstore\n          0x20\n          add\n          dup3\n          dup2\n          mstore\n          0x20\n          add\n          swap3\n          pop\n          pop\n          pop\n          0x20\n          mload(0x40)\n          dup1\n          dup4\n          sub\n          dup2\n          0x00\n          dup8\n          dup1\n          extcodesize\n          iszero\n            /* \"--CODEGEN--\":8:17   */\n          dup1\n            /* \"--CODEGEN--\":5:7   */\n          iszero\n          tag_71\n          jumpi\n            /* \"--CODEGEN--\":30:31   */\n          0x00\n            /* \"--CODEGEN--\":27:28   */\n          dup1\n            /* \"--CODEGEN--\":20:32   */\n          revert\n            /* \"--CODEGEN--\":5:7   */\n        tag_71:\n            /* \"https://github.com/OpenZeppelin/openzeppelin-contracts/blob/release-v2.5.0/contracts/crowdsale/emission/MintedCrowdsale.sol\":689:751  ERC20Mintable(address(token())).mint(beneficiary, tokenAmount) */\n          pop\n          gas\n          call\n          iszero\n            /* \"--CODEGEN--\":8:17   */\n          dup1\n            /* \"--CODEGEN--\":5:7   */\n          iszero\n          tag_72\n          jumpi\n            /* \"--CODEGEN--\":45:61   */\n          returndatasize\n            /* \"--CODEGEN--\":42:43   */\n          0x00\n            /* \"--CODEGEN--\":39:40   */\n          dup1\n            /* \"--CODEGEN--\":24:62   */\n          returndatacopy\n            /* \"--CODEGEN--\":77:93   */\n          returndatasize\n            /* \"--CODEGEN--\":74:75   */\n          0x00\n            /* \"--CODEGEN--\":67:94   */\n          revert\n            /* \"--CODEGEN--\":5:7   */\n        tag_72:\n            /* \"https://github.com/OpenZeppelin/openzeppelin-contracts/blob/release-v2.5.0/contracts/crowdsale/emission/MintedCrowdsale.sol\":689:751  ERC20Mintable(address(token())).mint(beneficiary, tokenAmount) */\n          pop\n          pop\n          pop\n          pop\n          mload(0x40)\n          returndatasize\n            /* \"--CODEGEN--\":13:15   */\n          0x20\n            /* \"--CODEGEN--\":8:11   */\n          dup2\n            /* \"--CODEGEN--\":5:16   */\n          lt\n            /* \"--CODEGEN--\":2:4   */\n          iszero\n          tag_73\n          jumpi\n            /* \"--CODEGEN--\":29:30   */\n          0x00\n            /* \"--CODEGEN--\":26:27   */\n          dup1\n            /* \"--CODEGEN--\":19:31   */\n          revert\n            /* \"--CODEGEN--\":2:4   */\n        tag_73:\n            /* \"https://github.com/OpenZeppelin/openzeppelin-contracts/blob/release-v2.5.0/contracts/crowdsale/emission/MintedCrowdsale.sol\":689:751  ERC20Mintable(address(token())).mint(beneficiary, tokenAmount) */\n          dup2\n          add\n          swap1\n          dup1\n          dup1\n          mload\n          swap1\n          0x20\n          add\n          swap1\n          swap3\n          swap2\n          swap1\n          pop\n          pop\n          pop\n            /* \"https://github.com/OpenZeppelin/openzeppelin-contracts/blob/release-v2.5.0/contracts/crowdsale/emission/MintedCrowdsale.sol\":668:812  require(... */\n          tag_74\n          jumpi\n          mload(0x40)\n          0x08c379a000000000000000000000000000000000000000000000000000000000\n          dup2\n          mstore\n          0x04\n          add\n          dup1\n          dup1\n          0x20\n          add\n          dup3\n          dup2\n          sub\n          dup3\n          mstore\n          0x1f\n          dup2\n          mstore\n          0x20\n          add\n          dup1\n          0x4d696e74656443726f776473616c653a206d696e74696e67206661696c656400\n          dup2\n          mstore\n          pop\n          0x20\n          add\n          swap2\n          pop\n          pop\n          mload(0x40)\n          dup1\n          swap2\n          sub\n          swap1\n          revert\n        tag_74:\n            /* \"https://github.com/OpenZeppelin/openzeppelin-contracts/blob/release-v2.5.0/contracts/crowdsale/emission/MintedCrowdsale.sol\":510:819  function _deliverTokens(address beneficiary, uint256 tokenAmount) internal {... */\n          pop\n          pop\n          jump\t// out\n        stop\n        data_9113bb53c2876a3805b2c9242029423fc540a728243ce887ab24c82cf119fba3 536166654d6174683a206d756c7469706c69636174696f6e206f766572666c6f77\n        data_b9d4bce01fb5c20cfa41c5b334ad79fcf3774809b1388b0603f3dcd505be7d6e 43726f776473616c653a2062656e656669636961727920697320746865207a65726f2061646472657373\n\n        auxdata: 0xa265627a7a723158202c062fda0c0d1a5f618433146d74334c25bc2821d72a712da6d084275abbed1064736f6c63430005110032\n    }\n}\n",
				"bytecode": {
					"linkReferences": {},
					"object": "608060405234801561001057600080fd5b50604051620031a2380380620031a28339818101604052606081101561003557600080fd5b810190808051604051939291908464010000000082111561005557600080fd5b8382019150602082018581111561006b57600080fd5b825186600182028301116401000000008211171561008857600080fd5b8083526020830192505050908051906020019080838360005b838110156100bc5780820151818401526020810190506100a1565b50505050905090810190601f1680156100e95780820380516001836020036101000a031916815260200191505b506040526020018051604051939291908464010000000082111561010c57600080fd5b8382019150602082018581111561012257600080fd5b825186600182028301116401000000008211171561013f57600080fd5b8083526020830192505050908051906020019080838360005b83811015610173578082015181840152602081019050610158565b50505050905090810190601f1680156101a05780820380516001836020036101000a031916815260200191505b50604052602001805190602001909291905050506000838360006040516101c6906103f3565b808060200180602001848152602001838103835286818151815260200191508051906020019080838360005b8381101561020d5780820151818401526020810190506101f2565b50505050905090810190601f16801561023a5780820380516001836020036101000a031916815260200191505b50838103825285818151815260200191508051906020019080838360005b83811015610273578082015181840152602081019050610258565b50505050905090810190601f1680156102a05780820380516001836020036101000a031916815260200191505b5095505050505050604051809103906000f0801580156102c4573d6000803e3d6000fd5b509050806000806101000a81548173ffffffffffffffffffffffffffffffffffffffff021916908373ffffffffffffffffffffffffffffffffffffffff16021790555060006001838360405161031990610401565b808481526020018373ffffffffffffffffffffffffffffffffffffffff1673ffffffffffffffffffffffffffffffffffffffff1681526020018273ffffffffffffffffffffffffffffffffffffffff1673ffffffffffffffffffffffffffffffffffffffff1681526020019350505050604051809103906000f0801580156103a5573d6000803e3d6000fd5b50905080600160006101000a81548173ffffffffffffffffffffffffffffffffffffffff021916908373ffffffffffffffffffffffffffffffffffffffff160217905550505050505061040f565b61214b806200056e83390190565b610ae980620026b983390190565b61014f806200041f6000396000f3fe608060405234801561001057600080fd5b50600436106100365760003560e01c80630f0b46191461003b5780632ab6a2a114610085575b600080fd5b6100436100cf565b604051808273ffffffffffffffffffffffffffffffffffffffff1673ffffffffffffffffffffffffffffffffffffffff16815260200191505060405180910390f35b61008d6100f5565b604051808273ffffffffffffffffffffffffffffffffffffffff1673ffffffffffffffffffffffffffffffffffffffff16815260200191505060405180910390f35b600160009054906101000a900473ffffffffffffffffffffffffffffffffffffffff1681565b6000809054906101000a900473ffffffffffffffffffffffffffffffffffffffff168156fea265627a7a72315820f4d0dd843c6126d142b76423c1a66ddfdbf1a6922ab742eb42035b1e6c20526864736f6c6343000511003260806040523480156200001157600080fd5b506040516200214b3803806200214b833981810160405260608110156200003757600080fd5b81019080805160405193929190846401000000008211156200005857600080fd5b838201915060208201858111156200006f57600080fd5b82518660018202830111640100000000821117156200008d57600080fd5b8083526020830192505050908051906020019080838360005b83811015620000c3578082015181840152602081019050620000a6565b50505050905090810190601f168015620000f15780820380516001836020036101000a031916815260200191505b50604052602001805160405193929190846401000000008211156200011557600080fd5b838201915060208201858111156200012c57600080fd5b82518660018202830111640100000000821117156200014a57600080fd5b8083526020830192505050908051906020019080838360005b838110156200018057808201518184015260208101905062000163565b50505050905090810190601f168015620001ae5780820380516001836020036101000a031916815260200191505b5060405260200180519060200190929190505050828260128260039080519060200190620001de9291906200078b565b508160049080519060200190620001f79291906200078b565b5080600560006101000a81548160ff021916908360ff160217905550505050620002366200022a6200025260201b60201c565b6200025a60201b60201c565b620002483382620002bb60201b60201c565b505050506200083a565b600033905090565b620002758160066200035060201b6200156e1790919060201c565b8073ffffffffffffffffffffffffffffffffffffffff167f6ae172837ea30b801fbfcdd4108aa1d5bf8ff775444fd70256b44e6bf3dfc3f660405160405180910390a250565b6000620002dd620002d16200025260201b60201c565b6200043460201b60201c565b62000334576040517f08c379a0000000000000000000000000000000000000000000000000000000008152600401808060200182810382526030815260200180620020f96030913960400191505060405180910390fd5b6200034683836200045860201b60201c565b6001905092915050565b6200036282826200062260201b60201c565b15620003d6576040517f08c379a000000000000000000000000000000000000000000000000000000000815260040180806020018281038252601f8152602001807f526f6c65733a206163636f756e7420616c72656164792068617320726f6c650081525060200191505060405180910390fd5b60018260000160008373ffffffffffffffffffffffffffffffffffffffff1673ffffffffffffffffffffffffffffffffffffffff16815260200190815260200160002060006101000a81548160ff0219169083151502179055505050565b6000620004518260066200062260201b620014901790919060201c565b9050919050565b600073ffffffffffffffffffffffffffffffffffffffff168273ffffffffffffffffffffffffffffffffffffffff161415620004fc576040517f08c379a000000000000000000000000000000000000000000000000000000000815260040180806020018281038252601f8152602001807f45524332303a206d696e7420746f20746865207a65726f20616464726573730081525060200191505060405180910390fd5b62000518816002546200070260201b620011991790919060201c565b60028190555062000576816000808573ffffffffffffffffffffffffffffffffffffffff1673ffffffffffffffffffffffffffffffffffffffff168152602001908152602001600020546200070260201b620011991790919060201c565b6000808473ffffffffffffffffffffffffffffffffffffffff1673ffffffffffffffffffffffffffffffffffffffff168152602001908152602001600020819055508173ffffffffffffffffffffffffffffffffffffffff16600073ffffffffffffffffffffffffffffffffffffffff167fddf252ad1be2c89b69c2b068fc378daa952ba7f163c4a11628f55a4df523b3ef836040518082815260200191505060405180910390a35050565b60008073ffffffffffffffffffffffffffffffffffffffff168273ffffffffffffffffffffffffffffffffffffffff161415620006ab576040517f08c379a0000000000000000000000000000000000000000000000000000000008152600401808060200182810382526022815260200180620021296022913960400191505060405180910390fd5b8260000160008373ffffffffffffffffffffffffffffffffffffffff1673ffffffffffffffffffffffffffffffffffffffff16815260200190815260200160002060009054906101000a900460ff16905092915050565b60008082840190508381101562000781576040517f08c379a000000000000000000000000000000000000000000000000000000000815260040180806020018281038252601b8152602001807f536166654d6174683a206164646974696f6e206f766572666c6f77000000000081525060200191505060405180910390fd5b8091505092915050565b828054600181600116156101000203166002900490600052602060002090601f016020900481019282601f10620007ce57805160ff1916838001178555620007ff565b82800160010185558215620007ff579182015b82811115620007fe578251825591602001919060010190620007e1565b5b5090506200080e919062000812565b5090565b6200083791905b808211156200083357600081600090555060010162000819565b5090565b90565b6118af806200084a6000396000f3fe608060405234801561001057600080fd5b50600436106100f55760003560e01c806370a0823111610097578063a457c2d711610066578063a457c2d7146104a0578063a9059cbb14610506578063aa271e1a1461056c578063dd62ed3e146105c8576100f5565b806370a082311461037757806395d89b41146103cf578063983b2d56146104525780639865027514610496576100f5565b806323b872dd116100d357806323b872dd14610201578063313ce5671461028757806339509351146102ab57806340c10f1914610311576100f5565b806306fdde03146100fa578063095ea7b31461017d57806318160ddd146101e3575b600080fd5b610102610640565b6040518080602001828103825283818151815260200191508051906020019080838360005b83811015610142578082015181840152602081019050610127565b50505050905090810190601f16801561016f5780820380516001836020036101000a031916815260200191505b509250505060405180910390f35b6101c96004803603604081101561019357600080fd5b81019080803573ffffffffffffffffffffffffffffffffffffffff169060200190929190803590602001909291905050506106e2565b604051808215151515815260200191505060405180910390f35b6101eb610700565b6040518082815260200191505060405180910390f35b61026d6004803603606081101561021757600080fd5b81019080803573ffffffffffffffffffffffffffffffffffffffff169060200190929190803573ffffffffffffffffffffffffffffffffffffffff1690602001909291908035906020019092919050505061070a565b604051808215151515815260200191505060405180910390f35b61028f6107e3565b604051808260ff1660ff16815260200191505060405180910390f35b6102f7600480360360408110156102c157600080fd5b81019080803573ffffffffffffffffffffffffffffffffffffffff169060200190929190803590602001909291905050506107fa565b604051808215151515815260200191505060405180910390f35b61035d6004803603604081101561032757600080fd5b81019080803573ffffffffffffffffffffffffffffffffffffffff169060200190929190803590602001909291905050506108ad565b604051808215151515815260200191505060405180910390f35b6103b96004803603602081101561038d57600080fd5b81019080803573ffffffffffffffffffffffffffffffffffffffff169060200190929190505050610928565b6040518082815260200191505060405180910390f35b6103d7610970565b6040518080602001828103825283818151815260200191508051906020019080838360005b838110156104175780820151818401526020810190506103fc565b50505050905090810190601f1680156104445780820380516001836020036101000a031916815260200191505b509250505060405180910390f35b6104946004803603602081101561046857600080fd5b81019080803573ffffffffffffffffffffffffffffffffffffffff169060200190929190505050610a12565b005b61049e610a83565b005b6104ec600480360360408110156104b657600080fd5b81019080803573ffffffffffffffffffffffffffffffffffffffff16906020019092919080359060200190929190505050610a95565b604051808215151515815260200191505060405180910390f35b6105526004803603604081101561051c57600080fd5b81019080803573ffffffffffffffffffffffffffffffffffffffff16906020019092919080359060200190929190505050610b62565b604051808215151515815260200191505060405180910390f35b6105ae6004803603602081101561058257600080fd5b81019080803573ffffffffffffffffffffffffffffffffffffffff169060200190929190505050610b80565b604051808215151515815260200191505060405180910390f35b61062a600480360360408110156105de57600080fd5b81019080803573ffffffffffffffffffffffffffffffffffffffff169060200190929190803573ffffffffffffffffffffffffffffffffffffffff169060200190929190505050610b9d565b6040518082815260200191505060405180910390f35b606060038054600181600116156101000203166002900480601f0160208091040260200160405190810160405280929190818152602001828054600181600116156101000203166002900480156106d85780601f106106ad576101008083540402835291602001916106d8565b820191906000526020600020905b8154815290600101906020018083116106bb57829003601f168201915b5050505050905090565b60006106f66106ef610c24565b8484610c2c565b6001905092915050565b6000600254905090565b6000610717848484610e23565b6107d884610723610c24565b6107d3856040518060600160405280602881526020016117c360289139600160008b73ffffffffffffffffffffffffffffffffffffffff1673ffffffffffffffffffffffffffffffffffffffff1681526020019081526020016000206000610789610c24565b73ffffffffffffffffffffffffffffffffffffffff1673ffffffffffffffffffffffffffffffffffffffff168152602001908152602001600020546110d99092919063ffffffff16565b610c2c565b600190509392505050565b6000600560009054906101000a900460ff16905090565b60006108a3610807610c24565b8461089e8560016000610818610c24565b73ffffffffffffffffffffffffffffffffffffffff1673ffffffffffffffffffffffffffffffffffffffff16815260200190815260200160002060008973ffffffffffffffffffffffffffffffffffffffff1673ffffffffffffffffffffffffffffffffffffffff1681526020019081526020016000205461119990919063ffffffff16565b610c2c565b6001905092915050565b60006108bf6108ba610c24565b610b80565b610914576040517f08c379a00000000000000000000000000000000000000000000000000000000081526004018080602001828103825260308152602001806117726030913960400191505060405180910390fd5b61091e8383611221565b6001905092915050565b60008060008373ffffffffffffffffffffffffffffffffffffffff1673ffffffffffffffffffffffffffffffffffffffff168152602001908152602001600020549050919050565b606060048054600181600116156101000203166002900480601f016020809104026020016040519081016040528092919081815260200182805460018160011615610100020316600290048015610a085780601f106109dd57610100808354040283529160200191610a08565b820191906000526020600020905b8154815290600101906020018083116109eb57829003601f168201915b5050505050905090565b610a22610a1d610c24565b610b80565b610a77576040517f08c379a00000000000000000000000000000000000000000000000000000000081526004018080602001828103825260308152602001806117726030913960400191505060405180910390fd5b610a80816113dc565b50565b610a93610a8e610c24565b611436565b565b6000610b58610aa2610c24565b84610b53856040518060600160405280602581526020016118566025913960016000610acc610c24565b73ffffffffffffffffffffffffffffffffffffffff1673ffffffffffffffffffffffffffffffffffffffff16815260200190815260200160002060008a73ffffffffffffffffffffffffffffffffffffffff1673ffffffffffffffffffffffffffffffffffffffff168152602001908152602001600020546110d99092919063ffffffff16565b610c2c565b6001905092915050565b6000610b76610b6f610c24565b8484610e23565b6001905092915050565b6000610b9682600661149090919063ffffffff16565b9050919050565b6000600160008473ffffffffffffffffffffffffffffffffffffffff1673ffffffffffffffffffffffffffffffffffffffff16815260200190815260200160002060008373ffffffffffffffffffffffffffffffffffffffff1673ffffffffffffffffffffffffffffffffffffffff16815260200190815260200160002054905092915050565b600033905090565b600073ffffffffffffffffffffffffffffffffffffffff168373ffffffffffffffffffffffffffffffffffffffff161415610cb2576040517f08c379a00000000000000000000000000000000000000000000000000000000081526004018080602001828103825260248152602001806118326024913960400191505060405180910390fd5b600073ffffffffffffffffffffffffffffffffffffffff168273ffffffffffffffffffffffffffffffffffffffff161415610d38576040517f08c379a000000000000000000000000000000000000000000000000000000000815260040180806020018281038252602281526020018061172a6022913960400191505060405180910390fd5b80600160008573ffffffffffffffffffffffffffffffffffffffff1673ffffffffffffffffffffffffffffffffffffffff16815260200190815260200160002060008473ffffffffffffffffffffffffffffffffffffffff1673ffffffffffffffffffffffffffffffffffffffff168152602001908152602001600020819055508173ffffffffffffffffffffffffffffffffffffffff168373ffffffffffffffffffffffffffffffffffffffff167f8c5be1e5ebec7d5bd14f71427d1e84f3dd0314c0f7b2291e5b200ac8c7c3b925836040518082815260200191505060405180910390a3505050565b600073ffffffffffffffffffffffffffffffffffffffff168373ffffffffffffffffffffffffffffffffffffffff161415610ea9576040517f08c379a000000000000000000000000000000000000000000000000000000000815260040180806020018281038252602581526020018061180d6025913960400191505060405180910390fd5b600073ffffffffffffffffffffffffffffffffffffffff168273ffffffffffffffffffffffffffffffffffffffff161415610f2f576040517f08c379a00000000000000000000000000000000000000000000000000000000081526004018080602001828103825260238152602001806117076023913960400191505060405180910390fd5b610f9a8160405180606001604052806026815260200161174c602691396000808773ffffffffffffffffffffffffffffffffffffffff1673ffffffffffffffffffffffffffffffffffffffff168152602001908152602001600020546110d99092919063ffffffff16565b6000808573ffffffffffffffffffffffffffffffffffffffff1673ffffffffffffffffffffffffffffffffffffffff1681526020019081526020016000208190555061102d816000808573ffffffffffffffffffffffffffffffffffffffff1673ffffffffffffffffffffffffffffffffffffffff1681526020019081526020016000205461119990919063ffffffff16565b6000808473ffffffffffffffffffffffffffffffffffffffff1673ffffffffffffffffffffffffffffffffffffffff168152602001908152602001600020819055508173ffffffffffffffffffffffffffffffffffffffff168373ffffffffffffffffffffffffffffffffffffffff167fddf252ad1be2c89b69c2b068fc378daa952ba7f163c4a11628f55a4df523b3ef836040518082815260200191505060405180910390a3505050565b6000838311158290611186576040517f08c379a00000000000000000000000000000000000000000000000000000000081526004018080602001828103825283818151815260200191508051906020019080838360005b8381101561114b578082015181840152602081019050611130565b50505050905090810190601f1680156111785780820380516001836020036101000a031916815260200191505b509250505060405180910390fd5b5060008385039050809150509392505050565b600080828401905083811015611217576040517f08c379a000000000000000000000000000000000000000000000000000000000815260040180806020018281038252601b8152602001807f536166654d6174683a206164646974696f6e206f766572666c6f77000000000081525060200191505060405180910390fd5b8091505092915050565b600073ffffffffffffffffffffffffffffffffffffffff168273ffffffffffffffffffffffffffffffffffffffff1614156112c4576040517f08c379a000000000000000000000000000000000000000000000000000000000815260040180806020018281038252601f8152602001807f45524332303a206d696e7420746f20746865207a65726f20616464726573730081525060200191505060405180910390fd5b6112d98160025461119990919063ffffffff16565b600281905550611330816000808573ffffffffffffffffffffffffffffffffffffffff1673ffffffffffffffffffffffffffffffffffffffff1681526020019081526020016000205461119990919063ffffffff16565b6000808473ffffffffffffffffffffffffffffffffffffffff1673ffffffffffffffffffffffffffffffffffffffff168152602001908152602001600020819055508173ffffffffffffffffffffffffffffffffffffffff16600073ffffffffffffffffffffffffffffffffffffffff167fddf252ad1be2c89b69c2b068fc378daa952ba7f163c4a11628f55a4df523b3ef836040518082815260200191505060405180910390a35050565b6113f081600661156e90919063ffffffff16565b8073ffffffffffffffffffffffffffffffffffffffff167f6ae172837ea30b801fbfcdd4108aa1d5bf8ff775444fd70256b44e6bf3dfc3f660405160405180910390a250565b61144a81600661164990919063ffffffff16565b8073ffffffffffffffffffffffffffffffffffffffff167fe94479a9f7e1952cc78f2d6baab678adc1b772d936c6583def489e524cb6669260405160405180910390a250565b60008073ffffffffffffffffffffffffffffffffffffffff168273ffffffffffffffffffffffffffffffffffffffff161415611517576040517f08c379a00000000000000000000000000000000000000000000000000000000081526004018080602001828103825260228152602001806117eb6022913960400191505060405180910390fd5b8260000160008373ffffffffffffffffffffffffffffffffffffffff1673ffffffffffffffffffffffffffffffffffffffff16815260200190815260200160002060009054906101000a900460ff16905092915050565b6115788282611490565b156115eb576040517f08c379a000000000000000000000000000000000000000000000000000000000815260040180806020018281038252601f8152602001807f526f6c65733a206163636f756e7420616c72656164792068617320726f6c650081525060200191505060405180910390fd5b60018260000160008373ffffffffffffffffffffffffffffffffffffffff1673ffffffffffffffffffffffffffffffffffffffff16815260200190815260200160002060006101000a81548160ff0219169083151502179055505050565b6116538282611490565b6116a8576040517f08c379a00000000000000000000000000000000000000000000000000000000081526004018080602001828103825260218152602001806117a26021913960400191505060405180910390fd5b60008260000160008373ffffffffffffffffffffffffffffffffffffffff1673ffffffffffffffffffffffffffffffffffffffff16815260200190815260200160002060006101000a81548160ff021916908315150217905550505056fe45524332303a207472616e7366657220746f20746865207a65726f206164647265737345524332303a20617070726f766520746f20746865207a65726f206164647265737345524332303a207472616e7366657220616d6f756e7420657863656564732062616c616e63654d696e746572526f6c653a2063616c6c657220646f6573206e6f74206861766520746865204d696e74657220726f6c65526f6c65733a206163636f756e7420646f6573206e6f74206861766520726f6c6545524332303a207472616e7366657220616d6f756e74206578636565647320616c6c6f77616e6365526f6c65733a206163636f756e7420697320746865207a65726f206164647265737345524332303a207472616e736665722066726f6d20746865207a65726f206164647265737345524332303a20617070726f76652066726f6d20746865207a65726f206164647265737345524332303a2064656372656173656420616c6c6f77616e63652062656c6f77207a65726fa265627a7a72315820f7a47907e7d8268f90bbb5243dcd624e7dba3c6c00a0f7d3f04dc6695fb0572a64736f6c634300051100324d696e746572526f6c653a2063616c6c657220646f6573206e6f74206861766520746865204d696e74657220726f6c65526f6c65733a206163636f756e7420697320746865207a65726f2061646472657373608060405234801561001057600080fd5b50604051610ae9380380610ae98339818101604052606081101561003357600080fd5b8101908080519060200190929190805190602001909291908051906020019092919050505082828260016000806101000a81548160ff021916908315150217905550600083116100eb576040517f08c379a00000000000000000000000000000000000000000000000000000000081526004018080602001828103825260148152602001807f43726f776473616c653a2072617465206973203000000000000000000000000081525060200191505060405180910390fd5b600073ffffffffffffffffffffffffffffffffffffffff168273ffffffffffffffffffffffffffffffffffffffff161415610171576040517f08c379a0000000000000000000000000000000000000000000000000000000008152600401808060200182810382526025815260200180610ac46025913960400191505060405180910390fd5b600073ffffffffffffffffffffffffffffffffffffffff168173ffffffffffffffffffffffffffffffffffffffff1614156101f7576040517f08c379a0000000000000000000000000000000000000000000000000000000008152600401808060200182810382526024815260200180610aa06024913960400191505060405180910390fd5b8260028190555081600160006101000a81548173ffffffffffffffffffffffffffffffffffffffff021916908373ffffffffffffffffffffffffffffffffffffffff16021790555080600060016101000a81548173ffffffffffffffffffffffffffffffffffffffff021916908373ffffffffffffffffffffffffffffffffffffffff16021790555050505050505061080b806102956000396000f3fe60806040526004361061004a5760003560e01c80632c4e722e1461005c5780634042b66f14610087578063521eb273146100b2578063ec8ac4d814610109578063fc0c546a1461014d575b61005a6100556101a4565b6101ac565b005b34801561006857600080fd5b50610071610337565b6040518082815260200191505060405180910390f35b34801561009357600080fd5b5061009c610341565b6040518082815260200191505060405180910390f35b3480156100be57600080fd5b506100c761034b565b604051808273ffffffffffffffffffffffffffffffffffffffff1673ffffffffffffffffffffffffffffffffffffffff16815260200191505060405180910390f35b61014b6004803603602081101561011f57600080fd5b81019080803573ffffffffffffffffffffffffffffffffffffffff1690602001909291905050506101ac565b005b34801561015957600080fd5b50610162610375565b604051808273ffffffffffffffffffffffffffffffffffffffff1673ffffffffffffffffffffffffffffffffffffffff16815260200191505060405180910390f35b600033905090565b6000809054906101000a900460ff1661022d576040517f08c379a000000000000000000000000000000000000000000000000000000000815260040180806020018281038252601f8152602001807f5265656e7472616e637947756172643a207265656e7472616e742063616c6c0081525060200191505060405180910390fd5b60008060006101000a81548160ff0219169083151502179055506000349050610256828261039e565b60006102618261049f565b9050610278826003546104bd90919063ffffffff16565b6003819055506102888382610545565b8273ffffffffffffffffffffffffffffffffffffffff166102a76101a4565b73ffffffffffffffffffffffffffffffffffffffff167f6faf93231a456e552dbc9961f58d9713ee4f2e69d15f1975b050ef0911053a7b8484604051808381526020018281526020019250505060405180910390a36103068383610553565b61030e610557565b61031883836105c2565b505060016000806101000a81548160ff02191690831515021790555050565b6000600254905090565b6000600354905090565b6000600160009054906101000a900473ffffffffffffffffffffffffffffffffffffffff16905090565b60008060019054906101000a900473ffffffffffffffffffffffffffffffffffffffff16905090565b600073ffffffffffffffffffffffffffffffffffffffff168273ffffffffffffffffffffffffffffffffffffffff161415610424576040517f08c379a000000000000000000000000000000000000000000000000000000000815260040180806020018281038252602a8152602001806107ad602a913960400191505060405180910390fd5b600081141561049b576040517f08c379a00000000000000000000000000000000000000000000000000000000081526004018080602001828103825260198152602001807f43726f776473616c653a20776569416d6f756e7420697320300000000000000081525060200191505060405180910390fd5b5050565b60006104b6600254836105c690919063ffffffff16565b9050919050565b60008082840190508381101561053b576040517f08c379a000000000000000000000000000000000000000000000000000000000815260040180806020018281038252601b8152602001807f536166654d6174683a206164646974696f6e206f766572666c6f77000000000081525060200191505060405180910390fd5b8091505092915050565b61054f828261064c565b5050565b5050565b600160009054906101000a900473ffffffffffffffffffffffffffffffffffffffff1673ffffffffffffffffffffffffffffffffffffffff166108fc349081150290604051600060405180830381858888f193505050501580156105bf573d6000803e3d6000fd5b50565b5050565b6000808314156105d95760009050610646565b60008284029050828482816105ea57fe5b0414610641576040517f08c379a000000000000000000000000000000000000000000000000000000000815260040180806020018281038252602181526020018061078c6021913960400191505060405180910390fd5b809150505b92915050565b610654610375565b73ffffffffffffffffffffffffffffffffffffffff166340c10f1983836040518363ffffffff1660e01b8152600401808373ffffffffffffffffffffffffffffffffffffffff1673ffffffffffffffffffffffffffffffffffffffff16815260200182815260200192505050602060405180830381600087803b1580156106da57600080fd5b505af11580156106ee573d6000803e3d6000fd5b505050506040513d602081101561070457600080fd5b8101908080519060200190929190505050610787576040517f08c379a000000000000000000000000000000000000000000000000000000000815260040180806020018281038252601f8152602001807f4d696e74656443726f776473616c653a206d696e74696e67206661696c65640081525060200191505060405180910390fd5b505056fe536166654d6174683a206d756c7469706c69636174696f6e206f766572666c6f7743726f776473616c653a2062656e656669636961727920697320746865207a65726f2061646472657373a265627a7a723158202c062fda0c0d1a5f618433146d74334c25bc2821d72a712da6d084275abbed1064736f6c6343000511003243726f776473616c653a20746f6b656e20697320746865207a65726f206164647265737343726f776473616c653a2077616c6c657420697320746865207a65726f2061646472657373",
					"opcodes": "PUSH1 0x80 PUSH1 0x40 MSTORE CALLVALUE DUP1 ISZERO PUSH2 0x10 JUMPI PUSH1 0x0 DUP1 REVERT JUMPDEST POP PUSH1 0x40 MLOAD PUSH3 0x31A2 CODESIZE SUB DUP1 PUSH3 0x31A2 DUP4 CODECOPY DUP2 DUP2 ADD PUSH1 0x40 MSTORE PUSH1 0x60 DUP2 LT ISZERO PUSH2 0x35 JUMPI PUSH1 0x0 DUP1 REVERT JUMPDEST DUP2 ADD SWAP1 DUP1 DUP1 MLOAD PUSH1 0x40 MLOAD SWAP4 SWAP3 SWAP2 SWAP1 DUP5 PUSH5 0x100000000 DUP3 GT ISZERO PUSH2 0x55 JUMPI PUSH1 0x0 DUP1 REVERT JUMPDEST DUP4 DUP3 ADD SWAP2 POP PUSH1 0x20 DUP3 ADD DUP6 DUP2 GT ISZERO PUSH2 0x6B JUMPI PUSH1 0x0 DUP1 REVERT JUMPDEST DUP3 MLOAD DUP7 PUSH1 0x1 DUP3 MUL DUP4 ADD GT PUSH5 0x100000000 DUP3 GT OR ISZERO PUSH2 0x88 JUMPI PUSH1 0x0 DUP1 REVERT JUMPDEST DUP1 DUP4 MSTORE PUSH1 0x20 DUP4 ADD SWAP3 POP POP POP SWAP1 DUP1 MLOAD SWAP1 PUSH1 0x20 ADD SWAP1 DUP1 DUP4 DUP4 PUSH1 0x0 JUMPDEST DUP4 DUP2 LT ISZERO PUSH2 0xBC JUMPI DUP1 DUP3 ADD MLOAD DUP2 DUP5 ADD MSTORE PUSH1 0x20 DUP2 ADD SWAP1 POP PUSH2 0xA1 JUMP JUMPDEST POP POP POP POP SWAP1 POP SWAP1 DUP2 ADD SWAP1 PUSH1 0x1F AND DUP1 ISZERO PUSH2 0xE9 JUMPI DUP1 DUP3 SUB DUP1 MLOAD PUSH1 0x1 DUP4 PUSH1 0x20 SUB PUSH2 0x100 EXP SUB NOT AND DUP2 MSTORE PUSH1 0x20 ADD SWAP2 POP JUMPDEST POP PUSH1 0x40 MSTORE PUSH1 0x20 ADD DUP1 MLOAD PUSH1 0x40 MLOAD SWAP4 SWAP3 SWAP2 SWAP1 DUP5 PUSH5 0x100000000 DUP3 GT ISZERO PUSH2 0x10C JUMPI PUSH1 0x0 DUP1 REVERT JUMPDEST DUP4 DUP3 ADD SWAP2 POP PUSH1 0x20 DUP3 ADD DUP6 DUP2 GT ISZERO PUSH2 0x122 JUMPI PUSH1 0x0 DUP1 REVERT JUMPDEST DUP3 MLOAD DUP7 PUSH1 0x1 DUP3 MUL DUP4 ADD GT PUSH5 0x100000000 DUP3 GT OR ISZERO PUSH2 0x13F JUMPI PUSH1 0x0 DUP1 REVERT JUMPDEST DUP1 DUP4 MSTORE PUSH1 0x20 DUP4 ADD SWAP3 POP POP POP SWAP1 DUP1 MLOAD SWAP1 PUSH1 0x20 ADD SWAP1 DUP1 DUP4 DUP4 PUSH1 0x0 JUMPDEST DUP4 DUP2 LT ISZERO PUSH2 0x173 JUMPI DUP1 DUP3 ADD MLOAD DUP2 DUP5 ADD MSTORE PUSH1 0x20 DUP2 ADD SWAP1 POP PUSH2 0x158 JUMP JUMPDEST POP POP POP POP SWAP1 POP SWAP1 DUP2 ADD SWAP1 PUSH1 0x1F AND DUP1 ISZERO PUSH2 0x1A0 JUMPI DUP1 DUP3 SUB DUP1 MLOAD PUSH1 0x1 DUP4 PUSH1 0x20 SUB PUSH2 0x100 EXP SUB NOT AND DUP2 MSTORE PUSH1 0x20 ADD SWAP2 POP JUMPDEST POP PUSH1 0x40 MSTORE PUSH1 0x20 ADD DUP1 MLOAD SWAP1 PUSH1 0x20 ADD SWAP1 SWAP3 SWAP2 SWAP1 POP POP POP PUSH1 0x0 DUP4 DUP4 PUSH1 0x0 PUSH1 0x40 MLOAD PUSH2 0x1C6 SWAP1 PUSH2 0x3F3 JUMP JUMPDEST DUP1 DUP1 PUSH1 0x20 ADD DUP1 PUSH1 0x20 ADD DUP5 DUP2 MSTORE PUSH1 0x20 ADD DUP4 DUP2 SUB DUP4 MSTORE DUP7 DUP2 DUP2 MLOAD DUP2 MSTORE PUSH1 0x20 ADD SWAP2 POP DUP1 MLOAD SWAP1 PUSH1 0x20 ADD SWAP1 DUP1 DUP4 DUP4 PUSH1 0x0 JUMPDEST DUP4 DUP2 LT ISZERO PUSH2 0x20D JUMPI DUP1 DUP3 ADD MLOAD DUP2 DUP5 ADD MSTORE PUSH1 0x20 DUP2 ADD SWAP1 POP PUSH2 0x1F2 JUMP JUMPDEST POP POP POP POP SWAP1 POP SWAP1 DUP2 ADD SWAP1 PUSH1 0x1F AND DUP1 ISZERO PUSH2 0x23A JUMPI DUP1 DUP3 SUB DUP1 MLOAD PUSH1 0x1 DUP4 PUSH1 0x20 SUB PUSH2 0x100 EXP SUB NOT AND DUP2 MSTORE PUSH1 0x20 ADD SWAP2 POP JUMPDEST POP DUP4 DUP2 SUB DUP3 MSTORE DUP6 DUP2 DUP2 MLOAD DUP2 MSTORE PUSH1 0x20 ADD SWAP2 POP DUP1 MLOAD SWAP1 PUSH1 0x20 ADD SWAP1 DUP1 DUP4 DUP4 PUSH1 0x0 JUMPDEST DUP4 DUP2 LT ISZERO PUSH2 0x273 JUMPI DUP1 DUP3 ADD MLOAD DUP2 DUP5 ADD MSTORE PUSH1 0x20 DUP2 ADD SWAP1 POP PUSH2 0x258 JUMP JUMPDEST POP POP POP POP SWAP1 POP SWAP1 DUP2 ADD SWAP1 PUSH1 0x1F AND DUP1 ISZERO PUSH2 0x2A0 JUMPI DUP1 DUP3 SUB DUP1 MLOAD PUSH1 0x1 DUP4 PUSH1 0x20 SUB PUSH2 0x100 EXP SUB NOT AND DUP2 MSTORE PUSH1 0x20 ADD SWAP2 POP JUMPDEST POP SWAP6 POP POP POP POP POP POP PUSH1 0x40 MLOAD DUP1 SWAP2 SUB SWAP1 PUSH1 0x0 CREATE DUP1 ISZERO DUP1 ISZERO PUSH2 0x2C4 JUMPI RETURNDATASIZE PUSH1 0x0 DUP1 RETURNDATACOPY RETURNDATASIZE PUSH1 0x0 REVERT JUMPDEST POP SWAP1 POP DUP1 PUSH1 0x0 DUP1 PUSH2 0x100 EXP DUP2 SLOAD DUP2 PUSH20 0xFFFFFFFFFFFFFFFFFFFFFFFFFFFFFFFFFFFFFFFF MUL NOT AND SWAP1 DUP4 PUSH20 0xFFFFFFFFFFFFFFFFFFFFFFFFFFFFFFFFFFFFFFFF AND MUL OR SWAP1 SSTORE POP PUSH1 0x0 PUSH1 0x1 DUP4 DUP4 PUSH1 0x40 MLOAD PUSH2 0x319 SWAP1 PUSH2 0x401 JUMP JUMPDEST DUP1 DUP5 DUP2 MSTORE PUSH1 0x20 ADD DUP4 PUSH20 0xFFFFFFFFFFFFFFFFFFFFFFFFFFFFFFFFFFFFFFFF AND PUSH20 0xFFFFFFFFFFFFFFFFFFFFFFFFFFFFFFFFFFFFFFFF AND DUP2 MSTORE PUSH1 0x20 ADD DUP3 PUSH20 0xFFFFFFFFFFFFFFFFFFFFFFFFFFFFFFFFFFFFFFFF AND PUSH20 0xFFFFFFFFFFFFFFFFFFFFFFFFFFFFFFFFFFFFFFFF AND DUP2 MSTORE PUSH1 0x20 ADD SWAP4 POP POP POP POP PUSH1 0x40 MLOAD DUP1 SWAP2 SUB SWAP1 PUSH1 0x0 CREATE DUP1 ISZERO DUP1 ISZERO PUSH2 0x3A5 JUMPI RETURNDATASIZE PUSH1 0x0 DUP1 RETURNDATACOPY RETURNDATASIZE PUSH1 0x0 REVERT JUMPDEST POP SWAP1 POP DUP1 PUSH1 0x1 PUSH1 0x0 PUSH2 0x100 EXP DUP2 SLOAD DUP2 PUSH20 0xFFFFFFFFFFFFFFFFFFFFFFFFFFFFFFFFFFFFFFFF MUL NOT AND SWAP1 DUP4 PUSH20 0xFFFFFFFFFFFFFFFFFFFFFFFFFFFFFFFFFFFFFFFF AND MUL OR SWAP1 SSTORE POP POP POP POP POP POP PUSH2 0x40F JUMP JUMPDEST PUSH2 0x214B DUP1 PUSH3 0x56E DUP4 CODECOPY ADD SWAP1 JUMP JUMPDEST PUSH2 0xAE9 DUP1 PUSH3 0x26B9 DUP4 CODECOPY ADD SWAP1 JUMP JUMPDEST PUSH2 0x14F DUP1 PUSH3 0x41F PUSH1 0x0 CODECOPY PUSH1 0x0 RETURN INVALID PUSH1 0x80 PUSH1 0x40 MSTORE CALLVALUE DUP1 ISZERO PUSH2 0x10 JUMPI PUSH1 0x0 DUP1 REVERT JUMPDEST POP PUSH1 0x4 CALLDATASIZE LT PUSH2 0x36 JUMPI PUSH1 0x0 CALLDATALOAD PUSH1 0xE0 SHR DUP1 PUSH4 0xF0B4619 EQ PUSH2 0x3B JUMPI DUP1 PUSH4 0x2AB6A2A1 EQ PUSH2 0x85 JUMPI JUMPDEST PUSH1 0x0 DUP1 REVERT JUMPDEST PUSH2 0x43 PUSH2 0xCF JUMP JUMPDEST PUSH1 0x40 MLOAD DUP1 DUP3 PUSH20 0xFFFFFFFFFFFFFFFFFFFFFFFFFFFFFFFFFFFFFFFF AND PUSH20 0xFFFFFFFFFFFFFFFFFFFFFFFFFFFFFFFFFFFFFFFF AND DUP2 MSTORE PUSH1 0x20 ADD SWAP2 POP POP PUSH1 0x40 MLOAD DUP1 SWAP2 SUB SWAP1 RETURN JUMPDEST PUSH2 0x8D PUSH2 0xF5 JUMP JUMPDEST PUSH1 0x40 MLOAD DUP1 DUP3 PUSH20 0xFFFFFFFFFFFFFFFFFFFFFFFFFFFFFFFFFFFFFFFF AND PUSH20 0xFFFFFFFFFFFFFFFFFFFFFFFFFFFFFFFFFFFFFFFF AND DUP2 MSTORE PUSH1 0x20 ADD SWAP2 POP POP PUSH1 0x40 MLOAD DUP1 SWAP2 SUB SWAP1 RETURN JUMPDEST PUSH1 0x1 PUSH1 0x0 SWAP1 SLOAD SWAP1 PUSH2 0x100 EXP SWAP1 DIV PUSH20 0xFFFFFFFFFFFFFFFFFFFFFFFFFFFFFFFFFFFFFFFF AND DUP2 JUMP JUMPDEST PUSH1 0x0 DUP1 SWAP1 SLOAD SWAP1 PUSH2 0x100 EXP SWAP1 DIV PUSH20 0xFFFFFFFFFFFFFFFFFFFFFFFFFFFFFFFFFFFFFFFF AND DUP2 JUMP INVALID LOG2 PUSH6 0x627A7A723158 KECCAK256 DELEGATECALL 0xD0 0xDD DUP5 EXTCODECOPY PUSH2 0x26D1 TIMESTAMP 0xB7 PUSH5 0x23C1A66DDF 0xDB CALL 0xA6 SWAP3 0x2A 0xB7 TIMESTAMP 0xEB TIMESTAMP SUB JUMPDEST 0x1E PUSH13 0x20526864736F6C634300051100 ORIGIN PUSH1 0x80 PUSH1 0x40 MSTORE CALLVALUE DUP1 ISZERO PUSH3 0x11 JUMPI PUSH1 0x0 DUP1 REVERT JUMPDEST POP PUSH1 0x40 MLOAD PUSH3 0x214B CODESIZE SUB DUP1 PUSH3 0x214B DUP4 CODECOPY DUP2 DUP2 ADD PUSH1 0x40 MSTORE PUSH1 0x60 DUP2 LT ISZERO PUSH3 0x37 JUMPI PUSH1 0x0 DUP1 REVERT JUMPDEST DUP2 ADD SWAP1 DUP1 DUP1 MLOAD PUSH1 0x40 MLOAD SWAP4 SWAP3 SWAP2 SWAP1 DUP5 PUSH5 0x100000000 DUP3 GT ISZERO PUSH3 0x58 JUMPI PUSH1 0x0 DUP1 REVERT JUMPDEST DUP4 DUP3 ADD SWAP2 POP PUSH1 0x20 DUP3 ADD DUP6 DUP2 GT ISZERO PUSH3 0x6F JUMPI PUSH1 0x0 DUP1 REVERT JUMPDEST DUP3 MLOAD DUP7 PUSH1 0x1 DUP3 MUL DUP4 ADD GT PUSH5 0x100000000 DUP3 GT OR ISZERO PUSH3 0x8D JUMPI PUSH1 0x0 DUP1 REVERT JUMPDEST DUP1 DUP4 MSTORE PUSH1 0x20 DUP4 ADD SWAP3 POP POP POP SWAP1 DUP1 MLOAD SWAP1 PUSH1 0x20 ADD SWAP1 DUP1 DUP4 DUP4 PUSH1 0x0 JUMPDEST DUP4 DUP2 LT ISZERO PUSH3 0xC3 JUMPI DUP1 DUP3 ADD MLOAD DUP2 DUP5 ADD MSTORE PUSH1 0x20 DUP2 ADD SWAP1 POP PUSH3 0xA6 JUMP JUMPDEST POP POP POP POP SWAP1 POP SWAP1 DUP2 ADD SWAP1 PUSH1 0x1F AND DUP1 ISZERO PUSH3 0xF1 JUMPI DUP1 DUP3 SUB DUP1 MLOAD PUSH1 0x1 DUP4 PUSH1 0x20 SUB PUSH2 0x100 EXP SUB NOT AND DUP2 MSTORE PUSH1 0x20 ADD SWAP2 POP JUMPDEST POP PUSH1 0x40 MSTORE PUSH1 0x20 ADD DUP1 MLOAD PUSH1 0x40 MLOAD SWAP4 SWAP3 SWAP2 SWAP1 DUP5 PUSH5 0x100000000 DUP3 GT ISZERO PUSH3 0x115 JUMPI PUSH1 0x0 DUP1 REVERT JUMPDEST DUP4 DUP3 ADD SWAP2 POP PUSH1 0x20 DUP3 ADD DUP6 DUP2 GT ISZERO PUSH3 0x12C JUMPI PUSH1 0x0 DUP1 REVERT JUMPDEST DUP3 MLOAD DUP7 PUSH1 0x1 DUP3 MUL DUP4 ADD GT PUSH5 0x100000000 DUP3 GT OR ISZERO PUSH3 0x14A JUMPI PUSH1 0x0 DUP1 REVERT JUMPDEST DUP1 DUP4 MSTORE PUSH1 0x20 DUP4 ADD SWAP3 POP POP POP SWAP1 DUP1 MLOAD SWAP1 PUSH1 0x20 ADD SWAP1 DUP1 DUP4 DUP4 PUSH1 0x0 JUMPDEST DUP4 DUP2 LT ISZERO PUSH3 0x180 JUMPI DUP1 DUP3 ADD MLOAD DUP2 DUP5 ADD MSTORE PUSH1 0x20 DUP2 ADD SWAP1 POP PUSH3 0x163 JUMP JUMPDEST POP POP POP POP SWAP1 POP SWAP1 DUP2 ADD SWAP1 PUSH1 0x1F AND DUP1 ISZERO PUSH3 0x1AE JUMPI DUP1 DUP3 SUB DUP1 MLOAD PUSH1 0x1 DUP4 PUSH1 0x20 SUB PUSH2 0x100 EXP SUB NOT AND DUP2 MSTORE PUSH1 0x20 ADD SWAP2 POP JUMPDEST POP PUSH1 0x40 MSTORE PUSH1 0x20 ADD DUP1 MLOAD SWAP1 PUSH1 0x20 ADD SWAP1 SWAP3 SWAP2 SWAP1 POP POP POP DUP3 DUP3 PUSH1 0x12 DUP3 PUSH1 0x3 SWAP1 DUP1 MLOAD SWAP1 PUSH1 0x20 ADD SWAP1 PUSH3 0x1DE SWAP3 SWAP2 SWAP1 PUSH3 0x78B JUMP JUMPDEST POP DUP2 PUSH1 0x4 SWAP1 DUP1 MLOAD SWAP1 PUSH1 0x20 ADD SWAP1 PUSH3 0x1F7 SWAP3 SWAP2 SWAP1 PUSH3 0x78B JUMP JUMPDEST POP DUP1 PUSH1 0x5 PUSH1 0x0 PUSH2 0x100 EXP DUP2 SLOAD DUP2 PUSH1 0xFF MUL NOT AND SWAP1 DUP4 PUSH1 0xFF AND MUL OR SWAP1 SSTORE POP POP POP POP PUSH3 0x236 PUSH3 0x22A PUSH3 0x252 PUSH1 0x20 SHL PUSH1 0x20 SHR JUMP JUMPDEST PUSH3 0x25A PUSH1 0x20 SHL PUSH1 0x20 SHR JUMP JUMPDEST PUSH3 0x248 CALLER DUP3 PUSH3 0x2BB PUSH1 0x20 SHL PUSH1 0x20 SHR JUMP JUMPDEST POP POP POP POP PUSH3 0x83A JUMP JUMPDEST PUSH1 0x0 CALLER SWAP1 POP SWAP1 JUMP JUMPDEST PUSH3 0x275 DUP2 PUSH1 0x6 PUSH3 0x350 PUSH1 0x20 SHL PUSH3 0x156E OR SWAP1 SWAP2 SWAP1 PUSH1 0x20 SHR JUMP JUMPDEST DUP1 PUSH20 0xFFFFFFFFFFFFFFFFFFFFFFFFFFFFFFFFFFFFFFFF AND PUSH32 0x6AE172837EA30B801FBFCDD4108AA1D5BF8FF775444FD70256B44E6BF3DFC3F6 PUSH1 0x40 MLOAD PUSH1 0x40 MLOAD DUP1 SWAP2 SUB SWAP1 LOG2 POP JUMP JUMPDEST PUSH1 0x0 PUSH3 0x2DD PUSH3 0x2D1 PUSH3 0x252 PUSH1 0x20 SHL PUSH1 0x20 SHR JUMP JUMPDEST PUSH3 0x434 PUSH1 0x20 SHL PUSH1 0x20 SHR JUMP JUMPDEST PUSH3 0x334 JUMPI PUSH1 0x40 MLOAD PUSH32 0x8C379A000000000000000000000000000000000000000000000000000000000 DUP2 MSTORE PUSH1 0x4 ADD DUP1 DUP1 PUSH1 0x20 ADD DUP3 DUP2 SUB DUP3 MSTORE PUSH1 0x30 DUP2 MSTORE PUSH1 0x20 ADD DUP1 PUSH3 0x20F9 PUSH1 0x30 SWAP2 CODECOPY PUSH1 0x40 ADD SWAP2 POP POP PUSH1 0x40 MLOAD DUP1 SWAP2 SUB SWAP1 REVERT JUMPDEST PUSH3 0x346 DUP4 DUP4 PUSH3 0x458 PUSH1 0x20 SHL PUSH1 0x20 SHR JUMP JUMPDEST PUSH1 0x1 SWAP1 POP SWAP3 SWAP2 POP POP JUMP JUMPDEST PUSH3 0x362 DUP3 DUP3 PUSH3 0x622 PUSH1 0x20 SHL PUSH1 0x20 SHR JUMP JUMPDEST ISZERO PUSH3 0x3D6 JUMPI PUSH1 0x40 MLOAD PUSH32 0x8C379A000000000000000000000000000000000000000000000000000000000 DUP2 MSTORE PUSH1 0x4 ADD DUP1 DUP1 PUSH1 0x20 ADD DUP3 DUP2 SUB DUP3 MSTORE PUSH1 0x1F DUP2 MSTORE PUSH1 0x20 ADD DUP1 PUSH32 0x526F6C65733A206163636F756E7420616C72656164792068617320726F6C6500 DUP2 MSTORE POP PUSH1 0x20 ADD SWAP2 POP POP PUSH1 0x40 MLOAD DUP1 SWAP2 SUB SWAP1 REVERT JUMPDEST PUSH1 0x1 DUP3 PUSH1 0x0 ADD PUSH1 0x0 DUP4 PUSH20 0xFFFFFFFFFFFFFFFFFFFFFFFFFFFFFFFFFFFFFFFF AND PUSH20 0xFFFFFFFFFFFFFFFFFFFFFFFFFFFFFFFFFFFFFFFF AND DUP2 MSTORE PUSH1 0x20 ADD SWAP1 DUP2 MSTORE PUSH1 0x20 ADD PUSH1 0x0 KECCAK256 PUSH1 0x0 PUSH2 0x100 EXP DUP2 SLOAD DUP2 PUSH1 0xFF MUL NOT AND SWAP1 DUP4 ISZERO ISZERO MUL OR SWAP1 SSTORE POP POP POP JUMP JUMPDEST PUSH1 0x0 PUSH3 0x451 DUP3 PUSH1 0x6 PUSH3 0x622 PUSH1 0x20 SHL PUSH3 0x1490 OR SWAP1 SWAP2 SWAP1 PUSH1 0x20 SHR JUMP JUMPDEST SWAP1 POP SWAP2 SWAP1 POP JUMP JUMPDEST PUSH1 0x0 PUSH20 0xFFFFFFFFFFFFFFFFFFFFFFFFFFFFFFFFFFFFFFFF AND DUP3 PUSH20 0xFFFFFFFFFFFFFFFFFFFFFFFFFFFFFFFFFFFFFFFF AND EQ ISZERO PUSH3 0x4FC JUMPI PUSH1 0x40 MLOAD PUSH32 0x8C379A000000000000000000000000000000000000000000000000000000000 DUP2 MSTORE PUSH1 0x4 ADD DUP1 DUP1 PUSH1 0x20 ADD DUP3 DUP2 SUB DUP3 MSTORE PUSH1 0x1F DUP2 MSTORE PUSH1 0x20 ADD DUP1 PUSH32 0x45524332303A206D696E7420746F20746865207A65726F206164647265737300 DUP2 MSTORE POP PUSH1 0x20 ADD SWAP2 POP POP PUSH1 0x40 MLOAD DUP1 SWAP2 SUB SWAP1 REVERT JUMPDEST PUSH3 0x518 DUP2 PUSH1 0x2 SLOAD PUSH3 0x702 PUSH1 0x20 SHL PUSH3 0x1199 OR SWAP1 SWAP2 SWAP1 PUSH1 0x20 SHR JUMP JUMPDEST PUSH1 0x2 DUP2 SWAP1 SSTORE POP PUSH3 0x576 DUP2 PUSH1 0x0 DUP1 DUP6 PUSH20 0xFFFFFFFFFFFFFFFFFFFFFFFFFFFFFFFFFFFFFFFF AND PUSH20 0xFFFFFFFFFFFFFFFFFFFFFFFFFFFFFFFFFFFFFFFF AND DUP2 MSTORE PUSH1 0x20 ADD SWAP1 DUP2 MSTORE PUSH1 0x20 ADD PUSH1 0x0 KECCAK256 SLOAD PUSH3 0x702 PUSH1 0x20 SHL PUSH3 0x1199 OR SWAP1 SWAP2 SWAP1 PUSH1 0x20 SHR JUMP JUMPDEST PUSH1 0x0 DUP1 DUP5 PUSH20 0xFFFFFFFFFFFFFFFFFFFFFFFFFFFFFFFFFFFFFFFF AND PUSH20 0xFFFFFFFFFFFFFFFFFFFFFFFFFFFFFFFFFFFFFFFF AND DUP2 MSTORE PUSH1 0x20 ADD SWAP1 DUP2 MSTORE PUSH1 0x20 ADD PUSH1 0x0 KECCAK256 DUP2 SWAP1 SSTORE POP DUP2 PUSH20 0xFFFFFFFFFFFFFFFFFFFFFFFFFFFFFFFFFFFFFFFF AND PUSH1 0x0 PUSH20 0xFFFFFFFFFFFFFFFFFFFFFFFFFFFFFFFFFFFFFFFF AND PUSH32 0xDDF252AD1BE2C89B69C2B068FC378DAA952BA7F163C4A11628F55A4DF523B3EF DUP4 PUSH1 0x40 MLOAD DUP1 DUP3 DUP2 MSTORE PUSH1 0x20 ADD SWAP2 POP POP PUSH1 0x40 MLOAD DUP1 SWAP2 SUB SWAP1 LOG3 POP POP JUMP JUMPDEST PUSH1 0x0 DUP1 PUSH20 0xFFFFFFFFFFFFFFFFFFFFFFFFFFFFFFFFFFFFFFFF AND DUP3 PUSH20 0xFFFFFFFFFFFFFFFFFFFFFFFFFFFFFFFFFFFFFFFF AND EQ ISZERO PUSH3 0x6AB JUMPI PUSH1 0x40 MLOAD PUSH32 0x8C379A000000000000000000000000000000000000000000000000000000000 DUP2 MSTORE PUSH1 0x4 ADD DUP1 DUP1 PUSH1 0x20 ADD DUP3 DUP2 SUB DUP3 MSTORE PUSH1 0x22 DUP2 MSTORE PUSH1 0x20 ADD DUP1 PUSH3 0x2129 PUSH1 0x22 SWAP2 CODECOPY PUSH1 0x40 ADD SWAP2 POP POP PUSH1 0x40 MLOAD DUP1 SWAP2 SUB SWAP1 REVERT JUMPDEST DUP3 PUSH1 0x0 ADD PUSH1 0x0 DUP4 PUSH20 0xFFFFFFFFFFFFFFFFFFFFFFFFFFFFFFFFFFFFFFFF AND PUSH20 0xFFFFFFFFFFFFFFFFFFFFFFFFFFFFFFFFFFFFFFFF AND DUP2 MSTORE PUSH1 0x20 ADD SWAP1 DUP2 MSTORE PUSH1 0x20 ADD PUSH1 0x0 KECCAK256 PUSH1 0x0 SWAP1 SLOAD SWAP1 PUSH2 0x100 EXP SWAP1 DIV PUSH1 0xFF AND SWAP1 POP SWAP3 SWAP2 POP POP JUMP JUMPDEST PUSH1 0x0 DUP1 DUP3 DUP5 ADD SWAP1 POP DUP4 DUP2 LT ISZERO PUSH3 0x781 JUMPI PUSH1 0x40 MLOAD PUSH32 0x8C379A000000000000000000000000000000000000000000000000000000000 DUP2 MSTORE PUSH1 0x4 ADD DUP1 DUP1 PUSH1 0x20 ADD DUP3 DUP2 SUB DUP3 MSTORE PUSH1 0x1B DUP2 MSTORE PUSH1 0x20 ADD DUP1 PUSH32 0x536166654D6174683A206164646974696F6E206F766572666C6F770000000000 DUP2 MSTORE POP PUSH1 0x20 ADD SWAP2 POP POP PUSH1 0x40 MLOAD DUP1 SWAP2 SUB SWAP1 REVERT JUMPDEST DUP1 SWAP2 POP POP SWAP3 SWAP2 POP POP JUMP JUMPDEST DUP3 DUP1 SLOAD PUSH1 0x1 DUP2 PUSH1 0x1 AND ISZERO PUSH2 0x100 MUL SUB AND PUSH1 0x2 SWAP1 DIV SWAP1 PUSH1 0x0 MSTORE PUSH1 0x20 PUSH1 0x0 KECCAK256 SWAP1 PUSH1 0x1F ADD PUSH1 0x20 SWAP1 DIV DUP2 ADD SWAP3 DUP3 PUSH1 0x1F LT PUSH3 0x7CE JUMPI DUP1 MLOAD PUSH1 0xFF NOT AND DUP4 DUP1 ADD OR DUP6 SSTORE PUSH3 0x7FF JUMP JUMPDEST DUP3 DUP1 ADD PUSH1 0x1 ADD DUP6 SSTORE DUP3 ISZERO PUSH3 0x7FF JUMPI SWAP2 DUP3 ADD JUMPDEST DUP3 DUP2 GT ISZERO PUSH3 0x7FE JUMPI DUP3 MLOAD DUP3 SSTORE SWAP2 PUSH1 0x20 ADD SWAP2 SWAP1 PUSH1 0x1 ADD SWAP1 PUSH3 0x7E1 JUMP JUMPDEST JUMPDEST POP SWAP1 POP PUSH3 0x80E SWAP2 SWAP1 PUSH3 0x812 JUMP JUMPDEST POP SWAP1 JUMP JUMPDEST PUSH3 0x837 SWAP2 SWAP1 JUMPDEST DUP1 DUP3 GT ISZERO PUSH3 0x833 JUMPI PUSH1 0x0 DUP2 PUSH1 0x0 SWAP1 SSTORE POP PUSH1 0x1 ADD PUSH3 0x819 JUMP JUMPDEST POP SWAP1 JUMP JUMPDEST SWAP1 JUMP JUMPDEST PUSH2 0x18AF DUP1 PUSH3 0x84A PUSH1 0x0 CODECOPY PUSH1 0x0 RETURN INVALID PUSH1 0x80 PUSH1 0x40 MSTORE CALLVALUE DUP1 ISZERO PUSH2 0x10 JUMPI PUSH1 0x0 DUP1 REVERT JUMPDEST POP PUSH1 0x4 CALLDATASIZE LT PUSH2 0xF5 JUMPI PUSH1 0x0 CALLDATALOAD PUSH1 0xE0 SHR DUP1 PUSH4 0x70A08231 GT PUSH2 0x97 JUMPI DUP1 PUSH4 0xA457C2D7 GT PUSH2 0x66 JUMPI DUP1 PUSH4 0xA457C2D7 EQ PUSH2 0x4A0 JUMPI DUP1 PUSH4 0xA9059CBB EQ PUSH2 0x506 JUMPI DUP1 PUSH4 0xAA271E1A EQ PUSH2 0x56C JUMPI DUP1 PUSH4 0xDD62ED3E EQ PUSH2 0x5C8 JUMPI PUSH2 0xF5 JUMP JUMPDEST DUP1 PUSH4 0x70A08231 EQ PUSH2 0x377 JUMPI DUP1 PUSH4 0x95D89B41 EQ PUSH2 0x3CF JUMPI DUP1 PUSH4 0x983B2D56 EQ PUSH2 0x452 JUMPI DUP1 PUSH4 0x98650275 EQ PUSH2 0x496 JUMPI PUSH2 0xF5 JUMP JUMPDEST DUP1 PUSH4 0x23B872DD GT PUSH2 0xD3 JUMPI DUP1 PUSH4 0x23B872DD EQ PUSH2 0x201 JUMPI DUP1 PUSH4 0x313CE567 EQ PUSH2 0x287 JUMPI DUP1 PUSH4 0x39509351 EQ PUSH2 0x2AB JUMPI DUP1 PUSH4 0x40C10F19 EQ PUSH2 0x311 JUMPI PUSH2 0xF5 JUMP JUMPDEST DUP1 PUSH4 0x6FDDE03 EQ PUSH2 0xFA JUMPI DUP1 PUSH4 0x95EA7B3 EQ PUSH2 0x17D JUMPI DUP1 PUSH4 0x18160DDD EQ PUSH2 0x1E3 JUMPI JUMPDEST PUSH1 0x0 DUP1 REVERT JUMPDEST PUSH2 0x102 PUSH2 0x640 JUMP JUMPDEST PUSH1 0x40 MLOAD DUP1 DUP1 PUSH1 0x20 ADD DUP3 DUP2 SUB DUP3 MSTORE DUP4 DUP2 DUP2 MLOAD DUP2 MSTORE PUSH1 0x20 ADD SWAP2 POP DUP1 MLOAD SWAP1 PUSH1 0x20 ADD SWAP1 DUP1 DUP4 DUP4 PUSH1 0x0 JUMPDEST DUP4 DUP2 LT ISZERO PUSH2 0x142 JUMPI DUP1 DUP3 ADD MLOAD DUP2 DUP5 ADD MSTORE PUSH1 0x20 DUP2 ADD SWAP1 POP PUSH2 0x127 JUMP JUMPDEST POP POP POP POP SWAP1 POP SWAP1 DUP2 ADD SWAP1 PUSH1 0x1F AND DUP1 ISZERO PUSH2 0x16F JUMPI DUP1 DUP3 SUB DUP1 MLOAD PUSH1 0x1 DUP4 PUSH1 0x20 SUB PUSH2 0x100 EXP SUB NOT AND DUP2 MSTORE PUSH1 0x20 ADD SWAP2 POP JUMPDEST POP SWAP3 POP POP POP PUSH1 0x40 MLOAD DUP1 SWAP2 SUB SWAP1 RETURN JUMPDEST PUSH2 0x1C9 PUSH1 0x4 DUP1 CALLDATASIZE SUB PUSH1 0x40 DUP2 LT ISZERO PUSH2 0x193 JUMPI PUSH1 0x0 DUP1 REVERT JUMPDEST DUP2 ADD SWAP1 DUP1 DUP1 CALLDATALOAD PUSH20 0xFFFFFFFFFFFFFFFFFFFFFFFFFFFFFFFFFFFFFFFF AND SWAP1 PUSH1 0x20 ADD SWAP1 SWAP3 SWAP2 SWAP1 DUP1 CALLDATALOAD SWAP1 PUSH1 0x20 ADD SWAP1 SWAP3 SWAP2 SWAP1 POP POP POP PUSH2 0x6E2 JUMP JUMPDEST PUSH1 0x40 MLOAD DUP1 DUP3 ISZERO ISZERO ISZERO ISZERO DUP2 MSTORE PUSH1 0x20 ADD SWAP2 POP POP PUSH1 0x40 MLOAD DUP1 SWAP2 SUB SWAP1 RETURN JUMPDEST PUSH2 0x1EB PUSH2 0x700 JUMP JUMPDEST PUSH1 0x40 MLOAD DUP1 DUP3 DUP2 MSTORE PUSH1 0x20 ADD SWAP2 POP POP PUSH1 0x40 MLOAD DUP1 SWAP2 SUB SWAP1 RETURN JUMPDEST PUSH2 0x26D PUSH1 0x4 DUP1 CALLDATASIZE SUB PUSH1 0x60 DUP2 LT ISZERO PUSH2 0x217 JUMPI PUSH1 0x0 DUP1 REVERT JUMPDEST DUP2 ADD SWAP1 DUP1 DUP1 CALLDATALOAD PUSH20 0xFFFFFFFFFFFFFFFFFFFFFFFFFFFFFFFFFFFFFFFF AND SWAP1 PUSH1 0x20 ADD SWAP1 SWAP3 SWAP2 SWAP1 DUP1 CALLDATALOAD PUSH20 0xFFFFFFFFFFFFFFFFFFFFFFFFFFFFFFFFFFFFFFFF AND SWAP1 PUSH1 0x20 ADD SWAP1 SWAP3 SWAP2 SWAP1 DUP1 CALLDATALOAD SWAP1 PUSH1 0x20 ADD SWAP1 SWAP3 SWAP2 SWAP1 POP POP POP PUSH2 0x70A JUMP JUMPDEST PUSH1 0x40 MLOAD DUP1 DUP3 ISZERO ISZERO ISZERO ISZERO DUP2 MSTORE PUSH1 0x20 ADD SWAP2 POP POP PUSH1 0x40 MLOAD DUP1 SWAP2 SUB SWAP1 RETURN JUMPDEST PUSH2 0x28F PUSH2 0x7E3 JUMP JUMPDEST PUSH1 0x40 MLOAD DUP1 DUP3 PUSH1 0xFF AND PUSH1 0xFF AND DUP2 MSTORE PUSH1 0x20 ADD SWAP2 POP POP PUSH1 0x40 MLOAD DUP1 SWAP2 SUB SWAP1 RETURN JUMPDEST PUSH2 0x2F7 PUSH1 0x4 DUP1 CALLDATASIZE SUB PUSH1 0x40 DUP2 LT ISZERO PUSH2 0x2C1 JUMPI PUSH1 0x0 DUP1 REVERT JUMPDEST DUP2 ADD SWAP1 DUP1 DUP1 CALLDATALOAD PUSH20 0xFFFFFFFFFFFFFFFFFFFFFFFFFFFFFFFFFFFFFFFF AND SWAP1 PUSH1 0x20 ADD SWAP1 SWAP3 SWAP2 SWAP1 DUP1 CALLDATALOAD SWAP1 PUSH1 0x20 ADD SWAP1 SWAP3 SWAP2 SWAP1 POP POP POP PUSH2 0x7FA JUMP JUMPDEST PUSH1 0x40 MLOAD DUP1 DUP3 ISZERO ISZERO ISZERO ISZERO DUP2 MSTORE PUSH1 0x20 ADD SWAP2 POP POP PUSH1 0x40 MLOAD DUP1 SWAP2 SUB SWAP1 RETURN JUMPDEST PUSH2 0x35D PUSH1 0x4 DUP1 CALLDATASIZE SUB PUSH1 0x40 DUP2 LT ISZERO PUSH2 0x327 JUMPI PUSH1 0x0 DUP1 REVERT JUMPDEST DUP2 ADD SWAP1 DUP1 DUP1 CALLDATALOAD PUSH20 0xFFFFFFFFFFFFFFFFFFFFFFFFFFFFFFFFFFFFFFFF AND SWAP1 PUSH1 0x20 ADD SWAP1 SWAP3 SWAP2 SWAP1 DUP1 CALLDATALOAD SWAP1 PUSH1 0x20 ADD SWAP1 SWAP3 SWAP2 SWAP1 POP POP POP PUSH2 0x8AD JUMP JUMPDEST PUSH1 0x40 MLOAD DUP1 DUP3 ISZERO ISZERO ISZERO ISZERO DUP2 MSTORE PUSH1 0x20 ADD SWAP2 POP POP PUSH1 0x40 MLOAD DUP1 SWAP2 SUB SWAP1 RETURN JUMPDEST PUSH2 0x3B9 PUSH1 0x4 DUP1 CALLDATASIZE SUB PUSH1 0x20 DUP2 LT ISZERO PUSH2 0x38D JUMPI PUSH1 0x0 DUP1 REVERT JUMPDEST DUP2 ADD SWAP1 DUP1 DUP1 CALLDATALOAD PUSH20 0xFFFFFFFFFFFFFFFFFFFFFFFFFFFFFFFFFFFFFFFF AND SWAP1 PUSH1 0x20 ADD SWAP1 SWAP3 SWAP2 SWAP1 POP POP POP PUSH2 0x928 JUMP JUMPDEST PUSH1 0x40 MLOAD DUP1 DUP3 DUP2 MSTORE PUSH1 0x20 ADD SWAP2 POP POP PUSH1 0x40 MLOAD DUP1 SWAP2 SUB SWAP1 RETURN JUMPDEST PUSH2 0x3D7 PUSH2 0x970 JUMP JUMPDEST PUSH1 0x40 MLOAD DUP1 DUP1 PUSH1 0x20 ADD DUP3 DUP2 SUB DUP3 MSTORE DUP4 DUP2 DUP2 MLOAD DUP2 MSTORE PUSH1 0x20 ADD SWAP2 POP DUP1 MLOAD SWAP1 PUSH1 0x20 ADD SWAP1 DUP1 DUP4 DUP4 PUSH1 0x0 JUMPDEST DUP4 DUP2 LT ISZERO PUSH2 0x417 JUMPI DUP1 DUP3 ADD MLOAD DUP2 DUP5 ADD MSTORE PUSH1 0x20 DUP2 ADD SWAP1 POP PUSH2 0x3FC JUMP JUMPDEST POP POP POP POP SWAP1 POP SWAP1 DUP2 ADD SWAP1 PUSH1 0x1F AND DUP1 ISZERO PUSH2 0x444 JUMPI DUP1 DUP3 SUB DUP1 MLOAD PUSH1 0x1 DUP4 PUSH1 0x20 SUB PUSH2 0x100 EXP SUB NOT AND DUP2 MSTORE PUSH1 0x20 ADD SWAP2 POP JUMPDEST POP SWAP3 POP POP POP PUSH1 0x40 MLOAD DUP1 SWAP2 SUB SWAP1 RETURN JUMPDEST PUSH2 0x494 PUSH1 0x4 DUP1 CALLDATASIZE SUB PUSH1 0x20 DUP2 LT ISZERO PUSH2 0x468 JUMPI PUSH1 0x0 DUP1 REVERT JUMPDEST DUP2 ADD SWAP1 DUP1 DUP1 CALLDATALOAD PUSH20 0xFFFFFFFFFFFFFFFFFFFFFFFFFFFFFFFFFFFFFFFF AND SWAP1 PUSH1 0x20 ADD SWAP1 SWAP3 SWAP2 SWAP1 POP POP POP PUSH2 0xA12 JUMP JUMPDEST STOP JUMPDEST PUSH2 0x49E PUSH2 0xA83 JUMP JUMPDEST STOP JUMPDEST PUSH2 0x4EC PUSH1 0x4 DUP1 CALLDATASIZE SUB PUSH1 0x40 DUP2 LT ISZERO PUSH2 0x4B6 JUMPI PUSH1 0x0 DUP1 REVERT JUMPDEST DUP2 ADD SWAP1 DUP1 DUP1 CALLDATALOAD PUSH20 0xFFFFFFFFFFFFFFFFFFFFFFFFFFFFFFFFFFFFFFFF AND SWAP1 PUSH1 0x20 ADD SWAP1 SWAP3 SWAP2 SWAP1 DUP1 CALLDATALOAD SWAP1 PUSH1 0x20 ADD SWAP1 SWAP3 SWAP2 SWAP1 POP POP POP PUSH2 0xA95 JUMP JUMPDEST PUSH1 0x40 MLOAD DUP1 DUP3 ISZERO ISZERO ISZERO ISZERO DUP2 MSTORE PUSH1 0x20 ADD SWAP2 POP POP PUSH1 0x40 MLOAD DUP1 SWAP2 SUB SWAP1 RETURN JUMPDEST PUSH2 0x552 PUSH1 0x4 DUP1 CALLDATASIZE SUB PUSH1 0x40 DUP2 LT ISZERO PUSH2 0x51C JUMPI PUSH1 0x0 DUP1 REVERT JUMPDEST DUP2 ADD SWAP1 DUP1 DUP1 CALLDATALOAD PUSH20 0xFFFFFFFFFFFFFFFFFFFFFFFFFFFFFFFFFFFFFFFF AND SWAP1 PUSH1 0x20 ADD SWAP1 SWAP3 SWAP2 SWAP1 DUP1 CALLDATALOAD SWAP1 PUSH1 0x20 ADD SWAP1 SWAP3 SWAP2 SWAP1 POP POP POP PUSH2 0xB62 JUMP JUMPDEST PUSH1 0x40 MLOAD DUP1 DUP3 ISZERO ISZERO ISZERO ISZERO DUP2 MSTORE PUSH1 0x20 ADD SWAP2 POP POP PUSH1 0x40 MLOAD DUP1 SWAP2 SUB SWAP1 RETURN JUMPDEST PUSH2 0x5AE PUSH1 0x4 DUP1 CALLDATASIZE SUB PUSH1 0x20 DUP2 LT ISZERO PUSH2 0x582 JUMPI PUSH1 0x0 DUP1 REVERT JUMPDEST DUP2 ADD SWAP1 DUP1 DUP1 CALLDATALOAD PUSH20 0xFFFFFFFFFFFFFFFFFFFFFFFFFFFFFFFFFFFFFFFF AND SWAP1 PUSH1 0x20 ADD SWAP1 SWAP3 SWAP2 SWAP1 POP POP POP PUSH2 0xB80 JUMP JUMPDEST PUSH1 0x40 MLOAD DUP1 DUP3 ISZERO ISZERO ISZERO ISZERO DUP2 MSTORE PUSH1 0x20 ADD SWAP2 POP POP PUSH1 0x40 MLOAD DUP1 SWAP2 SUB SWAP1 RETURN JUMPDEST PUSH2 0x62A PUSH1 0x4 DUP1 CALLDATASIZE SUB PUSH1 0x40 DUP2 LT ISZERO PUSH2 0x5DE JUMPI PUSH1 0x0 DUP1 REVERT JUMPDEST DUP2 ADD SWAP1 DUP1 DUP1 CALLDATALOAD PUSH20 0xFFFFFFFFFFFFFFFFFFFFFFFFFFFFFFFFFFFFFFFF AND SWAP1 PUSH1 0x20 ADD SWAP1 SWAP3 SWAP2 SWAP1 DUP1 CALLDATALOAD PUSH20 0xFFFFFFFFFFFFFFFFFFFFFFFFFFFFFFFFFFFFFFFF AND SWAP1 PUSH1 0x20 ADD SWAP1 SWAP3 SWAP2 SWAP1 POP POP POP PUSH2 0xB9D JUMP JUMPDEST PUSH1 0x40 MLOAD DUP1 DUP3 DUP2 MSTORE PUSH1 0x20 ADD SWAP2 POP POP PUSH1 0x40 MLOAD DUP1 SWAP2 SUB SWAP1 RETURN JUMPDEST PUSH1 0x60 PUSH1 0x3 DUP1 SLOAD PUSH1 0x1 DUP2 PUSH1 0x1 AND ISZERO PUSH2 0x100 MUL SUB AND PUSH1 0x2 SWAP1 DIV DUP1 PUSH1 0x1F ADD PUSH1 0x20 DUP1 SWAP2 DIV MUL PUSH1 0x20 ADD PUSH1 0x40 MLOAD SWAP1 DUP2 ADD PUSH1 0x40 MSTORE DUP1 SWAP3 SWAP2 SWAP1 DUP2 DUP2 MSTORE PUSH1 0x20 ADD DUP3 DUP1 SLOAD PUSH1 0x1 DUP2 PUSH1 0x1 AND ISZERO PUSH2 0x100 MUL SUB AND PUSH1 0x2 SWAP1 DIV DUP1 ISZERO PUSH2 0x6D8 JUMPI DUP1 PUSH1 0x1F LT PUSH2 0x6AD JUMPI PUSH2 0x100 DUP1 DUP4 SLOAD DIV MUL DUP4 MSTORE SWAP2 PUSH1 0x20 ADD SWAP2 PUSH2 0x6D8 JUMP JUMPDEST DUP3 ADD SWAP2 SWAP1 PUSH1 0x0 MSTORE PUSH1 0x20 PUSH1 0x0 KECCAK256 SWAP1 JUMPDEST DUP2 SLOAD DUP2 MSTORE SWAP1 PUSH1 0x1 ADD SWAP1 PUSH1 0x20 ADD DUP1 DUP4 GT PUSH2 0x6BB JUMPI DUP3 SWAP1 SUB PUSH1 0x1F AND DUP3 ADD SWAP2 JUMPDEST POP POP POP POP POP SWAP1 POP SWAP1 JUMP JUMPDEST PUSH1 0x0 PUSH2 0x6F6 PUSH2 0x6EF PUSH2 0xC24 JUMP JUMPDEST DUP5 DUP5 PUSH2 0xC2C JUMP JUMPDEST PUSH1 0x1 SWAP1 POP SWAP3 SWAP2 POP POP JUMP JUMPDEST PUSH1 0x0 PUSH1 0x2 SLOAD SWAP1 POP SWAP1 JUMP JUMPDEST PUSH1 0x0 PUSH2 0x717 DUP5 DUP5 DUP5 PUSH2 0xE23 JUMP JUMPDEST PUSH2 0x7D8 DUP5 PUSH2 0x723 PUSH2 0xC24 JUMP JUMPDEST PUSH2 0x7D3 DUP6 PUSH1 0x40 MLOAD DUP1 PUSH1 0x60 ADD PUSH1 0x40 MSTORE DUP1 PUSH1 0x28 DUP2 MSTORE PUSH1 0x20 ADD PUSH2 0x17C3 PUSH1 0x28 SWAP2 CODECOPY PUSH1 0x1 PUSH1 0x0 DUP12 PUSH20 0xFFFFFFFFFFFFFFFFFFFFFFFFFFFFFFFFFFFFFFFF AND PUSH20 0xFFFFFFFFFFFFFFFFFFFFFFFFFFFFFFFFFFFFFFFF AND DUP2 MSTORE PUSH1 0x20 ADD SWAP1 DUP2 MSTORE PUSH1 0x20 ADD PUSH1 0x0 KECCAK256 PUSH1 0x0 PUSH2 0x789 PUSH2 0xC24 JUMP JUMPDEST PUSH20 0xFFFFFFFFFFFFFFFFFFFFFFFFFFFFFFFFFFFFFFFF AND PUSH20 0xFFFFFFFFFFFFFFFFFFFFFFFFFFFFFFFFFFFFFFFF AND DUP2 MSTORE PUSH1 0x20 ADD SWAP1 DUP2 MSTORE PUSH1 0x20 ADD PUSH1 0x0 KECCAK256 SLOAD PUSH2 0x10D9 SWAP1 SWAP3 SWAP2 SWAP1 PUSH4 0xFFFFFFFF AND JUMP JUMPDEST PUSH2 0xC2C JUMP JUMPDEST PUSH1 0x1 SWAP1 POP SWAP4 SWAP3 POP POP POP JUMP JUMPDEST PUSH1 0x0 PUSH1 0x5 PUSH1 0x0 SWAP1 SLOAD SWAP1 PUSH2 0x100 EXP SWAP1 DIV PUSH1 0xFF AND SWAP1 POP SWAP1 JUMP JUMPDEST PUSH1 0x0 PUSH2 0x8A3 PUSH2 0x807 PUSH2 0xC24 JUMP JUMPDEST DUP5 PUSH2 0x89E DUP6 PUSH1 0x1 PUSH1 0x0 PUSH2 0x818 PUSH2 0xC24 JUMP JUMPDEST PUSH20 0xFFFFFFFFFFFFFFFFFFFFFFFFFFFFFFFFFFFFFFFF AND PUSH20 0xFFFFFFFFFFFFFFFFFFFFFFFFFFFFFFFFFFFFFFFF AND DUP2 MSTORE PUSH1 0x20 ADD SWAP1 DUP2 MSTORE PUSH1 0x20 ADD PUSH1 0x0 KECCAK256 PUSH1 0x0 DUP10 PUSH20 0xFFFFFFFFFFFFFFFFFFFFFFFFFFFFFFFFFFFFFFFF AND PUSH20 0xFFFFFFFFFFFFFFFFFFFFFFFFFFFFFFFFFFFFFFFF AND DUP2 MSTORE PUSH1 0x20 ADD SWAP1 DUP2 MSTORE PUSH1 0x20 ADD PUSH1 0x0 KECCAK256 SLOAD PUSH2 0x1199 SWAP1 SWAP2 SWAP1 PUSH4 0xFFFFFFFF AND JUMP JUMPDEST PUSH2 0xC2C JUMP JUMPDEST PUSH1 0x1 SWAP1 POP SWAP3 SWAP2 POP POP JUMP JUMPDEST PUSH1 0x0 PUSH2 0x8BF PUSH2 0x8BA PUSH2 0xC24 JUMP JUMPDEST PUSH2 0xB80 JUMP JUMPDEST PUSH2 0x914 JUMPI PUSH1 0x40 MLOAD PUSH32 0x8C379A000000000000000000000000000000000000000000000000000000000 DUP2 MSTORE PUSH1 0x4 ADD DUP1 DUP1 PUSH1 0x20 ADD DUP3 DUP2 SUB DUP3 MSTORE PUSH1 0x30 DUP2 MSTORE PUSH1 0x20 ADD DUP1 PUSH2 0x1772 PUSH1 0x30 SWAP2 CODECOPY PUSH1 0x40 ADD SWAP2 POP POP PUSH1 0x40 MLOAD DUP1 SWAP2 SUB SWAP1 REVERT JUMPDEST PUSH2 0x91E DUP4 DUP4 PUSH2 0x1221 JUMP JUMPDEST PUSH1 0x1 SWAP1 POP SWAP3 SWAP2 POP POP JUMP JUMPDEST PUSH1 0x0 DUP1 PUSH1 0x0 DUP4 PUSH20 0xFFFFFFFFFFFFFFFFFFFFFFFFFFFFFFFFFFFFFFFF AND PUSH20 0xFFFFFFFFFFFFFFFFFFFFFFFFFFFFFFFFFFFFFFFF AND DUP2 MSTORE PUSH1 0x20 ADD SWAP1 DUP2 MSTORE PUSH1 0x20 ADD PUSH1 0x0 KECCAK256 SLOAD SWAP1 POP SWAP2 SWAP1 POP JUMP JUMPDEST PUSH1 0x60 PUSH1 0x4 DUP1 SLOAD PUSH1 0x1 DUP2 PUSH1 0x1 AND ISZERO PUSH2 0x100 MUL SUB AND PUSH1 0x2 SWAP1 DIV DUP1 PUSH1 0x1F ADD PUSH1 0x20 DUP1 SWAP2 DIV MUL PUSH1 0x20 ADD PUSH1 0x40 MLOAD SWAP1 DUP2 ADD PUSH1 0x40 MSTORE DUP1 SWAP3 SWAP2 SWAP1 DUP2 DUP2 MSTORE PUSH1 0x20 ADD DUP3 DUP1 SLOAD PUSH1 0x1 DUP2 PUSH1 0x1 AND ISZERO PUSH2 0x100 MUL SUB AND PUSH1 0x2 SWAP1 DIV DUP1 ISZERO PUSH2 0xA08 JUMPI DUP1 PUSH1 0x1F LT PUSH2 0x9DD JUMPI PUSH2 0x100 DUP1 DUP4 SLOAD DIV MUL DUP4 MSTORE SWAP2 PUSH1 0x20 ADD SWAP2 PUSH2 0xA08 JUMP JUMPDEST DUP3 ADD SWAP2 SWAP1 PUSH1 0x0 MSTORE PUSH1 0x20 PUSH1 0x0 KECCAK256 SWAP1 JUMPDEST DUP2 SLOAD DUP2 MSTORE SWAP1 PUSH1 0x1 ADD SWAP1 PUSH1 0x20 ADD DUP1 DUP4 GT PUSH2 0x9EB JUMPI DUP3 SWAP1 SUB PUSH1 0x1F AND DUP3 ADD SWAP2 JUMPDEST POP POP POP POP POP SWAP1 POP SWAP1 JUMP JUMPDEST PUSH2 0xA22 PUSH2 0xA1D PUSH2 0xC24 JUMP JUMPDEST PUSH2 0xB80 JUMP JUMPDEST PUSH2 0xA77 JUMPI PUSH1 0x40 MLOAD PUSH32 0x8C379A000000000000000000000000000000000000000000000000000000000 DUP2 MSTORE PUSH1 0x4 ADD DUP1 DUP1 PUSH1 0x20 ADD DUP3 DUP2 SUB DUP3 MSTORE PUSH1 0x30 DUP2 MSTORE PUSH1 0x20 ADD DUP1 PUSH2 0x1772 PUSH1 0x30 SWAP2 CODECOPY PUSH1 0x40 ADD SWAP2 POP POP PUSH1 0x40 MLOAD DUP1 SWAP2 SUB SWAP1 REVERT JUMPDEST PUSH2 0xA80 DUP2 PUSH2 0x13DC JUMP JUMPDEST POP JUMP JUMPDEST PUSH2 0xA93 PUSH2 0xA8E PUSH2 0xC24 JUMP JUMPDEST PUSH2 0x1436 JUMP JUMPDEST JUMP JUMPDEST PUSH1 0x0 PUSH2 0xB58 PUSH2 0xAA2 PUSH2 0xC24 JUMP JUMPDEST DUP5 PUSH2 0xB53 DUP6 PUSH1 0x40 MLOAD DUP1 PUSH1 0x60 ADD PUSH1 0x40 MSTORE DUP1 PUSH1 0x25 DUP2 MSTORE PUSH1 0x20 ADD PUSH2 0x1856 PUSH1 0x25 SWAP2 CODECOPY PUSH1 0x1 PUSH1 0x0 PUSH2 0xACC PUSH2 0xC24 JUMP JUMPDEST PUSH20 0xFFFFFFFFFFFFFFFFFFFFFFFFFFFFFFFFFFFFFFFF AND PUSH20 0xFFFFFFFFFFFFFFFFFFFFFFFFFFFFFFFFFFFFFFFF AND DUP2 MSTORE PUSH1 0x20 ADD SWAP1 DUP2 MSTORE PUSH1 0x20 ADD PUSH1 0x0 KECCAK256 PUSH1 0x0 DUP11 PUSH20 0xFFFFFFFFFFFFFFFFFFFFFFFFFFFFFFFFFFFFFFFF AND PUSH20 0xFFFFFFFFFFFFFFFFFFFFFFFFFFFFFFFFFFFFFFFF AND DUP2 MSTORE PUSH1 0x20 ADD SWAP1 DUP2 MSTORE PUSH1 0x20 ADD PUSH1 0x0 KECCAK256 SLOAD PUSH2 0x10D9 SWAP1 SWAP3 SWAP2 SWAP1 PUSH4 0xFFFFFFFF AND JUMP JUMPDEST PUSH2 0xC2C JUMP JUMPDEST PUSH1 0x1 SWAP1 POP SWAP3 SWAP2 POP POP JUMP JUMPDEST PUSH1 0x0 PUSH2 0xB76 PUSH2 0xB6F PUSH2 0xC24 JUMP JUMPDEST DUP5 DUP5 PUSH2 0xE23 JUMP JUMPDEST PUSH1 0x1 SWAP1 POP SWAP3 SWAP2 POP POP JUMP JUMPDEST PUSH1 0x0 PUSH2 0xB96 DUP3 PUSH1 0x6 PUSH2 0x1490 SWAP1 SWAP2 SWAP1 PUSH4 0xFFFFFFFF AND JUMP JUMPDEST SWAP1 POP SWAP2 SWAP1 POP JUMP JUMPDEST PUSH1 0x0 PUSH1 0x1 PUSH1 0x0 DUP5 PUSH20 0xFFFFFFFFFFFFFFFFFFFFFFFFFFFFFFFFFFFFFFFF AND PUSH20 0xFFFFFFFFFFFFFFFFFFFFFFFFFFFFFFFFFFFFFFFF AND DUP2 MSTORE PUSH1 0x20 ADD SWAP1 DUP2 MSTORE PUSH1 0x20 ADD PUSH1 0x0 KECCAK256 PUSH1 0x0 DUP4 PUSH20 0xFFFFFFFFFFFFFFFFFFFFFFFFFFFFFFFFFFFFFFFF AND PUSH20 0xFFFFFFFFFFFFFFFFFFFFFFFFFFFFFFFFFFFFFFFF AND DUP2 MSTORE PUSH1 0x20 ADD SWAP1 DUP2 MSTORE PUSH1 0x20 ADD PUSH1 0x0 KECCAK256 SLOAD SWAP1 POP SWAP3 SWAP2 POP POP JUMP JUMPDEST PUSH1 0x0 CALLER SWAP1 POP SWAP1 JUMP JUMPDEST PUSH1 0x0 PUSH20 0xFFFFFFFFFFFFFFFFFFFFFFFFFFFFFFFFFFFFFFFF AND DUP4 PUSH20 0xFFFFFFFFFFFFFFFFFFFFFFFFFFFFFFFFFFFFFFFF AND EQ ISZERO PUSH2 0xCB2 JUMPI PUSH1 0x40 MLOAD PUSH32 0x8C379A000000000000000000000000000000000000000000000000000000000 DUP2 MSTORE PUSH1 0x4 ADD DUP1 DUP1 PUSH1 0x20 ADD DUP3 DUP2 SUB DUP3 MSTORE PUSH1 0x24 DUP2 MSTORE PUSH1 0x20 ADD DUP1 PUSH2 0x1832 PUSH1 0x24 SWAP2 CODECOPY PUSH1 0x40 ADD SWAP2 POP POP PUSH1 0x40 MLOAD DUP1 SWAP2 SUB SWAP1 REVERT JUMPDEST PUSH1 0x0 PUSH20 0xFFFFFFFFFFFFFFFFFFFFFFFFFFFFFFFFFFFFFFFF AND DUP3 PUSH20 0xFFFFFFFFFFFFFFFFFFFFFFFFFFFFFFFFFFFFFFFF AND EQ ISZERO PUSH2 0xD38 JUMPI PUSH1 0x40 MLOAD PUSH32 0x8C379A000000000000000000000000000000000000000000000000000000000 DUP2 MSTORE PUSH1 0x4 ADD DUP1 DUP1 PUSH1 0x20 ADD DUP3 DUP2 SUB DUP3 MSTORE PUSH1 0x22 DUP2 MSTORE PUSH1 0x20 ADD DUP1 PUSH2 0x172A PUSH1 0x22 SWAP2 CODECOPY PUSH1 0x40 ADD SWAP2 POP POP PUSH1 0x40 MLOAD DUP1 SWAP2 SUB SWAP1 REVERT JUMPDEST DUP1 PUSH1 0x1 PUSH1 0x0 DUP6 PUSH20 0xFFFFFFFFFFFFFFFFFFFFFFFFFFFFFFFFFFFFFFFF AND PUSH20 0xFFFFFFFFFFFFFFFFFFFFFFFFFFFFFFFFFFFFFFFF AND DUP2 MSTORE PUSH1 0x20 ADD SWAP1 DUP2 MSTORE PUSH1 0x20 ADD PUSH1 0x0 KECCAK256 PUSH1 0x0 DUP5 PUSH20 0xFFFFFFFFFFFFFFFFFFFFFFFFFFFFFFFFFFFFFFFF AND PUSH20 0xFFFFFFFFFFFFFFFFFFFFFFFFFFFFFFFFFFFFFFFF AND DUP2 MSTORE PUSH1 0x20 ADD SWAP1 DUP2 MSTORE PUSH1 0x20 ADD PUSH1 0x0 KECCAK256 DUP2 SWAP1 SSTORE POP DUP2 PUSH20 0xFFFFFFFFFFFFFFFFFFFFFFFFFFFFFFFFFFFFFFFF AND DUP4 PUSH20 0xFFFFFFFFFFFFFFFFFFFFFFFFFFFFFFFFFFFFFFFF AND PUSH32 0x8C5BE1E5EBEC7D5BD14F71427D1E84F3DD0314C0F7B2291E5B200AC8C7C3B925 DUP4 PUSH1 0x40 MLOAD DUP1 DUP3 DUP2 MSTORE PUSH1 0x20 ADD SWAP2 POP POP PUSH1 0x40 MLOAD DUP1 SWAP2 SUB SWAP1 LOG3 POP POP POP JUMP JUMPDEST PUSH1 0x0 PUSH20 0xFFFFFFFFFFFFFFFFFFFFFFFFFFFFFFFFFFFFFFFF AND DUP4 PUSH20 0xFFFFFFFFFFFFFFFFFFFFFFFFFFFFFFFFFFFFFFFF AND EQ ISZERO PUSH2 0xEA9 JUMPI PUSH1 0x40 MLOAD PUSH32 0x8C379A000000000000000000000000000000000000000000000000000000000 DUP2 MSTORE PUSH1 0x4 ADD DUP1 DUP1 PUSH1 0x20 ADD DUP3 DUP2 SUB DUP3 MSTORE PUSH1 0x25 DUP2 MSTORE PUSH1 0x20 ADD DUP1 PUSH2 0x180D PUSH1 0x25 SWAP2 CODECOPY PUSH1 0x40 ADD SWAP2 POP POP PUSH1 0x40 MLOAD DUP1 SWAP2 SUB SWAP1 REVERT JUMPDEST PUSH1 0x0 PUSH20 0xFFFFFFFFFFFFFFFFFFFFFFFFFFFFFFFFFFFFFFFF AND DUP3 PUSH20 0xFFFFFFFFFFFFFFFFFFFFFFFFFFFFFFFFFFFFFFFF AND EQ ISZERO PUSH2 0xF2F JUMPI PUSH1 0x40 MLOAD PUSH32 0x8C379A000000000000000000000000000000000000000000000000000000000 DUP2 MSTORE PUSH1 0x4 ADD DUP1 DUP1 PUSH1 0x20 ADD DUP3 DUP2 SUB DUP3 MSTORE PUSH1 0x23 DUP2 MSTORE PUSH1 0x20 ADD DUP1 PUSH2 0x1707 PUSH1 0x23 SWAP2 CODECOPY PUSH1 0x40 ADD SWAP2 POP POP PUSH1 0x40 MLOAD DUP1 SWAP2 SUB SWAP1 REVERT JUMPDEST PUSH2 0xF9A DUP2 PUSH1 0x40 MLOAD DUP1 PUSH1 0x60 ADD PUSH1 0x40 MSTORE DUP1 PUSH1 0x26 DUP2 MSTORE PUSH1 0x20 ADD PUSH2 0x174C PUSH1 0x26 SWAP2 CODECOPY PUSH1 0x0 DUP1 DUP8 PUSH20 0xFFFFFFFFFFFFFFFFFFFFFFFFFFFFFFFFFFFFFFFF AND PUSH20 0xFFFFFFFFFFFFFFFFFFFFFFFFFFFFFFFFFFFFFFFF AND DUP2 MSTORE PUSH1 0x20 ADD SWAP1 DUP2 MSTORE PUSH1 0x20 ADD PUSH1 0x0 KECCAK256 SLOAD PUSH2 0x10D9 SWAP1 SWAP3 SWAP2 SWAP1 PUSH4 0xFFFFFFFF AND JUMP JUMPDEST PUSH1 0x0 DUP1 DUP6 PUSH20 0xFFFFFFFFFFFFFFFFFFFFFFFFFFFFFFFFFFFFFFFF AND PUSH20 0xFFFFFFFFFFFFFFFFFFFFFFFFFFFFFFFFFFFFFFFF AND DUP2 MSTORE PUSH1 0x20 ADD SWAP1 DUP2 MSTORE PUSH1 0x20 ADD PUSH1 0x0 KECCAK256 DUP2 SWAP1 SSTORE POP PUSH2 0x102D DUP2 PUSH1 0x0 DUP1 DUP6 PUSH20 0xFFFFFFFFFFFFFFFFFFFFFFFFFFFFFFFFFFFFFFFF AND PUSH20 0xFFFFFFFFFFFFFFFFFFFFFFFFFFFFFFFFFFFFFFFF AND DUP2 MSTORE PUSH1 0x20 ADD SWAP1 DUP2 MSTORE PUSH1 0x20 ADD PUSH1 0x0 KECCAK256 SLOAD PUSH2 0x1199 SWAP1 SWAP2 SWAP1 PUSH4 0xFFFFFFFF AND JUMP JUMPDEST PUSH1 0x0 DUP1 DUP5 PUSH20 0xFFFFFFFFFFFFFFFFFFFFFFFFFFFFFFFFFFFFFFFF AND PUSH20 0xFFFFFFFFFFFFFFFFFFFFFFFFFFFFFFFFFFFFFFFF AND DUP2 MSTORE PUSH1 0x20 ADD SWAP1 DUP2 MSTORE PUSH1 0x20 ADD PUSH1 0x0 KECCAK256 DUP2 SWAP1 SSTORE POP DUP2 PUSH20 0xFFFFFFFFFFFFFFFFFFFFFFFFFFFFFFFFFFFFFFFF AND DUP4 PUSH20 0xFFFFFFFFFFFFFFFFFFFFFFFFFFFFFFFFFFFFFFFF AND PUSH32 0xDDF252AD1BE2C89B69C2B068FC378DAA952BA7F163C4A11628F55A4DF523B3EF DUP4 PUSH1 0x40 MLOAD DUP1 DUP3 DUP2 MSTORE PUSH1 0x20 ADD SWAP2 POP POP PUSH1 0x40 MLOAD DUP1 SWAP2 SUB SWAP1 LOG3 POP POP POP JUMP JUMPDEST PUSH1 0x0 DUP4 DUP4 GT ISZERO DUP3 SWAP1 PUSH2 0x1186 JUMPI PUSH1 0x40 MLOAD PUSH32 0x8C379A000000000000000000000000000000000000000000000000000000000 DUP2 MSTORE PUSH1 0x4 ADD DUP1 DUP1 PUSH1 0x20 ADD DUP3 DUP2 SUB DUP3 MSTORE DUP4 DUP2 DUP2 MLOAD DUP2 MSTORE PUSH1 0x20 ADD SWAP2 POP DUP1 MLOAD SWAP1 PUSH1 0x20 ADD SWAP1 DUP1 DUP4 DUP4 PUSH1 0x0 JUMPDEST DUP4 DUP2 LT ISZERO PUSH2 0x114B JUMPI DUP1 DUP3 ADD MLOAD DUP2 DUP5 ADD MSTORE PUSH1 0x20 DUP2 ADD SWAP1 POP PUSH2 0x1130 JUMP JUMPDEST POP POP POP POP SWAP1 POP SWAP1 DUP2 ADD SWAP1 PUSH1 0x1F AND DUP1 ISZERO PUSH2 0x1178 JUMPI DUP1 DUP3 SUB DUP1 MLOAD PUSH1 0x1 DUP4 PUSH1 0x20 SUB PUSH2 0x100 EXP SUB NOT AND DUP2 MSTORE PUSH1 0x20 ADD SWAP2 POP JUMPDEST POP SWAP3 POP POP POP PUSH1 0x40 MLOAD DUP1 SWAP2 SUB SWAP1 REVERT JUMPDEST POP PUSH1 0x0 DUP4 DUP6 SUB SWAP1 POP DUP1 SWAP2 POP POP SWAP4 SWAP3 POP POP POP JUMP JUMPDEST PUSH1 0x0 DUP1 DUP3 DUP5 ADD SWAP1 POP DUP4 DUP2 LT ISZERO PUSH2 0x1217 JUMPI PUSH1 0x40 MLOAD PUSH32 0x8C379A000000000000000000000000000000000000000000000000000000000 DUP2 MSTORE PUSH1 0x4 ADD DUP1 DUP1 PUSH1 0x20 ADD DUP3 DUP2 SUB DUP3 MSTORE PUSH1 0x1B DUP2 MSTORE PUSH1 0x20 ADD DUP1 PUSH32 0x536166654D6174683A206164646974696F6E206F766572666C6F770000000000 DUP2 MSTORE POP PUSH1 0x20 ADD SWAP2 POP POP PUSH1 0x40 MLOAD DUP1 SWAP2 SUB SWAP1 REVERT JUMPDEST DUP1 SWAP2 POP POP SWAP3 SWAP2 POP POP JUMP JUMPDEST PUSH1 0x0 PUSH20 0xFFFFFFFFFFFFFFFFFFFFFFFFFFFFFFFFFFFFFFFF AND DUP3 PUSH20 0xFFFFFFFFFFFFFFFFFFFFFFFFFFFFFFFFFFFFFFFF AND EQ ISZERO PUSH2 0x12C4 JUMPI PUSH1 0x40 MLOAD PUSH32 0x8C379A000000000000000000000000000000000000000000000000000000000 DUP2 MSTORE PUSH1 0x4 ADD DUP1 DUP1 PUSH1 0x20 ADD DUP3 DUP2 SUB DUP3 MSTORE PUSH1 0x1F DUP2 MSTORE PUSH1 0x20 ADD DUP1 PUSH32 0x45524332303A206D696E7420746F20746865207A65726F206164647265737300 DUP2 MSTORE POP PUSH1 0x20 ADD SWAP2 POP POP PUSH1 0x40 MLOAD DUP1 SWAP2 SUB SWAP1 REVERT JUMPDEST PUSH2 0x12D9 DUP2 PUSH1 0x2 SLOAD PUSH2 0x1199 SWAP1 SWAP2 SWAP1 PUSH4 0xFFFFFFFF AND JUMP JUMPDEST PUSH1 0x2 DUP2 SWAP1 SSTORE POP PUSH2 0x1330 DUP2 PUSH1 0x0 DUP1 DUP6 PUSH20 0xFFFFFFFFFFFFFFFFFFFFFFFFFFFFFFFFFFFFFFFF AND PUSH20 0xFFFFFFFFFFFFFFFFFFFFFFFFFFFFFFFFFFFFFFFF AND DUP2 MSTORE PUSH1 0x20 ADD SWAP1 DUP2 MSTORE PUSH1 0x20 ADD PUSH1 0x0 KECCAK256 SLOAD PUSH2 0x1199 SWAP1 SWAP2 SWAP1 PUSH4 0xFFFFFFFF AND JUMP JUMPDEST PUSH1 0x0 DUP1 DUP5 PUSH20 0xFFFFFFFFFFFFFFFFFFFFFFFFFFFFFFFFFFFFFFFF AND PUSH20 0xFFFFFFFFFFFFFFFFFFFFFFFFFFFFFFFFFFFFFFFF AND DUP2 MSTORE PUSH1 0x20 ADD SWAP1 DUP2 MSTORE PUSH1 0x20 ADD PUSH1 0x0 KECCAK256 DUP2 SWAP1 SSTORE POP DUP2 PUSH20 0xFFFFFFFFFFFFFFFFFFFFFFFFFFFFFFFFFFFFFFFF AND PUSH1 0x0 PUSH20 0xFFFFFFFFFFFFFFFFFFFFFFFFFFFFFFFFFFFFFFFF AND PUSH32 0xDDF252AD1BE2C89B69C2B068FC378DAA952BA7F163C4A11628F55A4DF523B3EF DUP4 PUSH1 0x40 MLOAD DUP1 DUP3 DUP2 MSTORE PUSH1 0x20 ADD SWAP2 POP POP PUSH1 0x40 MLOAD DUP1 SWAP2 SUB SWAP1 LOG3 POP POP JUMP JUMPDEST PUSH2 0x13F0 DUP2 PUSH1 0x6 PUSH2 0x156E SWAP1 SWAP2 SWAP1 PUSH4 0xFFFFFFFF AND JUMP JUMPDEST DUP1 PUSH20 0xFFFFFFFFFFFFFFFFFFFFFFFFFFFFFFFFFFFFFFFF AND PUSH32 0x6AE172837EA30B801FBFCDD4108AA1D5BF8FF775444FD70256B44E6BF3DFC3F6 PUSH1 0x40 MLOAD PUSH1 0x40 MLOAD DUP1 SWAP2 SUB SWAP1 LOG2 POP JUMP JUMPDEST PUSH2 0x144A DUP2 PUSH1 0x6 PUSH2 0x1649 SWAP1 SWAP2 SWAP1 PUSH4 0xFFFFFFFF AND JUMP JUMPDEST DUP1 PUSH20 0xFFFFFFFFFFFFFFFFFFFFFFFFFFFFFFFFFFFFFFFF AND PUSH32 0xE94479A9F7E1952CC78F2D6BAAB678ADC1B772D936C6583DEF489E524CB66692 PUSH1 0x40 MLOAD PUSH1 0x40 MLOAD DUP1 SWAP2 SUB SWAP1 LOG2 POP JUMP JUMPDEST PUSH1 0x0 DUP1 PUSH20 0xFFFFFFFFFFFFFFFFFFFFFFFFFFFFFFFFFFFFFFFF AND DUP3 PUSH20 0xFFFFFFFFFFFFFFFFFFFFFFFFFFFFFFFFFFFFFFFF AND EQ ISZERO PUSH2 0x1517 JUMPI PUSH1 0x40 MLOAD PUSH32 0x8C379A000000000000000000000000000000000000000000000000000000000 DUP2 MSTORE PUSH1 0x4 ADD DUP1 DUP1 PUSH1 0x20 ADD DUP3 DUP2 SUB DUP3 MSTORE PUSH1 0x22 DUP2 MSTORE PUSH1 0x20 ADD DUP1 PUSH2 0x17EB PUSH1 0x22 SWAP2 CODECOPY PUSH1 0x40 ADD SWAP2 POP POP PUSH1 0x40 MLOAD DUP1 SWAP2 SUB SWAP1 REVERT JUMPDEST DUP3 PUSH1 0x0 ADD PUSH1 0x0 DUP4 PUSH20 0xFFFFFFFFFFFFFFFFFFFFFFFFFFFFFFFFFFFFFFFF AND PUSH20 0xFFFFFFFFFFFFFFFFFFFFFFFFFFFFFFFFFFFFFFFF AND DUP2 MSTORE PUSH1 0x20 ADD SWAP1 DUP2 MSTORE PUSH1 0x20 ADD PUSH1 0x0 KECCAK256 PUSH1 0x0 SWAP1 SLOAD SWAP1 PUSH2 0x100 EXP SWAP1 DIV PUSH1 0xFF AND SWAP1 POP SWAP3 SWAP2 POP POP JUMP JUMPDEST PUSH2 0x1578 DUP3 DUP3 PUSH2 0x1490 JUMP JUMPDEST ISZERO PUSH2 0x15EB JUMPI PUSH1 0x40 MLOAD PUSH32 0x8C379A000000000000000000000000000000000000000000000000000000000 DUP2 MSTORE PUSH1 0x4 ADD DUP1 DUP1 PUSH1 0x20 ADD DUP3 DUP2 SUB DUP3 MSTORE PUSH1 0x1F DUP2 MSTORE PUSH1 0x20 ADD DUP1 PUSH32 0x526F6C65733A206163636F756E7420616C72656164792068617320726F6C6500 DUP2 MSTORE POP PUSH1 0x20 ADD SWAP2 POP POP PUSH1 0x40 MLOAD DUP1 SWAP2 SUB SWAP1 REVERT JUMPDEST PUSH1 0x1 DUP3 PUSH1 0x0 ADD PUSH1 0x0 DUP4 PUSH20 0xFFFFFFFFFFFFFFFFFFFFFFFFFFFFFFFFFFFFFFFF AND PUSH20 0xFFFFFFFFFFFFFFFFFFFFFFFFFFFFFFFFFFFFFFFF AND DUP2 MSTORE PUSH1 0x20 ADD SWAP1 DUP2 MSTORE PUSH1 0x20 ADD PUSH1 0x0 KECCAK256 PUSH1 0x0 PUSH2 0x100 EXP DUP2 SLOAD DUP2 PUSH1 0xFF MUL NOT AND SWAP1 DUP4 ISZERO ISZERO MUL OR SWAP1 SSTORE POP POP POP JUMP JUMPDEST PUSH2 0x1653 DUP3 DUP3 PUSH2 0x1490 JUMP JUMPDEST PUSH2 0x16A8 JUMPI PUSH1 0x40 MLOAD PUSH32 0x8C379A000000000000000000000000000000000000000000000000000000000 DUP2 MSTORE PUSH1 0x4 ADD DUP1 DUP1 PUSH1 0x20 ADD DUP3 DUP2 SUB DUP3 MSTORE PUSH1 0x21 DUP2 MSTORE PUSH1 0x20 ADD DUP1 PUSH2 0x17A2 PUSH1 0x21 SWAP2 CODECOPY PUSH1 0x40 ADD SWAP2 POP POP PUSH1 0x40 MLOAD DUP1 SWAP2 SUB SWAP1 REVERT JUMPDEST PUSH1 0x0 DUP3 PUSH1 0x0 ADD PUSH1 0x0 DUP4 PUSH20 0xFFFFFFFFFFFFFFFFFFFFFFFFFFFFFFFFFFFFFFFF AND PUSH20 0xFFFFFFFFFFFFFFFFFFFFFFFFFFFFFFFFFFFFFFFF AND DUP2 MSTORE PUSH1 0x20 ADD SWAP1 DUP2 MSTORE PUSH1 0x20 ADD PUSH1 0x0 KECCAK256 PUSH1 0x0 PUSH2 0x100 EXP DUP2 SLOAD DUP2 PUSH1 0xFF MUL NOT AND SWAP1 DUP4 ISZERO ISZERO MUL OR SWAP1 SSTORE POP POP POP JUMP INVALID GASLIMIT MSTORE NUMBER ORIGIN ADDRESS GASPRICE KECCAK256 PUSH21 0x72616E7366657220746F20746865207A65726F2061 PUSH5 0x6472657373 GASLIMIT MSTORE NUMBER ORIGIN ADDRESS GASPRICE KECCAK256 PUSH2 0x7070 PUSH19 0x6F766520746F20746865207A65726F20616464 PUSH19 0x65737345524332303A207472616E7366657220 PUSH2 0x6D6F PUSH22 0x6E7420657863656564732062616C616E63654D696E74 PUSH6 0x72526F6C653A KECCAK256 PUSH4 0x616C6C65 PUSH19 0x20646F6573206E6F7420686176652074686520 0x4D PUSH10 0x6E74657220726F6C6552 PUSH16 0x6C65733A206163636F756E7420646F65 PUSH20 0x206E6F74206861766520726F6C6545524332303A KECCAK256 PUSH21 0x72616E7366657220616D6F756E7420657863656564 PUSH20 0x20616C6C6F77616E6365526F6C65733A20616363 PUSH16 0x756E7420697320746865207A65726F20 PUSH2 0x6464 PUSH19 0x65737345524332303A207472616E7366657220 PUSH7 0x726F6D20746865 KECCAK256 PUSH27 0x65726F206164647265737345524332303A20617070726F76652066 PUSH19 0x6F6D20746865207A65726F2061646472657373 GASLIMIT MSTORE NUMBER ORIGIN ADDRESS GASPRICE KECCAK256 PUSH5 0x6563726561 PUSH20 0x656420616C6C6F77616E63652062656C6F77207A PUSH6 0x726FA265627A PUSH27 0x72315820F7A47907E7D8268F90BBB5243DCD624E7DBA3C6C00A0F7 0xD3 CREATE 0x4D 0xC6 PUSH10 0x5FB0572A64736F6C6343 STOP SDIV GT STOP ORIGIN 0x4D PUSH10 0x6E746572526F6C653A20 PUSH4 0x616C6C65 PUSH19 0x20646F6573206E6F7420686176652074686520 0x4D PUSH10 0x6E74657220726F6C6552 PUSH16 0x6C65733A206163636F756E7420697320 PUSH21 0x6865207A65726F2061646472657373608060405234 DUP1 ISZERO PUSH2 0x10 JUMPI PUSH1 0x0 DUP1 REVERT JUMPDEST POP PUSH1 0x40 MLOAD PUSH2 0xAE9 CODESIZE SUB DUP1 PUSH2 0xAE9 DUP4 CODECOPY DUP2 DUP2 ADD PUSH1 0x40 MSTORE PUSH1 0x60 DUP2 LT ISZERO PUSH2 0x33 JUMPI PUSH1 0x0 DUP1 REVERT JUMPDEST DUP2 ADD SWAP1 DUP1 DUP1 MLOAD SWAP1 PUSH1 0x20 ADD SWAP1 SWAP3 SWAP2 SWAP1 DUP1 MLOAD SWAP1 PUSH1 0x20 ADD SWAP1 SWAP3 SWAP2 SWAP1 DUP1 MLOAD SWAP1 PUSH1 0x20 ADD SWAP1 SWAP3 SWAP2 SWAP1 POP POP POP DUP3 DUP3 DUP3 PUSH1 0x1 PUSH1 0x0 DUP1 PUSH2 0x100 EXP DUP2 SLOAD DUP2 PUSH1 0xFF MUL NOT AND SWAP1 DUP4 ISZERO ISZERO MUL OR SWAP1 SSTORE POP PUSH1 0x0 DUP4 GT PUSH2 0xEB JUMPI PUSH1 0x40 MLOAD PUSH32 0x8C379A000000000000000000000000000000000000000000000000000000000 DUP2 MSTORE PUSH1 0x4 ADD DUP1 DUP1 PUSH1 0x20 ADD DUP3 DUP2 SUB DUP3 MSTORE PUSH1 0x14 DUP2 MSTORE PUSH1 0x20 ADD DUP1 PUSH32 0x43726F776473616C653A20726174652069732030000000000000000000000000 DUP2 MSTORE POP PUSH1 0x20 ADD SWAP2 POP POP PUSH1 0x40 MLOAD DUP1 SWAP2 SUB SWAP1 REVERT JUMPDEST PUSH1 0x0 PUSH20 0xFFFFFFFFFFFFFFFFFFFFFFFFFFFFFFFFFFFFFFFF AND DUP3 PUSH20 0xFFFFFFFFFFFFFFFFFFFFFFFFFFFFFFFFFFFFFFFF AND EQ ISZERO PUSH2 0x171 JUMPI PUSH1 0x40 MLOAD PUSH32 0x8C379A000000000000000000000000000000000000000000000000000000000 DUP2 MSTORE PUSH1 0x4 ADD DUP1 DUP1 PUSH1 0x20 ADD DUP3 DUP2 SUB DUP3 MSTORE PUSH1 0x25 DUP2 MSTORE PUSH1 0x20 ADD DUP1 PUSH2 0xAC4 PUSH1 0x25 SWAP2 CODECOPY PUSH1 0x40 ADD SWAP2 POP POP PUSH1 0x40 MLOAD DUP1 SWAP2 SUB SWAP1 REVERT JUMPDEST PUSH1 0x0 PUSH20 0xFFFFFFFFFFFFFFFFFFFFFFFFFFFFFFFFFFFFFFFF AND DUP2 PUSH20 0xFFFFFFFFFFFFFFFFFFFFFFFFFFFFFFFFFFFFFFFF AND EQ ISZERO PUSH2 0x1F7 JUMPI PUSH1 0x40 MLOAD PUSH32 0x8C379A000000000000000000000000000000000000000000000000000000000 DUP2 MSTORE PUSH1 0x4 ADD DUP1 DUP1 PUSH1 0x20 ADD DUP3 DUP2 SUB DUP3 MSTORE PUSH1 0x24 DUP2 MSTORE PUSH1 0x20 ADD DUP1 PUSH2 0xAA0 PUSH1 0x24 SWAP2 CODECOPY PUSH1 0x40 ADD SWAP2 POP POP PUSH1 0x40 MLOAD DUP1 SWAP2 SUB SWAP1 REVERT JUMPDEST DUP3 PUSH1 0x2 DUP2 SWAP1 SSTORE POP DUP2 PUSH1 0x1 PUSH1 0x0 PUSH2 0x100 EXP DUP2 SLOAD DUP2 PUSH20 0xFFFFFFFFFFFFFFFFFFFFFFFFFFFFFFFFFFFFFFFF MUL NOT AND SWAP1 DUP4 PUSH20 0xFFFFFFFFFFFFFFFFFFFFFFFFFFFFFFFFFFFFFFFF AND MUL OR SWAP1 SSTORE POP DUP1 PUSH1 0x0 PUSH1 0x1 PUSH2 0x100 EXP DUP2 SLOAD DUP2 PUSH20 0xFFFFFFFFFFFFFFFFFFFFFFFFFFFFFFFFFFFFFFFF MUL NOT AND SWAP1 DUP4 PUSH20 0xFFFFFFFFFFFFFFFFFFFFFFFFFFFFFFFFFFFFFFFF AND MUL OR SWAP1 SSTORE POP POP POP POP POP POP POP PUSH2 0x80B DUP1 PUSH2 0x295 PUSH1 0x0 CODECOPY PUSH1 0x0 RETURN INVALID PUSH1 0x80 PUSH1 0x40 MSTORE PUSH1 0x4 CALLDATASIZE LT PUSH2 0x4A JUMPI PUSH1 0x0 CALLDATALOAD PUSH1 0xE0 SHR DUP1 PUSH4 0x2C4E722E EQ PUSH2 0x5C JUMPI DUP1 PUSH4 0x4042B66F EQ PUSH2 0x87 JUMPI DUP1 PUSH4 0x521EB273 EQ PUSH2 0xB2 JUMPI DUP1 PUSH4 0xEC8AC4D8 EQ PUSH2 0x109 JUMPI DUP1 PUSH4 0xFC0C546A EQ PUSH2 0x14D JUMPI JUMPDEST PUSH2 0x5A PUSH2 0x55 PUSH2 0x1A4 JUMP JUMPDEST PUSH2 0x1AC JUMP JUMPDEST STOP JUMPDEST CALLVALUE DUP1 ISZERO PUSH2 0x68 JUMPI PUSH1 0x0 DUP1 REVERT JUMPDEST POP PUSH2 0x71 PUSH2 0x337 JUMP JUMPDEST PUSH1 0x40 MLOAD DUP1 DUP3 DUP2 MSTORE PUSH1 0x20 ADD SWAP2 POP POP PUSH1 0x40 MLOAD DUP1 SWAP2 SUB SWAP1 RETURN JUMPDEST CALLVALUE DUP1 ISZERO PUSH2 0x93 JUMPI PUSH1 0x0 DUP1 REVERT JUMPDEST POP PUSH2 0x9C PUSH2 0x341 JUMP JUMPDEST PUSH1 0x40 MLOAD DUP1 DUP3 DUP2 MSTORE PUSH1 0x20 ADD SWAP2 POP POP PUSH1 0x40 MLOAD DUP1 SWAP2 SUB SWAP1 RETURN JUMPDEST CALLVALUE DUP1 ISZERO PUSH2 0xBE JUMPI PUSH1 0x0 DUP1 REVERT JUMPDEST POP PUSH2 0xC7 PUSH2 0x34B JUMP JUMPDEST PUSH1 0x40 MLOAD DUP1 DUP3 PUSH20 0xFFFFFFFFFFFFFFFFFFFFFFFFFFFFFFFFFFFFFFFF AND PUSH20 0xFFFFFFFFFFFFFFFFFFFFFFFFFFFFFFFFFFFFFFFF AND DUP2 MSTORE PUSH1 0x20 ADD SWAP2 POP POP PUSH1 0x40 MLOAD DUP1 SWAP2 SUB SWAP1 RETURN JUMPDEST PUSH2 0x14B PUSH1 0x4 DUP1 CALLDATASIZE SUB PUSH1 0x20 DUP2 LT ISZERO PUSH2 0x11F JUMPI PUSH1 0x0 DUP1 REVERT JUMPDEST DUP2 ADD SWAP1 DUP1 DUP1 CALLDATALOAD PUSH20 0xFFFFFFFFFFFFFFFFFFFFFFFFFFFFFFFFFFFFFFFF AND SWAP1 PUSH1 0x20 ADD SWAP1 SWAP3 SWAP2 SWAP1 POP POP POP PUSH2 0x1AC JUMP JUMPDEST STOP JUMPDEST CALLVALUE DUP1 ISZERO PUSH2 0x159 JUMPI PUSH1 0x0 DUP1 REVERT JUMPDEST POP PUSH2 0x162 PUSH2 0x375 JUMP JUMPDEST PUSH1 0x40 MLOAD DUP1 DUP3 PUSH20 0xFFFFFFFFFFFFFFFFFFFFFFFFFFFFFFFFFFFFFFFF AND PUSH20 0xFFFFFFFFFFFFFFFFFFFFFFFFFFFFFFFFFFFFFFFF AND DUP2 MSTORE PUSH1 0x20 ADD SWAP2 POP POP PUSH1 0x40 MLOAD DUP1 SWAP2 SUB SWAP1 RETURN JUMPDEST PUSH1 0x0 CALLER SWAP1 POP SWAP1 JUMP JUMPDEST PUSH1 0x0 DUP1 SWAP1 SLOAD SWAP1 PUSH2 0x100 EXP SWAP1 DIV PUSH1 0xFF AND PUSH2 0x22D JUMPI PUSH1 0x40 MLOAD PUSH32 0x8C379A000000000000000000000000000000000000000000000000000000000 DUP2 MSTORE PUSH1 0x4 ADD DUP1 DUP1 PUSH1 0x20 ADD DUP3 DUP2 SUB DUP3 MSTORE PUSH1 0x1F DUP2 MSTORE PUSH1 0x20 ADD DUP1 PUSH32 0x5265656E7472616E637947756172643A207265656E7472616E742063616C6C00 DUP2 MSTORE POP PUSH1 0x20 ADD SWAP2 POP POP PUSH1 0x40 MLOAD DUP1 SWAP2 SUB SWAP1 REVERT JUMPDEST PUSH1 0x0 DUP1 PUSH1 0x0 PUSH2 0x100 EXP DUP2 SLOAD DUP2 PUSH1 0xFF MUL NOT AND SWAP1 DUP4 ISZERO ISZERO MUL OR SWAP1 SSTORE POP PUSH1 0x0 CALLVALUE SWAP1 POP PUSH2 0x256 DUP3 DUP3 PUSH2 0x39E JUMP JUMPDEST PUSH1 0x0 PUSH2 0x261 DUP3 PUSH2 0x49F JUMP JUMPDEST SWAP1 POP PUSH2 0x278 DUP3 PUSH1 0x3 SLOAD PUSH2 0x4BD SWAP1 SWAP2 SWAP1 PUSH4 0xFFFFFFFF AND JUMP JUMPDEST PUSH1 0x3 DUP2 SWAP1 SSTORE POP PUSH2 0x288 DUP4 DUP3 PUSH2 0x545 JUMP JUMPDEST DUP3 PUSH20 0xFFFFFFFFFFFFFFFFFFFFFFFFFFFFFFFFFFFFFFFF AND PUSH2 0x2A7 PUSH2 0x1A4 JUMP JUMPDEST PUSH20 0xFFFFFFFFFFFFFFFFFFFFFFFFFFFFFFFFFFFFFFFF AND PUSH32 0x6FAF93231A456E552DBC9961F58D9713EE4F2E69D15F1975B050EF0911053A7B DUP5 DUP5 PUSH1 0x40 MLOAD DUP1 DUP4 DUP2 MSTORE PUSH1 0x20 ADD DUP3 DUP2 MSTORE PUSH1 0x20 ADD SWAP3 POP POP POP PUSH1 0x40 MLOAD DUP1 SWAP2 SUB SWAP1 LOG3 PUSH2 0x306 DUP4 DUP4 PUSH2 0x553 JUMP JUMPDEST PUSH2 0x30E PUSH2 0x557 JUMP JUMPDEST PUSH2 0x318 DUP4 DUP4 PUSH2 0x5C2 JUMP JUMPDEST POP POP PUSH1 0x1 PUSH1 0x0 DUP1 PUSH2 0x100 EXP DUP2 SLOAD DUP2 PUSH1 0xFF MUL NOT AND SWAP1 DUP4 ISZERO ISZERO MUL OR SWAP1 SSTORE POP POP JUMP JUMPDEST PUSH1 0x0 PUSH1 0x2 SLOAD SWAP1 POP SWAP1 JUMP JUMPDEST PUSH1 0x0 PUSH1 0x3 SLOAD SWAP1 POP SWAP1 JUMP JUMPDEST PUSH1 0x0 PUSH1 0x1 PUSH1 0x0 SWAP1 SLOAD SWAP1 PUSH2 0x100 EXP SWAP1 DIV PUSH20 0xFFFFFFFFFFFFFFFFFFFFFFFFFFFFFFFFFFFFFFFF AND SWAP1 POP SWAP1 JUMP JUMPDEST PUSH1 0x0 DUP1 PUSH1 0x1 SWAP1 SLOAD SWAP1 PUSH2 0x100 EXP SWAP1 DIV PUSH20 0xFFFFFFFFFFFFFFFFFFFFFFFFFFFFFFFFFFFFFFFF AND SWAP1 POP SWAP1 JUMP JUMPDEST PUSH1 0x0 PUSH20 0xFFFFFFFFFFFFFFFFFFFFFFFFFFFFFFFFFFFFFFFF AND DUP3 PUSH20 0xFFFFFFFFFFFFFFFFFFFFFFFFFFFFFFFFFFFFFFFF AND EQ ISZERO PUSH2 0x424 JUMPI PUSH1 0x40 MLOAD PUSH32 0x8C379A000000000000000000000000000000000000000000000000000000000 DUP2 MSTORE PUSH1 0x4 ADD DUP1 DUP1 PUSH1 0x20 ADD DUP3 DUP2 SUB DUP3 MSTORE PUSH1 0x2A DUP2 MSTORE PUSH1 0x20 ADD DUP1 PUSH2 0x7AD PUSH1 0x2A SWAP2 CODECOPY PUSH1 0x40 ADD SWAP2 POP POP PUSH1 0x40 MLOAD DUP1 SWAP2 SUB SWAP1 REVERT JUMPDEST PUSH1 0x0 DUP2 EQ ISZERO PUSH2 0x49B JUMPI PUSH1 0x40 MLOAD PUSH32 0x8C379A000000000000000000000000000000000000000000000000000000000 DUP2 MSTORE PUSH1 0x4 ADD DUP1 DUP1 PUSH1 0x20 ADD DUP3 DUP2 SUB DUP3 MSTORE PUSH1 0x19 DUP2 MSTORE PUSH1 0x20 ADD DUP1 PUSH32 0x43726F776473616C653A20776569416D6F756E74206973203000000000000000 DUP2 MSTORE POP PUSH1 0x20 ADD SWAP2 POP POP PUSH1 0x40 MLOAD DUP1 SWAP2 SUB SWAP1 REVERT JUMPDEST POP POP JUMP JUMPDEST PUSH1 0x0 PUSH2 0x4B6 PUSH1 0x2 SLOAD DUP4 PUSH2 0x5C6 SWAP1 SWAP2 SWAP1 PUSH4 0xFFFFFFFF AND JUMP JUMPDEST SWAP1 POP SWAP2 SWAP1 POP JUMP JUMPDEST PUSH1 0x0 DUP1 DUP3 DUP5 ADD SWAP1 POP DUP4 DUP2 LT ISZERO PUSH2 0x53B JUMPI PUSH1 0x40 MLOAD PUSH32 0x8C379A000000000000000000000000000000000000000000000000000000000 DUP2 MSTORE PUSH1 0x4 ADD DUP1 DUP1 PUSH1 0x20 ADD DUP3 DUP2 SUB DUP3 MSTORE PUSH1 0x1B DUP2 MSTORE PUSH1 0x20 ADD DUP1 PUSH32 0x536166654D6174683A206164646974696F6E206F766572666C6F770000000000 DUP2 MSTORE POP PUSH1 0x20 ADD SWAP2 POP POP PUSH1 0x40 MLOAD DUP1 SWAP2 SUB SWAP1 REVERT JUMPDEST DUP1 SWAP2 POP POP SWAP3 SWAP2 POP POP JUMP JUMPDEST PUSH2 0x54F DUP3 DUP3 PUSH2 0x64C JUMP JUMPDEST POP POP JUMP JUMPDEST POP POP JUMP JUMPDEST PUSH1 0x1 PUSH1 0x0 SWAP1 SLOAD SWAP1 PUSH2 0x100 EXP SWAP1 DIV PUSH20 0xFFFFFFFFFFFFFFFFFFFFFFFFFFFFFFFFFFFFFFFF AND PUSH20 0xFFFFFFFFFFFFFFFFFFFFFFFFFFFFFFFFFFFFFFFF AND PUSH2 0x8FC CALLVALUE SWAP1 DUP2 ISZERO MUL SWAP1 PUSH1 0x40 MLOAD PUSH1 0x0 PUSH1 0x40 MLOAD DUP1 DUP4 SUB DUP2 DUP6 DUP9 DUP9 CALL SWAP4 POP POP POP POP ISZERO DUP1 ISZERO PUSH2 0x5BF JUMPI RETURNDATASIZE PUSH1 0x0 DUP1 RETURNDATACOPY RETURNDATASIZE PUSH1 0x0 REVERT JUMPDEST POP JUMP JUMPDEST POP POP JUMP JUMPDEST PUSH1 0x0 DUP1 DUP4 EQ ISZERO PUSH2 0x5D9 JUMPI PUSH1 0x0 SWAP1 POP PUSH2 0x646 JUMP JUMPDEST PUSH1 0x0 DUP3 DUP5 MUL SWAP1 POP DUP3 DUP5 DUP3 DUP2 PUSH2 0x5EA JUMPI INVALID JUMPDEST DIV EQ PUSH2 0x641 JUMPI PUSH1 0x40 MLOAD PUSH32 0x8C379A000000000000000000000000000000000000000000000000000000000 DUP2 MSTORE PUSH1 0x4 ADD DUP1 DUP1 PUSH1 0x20 ADD DUP3 DUP2 SUB DUP3 MSTORE PUSH1 0x21 DUP2 MSTORE PUSH1 0x20 ADD DUP1 PUSH2 0x78C PUSH1 0x21 SWAP2 CODECOPY PUSH1 0x40 ADD SWAP2 POP POP PUSH1 0x40 MLOAD DUP1 SWAP2 SUB SWAP1 REVERT JUMPDEST DUP1 SWAP2 POP POP JUMPDEST SWAP3 SWAP2 POP POP JUMP JUMPDEST PUSH2 0x654 PUSH2 0x375 JUMP JUMPDEST PUSH20 0xFFFFFFFFFFFFFFFFFFFFFFFFFFFFFFFFFFFFFFFF AND PUSH4 0x40C10F19 DUP4 DUP4 PUSH1 0x40 MLOAD DUP4 PUSH4 0xFFFFFFFF AND PUSH1 0xE0 SHL DUP2 MSTORE PUSH1 0x4 ADD DUP1 DUP4 PUSH20 0xFFFFFFFFFFFFFFFFFFFFFFFFFFFFFFFFFFFFFFFF AND PUSH20 0xFFFFFFFFFFFFFFFFFFFFFFFFFFFFFFFFFFFFFFFF AND DUP2 MSTORE PUSH1 0x20 ADD DUP3 DUP2 MSTORE PUSH1 0x20 ADD SWAP3 POP POP POP PUSH1 0x20 PUSH1 0x40 MLOAD DUP1 DUP4 SUB DUP2 PUSH1 0x0 DUP8 DUP1 EXTCODESIZE ISZERO DUP1 ISZERO PUSH2 0x6DA JUMPI PUSH1 0x0 DUP1 REVERT JUMPDEST POP GAS CALL ISZERO DUP1 ISZERO PUSH2 0x6EE JUMPI RETURNDATASIZE PUSH1 0x0 DUP1 RETURNDATACOPY RETURNDATASIZE PUSH1 0x0 REVERT JUMPDEST POP POP POP POP PUSH1 0x40 MLOAD RETURNDATASIZE PUSH1 0x20 DUP2 LT ISZERO PUSH2 0x704 JUMPI PUSH1 0x0 DUP1 REVERT JUMPDEST DUP2 ADD SWAP1 DUP1 DUP1 MLOAD SWAP1 PUSH1 0x20 ADD SWAP1 SWAP3 SWAP2 SWAP1 POP POP POP PUSH2 0x787 JUMPI PUSH1 0x40 MLOAD PUSH32 0x8C379A000000000000000000000000000000000000000000000000000000000 DUP2 MSTORE PUSH1 0x4 ADD DUP1 DUP1 PUSH1 0x20 ADD DUP3 DUP2 SUB DUP3 MSTORE PUSH1 0x1F DUP2 MSTORE PUSH1 0x20 ADD DUP1 PUSH32 0x4D696E74656443726F776473616C653A206D696E74696E67206661696C656400 DUP2 MSTORE POP PUSH1 0x20 ADD SWAP2 POP POP PUSH1 0x40 MLOAD DUP1 SWAP2 SUB SWAP1 REVERT JUMPDEST POP POP JUMP INVALID MSTORE8 PUSH2 0x6665 0x4D PUSH2 0x7468 GASPRICE KECCAK256 PUSH14 0x756C7469706C69636174696F6E20 PUSH16 0x766572666C6F7743726F776473616C65 GASPRICE KECCAK256 PUSH3 0x656E65 PUSH7 0x69636961727920 PUSH10 0x7320746865207A65726F KECCAK256 PUSH2 0x6464 PUSH19 0x657373A265627A7A723158202C062FDA0C0D1A 0x5F PUSH2 0x8433 EQ PUSH14 0x74334C25BC2821D72A712DA6D084 0x27 GAS 0xBB 0xED LT PUSH5 0x736F6C6343 STOP SDIV GT STOP ORIGIN NUMBER PUSH19 0x6F776473616C653A20746F6B656E2069732074 PUSH9 0x65207A65726F206164 PUSH5 0x7265737343 PUSH19 0x6F776473616C653A2077616C6C657420697320 PUSH21 0x6865207A65726F2061646472657373000000000000 "
				},
				"gasEstimates": {
					"creation": {
						"codeDepositCost": "67000",
						"executionCost": "infinite",
						"totalCost": "infinite"
					},
					"external": {
						"kasei_crowdsale_address()": "1031",
						"kasei_token_address()": "1053"
					}
				},
				"methodIdentifiers": {
					"kasei_crowdsale_address()": "0f0b4619",
					"kasei_token_address()": "2ab6a2a1"
				}
			},
			"storageLayout": {
				"storage": [
					{
						"astId": 59,
						"contract": "KaseiCoinCrowdsale.sol:KaseiCoinCrowdsaleDeployer",
						"label": "kasei_token_address",
						"offset": 0,
						"slot": "0",
						"type": "t_address"
					},
					{
						"astId": 61,
						"contract": "KaseiCoinCrowdsale.sol:KaseiCoinCrowdsaleDeployer",
						"label": "kasei_crowdsale_address",
						"offset": 0,
						"slot": "1",
						"type": "t_address"
					}
				],
				"types": {
					"t_address": {
						"encoding": "inplace",
						"label": "address",
						"numberOfBytes": "20"
					}
				}
			},
			"userdoc": {
				"methods": {}
			}
		}
	}
}